{
  "_format": "hh-sol-artifact-1",
  "contractName": "Dojo",
  "sourceName": "contracts/Dojo.sol",
  "abi": [
    {
      "inputs": [],
      "stateMutability": "nonpayable",
      "type": "constructor"
    },
    {
      "anonymous": false,
      "inputs": [
        {
          "indexed": true,
          "internalType": "address",
          "name": "owner",
          "type": "address"
        },
        {
          "indexed": true,
          "internalType": "address",
          "name": "spender",
          "type": "address"
        },
        {
          "indexed": false,
          "internalType": "uint256",
          "name": "value",
          "type": "uint256"
        }
      ],
      "name": "Approval",
      "type": "event"
    },
    {
      "anonymous": false,
      "inputs": [
        {
          "indexed": false,
          "internalType": "uint256",
          "name": "assignmentId",
          "type": "uint256"
        },
        {
          "indexed": true,
          "internalType": "address",
          "name": "teacher",
          "type": "address"
        },
        {
          "indexed": false,
          "internalType": "uint8",
          "name": "bounty",
          "type": "uint8"
        }
      ],
      "name": "AssignmentCreated",
      "type": "event"
    },
    {
      "anonymous": false,
      "inputs": [
        {
          "indexed": false,
          "internalType": "uint256",
          "name": "classId",
          "type": "uint256"
        },
        {
          "indexed": true,
          "internalType": "string",
          "name": "className",
          "type": "string"
        },
        {
          "indexed": false,
          "internalType": "uint8",
          "name": "cost",
          "type": "uint8"
        },
        {
          "indexed": true,
          "internalType": "address",
          "name": "teacher",
          "type": "address"
        }
      ],
      "name": "ClassCreated",
      "type": "event"
    },
    {
      "anonymous": false,
      "inputs": [
        {
          "indexed": false,
          "internalType": "uint256",
          "name": "consultId",
          "type": "uint256"
        },
        {
          "indexed": true,
          "internalType": "address",
          "name": "teacher",
          "type": "address"
        },
        {
          "indexed": false,
          "internalType": "uint8",
          "name": "stake",
          "type": "uint8"
        },
        {
          "indexed": false,
          "internalType": "uint8",
          "name": "capacity",
          "type": "uint8"
        }
      ],
      "name": "ConsultCreated",
      "type": "event"
    },
    {
      "anonymous": false,
      "inputs": [
        {
          "indexed": true,
          "internalType": "bytes32",
          "name": "role",
          "type": "bytes32"
        },
        {
          "indexed": true,
          "internalType": "bytes32",
          "name": "previousAdminRole",
          "type": "bytes32"
        },
        {
          "indexed": true,
          "internalType": "bytes32",
          "name": "newAdminRole",
          "type": "bytes32"
        }
      ],
      "name": "RoleAdminChanged",
      "type": "event"
    },
    {
      "anonymous": false,
      "inputs": [
        {
          "indexed": true,
          "internalType": "bytes32",
          "name": "role",
          "type": "bytes32"
        },
        {
          "indexed": true,
          "internalType": "address",
          "name": "account",
          "type": "address"
        },
        {
          "indexed": true,
          "internalType": "address",
          "name": "sender",
          "type": "address"
        }
      ],
      "name": "RoleGranted",
      "type": "event"
    },
    {
      "anonymous": false,
      "inputs": [
        {
          "indexed": true,
          "internalType": "bytes32",
          "name": "role",
          "type": "bytes32"
        },
        {
          "indexed": true,
          "internalType": "address",
          "name": "account",
          "type": "address"
        },
        {
          "indexed": true,
          "internalType": "address",
          "name": "sender",
          "type": "address"
        }
      ],
      "name": "RoleRevoked",
      "type": "event"
    },
    {
      "anonymous": false,
      "inputs": [
        {
          "indexed": true,
          "internalType": "string",
          "name": "name",
          "type": "string"
        },
        {
          "indexed": true,
          "internalType": "address",
          "name": "wallet",
          "type": "address"
        }
      ],
      "name": "StudentCreated",
      "type": "event"
    },
    {
      "anonymous": false,
      "inputs": [
        {
          "indexed": true,
          "internalType": "string",
          "name": "name",
          "type": "string"
        },
        {
          "indexed": true,
          "internalType": "address",
          "name": "wallet",
          "type": "address"
        }
      ],
      "name": "TeacherCreated",
      "type": "event"
    },
    {
      "anonymous": false,
      "inputs": [
        {
          "indexed": true,
          "internalType": "address",
          "name": "from",
          "type": "address"
        },
        {
          "indexed": true,
          "internalType": "address",
          "name": "to",
          "type": "address"
        },
        {
          "indexed": false,
          "internalType": "uint256",
          "name": "value",
          "type": "uint256"
        }
      ],
      "name": "Transfer",
      "type": "event"
    },
    {
      "inputs": [],
      "name": "DEFAULT_ADMIN_ROLE",
      "outputs": [
        {
          "internalType": "bytes32",
          "name": "",
          "type": "bytes32"
        }
      ],
      "stateMutability": "view",
      "type": "function"
    },
    {
      "inputs": [],
      "name": "PRINCIPAL_ROLE",
      "outputs": [
        {
          "internalType": "bytes32",
          "name": "",
          "type": "bytes32"
        }
      ],
      "stateMutability": "view",
      "type": "function"
    },
    {
      "inputs": [],
      "name": "STUDENT_ROLE",
      "outputs": [
        {
          "internalType": "bytes32",
          "name": "",
          "type": "bytes32"
        }
      ],
      "stateMutability": "view",
      "type": "function"
    },
    {
      "inputs": [],
      "name": "STUDENT_STARTING_AMOUNT",
      "outputs": [
        {
          "internalType": "uint8",
          "name": "",
          "type": "uint8"
        }
      ],
      "stateMutability": "view",
      "type": "function"
    },
    {
      "inputs": [],
      "name": "TEACHER_ROLE",
      "outputs": [
        {
          "internalType": "bytes32",
          "name": "",
          "type": "bytes32"
        }
      ],
      "stateMutability": "view",
      "type": "function"
    },
    {
      "inputs": [
        {
          "internalType": "string",
          "name": "name",
          "type": "string"
        },
        {
          "internalType": "address",
          "name": "wallet",
          "type": "address"
        }
      ],
      "name": "addStudent",
      "outputs": [],
      "stateMutability": "nonpayable",
      "type": "function"
    },
    {
      "inputs": [
        {
          "internalType": "string",
          "name": "name",
          "type": "string"
        },
        {
          "internalType": "address",
          "name": "wallet",
          "type": "address"
        }
      ],
      "name": "addTeacher",
      "outputs": [],
      "stateMutability": "nonpayable",
      "type": "function"
    },
    {
      "inputs": [
        {
          "internalType": "address",
          "name": "owner",
          "type": "address"
        },
        {
          "internalType": "address",
          "name": "spender",
          "type": "address"
        }
      ],
      "name": "allowance",
      "outputs": [
        {
          "internalType": "uint256",
          "name": "",
          "type": "uint256"
        }
      ],
      "stateMutability": "view",
      "type": "function"
    },
    {
      "inputs": [
        {
          "internalType": "address",
          "name": "spender",
          "type": "address"
        },
        {
          "internalType": "uint256",
          "name": "amount",
          "type": "uint256"
        }
      ],
      "name": "approve",
      "outputs": [
        {
          "internalType": "bool",
          "name": "",
          "type": "bool"
        }
      ],
      "stateMutability": "nonpayable",
      "type": "function"
    },
    {
      "inputs": [
        {
          "internalType": "uint256",
          "name": "assignmentId",
          "type": "uint256"
        }
      ],
      "name": "approveAssignment",
      "outputs": [],
      "stateMutability": "nonpayable",
      "type": "function"
    },
    {
      "inputs": [
        {
          "internalType": "uint256",
          "name": "",
          "type": "uint256"
        }
      ],
      "name": "assignments",
      "outputs": [
        {
          "internalType": "uint256",
          "name": "assignmentId",
          "type": "uint256"
        },
        {
          "internalType": "string",
          "name": "description",
          "type": "string"
        },
        {
          "internalType": "address",
          "name": "teacher",
          "type": "address"
        },
        {
          "internalType": "uint8",
          "name": "bounty",
          "type": "uint8"
        },
        {
          "internalType": "address",
          "name": "participant",
          "type": "address"
        },
        {
          "internalType": "enum Dojo.AssignmentApprovalState",
          "name": "state",
          "type": "uint8"
        }
      ],
      "stateMutability": "view",
      "type": "function"
    },
    {
      "inputs": [
        {
          "internalType": "address",
          "name": "account",
          "type": "address"
        }
      ],
      "name": "balanceOf",
      "outputs": [
        {
          "internalType": "uint256",
          "name": "",
          "type": "uint256"
        }
      ],
      "stateMutability": "view",
      "type": "function"
    },
    {
      "inputs": [
        {
          "internalType": "uint256",
          "name": "",
          "type": "uint256"
        }
      ],
      "name": "classes",
      "outputs": [
        {
          "internalType": "uint256",
          "name": "classId",
          "type": "uint256"
        },
        {
          "internalType": "string",
          "name": "name",
          "type": "string"
        },
        {
          "internalType": "uint8",
          "name": "cost",
          "type": "uint8"
        },
        {
          "internalType": "address",
          "name": "teacher",
          "type": "address"
        }
      ],
      "stateMutability": "view",
      "type": "function"
    },
    {
      "inputs": [
        {
          "internalType": "uint256",
          "name": "",
          "type": "uint256"
        }
      ],
      "name": "consults",
      "outputs": [
        {
          "internalType": "uint256",
          "name": "consultId",
          "type": "uint256"
        },
        {
          "internalType": "address",
          "name": "teacher",
          "type": "address"
        },
        {
          "internalType": "uint8",
          "name": "stake",
          "type": "uint8"
        },
        {
          "internalType": "uint8",
          "name": "capacity",
          "type": "uint8"
        }
      ],
      "stateMutability": "view",
      "type": "function"
    },
    {
      "inputs": [
        {
          "internalType": "uint8",
          "name": "bounty",
          "type": "uint8"
        },
        {
          "internalType": "string",
          "name": "description",
          "type": "string"
        }
      ],
      "name": "createAssignment",
      "outputs": [],
      "stateMutability": "nonpayable",
      "type": "function"
    },
    {
      "inputs": [
        {
          "internalType": "string",
          "name": "name",
          "type": "string"
        },
        {
          "internalType": "uint8",
          "name": "cost",
          "type": "uint8"
        }
      ],
      "name": "createClass",
      "outputs": [],
      "stateMutability": "nonpayable",
      "type": "function"
    },
    {
      "inputs": [
        {
          "internalType": "uint8",
          "name": "stake",
          "type": "uint8"
        },
        {
          "internalType": "uint8",
          "name": "capacity",
          "type": "uint8"
        }
      ],
      "name": "createConsult",
      "outputs": [],
      "stateMutability": "nonpayable",
      "type": "function"
    },
    {
      "inputs": [],
      "name": "decimals",
      "outputs": [
        {
          "internalType": "uint8",
          "name": "",
          "type": "uint8"
        }
      ],
      "stateMutability": "view",
      "type": "function"
    },
    {
      "inputs": [
        {
          "internalType": "address",
          "name": "spender",
          "type": "address"
        },
        {
          "internalType": "uint256",
          "name": "subtractedValue",
          "type": "uint256"
        }
      ],
      "name": "decreaseAllowance",
      "outputs": [
        {
          "internalType": "bool",
          "name": "",
          "type": "bool"
        }
      ],
      "stateMutability": "nonpayable",
      "type": "function"
    },
    {
      "inputs": [
        {
          "internalType": "uint256",
          "name": "assignmentId",
          "type": "uint256"
        }
      ],
      "name": "getAssignmentInfo",
      "outputs": [
        {
          "internalType": "uint256",
          "name": "",
          "type": "uint256"
        },
        {
          "internalType": "string",
          "name": "",
          "type": "string"
        },
        {
          "internalType": "address",
          "name": "",
          "type": "address"
        },
        {
          "internalType": "uint8",
          "name": "",
          "type": "uint8"
        },
        {
          "internalType": "address",
          "name": "",
          "type": "address"
        },
        {
          "internalType": "enum Dojo.AssignmentApprovalState",
          "name": "",
          "type": "uint8"
        }
      ],
      "stateMutability": "view",
      "type": "function"
    },
    {
      "inputs": [
        {
          "internalType": "uint256",
          "name": "classId",
          "type": "uint256"
        }
      ],
      "name": "getClassInfo",
      "outputs": [
        {
          "internalType": "uint256",
          "name": "",
          "type": "uint256"
        },
        {
          "internalType": "string",
          "name": "",
          "type": "string"
        },
        {
          "internalType": "uint8",
          "name": "",
          "type": "uint8"
        },
        {
          "internalType": "address",
          "name": "",
          "type": "address"
        },
        {
          "internalType": "address[]",
          "name": "",
          "type": "address[]"
        }
      ],
      "stateMutability": "view",
      "type": "function"
    },
    {
      "inputs": [
        {
          "internalType": "uint256",
          "name": "consultId",
          "type": "uint256"
        }
      ],
      "name": "getConsultInfo",
      "outputs": [
        {
          "internalType": "uint256",
          "name": "",
          "type": "uint256"
        },
        {
          "internalType": "address",
          "name": "",
          "type": "address"
        },
        {
          "internalType": "uint8",
          "name": "",
          "type": "uint8"
        },
        {
          "internalType": "uint8",
          "name": "",
          "type": "uint8"
        },
        {
          "internalType": "address[]",
          "name": "",
          "type": "address[]"
        }
      ],
      "stateMutability": "view",
      "type": "function"
    },
    {
      "inputs": [
        {
          "internalType": "bytes32",
          "name": "role",
          "type": "bytes32"
        }
      ],
      "name": "getRoleAdmin",
      "outputs": [
        {
          "internalType": "bytes32",
          "name": "",
          "type": "bytes32"
        }
      ],
      "stateMutability": "view",
      "type": "function"
    },
    {
      "inputs": [],
      "name": "getTeachers",
      "outputs": [
        {
          "internalType": "address[]",
          "name": "",
          "type": "address[]"
        }
      ],
      "stateMutability": "view",
      "type": "function"
    },
    {
      "inputs": [
        {
          "internalType": "bytes32",
          "name": "role",
          "type": "bytes32"
        },
        {
          "internalType": "address",
          "name": "account",
          "type": "address"
        }
      ],
      "name": "grantRole",
      "outputs": [],
      "stateMutability": "nonpayable",
      "type": "function"
    },
    {
      "inputs": [
        {
          "internalType": "bytes32",
          "name": "role",
          "type": "bytes32"
        },
        {
          "internalType": "address",
          "name": "account",
          "type": "address"
        }
      ],
      "name": "hasRole",
      "outputs": [
        {
          "internalType": "bool",
          "name": "",
          "type": "bool"
        }
      ],
      "stateMutability": "view",
      "type": "function"
    },
    {
      "inputs": [
        {
          "internalType": "address",
          "name": "spender",
          "type": "address"
        },
        {
          "internalType": "uint256",
          "name": "addedValue",
          "type": "uint256"
        }
      ],
      "name": "increaseAllowance",
      "outputs": [
        {
          "internalType": "bool",
          "name": "",
          "type": "bool"
        }
      ],
      "stateMutability": "nonpayable",
      "type": "function"
    },
    {
      "inputs": [
        {
          "internalType": "uint256",
          "name": "consultId",
          "type": "uint256"
        },
        {
          "internalType": "address",
          "name": "studentAddr",
          "type": "address"
        }
      ],
      "name": "markConsultAttendance",
      "outputs": [],
      "stateMutability": "nonpayable",
      "type": "function"
    },
    {
      "inputs": [
        {
          "internalType": "uint256",
          "name": "amount",
          "type": "uint256"
        }
      ],
      "name": "mint",
      "outputs": [],
      "stateMutability": "nonpayable",
      "type": "function"
    },
    {
      "inputs": [],
      "name": "name",
      "outputs": [
        {
          "internalType": "string",
          "name": "",
          "type": "string"
        }
      ],
      "stateMutability": "view",
      "type": "function"
    },
    {
      "inputs": [],
      "name": "nextAssignmentId",
      "outputs": [
        {
          "internalType": "uint256",
          "name": "",
          "type": "uint256"
        }
      ],
      "stateMutability": "view",
      "type": "function"
    },
    {
      "inputs": [],
      "name": "nextClassId",
      "outputs": [
        {
          "internalType": "uint256",
          "name": "",
          "type": "uint256"
        }
      ],
      "stateMutability": "view",
      "type": "function"
    },
    {
      "inputs": [],
      "name": "nextConsultId",
      "outputs": [
        {
          "internalType": "uint256",
          "name": "",
          "type": "uint256"
        }
      ],
      "stateMutability": "view",
      "type": "function"
    },
    {
      "inputs": [],
      "name": "numStudents",
      "outputs": [
        {
          "internalType": "uint256",
          "name": "",
          "type": "uint256"
        }
      ],
      "stateMutability": "view",
      "type": "function"
    },
    {
      "inputs": [],
      "name": "numTeachers",
      "outputs": [
        {
          "internalType": "uint256",
          "name": "",
          "type": "uint256"
        }
      ],
      "stateMutability": "view",
      "type": "function"
    },
    {
      "inputs": [
        {
          "internalType": "uint256",
          "name": "assignmentId",
          "type": "uint256"
        }
      ],
      "name": "payOutAssignment",
      "outputs": [],
      "stateMutability": "nonpayable",
      "type": "function"
    },
    {
      "inputs": [
        {
          "internalType": "bytes32",
          "name": "role",
          "type": "bytes32"
        },
        {
          "internalType": "address",
          "name": "account",
          "type": "address"
        }
      ],
      "name": "renounceRole",
      "outputs": [],
      "stateMutability": "nonpayable",
      "type": "function"
    },
    {
      "inputs": [
        {
          "internalType": "bytes32",
          "name": "role",
          "type": "bytes32"
        },
        {
          "internalType": "address",
          "name": "account",
          "type": "address"
        }
      ],
      "name": "revokeRole",
      "outputs": [],
      "stateMutability": "nonpayable",
      "type": "function"
    },
    {
      "inputs": [
        {
          "internalType": "uint256",
          "name": "assignmentId",
          "type": "uint256"
        }
      ],
      "name": "signUpForAssignment",
      "outputs": [],
      "stateMutability": "nonpayable",
      "type": "function"
    },
    {
      "inputs": [
        {
          "internalType": "uint256",
          "name": "classId",
          "type": "uint256"
        }
      ],
      "name": "signUpForClass",
      "outputs": [],
      "stateMutability": "nonpayable",
      "type": "function"
    },
    {
      "inputs": [
        {
          "internalType": "uint256",
          "name": "consultId",
          "type": "uint256"
        }
      ],
      "name": "signUpForConsult",
      "outputs": [],
      "stateMutability": "nonpayable",
      "type": "function"
    },
    {
      "inputs": [
        {
          "internalType": "address",
          "name": "",
          "type": "address"
        }
      ],
      "name": "students",
      "outputs": [
        {
          "internalType": "string",
          "name": "name",
          "type": "string"
        },
        {
          "internalType": "address",
          "name": "wallet",
          "type": "address"
        }
      ],
      "stateMutability": "view",
      "type": "function"
    },
    {
      "inputs": [
        {
          "internalType": "bytes4",
          "name": "interfaceId",
          "type": "bytes4"
        }
      ],
      "name": "supportsInterface",
      "outputs": [
        {
          "internalType": "bool",
          "name": "",
          "type": "bool"
        }
      ],
      "stateMutability": "view",
      "type": "function"
    },
    {
      "inputs": [],
      "name": "symbol",
      "outputs": [
        {
          "internalType": "string",
          "name": "",
          "type": "string"
        }
      ],
      "stateMutability": "view",
      "type": "function"
    },
    {
      "inputs": [
        {
          "internalType": "uint256",
          "name": "",
          "type": "uint256"
        }
      ],
      "name": "teacherAddresses",
      "outputs": [
        {
          "internalType": "address",
          "name": "",
          "type": "address"
        }
      ],
      "stateMutability": "view",
      "type": "function"
    },
    {
      "inputs": [
        {
          "internalType": "address",
          "name": "",
          "type": "address"
        }
      ],
      "name": "teachers",
      "outputs": [
        {
          "internalType": "string",
          "name": "name",
          "type": "string"
        },
        {
          "internalType": "address",
          "name": "wallet",
          "type": "address"
        }
      ],
      "stateMutability": "view",
      "type": "function"
    },
    {
      "inputs": [],
      "name": "totalSupply",
      "outputs": [
        {
          "internalType": "uint256",
          "name": "",
          "type": "uint256"
        }
      ],
      "stateMutability": "view",
      "type": "function"
    },
    {
      "inputs": [
        {
          "internalType": "address",
          "name": "to",
          "type": "address"
        },
        {
          "internalType": "uint256",
          "name": "amount",
          "type": "uint256"
        }
      ],
      "name": "transfer",
      "outputs": [
        {
          "internalType": "bool",
          "name": "",
          "type": "bool"
        }
      ],
      "stateMutability": "nonpayable",
      "type": "function"
    },
    {
      "inputs": [
        {
          "internalType": "address",
          "name": "from",
          "type": "address"
        },
        {
          "internalType": "address",
          "name": "to",
          "type": "address"
        },
        {
          "internalType": "uint256",
          "name": "amount",
          "type": "uint256"
        }
      ],
      "name": "transferFrom",
      "outputs": [
        {
          "internalType": "bool",
          "name": "",
          "type": "bool"
        }
      ],
      "stateMutability": "nonpayable",
      "type": "function"
    }
  ],
  "bytecode": "0x60806040523480156200001157600080fd5b506040518060400160405280600a8152602001692237b537902a37b5b2b760b11b81525060405180604001604052806004815260200163444f4a4f60e01b81525081600490805190602001906200006a9291906200017d565b508051620000809060059060208401906200017d565b505050620000b57f1b8aa89fea4f5cfa20af0b8bb319a2ddab4efa8f9d1c5d0e5259a7a8649175af33620000cd60201b60201c565b600680546001600160a01b0319163317905562000260565b620000d98282620000dd565b5050565b6000828152602081815260408083206001600160a01b038516845290915290205460ff16620000d9576000828152602081815260408083206001600160a01b03851684529091529020805460ff19166001179055620001393390565b6001600160a01b0316816001600160a01b0316837f2f8788117e7eff1d82e926ec794901d17c78024a50270940304540a733656f0d60405160405180910390a45050565b8280546200018b9062000223565b90600052602060002090601f016020900481019282620001af5760008555620001fa565b82601f10620001ca57805160ff1916838001178555620001fa565b82800160010185558215620001fa579182015b82811115620001fa578251825591602001919060010190620001dd565b50620002089291506200020c565b5090565b5b808211156200020857600081556001016200020d565b600181811c908216806200023857607f821691505b602082108114156200025a57634e487b7160e01b600052602260045260246000fd5b50919050565b61490080620002706000396000f3fe608060405234801561001057600080fd5b506004361061032b5760003560e01c80636ca8cc8c116101b2578063a6c807a9116100f9578063dd62ed3e116100a2578063f7be43fb1161007c578063f7be43fb146107ba578063f8240aed146107e1578063fc0323ad146107f4578063ffc92a621461080757600080fd5b8063dd62ed3e1461075b578063ea9e866814610794578063f0a47f78146107a757600080fd5b8063b9adc019116100d3578063b9adc019146106a6578063d547741f1461071d578063d8aef47e1461073057600080fd5b8063a6c807a91461065f578063a6ec472814610680578063a9059cbb1461069357600080fd5b806391d148541161015b578063a217fddf11610135578063a217fddf14610631578063a36042db14610639578063a457c2d71461064c57600080fd5b806391d14854146105df57806395d89b4114610616578063a0712d681461061e57600080fd5b8063817dbe9f1161018c578063817dbe9f146105825780638255da5b146105a557806386e5c15a146105b857600080fd5b80636ca8cc8c146105475780636e8185981461055057806370a082311461055957600080fd5b8063313ce567116102765780634e50c75c1161021f578063540bfb72116101f9578063540bfb72146105075780635a3f757c1461052b5780636c815d211461053e57600080fd5b80634e50c75c146104c7578063505b0e03146104ec5780635137fdaa146104f457600080fd5b8063395093511161025057806339509351146104985780633cd2c1e4146104ab5780633d0cef8d146104be57600080fd5b8063313ce5671461044c57806336568abe14610461578063384fc47b1461047457600080fd5b806318160ddd116102d857806325c3385f116102b257806325c3385f146103fd5780632d4bf154146104245780632f2ff15d1461043957600080fd5b806318160ddd146103bf57806323b872dd146103c7578063248a9ca3146103da57600080fd5b80630afad82d116103095780630afad82d146103805780630e31dd651461039757806310468c2f146103ac57600080fd5b806301ffc9a71461033057806306fdde0314610358578063095ea7b31461036d575b600080fd5b61034361033e366004614404565b61081a565b60405190151581526020015b60405180910390f35b6103606108b3565b60405161034f919061466c565b61034361037b3660046143a1565b610945565b61038960085481565b60405190815260200161034f565b6103aa6103a53660046143ca565b61095d565b005b6103aa6103ba366004614444565b610cca565b600354610389565b6103436103d5366004614366565b6110d4565b6103896103e83660046143ca565b60009081526020819052604090206001015490565b6103897f1b8aa89fea4f5cfa20af0b8bb319a2ddab4efa8f9d1c5d0e5259a7a8649175af81565b61042c6110f8565b60405161034f9190614659565b6103aa6104473660046143e2565b611159565b60125b60405160ff909116815260200161034f565b6103aa61046f3660046143e2565b611183565b6104876104823660046143ca565b61120f565b60405161034f9594939291906146aa565b6103436104a63660046143a1565b61140a565b6103aa6104b93660046143ca565b611449565b61038960075481565b6104da6104d53660046143ca565b6116b8565b60405161034f969594939291906146ef565b61044f600581565b6103aa6105023660046143e2565b611789565b61051a6105153660046143ca565b611b2b565b60405161034f959493929190614795565b6103aa610539366004614496565b611e4a565b610389600a5481565b61038960095481565b610389600b5481565b61038961056736600461431a565b6001600160a01b031660009081526001602052604090205490565b6105956105903660046143ca565b61203f565b60405161034f9493929190614759565b6103aa6105b33660046144df565b6120fe565b6103897fd16e204b8a42a15ab0ea6bb8ec1ecdfbe69f38074fc865323af19efe7d9573d981565b6103436105ed3660046143e2565b6000918252602082815260408084206001600160a01b0393909316845291905290205460ff1690565b610360612399565b6103aa61062c3660046143ca565b6123a8565b610389600081565b6103aa610647366004614444565b612433565b61034361065a3660046143a1565b6127f6565b61067261066d36600461431a565b6128a0565b60405161034f92919061467f565b6104da61068e3660046143ca565b61294d565b6103436106a13660046143a1565b612c5c565b6106ec6106b43660046143ca565b601060205260009081526040902080546001909101546001600160a01b0381169060ff600160a01b8204811691600160a81b90041684565b604080519485526001600160a01b03909316602085015260ff9182169284019290925216606082015260800161034f565b6103aa61072b3660046143e2565b612c6a565b61074361073e3660046143ca565b612c8f565b6040516001600160a01b03909116815260200161034f565b610389610769366004614334565b6001600160a01b03918216600090815260026020908152604080832093909416825291909152205490565b6103aa6107a23660046143ca565b612cb9565b6106726107b536600461431a565b6130e2565b6103897f36a5c4aaacb6b388bbd448bf11096b7dafc5652bcc9046084fd0e95b1fb0b2cc81565b6103aa6107ef3660046143ca565b6130fd565b6103aa610802366004614530565b6133ce565b6103aa6108153660046143ca565b61354a565b60007fffffffff0000000000000000000000000000000000000000000000000000000082167f7965db0b0000000000000000000000000000000000000000000000000000000014806108ad57507f01ffc9a7000000000000000000000000000000000000000000000000000000007fffffffff000000000000000000000000000000000000000000000000000000008316145b92915050565b6060600480546108c29061485e565b80601f01602080910402602001604051908101604052809291908181526020018280546108ee9061485e565b801561093b5780601f106109105761010080835404028352916020019161093b565b820191906000526020600020905b81548152906001019060200180831161091e57829003601f168201915b5050505050905090565b6000336109538185856138dd565b5060019392505050565b3360009081527f367a0034d391753fe6c9264898af6f14ce9baa3417708a6b9910903ee032526d602052604090205460ff166109e05760405162461bcd60e51b815260206004820152601760248201527f43616c6c6572206973206e6f7420612073747564656e7400000000000000000060448201526064015b60405180910390fd5b6000818152601160209081526040808320815160c081019092528054825260018101805486959484019190610a149061485e565b80601f0160208091040260200160405190810160405280929190818152602001828054610a409061485e565b8015610a8d5780601f10610a6257610100808354040283529160200191610a8d565b820191906000526020600020905b815481529060010190602001808311610a7057829003601f168201915b50505091835250506002828101546001600160a01b03808216602085015260ff600160a01b9283900481166040860152600386015491821660608601526080909401939190041690811115610af257634e487b7160e01b600052602160045260246000fd5b6002811115610b1157634e487b7160e01b600052602160045260246000fd5b90525060408101519091506001600160a01b0316610b715760405162461bcd60e51b815260206004820152601960248201527f41737369676e6d656e7420646f6573206e6f742065786973740000000000000060448201526064016109d7565b600083815260116020526040902060016003820154600160a01b900460ff166002811115610baf57634e487b7160e01b600052602160045260246000fd5b14610bfc5760405162461bcd60e51b815260206004820152601b60248201527f41737369676e6d656e74206e6f7420617070726f76656420796574000000000060448201526064016109d7565b60038101546001600160a01b031615610c7c5760405162461bcd60e51b8152602060048201526024808201527f41737369676e6d656e7420616c7265616479206861732061207061727469636960448201527f70616e740000000000000000000000000000000000000000000000000000000060648201526084016109d7565b6003810180546001600160a01b031916339081179091556000908152600e602090815260408083208784526004810190925290912080546001919060ff191682805b02179055505050505050565b3360009081527f33b3b3ea0d075ccba1b1f127cfd5d5003c22cb56907f29a4a8655546d07a7dcb602052604090205460ff16610d485760405162461bcd60e51b815260206004820152601b60248201527f43616c6c6572206973206e6f7420746865207072696e636970616c000000000060448201526064016109d7565b6001600160a01b03811660009081527f33b3b3ea0d075ccba1b1f127cfd5d5003c22cb56907f29a4a8655546d07a7dcb6020526040902054819060ff1615610ddc5760405162461bcd60e51b815260206004820152602160248201527f57616c6c657420616c726561647920686173207072696e636970616c20726f6c6044820152606560f81b60648201526084016109d7565b6001600160a01b03811660009081527fcf98a50713a46bc7d810e98b1cc1a3fcb3a8dfd74ea22d9ee00b2bbfaa2edc01602052604090205460ff1615610e705760405162461bcd60e51b815260206004820152602360248201527f57616c6c657420616c72656164792068617320746865207465616368657220726044820152626f6c6560e81b60648201526084016109d7565b6001600160a01b03811660009081527f367a0034d391753fe6c9264898af6f14ce9baa3417708a6b9910903ee032526d602052604090205460ff1615610f045760405162461bcd60e51b815260206004820152602360248201527f57616c6c657420616c726561647920686173207468652073747564656e7420726044820152626f6c6560e81b60648201526084016109d7565b83838080601f016020809104026020016040519081016040528093929190818152602001838380828437600092019190915250610f469250839150613a359050565b15610f935760405162461bcd60e51b815260206004820152601660248201527f537472696e672063616e6e6f7420626520656d7074790000000000000000000060448201526064016109d7565b3060009081526001602052604090205460051115610ffd5760405162461bcd60e51b815260206004820152602160248201527f54726561737572792068617320696e73756666696369656e742062616c616e636044820152606560f81b60648201526084016109d7565b61100930846005613a3a565b6110337f36a5c4aaacb6b388bbd448bf11096b7dafc5652bcc9046084fd0e95b1fb0b2cc84613c51565b6001600160a01b0383166000908152600e60205260409020611056818787614199565b506001810180546001600160a01b0319166001600160a01b03861690811790915560405161108790889088906145c8565b604051908190038120907fa3b545e47f99e31ea1fc5b0f00322c9b1425d3da179a8903d91ac23b8928dc6090600090a3600880549060006110c783614899565b9190505550505050505050565b6000336110e2858285613c5b565b6110ed858585613a3a565b506001949350505050565b6060600d80548060200260200160405190810160405280929190818152602001828054801561093b57602002820191906000526020600020905b81546001600160a01b03168152600190910190602001808311611132575050505050905090565b60008281526020819052604090206001015461117481613ce7565b61117e8383613cf1565b505050565b6001600160a01b03811633146112015760405162461bcd60e51b815260206004820152602f60248201527f416363657373436f6e74726f6c3a2063616e206f6e6c792072656e6f756e636560448201527f20726f6c657320666f722073656c66000000000000000000000000000000000060648201526084016109d7565b61120b8282613d8f565b5050565b6000818152601060209081526040808320815160a0810183528154815260018201546001600160a01b0381168286015260ff600160a01b8204811683860152600160a81b9091041660608281019190915260028301805485518188028101880190965280865287968796879694958b9588959194909360808601939291908301828280156112c657602002820191906000526020600020905b81546001600160a01b031681526001909101906020018083116112a8575b5050509190925250505060208101519091506001600160a01b031661132d5760405162461bcd60e51b815260206004820152601660248201527f436f6e73756c7420646f6573206e6f742065786973740000000000000000000060448201526064016109d7565b6000888152601060209081526040808320815160a0810183528154815260018201546001600160a01b0381168286015260ff600160a01b8204811683860152600160a81b9091041660608201526002820180548451818702810187019095528085529194929360808601939092908301828280156113d457602002820191906000526020600020905b81546001600160a01b031681526001909101906020018083116113b6575b5050509190925250508151602083015160408401516060850151608090950151929e919d509b5092995097509095505050505050565b3360008181526002602090815260408083206001600160a01b038716845290915281205490919061095390829086906114449087906147e4565b6138dd565b3360009081527f367a0034d391753fe6c9264898af6f14ce9baa3417708a6b9910903ee032526d602052604090205460ff166114c75760405162461bcd60e51b815260206004820152601760248201527f43616c6c6572206973206e6f7420612073747564656e7400000000000000000060448201526064016109d7565b6000818152600f60209081526040808320815160a0810190925280548252600181018054869594840191906114fb9061485e565b80601f01602080910402602001604051908101604052809291908181526020018280546115279061485e565b80156115745780601f1061154957610100808354040283529160200191611574565b820191906000526020600020905b81548152906001019060200180831161155757829003601f168201915b5050509183525050600282015460ff81166020808401919091526101009091046001600160a01b031660408084019190915260038401805482518185028101850190935280835260609094019391929091908301828280156115ff57602002820191906000526020600020905b81546001600160a01b031681526001909101906020018083116115e1575b50505050508152505090506116178160200151511590565b156116645760405162461bcd60e51b815260206004820152601460248201527f436c61737320646f6573206e6f7420657869737400000000000000000000000060448201526064016109d7565b50506000818152600f602090815260408083206003018054600181810183559185528385200180546001600160a01b031916339081179091558452600e835290832060020180549182018155835291200155565b601160205260009081526040902080546001820180549192916116da9061485e565b80601f01602080910402602001604051908101604052809291908181526020018280546117069061485e565b80156117535780601f1061172857610100808354040283529160200191611753565b820191906000526020600020905b81548152906001019060200180831161173657829003601f168201915b50505050600283015460039093015491926001600160a01b038082169360ff600160a01b93849004811694509181169290041686565b3360009081527fcf98a50713a46bc7d810e98b1cc1a3fcb3a8dfd74ea22d9ee00b2bbfaa2edc01602052604090205460ff166118075760405162461bcd60e51b815260206004820152601760248201527f43616c6c6572206973206e6f742061207465616368657200000000000000000060448201526064016109d7565b6000828152601060209081526040808320815160a0810183528154815260018201546001600160a01b0381168286015260ff600160a01b8204811683860152600160a81b90910416606082015260028201805484518187028101870190955280855288969592946080860193909291908301828280156118b057602002820191906000526020600020905b81546001600160a01b03168152600190910190602001808311611892575b5050509190925250505060208101519091506001600160a01b03166119175760405162461bcd60e51b815260206004820152601660248201527f436f6e73756c7420646f6573206e6f742065786973740000000000000000000060448201526064016109d7565b6001600160a01b0383166000908152600e602052604090206001600086815260038301602052604090205460ff16600281111561196457634e487b7160e01b600052602160045260246000fd5b146119d75760405162461bcd60e51b815260206004820152602360248201527f53747564656e7420646964206e6f74207369676e20757020666f7220636f6e7360448201527f756c74000000000000000000000000000000000000000000000000000000000060648201526084016109d7565b600085815260106020526040902060018101546001600160a01b03163314611a675760405162461bcd60e51b815260206004820152603860248201527f4f6e6c7920746865207465616368657220686f7374696e672074686520636f6e60448201527f73756c742063616e206d61726b20617474656e64616e6365000000000000000060648201526084016109d7565b600181015460ff600160a01b90910416611a96306001600160a01b031660009081526001602052604090205490565b1015611aee5760405162461bcd60e51b815260206004820152602160248201527f54726561737572792068617320696e73756666696369656e742062616c616e636044820152606560f81b60648201526084016109d7565b6001810154611b0a9030908790600160a01b900460ff16613a3a565b50600094855260030160205250506040909120805460ff1916600217905550565b600060606000806060856000600f60008381526020019081526020016000206040518060a001604052908160008201548152602001600182018054611b6f9061485e565b80601f0160208091040260200160405190810160405280929190818152602001828054611b9b9061485e565b8015611be85780601f10611bbd57610100808354040283529160200191611be8565b820191906000526020600020905b815481529060010190602001808311611bcb57829003601f168201915b5050509183525050600282015460ff81166020808401919091526101009091046001600160a01b03166040808401919091526003840180548251818502810185019093528083526060909401939192909190830182828015611c7357602002820191906000526020600020905b81546001600160a01b03168152600190910190602001808311611c55575b5050505050815250509050611c8b8160200151511590565b15611cd85760405162461bcd60e51b815260206004820152601460248201527f436c61737320646f6573206e6f7420657869737400000000000000000000000060448201526064016109d7565b6000600f60008a81526020019081526020016000206040518060a001604052908160008201548152602001600182018054611d129061485e565b80601f0160208091040260200160405190810160405280929190818152602001828054611d3e9061485e565b8015611d8b5780601f10611d6057610100808354040283529160200191611d8b565b820191906000526020600020905b815481529060010190602001808311611d6e57829003601f168201915b5050509183525050600282015460ff81166020808401919091526101009091046001600160a01b031660408084019190915260038401805482518185028101850190935280835260609094019391929091908301828280156113d4576020028201919060005260206000209081546001600160a01b031681526001909101906020018083116113b6575050509190925250508151602083015160408401516060850151608090950151929e919d509b5092995097509095505050505050565b3360009081527fcf98a50713a46bc7d810e98b1cc1a3fcb3a8dfd74ea22d9ee00b2bbfaa2edc01602052604090205460ff16611ec85760405162461bcd60e51b815260206004820152601760248201527f43616c6c6572206973206e6f742061207465616368657200000000000000000060448201526064016109d7565b82828080601f016020809104026020016040519081016040528093929190818152602001838380828437600092019190915250611f0a9250839150613a359050565b15611f575760405162461bcd60e51b815260206004820152601660248201527f537472696e672063616e6e6f7420626520656d7074790000000000000000000060448201526064016109d7565b6009546000818152600f60205260409020611f76600182018787614199565b506002808201805433610100810274ffffffffffffffffffffffffffffffffffffffffff1990921660ff891617919091179091556000818152600c602090815260408083209485018054600181018255908452919092200185905551611fdf90899089906145c8565b6040805191829003822086835260ff89166020840152917fd04404b0d0aaf1a71455c1e28a5c9cab929bd6f28695252d57f185d6e231b415910160405180910390a36009805490600061203183614899565b919050555050505050505050565b600f60205260009081526040902080546001820180549192916120619061485e565b80601f016020809104026020016040519081016040528092919081815260200182805461208d9061485e565b80156120da5780601f106120af576101008083540402835291602001916120da565b820191906000526020600020905b8154815290600101906020018083116120bd57829003601f168201915b5050506002909301549192505060ff8116906001600160a01b036101009091041684565b3360009081527fcf98a50713a46bc7d810e98b1cc1a3fcb3a8dfd74ea22d9ee00b2bbfaa2edc01602052604090205460ff1661217c5760405162461bcd60e51b815260206004820152601760248201527f43616c6c6572206973206e6f742061207465616368657200000000000000000060448201526064016109d7565b81818080601f0160208091040260200160405190810160405280939291908181526020018383808284376000920191909152506121be9250839150613a359050565b1561220b5760405162461bcd60e51b815260206004820152601660248201527f537472696e672063616e6e6f7420626520656d7074790000000000000000000060448201526064016109d7565b6000600b5490506040518060c0016040528082815260200185858080601f016020809104026020016040519081016040528093929190818152602001838380828437600092018290525093855250503360208401525060ff881660408301526060820181905260809091015260008281526011602090815260409091208251815582820151805191926122a69260018501929091019061421d565b5060408201516002828101805460608601516001600160a01b0394851674ffffffffffffffffffffffffffffffffffffffffff1992831617600160a01b60ff90921682021790925560808601516003860180546001600160a01b0319811692909616918217815560a08801519590949216179190849081111561233957634e487b7160e01b600052602160045260246000fd5b021790555050600b80549150600061235083614899565b90915550506040805182815260ff8716602082015233917ffc09a35c328c37e046c74e1e320d900bf73b045516c7a28334e4f968a5b57755910160405180910390a25050505050565b6060600580546108c29061485e565b3360009081527f33b3b3ea0d075ccba1b1f127cfd5d5003c22cb56907f29a4a8655546d07a7dcb602052604090205460ff166124265760405162461bcd60e51b815260206004820152601b60248201527f43616c6c6572206973206e6f7420746865207072696e636970616c000000000060448201526064016109d7565b6124303082613e0e565b50565b3360009081527f33b3b3ea0d075ccba1b1f127cfd5d5003c22cb56907f29a4a8655546d07a7dcb602052604090205460ff166124b15760405162461bcd60e51b815260206004820152601b60248201527f43616c6c6572206973206e6f7420746865207072696e636970616c000000000060448201526064016109d7565b6001600160a01b03811660009081527f33b3b3ea0d075ccba1b1f127cfd5d5003c22cb56907f29a4a8655546d07a7dcb6020526040902054819060ff16156125455760405162461bcd60e51b815260206004820152602160248201527f57616c6c657420616c726561647920686173207072696e636970616c20726f6c6044820152606560f81b60648201526084016109d7565b6001600160a01b03811660009081527fcf98a50713a46bc7d810e98b1cc1a3fcb3a8dfd74ea22d9ee00b2bbfaa2edc01602052604090205460ff16156125d95760405162461bcd60e51b815260206004820152602360248201527f57616c6c657420616c72656164792068617320746865207465616368657220726044820152626f6c6560e81b60648201526084016109d7565b6001600160a01b03811660009081527f367a0034d391753fe6c9264898af6f14ce9baa3417708a6b9910903ee032526d602052604090205460ff161561266d5760405162461bcd60e51b815260206004820152602360248201527f57616c6c657420616c726561647920686173207468652073747564656e7420726044820152626f6c6560e81b60648201526084016109d7565b83838080601f0160208091040260200160405190810160405280939291908181526020018383808284376000920191909152506126af9250839150613a359050565b156126fc5760405162461bcd60e51b815260206004820152601660248201527f537472696e672063616e6e6f7420626520656d7074790000000000000000000060448201526064016109d7565b6127267fd16e204b8a42a15ab0ea6bb8ec1ecdfbe69f38074fc865323af19efe7d9573d984613c51565b6001600160a01b0383166000908152600c60205260409020612749818787614199565b50600180820180546001600160a01b0387166001600160a01b03199182168117909255600d805493840181556000527fd7b6990105719101dabeb77144f2a3385c8033acd3af97e9423a695e81ad1eb5909201805490921681179091556040516127b690889088906145c8565b604051908190038120907f3f15398ebf2b7250000c5158ac33356467bcec9c28389cc4fd691c5fbaf65ee390600090a3600780549060006110c783614899565b3360008181526002602090815260408083206001600160a01b0387168452909152812054909190838110156128935760405162461bcd60e51b815260206004820152602560248201527f45524332303a2064656372656173656420616c6c6f77616e63652062656c6f7760448201527f207a65726f00000000000000000000000000000000000000000000000000000060648201526084016109d7565b6110ed82868684036138dd565b600e602052600090815260409020805481906128bb9061485e565b80601f01602080910402602001604051908101604052809291908181526020018280546128e79061485e565b80156129345780601f1061290957610100808354040283529160200191612934565b820191906000526020600020905b81548152906001019060200180831161291757829003601f168201915b505050600190930154919250506001600160a01b031682565b60006060600080600080866000601160008381526020019081526020016000206040518060c0016040529081600082015481526020016001820180546129929061485e565b80601f01602080910402602001604051908101604052809291908181526020018280546129be9061485e565b8015612a0b5780601f106129e057610100808354040283529160200191612a0b565b820191906000526020600020905b8154815290600101906020018083116129ee57829003601f168201915b50505091835250506002828101546001600160a01b03808216602085015260ff600160a01b9283900481166040860152600386015491821660608601526080909401939190041690811115612a7057634e487b7160e01b600052602160045260246000fd5b6002811115612a8f57634e487b7160e01b600052602160045260246000fd5b90525060408101519091506001600160a01b0316612aef5760405162461bcd60e51b815260206004820152601960248201527f41737369676e6d656e7420646f6573206e6f742065786973740000000000000060448201526064016109d7565b6000601160008b81526020019081526020016000206040518060c001604052908160008201548152602001600182018054612b299061485e565b80601f0160208091040260200160405190810160405280929190818152602001828054612b559061485e565b8015612ba25780601f10612b7757610100808354040283529160200191612ba2565b820191906000526020600020905b815481529060010190602001808311612b8557829003601f168201915b50505091835250506002828101546001600160a01b03808216602085015260ff600160a01b9283900481166040860152600386015491821660608601526080909401939190041690811115612c0757634e487b7160e01b600052602160045260246000fd5b6002811115612c2657634e487b7160e01b600052602160045260246000fd5b9052508051602082015160408301516060840151608085015160a090950151939f929e50909c509a509198509650945050505050565b600033610953818585613a3a565b600082815260208190526040902060010154612c8581613ce7565b61117e8383613d8f565b600d8181548110612c9f57600080fd5b6000918252602090912001546001600160a01b0316905081565b3360009081527fcf98a50713a46bc7d810e98b1cc1a3fcb3a8dfd74ea22d9ee00b2bbfaa2edc01602052604090205460ff16612d375760405162461bcd60e51b815260206004820152601760248201527f43616c6c6572206973206e6f742061207465616368657200000000000000000060448201526064016109d7565b6000818152601160209081526040808320815160c081019092528054825260018101805486959484019190612d6b9061485e565b80601f0160208091040260200160405190810160405280929190818152602001828054612d979061485e565b8015612de45780601f10612db957610100808354040283529160200191612de4565b820191906000526020600020905b815481529060010190602001808311612dc757829003601f168201915b50505091835250506002828101546001600160a01b03808216602085015260ff600160a01b9283900481166040860152600386015491821660608601526080909401939190041690811115612e4957634e487b7160e01b600052602160045260246000fd5b6002811115612e6857634e487b7160e01b600052602160045260246000fd5b90525060408101519091506001600160a01b0316612ec85760405162461bcd60e51b815260206004820152601960248201527f41737369676e6d656e7420646f6573206e6f742065786973740000000000000060448201526064016109d7565b600083815260116020526040902060016003820154600160a01b900460ff166002811115612f0657634e487b7160e01b600052602160045260246000fd5b14612f535760405162461bcd60e51b815260206004820152601b60248201527f41737369676e6d656e74206e6f7420617070726f76656420796574000000000060448201526064016109d7565b60038101546001600160a01b0316612fd35760405162461bcd60e51b815260206004820152602a60248201527f41737369676e6d656e7420646f6573206e6f742068617665206120706172746960448201527f636970616e74207965740000000000000000000000000000000000000000000060648201526084016109d7565b60028101546001600160a01b031633146130555760405162461bcd60e51b815260206004820152603b60248201527f4f6e6c792074686520746561636865722074686174206372656174656420746860448201527f652061737369676e6d656e742063616e20706179206974206f7574000000000060648201526084016109d7565b60038101805460ff60a01b198116740200000000000000000000000000000000000000001790915560028201546130a39130916001600160a01b0390911690600160a01b900460ff166110d4565b5060038101546001600160a01b03166000908152600e602090815260408083208784526004810190925290912080546002919060ff1916600183610cbe565b600c602052600090815260409020805481906128bb9061485e565b3360009081527f33b3b3ea0d075ccba1b1f127cfd5d5003c22cb56907f29a4a8655546d07a7dcb602052604090205460ff1661317b5760405162461bcd60e51b815260206004820152601b60248201527f43616c6c6572206973206e6f7420746865207072696e636970616c000000000060448201526064016109d7565b6000818152601160209081526040808320815160c0810190925280548252600181018054869594840191906131af9061485e565b80601f01602080910402602001604051908101604052809291908181526020018280546131db9061485e565b80156132285780601f106131fd57610100808354040283529160200191613228565b820191906000526020600020905b81548152906001019060200180831161320b57829003601f168201915b50505091835250506002828101546001600160a01b03808216602085015260ff600160a01b928390048116604086015260038601549182166060860152608090940193919004169081111561328d57634e487b7160e01b600052602160045260246000fd5b60028111156132ac57634e487b7160e01b600052602160045260246000fd5b90525060408101519091506001600160a01b031661330c5760405162461bcd60e51b815260206004820152601960248201527f41737369676e6d656e7420646f6573206e6f742065786973740000000000000060448201526064016109d7565b600083815260116020908152604080832060028101543085526001909352922054600160a01b90910460ff1611156133905760405162461bcd60e51b815260206004820152602160248201527f54726561737572792068617320696e73756666696369656e742062616c616e636044820152606560f81b60648201526084016109d7565b60038101805460ff60a01b1916600160a01b90811790915560028201546133c89130916001600160a01b03811691900460ff166138dd565b50505050565b3360009081527fcf98a50713a46bc7d810e98b1cc1a3fcb3a8dfd74ea22d9ee00b2bbfaa2edc01602052604090205460ff1661344c5760405162461bcd60e51b815260206004820152601760248201527f43616c6c6572206973206e6f742061207465616368657200000000000000000060448201526064016109d7565b600a5460008181526010602090815260408083206001808201805474ffffffffffffffffffffffffffffffffffffffffff19163360ff60a01b19811691909117600160a01b60ff8c8116918202929092177fffffffffffffffffffff00ffffffffffffffffffffffffffffffffffffffffff16600160a81b928c1692830217909355818852600c875285882060038101805495860181558952978790209093018890558451888152958601919091529284015292917fa59d53e4fc0bcc624c8664519b281b0c8d6141eee210ec7f7a38b70c319b97d89060600160405180910390a2600a805490600061353e83614899565b91905055505050505050565b3360009081527f367a0034d391753fe6c9264898af6f14ce9baa3417708a6b9910903ee032526d602052604090205460ff166135c85760405162461bcd60e51b815260206004820152601760248201527f43616c6c6572206973206e6f7420612073747564656e7400000000000000000060448201526064016109d7565b6000818152601060209081526040808320815160a0810183528154815260018201546001600160a01b0381168286015260ff600160a01b8204811683860152600160a81b909104166060820152600282018054845181870281018701909552808552879695929460808601939092919083018282801561367157602002820191906000526020600020905b81546001600160a01b03168152600190910190602001808311613653575b5050509190925250505060208101519091506001600160a01b03166136d85760405162461bcd60e51b815260206004820152601660248201527f436f6e73756c7420646f6573206e6f742065786973740000000000000000000060448201526064016109d7565b600083815260106020526040902060018101546002820154600160a81b90910460ff161161376e5760405162461bcd60e51b815260206004820152602660248201527f436f6e73756c7420697320616c7265616479206174206d6178696d756d20636160448201527f706163697479000000000000000000000000000000000000000000000000000060648201526084016109d7565b600181015460ff600160a01b9091041661379d336001600160a01b031660009081526001602052604090205490565b10156137eb5760405162461bcd60e51b815260206004820181905260248201527f53747564656e742068617320696e73756666696369656e742062616c616e636560448201526064016109d7565b336000908152600e6020526040812090600086815260038301602052604090205460ff16600281111561382e57634e487b7160e01b600052602160045260246000fd5b1461387b5760405162461bcd60e51b815260206004820152601d60248201527f53747564656e742068617320616c7265616479207369676e656420757000000060448201526064016109d7565b60018201546138979033903090600160a01b900460ff16613a3a565b600282018054600181810183556000928352602080842090920180546001600160a01b03191633179055878352600384019091526040909120805460ff19168280610cbe565b6001600160a01b0383166139585760405162461bcd60e51b8152602060048201526024808201527f45524332303a20617070726f76652066726f6d20746865207a65726f2061646460448201527f726573730000000000000000000000000000000000000000000000000000000060648201526084016109d7565b6001600160a01b0382166139d45760405162461bcd60e51b815260206004820152602260248201527f45524332303a20617070726f766520746f20746865207a65726f20616464726560448201527f737300000000000000000000000000000000000000000000000000000000000060648201526084016109d7565b6001600160a01b0383811660008181526002602090815260408083209487168084529482529182902085905590518481527f8c5be1e5ebec7d5bd14f71427d1e84f3dd0314c0f7b2291e5b200ac8c7c3b925910160405180910390a3505050565b511590565b6001600160a01b038316613ab65760405162461bcd60e51b815260206004820152602560248201527f45524332303a207472616e736665722066726f6d20746865207a65726f20616460448201527f647265737300000000000000000000000000000000000000000000000000000060648201526084016109d7565b6001600160a01b038216613b325760405162461bcd60e51b815260206004820152602360248201527f45524332303a207472616e7366657220746f20746865207a65726f206164647260448201527f657373000000000000000000000000000000000000000000000000000000000060648201526084016109d7565b6001600160a01b03831660009081526001602052604090205481811015613bc15760405162461bcd60e51b815260206004820152602660248201527f45524332303a207472616e7366657220616d6f756e742065786365656473206260448201527f616c616e6365000000000000000000000000000000000000000000000000000060648201526084016109d7565b6001600160a01b03808516600090815260016020526040808220858503905591851681529081208054849290613bf89084906147e4565b92505081905550826001600160a01b0316846001600160a01b03167fddf252ad1be2c89b69c2b068fc378daa952ba7f163c4a11628f55a4df523b3ef84604051613c4491815260200190565b60405180910390a36133c8565b61120b8282613cf1565b6001600160a01b0383811660009081526002602090815260408083209386168352929052205460001981146133c85781811015613cda5760405162461bcd60e51b815260206004820152601d60248201527f45524332303a20696e73756666696369656e7420616c6c6f77616e636500000060448201526064016109d7565b6133c884848484036138dd565b6124308133613eed565b6000828152602081815260408083206001600160a01b038516845290915290205460ff1661120b576000828152602081815260408083206001600160a01b03851684529091529020805460ff19166001179055613d4b3390565b6001600160a01b0316816001600160a01b0316837f2f8788117e7eff1d82e926ec794901d17c78024a50270940304540a733656f0d60405160405180910390a45050565b6000828152602081815260408083206001600160a01b038516845290915290205460ff161561120b576000828152602081815260408083206001600160a01b0385168085529252808320805460ff1916905551339285917ff6391f5c32d9c69d2a47ea670b442974b53935d1edc7fd64eb21e047a839171b9190a45050565b6001600160a01b038216613e645760405162461bcd60e51b815260206004820152601f60248201527f45524332303a206d696e7420746f20746865207a65726f20616464726573730060448201526064016109d7565b8060036000828254613e7691906147e4565b90915550506001600160a01b03821660009081526001602052604081208054839290613ea39084906147e4565b90915550506040518181526001600160a01b038316906000907fddf252ad1be2c89b69c2b068fc378daa952ba7f163c4a11628f55a4df523b3ef9060200160405180910390a35050565b6000828152602081815260408083206001600160a01b038516845290915290205460ff1661120b57613f29816001600160a01b03166014613f6b565b613f34836020613f6b565b604051602001613f459291906145d8565b60408051601f198184030181529082905262461bcd60e51b82526109d79160040161466c565b60606000613f7a8360026147fc565b613f859060026147e4565b67ffffffffffffffff811115613fab57634e487b7160e01b600052604160045260246000fd5b6040519080825280601f01601f191660200182016040528015613fd5576020820181803683370190505b5090507f30000000000000000000000000000000000000000000000000000000000000008160008151811061401a57634e487b7160e01b600052603260045260246000fd5b60200101906001600160f81b031916908160001a9053507f78000000000000000000000000000000000000000000000000000000000000008160018151811061407357634e487b7160e01b600052603260045260246000fd5b60200101906001600160f81b031916908160001a90535060006140978460026147fc565b6140a29060016147e4565b90505b6001811115614143577f303132333435363738396162636465660000000000000000000000000000000085600f16601081106140f157634e487b7160e01b600052603260045260246000fd5b1a60f81b82828151811061411557634e487b7160e01b600052603260045260246000fd5b60200101906001600160f81b031916908160001a90535060049490941c9361413c81614847565b90506140a5565b5083156141925760405162461bcd60e51b815260206004820181905260248201527f537472696e67733a20686578206c656e67746820696e73756666696369656e7460448201526064016109d7565b9392505050565b8280546141a59061485e565b90600052602060002090601f0160209004810192826141c7576000855561420d565b82601f106141e05782800160ff1982351617855561420d565b8280016001018555821561420d579182015b8281111561420d5782358255916020019190600101906141f2565b50614219929150614291565b5090565b8280546142299061485e565b90600052602060002090601f01602090048101928261424b576000855561420d565b82601f1061426457805160ff191683800117855561420d565b8280016001018555821561420d579182015b8281111561420d578251825591602001919060010190614276565b5b808211156142195760008155600101614292565b80356001600160a01b03811681146142bd57600080fd5b919050565b60008083601f8401126142d3578182fd5b50813567ffffffffffffffff8111156142ea578182fd5b60208301915083602082850101111561430257600080fd5b9250929050565b803560ff811681146142bd57600080fd5b60006020828403121561432b578081fd5b614192826142a6565b60008060408385031215614346578081fd5b61434f836142a6565b915061435d602084016142a6565b90509250929050565b60008060006060848603121561437a578081fd5b614383846142a6565b9250614391602085016142a6565b9150604084013590509250925092565b600080604083850312156143b3578182fd5b6143bc836142a6565b946020939093013593505050565b6000602082840312156143db578081fd5b5035919050565b600080604083850312156143f4578182fd5b8235915061435d602084016142a6565b600060208284031215614415578081fd5b81357fffffffff0000000000000000000000000000000000000000000000000000000081168114614192578182fd5b600080600060408486031215614458578283fd5b833567ffffffffffffffff81111561446e578384fd5b61447a868287016142c2565b909450925061448d9050602085016142a6565b90509250925092565b6000806000604084860312156144aa578283fd5b833567ffffffffffffffff8111156144c0578384fd5b6144cc868287016142c2565b909450925061448d905060208501614309565b6000806000604084860312156144f3578283fd5b6144fc84614309565b9250602084013567ffffffffffffffff811115614517578283fd5b614523868287016142c2565b9497909650939450505050565b60008060408385031215614542578182fd5b61454b83614309565b915061435d60208401614309565b6000815180845260208085019450808401835b838110156145915781516001600160a01b03168752958201959082019060010161456c565b509495945050505050565b600081518084526145b481602086016020860161481b565b601f01601f19169290920160200192915050565b8183823760009101908152919050565b7f416363657373436f6e74726f6c3a206163636f756e742000000000000000000081526000835161461081601785016020880161481b565b7f206973206d697373696e6720726f6c6520000000000000000000000000000000601791840191820152835161464d81602884016020880161481b565b01602801949350505050565b6020815260006141926020830184614559565b602081526000614192602083018461459c565b604081526000614692604083018561459c565b90506001600160a01b03831660208301529392505050565b8581526001600160a01b038516602082015260ff8416604082015260ff8316606082015260a0608082015260006146e460a0830184614559565b979650505050505050565b86815260c06020820152600061470860c083018861459c565b6001600160a01b03878116604085015260ff871660608501528516608084015290506003831061474857634e487b7160e01b600052602160045260246000fd5b8260a0830152979650505050505050565b848152608060208201526000614772608083018661459c565b905060ff841660408301526001600160a01b038316606083015295945050505050565b85815260a0602082015260006147ae60a083018761459c565b60ff861660408401526001600160a01b038516606084015282810360808401526147d88185614559565b98975050505050505050565b600082198211156147f7576147f76148b4565b500190565b6000816000190483118215151615614816576148166148b4565b500290565b60005b8381101561483657818101518382015260200161481e565b838111156133c85750506000910152565b600081614856576148566148b4565b506000190190565b600181811c9082168061487257607f821691505b6020821081141561489357634e487b7160e01b600052602260045260246000fd5b50919050565b60006000198214156148ad576148ad6148b4565b5060010190565b634e487b7160e01b600052601160045260246000fdfea2646970667358221220539773af4feefa2edf3c98bc2438a265d30645ef78ef94c138f6f1f8a24ce3e264736f6c63430008040033",
  "linkReferences": {},
  "deployedLinkReferences": {}
}