{
  "_format": "hh-sol-artifact-1",
  "contractName": "Dojo",
  "sourceName": "contracts/Dojo.sol",
  "abi": [
    {
      "inputs": [],
      "stateMutability": "nonpayable",
      "type": "constructor"
    },
    {
      "anonymous": false,
      "inputs": [
        {
          "indexed": true,
          "internalType": "address",
          "name": "owner",
          "type": "address"
        },
        {
          "indexed": true,
          "internalType": "address",
          "name": "spender",
          "type": "address"
        },
        {
          "indexed": false,
          "internalType": "uint256",
          "name": "value",
          "type": "uint256"
        }
      ],
      "name": "Approval",
      "type": "event"
    },
    {
      "anonymous": false,
      "inputs": [
        {
          "indexed": false,
          "internalType": "uint256",
          "name": "assignmentId",
          "type": "uint256"
        },
        {
          "indexed": true,
          "internalType": "address",
          "name": "teacher",
          "type": "address"
        },
        {
          "indexed": false,
          "internalType": "uint8",
          "name": "bounty",
          "type": "uint8"
        }
      ],
      "name": "AssignmentCreated",
      "type": "event"
    },
    {
      "anonymous": false,
      "inputs": [
        {
          "indexed": false,
          "internalType": "uint256",
          "name": "classId",
          "type": "uint256"
        },
        {
          "indexed": true,
          "internalType": "string",
          "name": "className",
          "type": "string"
        },
        {
          "indexed": false,
          "internalType": "uint8",
          "name": "cost",
          "type": "uint8"
        },
        {
          "indexed": true,
          "internalType": "address",
          "name": "teacher",
          "type": "address"
        }
      ],
      "name": "ClassCreated",
      "type": "event"
    },
    {
      "anonymous": false,
      "inputs": [
        {
          "indexed": false,
          "internalType": "uint256",
          "name": "consultId",
          "type": "uint256"
        },
        {
          "indexed": true,
          "internalType": "address",
          "name": "teacher",
          "type": "address"
        },
        {
          "indexed": false,
          "internalType": "uint8",
          "name": "stake",
          "type": "uint8"
        },
        {
          "indexed": false,
          "internalType": "uint8",
          "name": "capacity",
          "type": "uint8"
        }
      ],
      "name": "ConsultCreated",
      "type": "event"
    },
    {
      "anonymous": false,
      "inputs": [
        {
          "indexed": true,
          "internalType": "bytes32",
          "name": "role",
          "type": "bytes32"
        },
        {
          "indexed": true,
          "internalType": "bytes32",
          "name": "previousAdminRole",
          "type": "bytes32"
        },
        {
          "indexed": true,
          "internalType": "bytes32",
          "name": "newAdminRole",
          "type": "bytes32"
        }
      ],
      "name": "RoleAdminChanged",
      "type": "event"
    },
    {
      "anonymous": false,
      "inputs": [
        {
          "indexed": true,
          "internalType": "bytes32",
          "name": "role",
          "type": "bytes32"
        },
        {
          "indexed": true,
          "internalType": "address",
          "name": "account",
          "type": "address"
        },
        {
          "indexed": true,
          "internalType": "address",
          "name": "sender",
          "type": "address"
        }
      ],
      "name": "RoleGranted",
      "type": "event"
    },
    {
      "anonymous": false,
      "inputs": [
        {
          "indexed": true,
          "internalType": "bytes32",
          "name": "role",
          "type": "bytes32"
        },
        {
          "indexed": true,
          "internalType": "address",
          "name": "account",
          "type": "address"
        },
        {
          "indexed": true,
          "internalType": "address",
          "name": "sender",
          "type": "address"
        }
      ],
      "name": "RoleRevoked",
      "type": "event"
    },
    {
      "anonymous": false,
      "inputs": [
        {
          "indexed": true,
          "internalType": "string",
          "name": "name",
          "type": "string"
        },
        {
          "indexed": true,
          "internalType": "address",
          "name": "wallet",
          "type": "address"
        }
      ],
      "name": "StudentCreated",
      "type": "event"
    },
    {
      "anonymous": false,
      "inputs": [
        {
          "indexed": true,
          "internalType": "string",
          "name": "name",
          "type": "string"
        },
        {
          "indexed": true,
          "internalType": "address",
          "name": "wallet",
          "type": "address"
        }
      ],
      "name": "TeacherCreated",
      "type": "event"
    },
    {
      "anonymous": false,
      "inputs": [
        {
          "indexed": true,
          "internalType": "address",
          "name": "from",
          "type": "address"
        },
        {
          "indexed": true,
          "internalType": "address",
          "name": "to",
          "type": "address"
        },
        {
          "indexed": false,
          "internalType": "uint256",
          "name": "value",
          "type": "uint256"
        }
      ],
      "name": "Transfer",
      "type": "event"
    },
    {
      "inputs": [],
      "name": "DEFAULT_ADMIN_ROLE",
      "outputs": [
        {
          "internalType": "bytes32",
          "name": "",
          "type": "bytes32"
        }
      ],
      "stateMutability": "view",
      "type": "function"
    },
    {
      "inputs": [],
      "name": "PRINCIPAL_ROLE",
      "outputs": [
        {
          "internalType": "bytes32",
          "name": "",
          "type": "bytes32"
        }
      ],
      "stateMutability": "view",
      "type": "function"
    },
    {
      "inputs": [],
      "name": "STUDENT_ROLE",
      "outputs": [
        {
          "internalType": "bytes32",
          "name": "",
          "type": "bytes32"
        }
      ],
      "stateMutability": "view",
      "type": "function"
    },
    {
      "inputs": [],
      "name": "STUDENT_STARTING_AMOUNT",
      "outputs": [
        {
          "internalType": "uint8",
          "name": "",
          "type": "uint8"
        }
      ],
      "stateMutability": "view",
      "type": "function"
    },
    {
      "inputs": [],
      "name": "TEACHER_ROLE",
      "outputs": [
        {
          "internalType": "bytes32",
          "name": "",
          "type": "bytes32"
        }
      ],
      "stateMutability": "view",
      "type": "function"
    },
    {
      "inputs": [
        {
          "internalType": "string",
          "name": "name",
          "type": "string"
        },
        {
          "internalType": "address",
          "name": "wallet",
          "type": "address"
        }
      ],
      "name": "addStudent",
      "outputs": [],
      "stateMutability": "nonpayable",
      "type": "function"
    },
    {
      "inputs": [
        {
          "internalType": "string",
          "name": "name",
          "type": "string"
        },
        {
          "internalType": "address",
          "name": "wallet",
          "type": "address"
        }
      ],
      "name": "addTeacher",
      "outputs": [],
      "stateMutability": "nonpayable",
      "type": "function"
    },
    {
      "inputs": [
        {
          "internalType": "address",
          "name": "owner",
          "type": "address"
        },
        {
          "internalType": "address",
          "name": "spender",
          "type": "address"
        }
      ],
      "name": "allowance",
      "outputs": [
        {
          "internalType": "uint256",
          "name": "",
          "type": "uint256"
        }
      ],
      "stateMutability": "view",
      "type": "function"
    },
    {
      "inputs": [
        {
          "internalType": "address",
          "name": "spender",
          "type": "address"
        },
        {
          "internalType": "uint256",
          "name": "amount",
          "type": "uint256"
        }
      ],
      "name": "approve",
      "outputs": [
        {
          "internalType": "bool",
          "name": "",
          "type": "bool"
        }
      ],
      "stateMutability": "nonpayable",
      "type": "function"
    },
    {
      "inputs": [
        {
          "internalType": "uint256",
          "name": "assignmentId",
          "type": "uint256"
        }
      ],
      "name": "approveAssignment",
      "outputs": [],
      "stateMutability": "nonpayable",
      "type": "function"
    },
    {
      "inputs": [
        {
          "internalType": "uint256",
          "name": "",
          "type": "uint256"
        }
      ],
      "name": "assignments",
      "outputs": [
        {
          "internalType": "uint256",
          "name": "assignmentId",
          "type": "uint256"
        },
        {
          "internalType": "string",
          "name": "description",
          "type": "string"
        },
        {
          "internalType": "address",
          "name": "teacher",
          "type": "address"
        },
        {
          "internalType": "uint8",
          "name": "bounty",
          "type": "uint8"
        },
        {
          "internalType": "address",
          "name": "participant",
          "type": "address"
        },
        {
          "internalType": "enum Dojo.AssignmentApprovalState",
          "name": "state",
          "type": "uint8"
        }
      ],
      "stateMutability": "view",
      "type": "function"
    },
    {
      "inputs": [
        {
          "internalType": "address",
          "name": "account",
          "type": "address"
        }
      ],
      "name": "balanceOf",
      "outputs": [
        {
          "internalType": "uint256",
          "name": "",
          "type": "uint256"
        }
      ],
      "stateMutability": "view",
      "type": "function"
    },
    {
      "inputs": [
        {
          "internalType": "uint256",
          "name": "",
          "type": "uint256"
        }
      ],
      "name": "classes",
      "outputs": [
        {
          "internalType": "uint256",
          "name": "classId",
          "type": "uint256"
        },
        {
          "internalType": "string",
          "name": "name",
          "type": "string"
        },
        {
          "internalType": "uint8",
          "name": "cost",
          "type": "uint8"
        },
        {
          "internalType": "address",
          "name": "teacher",
          "type": "address"
        }
      ],
      "stateMutability": "view",
      "type": "function"
    },
    {
      "inputs": [
        {
          "internalType": "uint256",
          "name": "",
          "type": "uint256"
        }
      ],
      "name": "consults",
      "outputs": [
        {
          "internalType": "uint256",
          "name": "consultId",
          "type": "uint256"
        },
        {
          "internalType": "address",
          "name": "teacher",
          "type": "address"
        },
        {
          "internalType": "uint8",
          "name": "stake",
          "type": "uint8"
        },
        {
          "internalType": "uint8",
          "name": "capacity",
          "type": "uint8"
        }
      ],
      "stateMutability": "view",
      "type": "function"
    },
    {
      "inputs": [
        {
          "internalType": "uint8",
          "name": "bounty",
          "type": "uint8"
        },
        {
          "internalType": "string",
          "name": "description",
          "type": "string"
        }
      ],
      "name": "createAssignment",
      "outputs": [],
      "stateMutability": "nonpayable",
      "type": "function"
    },
    {
      "inputs": [
        {
          "internalType": "string",
          "name": "name",
          "type": "string"
        },
        {
          "internalType": "uint8",
          "name": "cost",
          "type": "uint8"
        }
      ],
      "name": "createClass",
      "outputs": [],
      "stateMutability": "nonpayable",
      "type": "function"
    },
    {
      "inputs": [
        {
          "internalType": "uint8",
          "name": "stake",
          "type": "uint8"
        },
        {
          "internalType": "uint8",
          "name": "capacity",
          "type": "uint8"
        }
      ],
      "name": "createConsult",
      "outputs": [],
      "stateMutability": "nonpayable",
      "type": "function"
    },
    {
      "inputs": [],
      "name": "decimals",
      "outputs": [
        {
          "internalType": "uint8",
          "name": "",
          "type": "uint8"
        }
      ],
      "stateMutability": "view",
      "type": "function"
    },
    {
      "inputs": [
        {
          "internalType": "address",
          "name": "spender",
          "type": "address"
        },
        {
          "internalType": "uint256",
          "name": "subtractedValue",
          "type": "uint256"
        }
      ],
      "name": "decreaseAllowance",
      "outputs": [
        {
          "internalType": "bool",
          "name": "",
          "type": "bool"
        }
      ],
      "stateMutability": "nonpayable",
      "type": "function"
    },
    {
      "inputs": [
        {
          "internalType": "uint256",
          "name": "assignmentId",
          "type": "uint256"
        }
      ],
      "name": "getAssignmentInfo",
      "outputs": [
        {
          "internalType": "uint256",
          "name": "",
          "type": "uint256"
        },
        {
          "internalType": "string",
          "name": "",
          "type": "string"
        },
        {
          "internalType": "address",
          "name": "",
          "type": "address"
        },
        {
          "internalType": "uint8",
          "name": "",
          "type": "uint8"
        },
        {
          "internalType": "address",
          "name": "",
          "type": "address"
        },
        {
          "internalType": "enum Dojo.AssignmentApprovalState",
          "name": "",
          "type": "uint8"
        }
      ],
      "stateMutability": "view",
      "type": "function"
    },
    {
      "inputs": [
        {
          "internalType": "uint256",
          "name": "classId",
          "type": "uint256"
        }
      ],
      "name": "getClassInfo",
      "outputs": [
        {
          "internalType": "uint256",
          "name": "",
          "type": "uint256"
        },
        {
          "internalType": "string",
          "name": "",
          "type": "string"
        },
        {
          "internalType": "uint8",
          "name": "",
          "type": "uint8"
        },
        {
          "internalType": "address",
          "name": "",
          "type": "address"
        },
        {
          "internalType": "address[]",
          "name": "",
          "type": "address[]"
        }
      ],
      "stateMutability": "view",
      "type": "function"
    },
    {
      "inputs": [
        {
          "internalType": "uint256",
          "name": "consultId",
          "type": "uint256"
        }
      ],
      "name": "getConsultInfo",
      "outputs": [
        {
          "internalType": "uint256",
          "name": "",
          "type": "uint256"
        },
        {
          "internalType": "address",
          "name": "",
          "type": "address"
        },
        {
          "internalType": "uint8",
          "name": "",
          "type": "uint8"
        },
        {
          "internalType": "uint8",
          "name": "",
          "type": "uint8"
        },
        {
          "internalType": "address[]",
          "name": "",
          "type": "address[]"
        }
      ],
      "stateMutability": "view",
      "type": "function"
    },
    {
      "inputs": [
        {
          "internalType": "bytes32",
          "name": "role",
          "type": "bytes32"
        }
      ],
      "name": "getRoleAdmin",
      "outputs": [
        {
          "internalType": "bytes32",
          "name": "",
          "type": "bytes32"
        }
      ],
      "stateMutability": "view",
      "type": "function"
    },
    {
      "inputs": [],
      "name": "getStudents",
      "outputs": [
        {
          "internalType": "address[]",
          "name": "",
          "type": "address[]"
        }
      ],
      "stateMutability": "view",
      "type": "function"
    },
    {
      "inputs": [],
      "name": "getTeachers",
      "outputs": [
        {
          "internalType": "address[]",
          "name": "",
          "type": "address[]"
        }
      ],
      "stateMutability": "view",
      "type": "function"
    },
    {
      "inputs": [
        {
          "internalType": "bytes32",
          "name": "role",
          "type": "bytes32"
        },
        {
          "internalType": "address",
          "name": "account",
          "type": "address"
        }
      ],
      "name": "grantRole",
      "outputs": [],
      "stateMutability": "nonpayable",
      "type": "function"
    },
    {
      "inputs": [
        {
          "internalType": "bytes32",
          "name": "role",
          "type": "bytes32"
        },
        {
          "internalType": "address",
          "name": "account",
          "type": "address"
        }
      ],
      "name": "hasRole",
      "outputs": [
        {
          "internalType": "bool",
          "name": "",
          "type": "bool"
        }
      ],
      "stateMutability": "view",
      "type": "function"
    },
    {
      "inputs": [
        {
          "internalType": "address",
          "name": "spender",
          "type": "address"
        },
        {
          "internalType": "uint256",
          "name": "addedValue",
          "type": "uint256"
        }
      ],
      "name": "increaseAllowance",
      "outputs": [
        {
          "internalType": "bool",
          "name": "",
          "type": "bool"
        }
      ],
      "stateMutability": "nonpayable",
      "type": "function"
    },
    {
      "inputs": [
        {
          "internalType": "uint256",
          "name": "consultId",
          "type": "uint256"
        },
        {
          "internalType": "address",
          "name": "studentAddr",
          "type": "address"
        }
      ],
      "name": "markConsultAttendance",
      "outputs": [],
      "stateMutability": "nonpayable",
      "type": "function"
    },
    {
      "inputs": [
        {
          "internalType": "uint256",
          "name": "amount",
          "type": "uint256"
        }
      ],
      "name": "mint",
      "outputs": [],
      "stateMutability": "nonpayable",
      "type": "function"
    },
    {
      "inputs": [],
      "name": "name",
      "outputs": [
        {
          "internalType": "string",
          "name": "",
          "type": "string"
        }
      ],
      "stateMutability": "view",
      "type": "function"
    },
    {
      "inputs": [],
      "name": "nextAssignmentId",
      "outputs": [
        {
          "internalType": "uint256",
          "name": "",
          "type": "uint256"
        }
      ],
      "stateMutability": "view",
      "type": "function"
    },
    {
      "inputs": [],
      "name": "nextClassId",
      "outputs": [
        {
          "internalType": "uint256",
          "name": "",
          "type": "uint256"
        }
      ],
      "stateMutability": "view",
      "type": "function"
    },
    {
      "inputs": [],
      "name": "nextConsultId",
      "outputs": [
        {
          "internalType": "uint256",
          "name": "",
          "type": "uint256"
        }
      ],
      "stateMutability": "view",
      "type": "function"
    },
    {
      "inputs": [],
      "name": "numStudents",
      "outputs": [
        {
          "internalType": "uint256",
          "name": "",
          "type": "uint256"
        }
      ],
      "stateMutability": "view",
      "type": "function"
    },
    {
      "inputs": [],
      "name": "numTeachers",
      "outputs": [
        {
          "internalType": "uint256",
          "name": "",
          "type": "uint256"
        }
      ],
      "stateMutability": "view",
      "type": "function"
    },
    {
      "inputs": [
        {
          "internalType": "uint256",
          "name": "assignmentId",
          "type": "uint256"
        }
      ],
      "name": "payOutAssignment",
      "outputs": [],
      "stateMutability": "nonpayable",
      "type": "function"
    },
    {
      "inputs": [
        {
          "internalType": "bytes32",
          "name": "role",
          "type": "bytes32"
        },
        {
          "internalType": "address",
          "name": "account",
          "type": "address"
        }
      ],
      "name": "renounceRole",
      "outputs": [],
      "stateMutability": "nonpayable",
      "type": "function"
    },
    {
      "inputs": [
        {
          "internalType": "bytes32",
          "name": "role",
          "type": "bytes32"
        },
        {
          "internalType": "address",
          "name": "account",
          "type": "address"
        }
      ],
      "name": "revokeRole",
      "outputs": [],
      "stateMutability": "nonpayable",
      "type": "function"
    },
    {
      "inputs": [
        {
          "internalType": "uint256",
          "name": "assignmentId",
          "type": "uint256"
        }
      ],
      "name": "signUpForAssignment",
      "outputs": [],
      "stateMutability": "nonpayable",
      "type": "function"
    },
    {
      "inputs": [
        {
          "internalType": "uint256",
          "name": "classId",
          "type": "uint256"
        }
      ],
      "name": "signUpForClass",
      "outputs": [],
      "stateMutability": "nonpayable",
      "type": "function"
    },
    {
      "inputs": [
        {
          "internalType": "uint256",
          "name": "consultId",
          "type": "uint256"
        }
      ],
      "name": "signUpForConsult",
      "outputs": [],
      "stateMutability": "nonpayable",
      "type": "function"
    },
    {
      "inputs": [
        {
          "internalType": "uint256",
          "name": "",
          "type": "uint256"
        }
      ],
      "name": "studentAddresses",
      "outputs": [
        {
          "internalType": "address",
          "name": "",
          "type": "address"
        }
      ],
      "stateMutability": "view",
      "type": "function"
    },
    {
      "inputs": [
        {
          "internalType": "address",
          "name": "",
          "type": "address"
        }
      ],
      "name": "students",
      "outputs": [
        {
          "internalType": "string",
          "name": "name",
          "type": "string"
        },
        {
          "internalType": "address",
          "name": "wallet",
          "type": "address"
        }
      ],
      "stateMutability": "view",
      "type": "function"
    },
    {
      "inputs": [
        {
          "internalType": "bytes4",
          "name": "interfaceId",
          "type": "bytes4"
        }
      ],
      "name": "supportsInterface",
      "outputs": [
        {
          "internalType": "bool",
          "name": "",
          "type": "bool"
        }
      ],
      "stateMutability": "view",
      "type": "function"
    },
    {
      "inputs": [],
      "name": "symbol",
      "outputs": [
        {
          "internalType": "string",
          "name": "",
          "type": "string"
        }
      ],
      "stateMutability": "view",
      "type": "function"
    },
    {
      "inputs": [
        {
          "internalType": "uint256",
          "name": "",
          "type": "uint256"
        }
      ],
      "name": "teacherAddresses",
      "outputs": [
        {
          "internalType": "address",
          "name": "",
          "type": "address"
        }
      ],
      "stateMutability": "view",
      "type": "function"
    },
    {
      "inputs": [
        {
          "internalType": "address",
          "name": "",
          "type": "address"
        }
      ],
      "name": "teachers",
      "outputs": [
        {
          "internalType": "string",
          "name": "name",
          "type": "string"
        },
        {
          "internalType": "address",
          "name": "wallet",
          "type": "address"
        }
      ],
      "stateMutability": "view",
      "type": "function"
    },
    {
      "inputs": [],
      "name": "totalSupply",
      "outputs": [
        {
          "internalType": "uint256",
          "name": "",
          "type": "uint256"
        }
      ],
      "stateMutability": "view",
      "type": "function"
    },
    {
      "inputs": [
        {
          "internalType": "address",
          "name": "to",
          "type": "address"
        },
        {
          "internalType": "uint256",
          "name": "amount",
          "type": "uint256"
        }
      ],
      "name": "transfer",
      "outputs": [
        {
          "internalType": "bool",
          "name": "",
          "type": "bool"
        }
      ],
      "stateMutability": "nonpayable",
      "type": "function"
    },
    {
      "inputs": [
        {
          "internalType": "address",
          "name": "from",
          "type": "address"
        },
        {
          "internalType": "address",
          "name": "to",
          "type": "address"
        },
        {
          "internalType": "uint256",
          "name": "amount",
          "type": "uint256"
        }
      ],
      "name": "transferFrom",
      "outputs": [
        {
          "internalType": "bool",
          "name": "",
          "type": "bool"
        }
      ],
      "stateMutability": "nonpayable",
      "type": "function"
    }
  ],
  "bytecode": "0x60806040523480156200001157600080fd5b506040518060400160405280600a8152602001692237b537902a37b5b2b760b11b81525060405180604001604052806004815260200163444f4a4f60e01b81525081600490805190602001906200006a9291906200017d565b508051620000809060059060208401906200017d565b505050620000b57f1b8aa89fea4f5cfa20af0b8bb319a2ddab4efa8f9d1c5d0e5259a7a8649175af33620000cd60201b60201c565b600680546001600160a01b0319163317905562000260565b620000d98282620000dd565b5050565b6000828152602081815260408083206001600160a01b038516845290915290205460ff16620000d9576000828152602081815260408083206001600160a01b03851684529091529020805460ff19166001179055620001393390565b6001600160a01b0316816001600160a01b0316837f2f8788117e7eff1d82e926ec794901d17c78024a50270940304540a733656f0d60405160405180910390a45050565b8280546200018b9062000223565b90600052602060002090601f016020900481019282620001af5760008555620001fa565b82601f10620001ca57805160ff1916838001178555620001fa565b82800160010185558215620001fa579182015b82811115620001fa578251825591602001919060010190620001dd565b50620002089291506200020c565b5090565b5b808211156200020857600081556001016200020d565b600181811c908216806200023857607f821691505b602082108114156200025a57634e487b7160e01b600052602260045260246000fd5b50919050565b6149dd80620002706000396000f3fe608060405234801561001057600080fd5b50600436106103415760003560e01c80636e818598116101bd578063a9059cbb116100f9578063ea9e8668116100a2578063f7be43fb1161007c578063f7be43fb146107eb578063f8240aed14610812578063fc0323ad14610825578063ffc92a621461083857600080fd5b8063ea9e8668146107bd578063f0a47f78146107d0578063f1d064b3146107e357600080fd5b8063d547741f116100d3578063d547741f1461075e578063d8aef47e14610771578063dd62ed3e1461078457600080fd5b8063a9059cbb146106a9578063b5ab682d146106bc578063b9adc019146106e757600080fd5b806395d89b4111610166578063a36042db11610140578063a36042db1461064f578063a457c2d714610662578063a6c807a914610675578063a6ec47281461069657600080fd5b806395d89b411461062c578063a0712d6814610634578063a217fddf1461064757600080fd5b80638255da5b116101975780638255da5b146105bb57806386e5c15a146105ce57806391d14854146105f557600080fd5b80636e8185981461056657806370a082311461056f578063817dbe9f1461059857600080fd5b8063313ce5671161028c5780634e50c75c11610235578063540bfb721161020f578063540bfb721461051d5780635a3f757c146105415780636c815d21146105545780636ca8cc8c1461055d57600080fd5b80634e50c75c146104dd578063505b0e03146105025780635137fdaa1461050a57600080fd5b8063395093511161026657806339509351146104ae5780633cd2c1e4146104c15780633d0cef8d146104d457600080fd5b8063313ce5671461046257806336568abe14610477578063384fc47b1461048a57600080fd5b806318160ddd116102ee57806325c3385f116102c857806325c3385f146104135780632d4bf1541461043a5780632f2ff15d1461044f57600080fd5b806318160ddd146103d557806323b872dd146103dd578063248a9ca3146103f057600080fd5b80630afad82d1161031f5780630afad82d146103965780630e31dd65146103ad57806310468c2f146103c257600080fd5b806301ffc9a71461034657806306fdde031461036e578063095ea7b314610383575b600080fd5b6103596103543660046144e1565b61084b565b60405190151581526020015b60405180910390f35b6103766108e4565b6040516103659190614749565b61035961039136600461447e565b610976565b61039f60085481565b604051908152602001610365565b6103c06103bb3660046144a7565b61098e565b005b6103c06103d0366004614521565b610cfb565b60035461039f565b6103596103eb366004614443565b611141565b61039f6103fe3660046144a7565b60009081526020819052604090206001015490565b61039f7f1b8aa89fea4f5cfa20af0b8bb319a2ddab4efa8f9d1c5d0e5259a7a8649175af81565b610442611165565b6040516103659190614736565b6103c061045d3660046144bf565b6111c6565b60125b60405160ff9091168152602001610365565b6103c06104853660046144bf565b6111f0565b61049d6104983660046144a7565b61127c565b604051610365959493929190614787565b6103596104bc36600461447e565b611477565b6103c06104cf3660046144a7565b6114b6565b61039f60075481565b6104f06104eb3660046144a7565b611725565b604051610365969594939291906147cc565b610465600581565b6103c06105183660046144bf565b6117f6565b61053061052b3660046144a7565b611b98565b604051610365959493929190614872565b6103c061054f366004614573565b611eb7565b61039f600a5481565b61039f60095481565b61039f600b5481565b61039f61057d3660046143f7565b6001600160a01b031660009081526001602052604090205490565b6105ab6105a63660046144a7565b6120ac565b6040516103659493929190614836565b6103c06105c93660046145bc565b61216b565b61039f7fd16e204b8a42a15ab0ea6bb8ec1ecdfbe69f38074fc865323af19efe7d9573d981565b6103596106033660046144bf565b6000918252602082815260408084206001600160a01b0393909316845291905290205460ff1690565b610376612406565b6103c06106423660046144a7565b612415565b61039f600081565b6103c061065d366004614521565b6124a0565b61035961067036600461447e565b612863565b6106886106833660046143f7565b61290d565b60405161036592919061475c565b6104f06106a43660046144a7565b6129ba565b6103596106b736600461447e565b612cc9565b6106cf6106ca3660046144a7565b612cd7565b6040516001600160a01b039091168152602001610365565b61072d6106f53660046144a7565b601160205260009081526040902080546001909101546001600160a01b0381169060ff600160a01b8204811691600160a81b90041684565b604080519485526001600160a01b03909316602085015260ff91821692840192909252166060820152608001610365565b6103c061076c3660046144bf565b612d01565b6106cf61077f3660046144a7565b612d26565b61039f610792366004614411565b6001600160a01b03918216600090815260026020908152604080832093909416825291909152205490565b6103c06107cb3660046144a7565b612d36565b6106886107de3660046143f7565b61315f565b61044261317a565b61039f7f36a5c4aaacb6b388bbd448bf11096b7dafc5652bcc9046084fd0e95b1fb0b2cc81565b6103c06108203660046144a7565b6131da565b6103c061083336600461460d565b6134ab565b6103c06108463660046144a7565b613627565b60007fffffffff0000000000000000000000000000000000000000000000000000000082167f7965db0b0000000000000000000000000000000000000000000000000000000014806108de57507f01ffc9a7000000000000000000000000000000000000000000000000000000007fffffffff000000000000000000000000000000000000000000000000000000008316145b92915050565b6060600480546108f39061493b565b80601f016020809104026020016040519081016040528092919081815260200182805461091f9061493b565b801561096c5780601f106109415761010080835404028352916020019161096c565b820191906000526020600020905b81548152906001019060200180831161094f57829003601f168201915b5050505050905090565b6000336109848185856139ba565b5060019392505050565b3360009081527f367a0034d391753fe6c9264898af6f14ce9baa3417708a6b9910903ee032526d602052604090205460ff16610a115760405162461bcd60e51b815260206004820152601760248201527f43616c6c6572206973206e6f7420612073747564656e7400000000000000000060448201526064015b60405180910390fd5b6000818152601260209081526040808320815160c081019092528054825260018101805486959484019190610a459061493b565b80601f0160208091040260200160405190810160405280929190818152602001828054610a719061493b565b8015610abe5780601f10610a9357610100808354040283529160200191610abe565b820191906000526020600020905b815481529060010190602001808311610aa157829003601f168201915b50505091835250506002828101546001600160a01b03808216602085015260ff600160a01b9283900481166040860152600386015491821660608601526080909401939190041690811115610b2357634e487b7160e01b600052602160045260246000fd5b6002811115610b4257634e487b7160e01b600052602160045260246000fd5b90525060408101519091506001600160a01b0316610ba25760405162461bcd60e51b815260206004820152601960248201527f41737369676e6d656e7420646f6573206e6f74206578697374000000000000006044820152606401610a08565b600083815260126020526040902060016003820154600160a01b900460ff166002811115610be057634e487b7160e01b600052602160045260246000fd5b14610c2d5760405162461bcd60e51b815260206004820152601b60248201527f41737369676e6d656e74206e6f7420617070726f7665642079657400000000006044820152606401610a08565b60038101546001600160a01b031615610cad5760405162461bcd60e51b8152602060048201526024808201527f41737369676e6d656e7420616c7265616479206861732061207061727469636960448201527f70616e74000000000000000000000000000000000000000000000000000000006064820152608401610a08565b6003810180546001600160a01b031916339081179091556000908152600f602090815260408083208784526004810190925290912080546001919060ff191682805b02179055505050505050565b3360009081527f33b3b3ea0d075ccba1b1f127cfd5d5003c22cb56907f29a4a8655546d07a7dcb602052604090205460ff16610d795760405162461bcd60e51b815260206004820152601b60248201527f43616c6c6572206973206e6f7420746865207072696e636970616c00000000006044820152606401610a08565b6001600160a01b03811660009081527f33b3b3ea0d075ccba1b1f127cfd5d5003c22cb56907f29a4a8655546d07a7dcb6020526040902054819060ff1615610e0d5760405162461bcd60e51b815260206004820152602160248201527f57616c6c657420616c726561647920686173207072696e636970616c20726f6c6044820152606560f81b6064820152608401610a08565b6001600160a01b03811660009081527fcf98a50713a46bc7d810e98b1cc1a3fcb3a8dfd74ea22d9ee00b2bbfaa2edc01602052604090205460ff1615610ea15760405162461bcd60e51b815260206004820152602360248201527f57616c6c657420616c72656164792068617320746865207465616368657220726044820152626f6c6560e81b6064820152608401610a08565b6001600160a01b03811660009081527f367a0034d391753fe6c9264898af6f14ce9baa3417708a6b9910903ee032526d602052604090205460ff1615610f355760405162461bcd60e51b815260206004820152602360248201527f57616c6c657420616c726561647920686173207468652073747564656e7420726044820152626f6c6560e81b6064820152608401610a08565b83838080601f016020809104026020016040519081016040528093929190818152602001838380828437600092019190915250610f779250839150613b129050565b15610fc45760405162461bcd60e51b815260206004820152601660248201527f537472696e672063616e6e6f7420626520656d707479000000000000000000006044820152606401610a08565b306000908152600160205260409020546005111561102e5760405162461bcd60e51b815260206004820152602160248201527f54726561737572792068617320696e73756666696369656e742062616c616e636044820152606560f81b6064820152608401610a08565b61103a30846005613b17565b6110647f36a5c4aaacb6b388bbd448bf11096b7dafc5652bcc9046084fd0e95b1fb0b2cc84613d2e565b6001600160a01b0383166000908152600f60205260409020611087818787614276565b50600180820180546001600160a01b0387166001600160a01b03199182168117909255600d805493840181556000527fd7b6990105719101dabeb77144f2a3385c8033acd3af97e9423a695e81ad1eb5909201805490921681179091556040516110f490889088906146a5565b604051908190038120907fa3b545e47f99e31ea1fc5b0f00322c9b1425d3da179a8903d91ac23b8928dc6090600090a36008805490600061113483614976565b9190505550505050505050565b60003361114f858285613d38565b61115a858585613b17565b506001949350505050565b6060600c80548060200260200160405190810160405280929190818152602001828054801561096c57602002820191906000526020600020905b81546001600160a01b0316815260019091019060200180831161119f575050505050905090565b6000828152602081905260409020600101546111e181613dc4565b6111eb8383613dce565b505050565b6001600160a01b038116331461126e5760405162461bcd60e51b815260206004820152602f60248201527f416363657373436f6e74726f6c3a2063616e206f6e6c792072656e6f756e636560448201527f20726f6c657320666f722073656c6600000000000000000000000000000000006064820152608401610a08565b6112788282613e6c565b5050565b6000818152601160209081526040808320815160a0810183528154815260018201546001600160a01b0381168286015260ff600160a01b8204811683860152600160a81b9091041660608281019190915260028301805485518188028101880190965280865287968796879694958b95889591949093608086019392919083018282801561133357602002820191906000526020600020905b81546001600160a01b03168152600190910190602001808311611315575b5050509190925250505060208101519091506001600160a01b031661139a5760405162461bcd60e51b815260206004820152601660248201527f436f6e73756c7420646f6573206e6f74206578697374000000000000000000006044820152606401610a08565b6000888152601160209081526040808320815160a0810183528154815260018201546001600160a01b0381168286015260ff600160a01b8204811683860152600160a81b90910416606082015260028201805484518187028101870190955280855291949293608086019390929083018282801561144157602002820191906000526020600020905b81546001600160a01b03168152600190910190602001808311611423575b5050509190925250508151602083015160408401516060850151608090950151929e919d509b5092995097509095505050505050565b3360008181526002602090815260408083206001600160a01b038716845290915281205490919061098490829086906114b19087906148c1565b6139ba565b3360009081527f367a0034d391753fe6c9264898af6f14ce9baa3417708a6b9910903ee032526d602052604090205460ff166115345760405162461bcd60e51b815260206004820152601760248201527f43616c6c6572206973206e6f7420612073747564656e740000000000000000006044820152606401610a08565b6000818152601060209081526040808320815160a0810190925280548252600181018054869594840191906115689061493b565b80601f01602080910402602001604051908101604052809291908181526020018280546115949061493b565b80156115e15780601f106115b6576101008083540402835291602001916115e1565b820191906000526020600020905b8154815290600101906020018083116115c457829003601f168201915b5050509183525050600282015460ff81166020808401919091526101009091046001600160a01b0316604080840191909152600384018054825181850281018501909352808352606090940193919290919083018282801561166c57602002820191906000526020600020905b81546001600160a01b0316815260019091019060200180831161164e575b50505050508152505090506116848160200151511590565b156116d15760405162461bcd60e51b815260206004820152601460248201527f436c61737320646f6573206e6f742065786973740000000000000000000000006044820152606401610a08565b505060008181526010602090815260408083206003018054600181810183559185528385200180546001600160a01b031916339081179091558452600f835290832060020180549182018155835291200155565b601260205260009081526040902080546001820180549192916117479061493b565b80601f01602080910402602001604051908101604052809291908181526020018280546117739061493b565b80156117c05780601f10611795576101008083540402835291602001916117c0565b820191906000526020600020905b8154815290600101906020018083116117a357829003601f168201915b50505050600283015460039093015491926001600160a01b038082169360ff600160a01b93849004811694509181169290041686565b3360009081527fcf98a50713a46bc7d810e98b1cc1a3fcb3a8dfd74ea22d9ee00b2bbfaa2edc01602052604090205460ff166118745760405162461bcd60e51b815260206004820152601760248201527f43616c6c6572206973206e6f74206120746561636865720000000000000000006044820152606401610a08565b6000828152601160209081526040808320815160a0810183528154815260018201546001600160a01b0381168286015260ff600160a01b8204811683860152600160a81b909104166060820152600282018054845181870281018701909552808552889695929460808601939092919083018282801561191d57602002820191906000526020600020905b81546001600160a01b031681526001909101906020018083116118ff575b5050509190925250505060208101519091506001600160a01b03166119845760405162461bcd60e51b815260206004820152601660248201527f436f6e73756c7420646f6573206e6f74206578697374000000000000000000006044820152606401610a08565b6001600160a01b0383166000908152600f602052604090206001600086815260038301602052604090205460ff1660028111156119d157634e487b7160e01b600052602160045260246000fd5b14611a445760405162461bcd60e51b815260206004820152602360248201527f53747564656e7420646964206e6f74207369676e20757020666f7220636f6e7360448201527f756c7400000000000000000000000000000000000000000000000000000000006064820152608401610a08565b600085815260116020526040902060018101546001600160a01b03163314611ad45760405162461bcd60e51b815260206004820152603860248201527f4f6e6c7920746865207465616368657220686f7374696e672074686520636f6e60448201527f73756c742063616e206d61726b20617474656e64616e636500000000000000006064820152608401610a08565b600181015460ff600160a01b90910416611b03306001600160a01b031660009081526001602052604090205490565b1015611b5b5760405162461bcd60e51b815260206004820152602160248201527f54726561737572792068617320696e73756666696369656e742062616c616e636044820152606560f81b6064820152608401610a08565b6001810154611b779030908790600160a01b900460ff16613b17565b50600094855260030160205250506040909120805460ff1916600217905550565b600060606000806060856000601060008381526020019081526020016000206040518060a001604052908160008201548152602001600182018054611bdc9061493b565b80601f0160208091040260200160405190810160405280929190818152602001828054611c089061493b565b8015611c555780601f10611c2a57610100808354040283529160200191611c55565b820191906000526020600020905b815481529060010190602001808311611c3857829003601f168201915b5050509183525050600282015460ff81166020808401919091526101009091046001600160a01b03166040808401919091526003840180548251818502810185019093528083526060909401939192909190830182828015611ce057602002820191906000526020600020905b81546001600160a01b03168152600190910190602001808311611cc2575b5050505050815250509050611cf88160200151511590565b15611d455760405162461bcd60e51b815260206004820152601460248201527f436c61737320646f6573206e6f742065786973740000000000000000000000006044820152606401610a08565b6000601060008a81526020019081526020016000206040518060a001604052908160008201548152602001600182018054611d7f9061493b565b80601f0160208091040260200160405190810160405280929190818152602001828054611dab9061493b565b8015611df85780601f10611dcd57610100808354040283529160200191611df8565b820191906000526020600020905b815481529060010190602001808311611ddb57829003601f168201915b5050509183525050600282015460ff81166020808401919091526101009091046001600160a01b03166040808401919091526003840180548251818502810185019093528083526060909401939192909190830182828015611441576020028201919060005260206000209081546001600160a01b03168152600190910190602001808311611423575050509190925250508151602083015160408401516060850151608090950151929e919d509b5092995097509095505050505050565b3360009081527fcf98a50713a46bc7d810e98b1cc1a3fcb3a8dfd74ea22d9ee00b2bbfaa2edc01602052604090205460ff16611f355760405162461bcd60e51b815260206004820152601760248201527f43616c6c6572206973206e6f74206120746561636865720000000000000000006044820152606401610a08565b82828080601f016020809104026020016040519081016040528093929190818152602001838380828437600092019190915250611f779250839150613b129050565b15611fc45760405162461bcd60e51b815260206004820152601660248201527f537472696e672063616e6e6f7420626520656d707479000000000000000000006044820152606401610a08565b6009546000818152601060205260409020611fe3600182018787614276565b506002808201805433610100810274ffffffffffffffffffffffffffffffffffffffffff1990921660ff891617919091179091556000818152600e60209081526040808320948501805460018101825590845291909220018590555161204c90899089906146a5565b6040805191829003822086835260ff89166020840152917fd04404b0d0aaf1a71455c1e28a5c9cab929bd6f28695252d57f185d6e231b415910160405180910390a36009805490600061209e83614976565b919050555050505050505050565b601060205260009081526040902080546001820180549192916120ce9061493b565b80601f01602080910402602001604051908101604052809291908181526020018280546120fa9061493b565b80156121475780601f1061211c57610100808354040283529160200191612147565b820191906000526020600020905b81548152906001019060200180831161212a57829003601f168201915b5050506002909301549192505060ff8116906001600160a01b036101009091041684565b3360009081527fcf98a50713a46bc7d810e98b1cc1a3fcb3a8dfd74ea22d9ee00b2bbfaa2edc01602052604090205460ff166121e95760405162461bcd60e51b815260206004820152601760248201527f43616c6c6572206973206e6f74206120746561636865720000000000000000006044820152606401610a08565b81818080601f01602080910402602001604051908101604052809392919081815260200183838082843760009201919091525061222b9250839150613b129050565b156122785760405162461bcd60e51b815260206004820152601660248201527f537472696e672063616e6e6f7420626520656d707479000000000000000000006044820152606401610a08565b6000600b5490506040518060c0016040528082815260200185858080601f016020809104026020016040519081016040528093929190818152602001838380828437600092018290525093855250503360208401525060ff88166040830152606082018190526080909101526000828152601260209081526040909120825181558282015180519192612313926001850192909101906142fa565b5060408201516002828101805460608601516001600160a01b0394851674ffffffffffffffffffffffffffffffffffffffffff1992831617600160a01b60ff90921682021790925560808601516003860180546001600160a01b0319811692909616918217815560a0880151959094921617919084908111156123a657634e487b7160e01b600052602160045260246000fd5b021790555050600b8054915060006123bd83614976565b90915550506040805182815260ff8716602082015233917ffc09a35c328c37e046c74e1e320d900bf73b045516c7a28334e4f968a5b57755910160405180910390a25050505050565b6060600580546108f39061493b565b3360009081527f33b3b3ea0d075ccba1b1f127cfd5d5003c22cb56907f29a4a8655546d07a7dcb602052604090205460ff166124935760405162461bcd60e51b815260206004820152601b60248201527f43616c6c6572206973206e6f7420746865207072696e636970616c00000000006044820152606401610a08565b61249d3082613eeb565b50565b3360009081527f33b3b3ea0d075ccba1b1f127cfd5d5003c22cb56907f29a4a8655546d07a7dcb602052604090205460ff1661251e5760405162461bcd60e51b815260206004820152601b60248201527f43616c6c6572206973206e6f7420746865207072696e636970616c00000000006044820152606401610a08565b6001600160a01b03811660009081527f33b3b3ea0d075ccba1b1f127cfd5d5003c22cb56907f29a4a8655546d07a7dcb6020526040902054819060ff16156125b25760405162461bcd60e51b815260206004820152602160248201527f57616c6c657420616c726561647920686173207072696e636970616c20726f6c6044820152606560f81b6064820152608401610a08565b6001600160a01b03811660009081527fcf98a50713a46bc7d810e98b1cc1a3fcb3a8dfd74ea22d9ee00b2bbfaa2edc01602052604090205460ff16156126465760405162461bcd60e51b815260206004820152602360248201527f57616c6c657420616c72656164792068617320746865207465616368657220726044820152626f6c6560e81b6064820152608401610a08565b6001600160a01b03811660009081527f367a0034d391753fe6c9264898af6f14ce9baa3417708a6b9910903ee032526d602052604090205460ff16156126da5760405162461bcd60e51b815260206004820152602360248201527f57616c6c657420616c726561647920686173207468652073747564656e7420726044820152626f6c6560e81b6064820152608401610a08565b83838080601f01602080910402602001604051908101604052809392919081815260200183838082843760009201919091525061271c9250839150613b129050565b156127695760405162461bcd60e51b815260206004820152601660248201527f537472696e672063616e6e6f7420626520656d707479000000000000000000006044820152606401610a08565b6127937fd16e204b8a42a15ab0ea6bb8ec1ecdfbe69f38074fc865323af19efe7d9573d984613d2e565b6001600160a01b0383166000908152600e602052604090206127b6818787614276565b50600180820180546001600160a01b0387166001600160a01b03199182168117909255600c805493840181556000527fdf6966c971051c3d54ec59162606531493a51404a002842f56009d7e5cf4a8c79092018054909216811790915560405161282390889088906146a5565b604051908190038120907f3f15398ebf2b7250000c5158ac33356467bcec9c28389cc4fd691c5fbaf65ee390600090a36007805490600061113483614976565b3360008181526002602090815260408083206001600160a01b0387168452909152812054909190838110156129005760405162461bcd60e51b815260206004820152602560248201527f45524332303a2064656372656173656420616c6c6f77616e63652062656c6f7760448201527f207a65726f0000000000000000000000000000000000000000000000000000006064820152608401610a08565b61115a82868684036139ba565b600f602052600090815260409020805481906129289061493b565b80601f01602080910402602001604051908101604052809291908181526020018280546129549061493b565b80156129a15780601f10612976576101008083540402835291602001916129a1565b820191906000526020600020905b81548152906001019060200180831161298457829003601f168201915b505050600190930154919250506001600160a01b031682565b60006060600080600080866000601260008381526020019081526020016000206040518060c0016040529081600082015481526020016001820180546129ff9061493b565b80601f0160208091040260200160405190810160405280929190818152602001828054612a2b9061493b565b8015612a785780601f10612a4d57610100808354040283529160200191612a78565b820191906000526020600020905b815481529060010190602001808311612a5b57829003601f168201915b50505091835250506002828101546001600160a01b03808216602085015260ff600160a01b9283900481166040860152600386015491821660608601526080909401939190041690811115612add57634e487b7160e01b600052602160045260246000fd5b6002811115612afc57634e487b7160e01b600052602160045260246000fd5b90525060408101519091506001600160a01b0316612b5c5760405162461bcd60e51b815260206004820152601960248201527f41737369676e6d656e7420646f6573206e6f74206578697374000000000000006044820152606401610a08565b6000601260008b81526020019081526020016000206040518060c001604052908160008201548152602001600182018054612b969061493b565b80601f0160208091040260200160405190810160405280929190818152602001828054612bc29061493b565b8015612c0f5780601f10612be457610100808354040283529160200191612c0f565b820191906000526020600020905b815481529060010190602001808311612bf257829003601f168201915b50505091835250506002828101546001600160a01b03808216602085015260ff600160a01b9283900481166040860152600386015491821660608601526080909401939190041690811115612c7457634e487b7160e01b600052602160045260246000fd5b6002811115612c9357634e487b7160e01b600052602160045260246000fd5b9052508051602082015160408301516060840151608085015160a090950151939f929e50909c509a509198509650945050505050565b600033610984818585613b17565b600d8181548110612ce757600080fd5b6000918252602090912001546001600160a01b0316905081565b600082815260208190526040902060010154612d1c81613dc4565b6111eb8383613e6c565b600c8181548110612ce757600080fd5b3360009081527fcf98a50713a46bc7d810e98b1cc1a3fcb3a8dfd74ea22d9ee00b2bbfaa2edc01602052604090205460ff16612db45760405162461bcd60e51b815260206004820152601760248201527f43616c6c6572206973206e6f74206120746561636865720000000000000000006044820152606401610a08565b6000818152601260209081526040808320815160c081019092528054825260018101805486959484019190612de89061493b565b80601f0160208091040260200160405190810160405280929190818152602001828054612e149061493b565b8015612e615780601f10612e3657610100808354040283529160200191612e61565b820191906000526020600020905b815481529060010190602001808311612e4457829003601f168201915b50505091835250506002828101546001600160a01b03808216602085015260ff600160a01b9283900481166040860152600386015491821660608601526080909401939190041690811115612ec657634e487b7160e01b600052602160045260246000fd5b6002811115612ee557634e487b7160e01b600052602160045260246000fd5b90525060408101519091506001600160a01b0316612f455760405162461bcd60e51b815260206004820152601960248201527f41737369676e6d656e7420646f6573206e6f74206578697374000000000000006044820152606401610a08565b600083815260126020526040902060016003820154600160a01b900460ff166002811115612f8357634e487b7160e01b600052602160045260246000fd5b14612fd05760405162461bcd60e51b815260206004820152601b60248201527f41737369676e6d656e74206e6f7420617070726f7665642079657400000000006044820152606401610a08565b60038101546001600160a01b03166130505760405162461bcd60e51b815260206004820152602a60248201527f41737369676e6d656e7420646f6573206e6f742068617665206120706172746960448201527f636970616e7420796574000000000000000000000000000000000000000000006064820152608401610a08565b60028101546001600160a01b031633146130d25760405162461bcd60e51b815260206004820152603b60248201527f4f6e6c792074686520746561636865722074686174206372656174656420746860448201527f652061737369676e6d656e742063616e20706179206974206f757400000000006064820152608401610a08565b60038101805460ff60a01b198116740200000000000000000000000000000000000000001790915560028201546131209130916001600160a01b0390911690600160a01b900460ff16611141565b5060038101546001600160a01b03166000908152600f602090815260408083208784526004810190925290912080546002919060ff1916600183610cef565b600e602052600090815260409020805481906129289061493b565b6060600d80548060200260200160405190810160405280929190818152602001828054801561096c576020028201919060005260206000209081546001600160a01b0316815260019091019060200180831161119f575050505050905090565b3360009081527f33b3b3ea0d075ccba1b1f127cfd5d5003c22cb56907f29a4a8655546d07a7dcb602052604090205460ff166132585760405162461bcd60e51b815260206004820152601b60248201527f43616c6c6572206973206e6f7420746865207072696e636970616c00000000006044820152606401610a08565b6000818152601260209081526040808320815160c08101909252805482526001810180548695948401919061328c9061493b565b80601f01602080910402602001604051908101604052809291908181526020018280546132b89061493b565b80156133055780601f106132da57610100808354040283529160200191613305565b820191906000526020600020905b8154815290600101906020018083116132e857829003601f168201915b50505091835250506002828101546001600160a01b03808216602085015260ff600160a01b928390048116604086015260038601549182166060860152608090940193919004169081111561336a57634e487b7160e01b600052602160045260246000fd5b600281111561338957634e487b7160e01b600052602160045260246000fd5b90525060408101519091506001600160a01b03166133e95760405162461bcd60e51b815260206004820152601960248201527f41737369676e6d656e7420646f6573206e6f74206578697374000000000000006044820152606401610a08565b600083815260126020908152604080832060028101543085526001909352922054600160a01b90910460ff16111561346d5760405162461bcd60e51b815260206004820152602160248201527f54726561737572792068617320696e73756666696369656e742062616c616e636044820152606560f81b6064820152608401610a08565b60038101805460ff60a01b1916600160a01b90811790915560028201546134a59130916001600160a01b03811691900460ff166139ba565b50505050565b3360009081527fcf98a50713a46bc7d810e98b1cc1a3fcb3a8dfd74ea22d9ee00b2bbfaa2edc01602052604090205460ff166135295760405162461bcd60e51b815260206004820152601760248201527f43616c6c6572206973206e6f74206120746561636865720000000000000000006044820152606401610a08565b600a5460008181526011602090815260408083206001808201805474ffffffffffffffffffffffffffffffffffffffffff19163360ff60a01b19811691909117600160a01b60ff8c8116918202929092177fffffffffffffffffffff00ffffffffffffffffffffffffffffffffffffffffff16600160a81b928c1692830217909355818852600e875285882060038101805495860181558952978790209093018890558451888152958601919091529284015292917fa59d53e4fc0bcc624c8664519b281b0c8d6141eee210ec7f7a38b70c319b97d89060600160405180910390a2600a805490600061361b83614976565b91905055505050505050565b3360009081527f367a0034d391753fe6c9264898af6f14ce9baa3417708a6b9910903ee032526d602052604090205460ff166136a55760405162461bcd60e51b815260206004820152601760248201527f43616c6c6572206973206e6f7420612073747564656e740000000000000000006044820152606401610a08565b6000818152601160209081526040808320815160a0810183528154815260018201546001600160a01b0381168286015260ff600160a01b8204811683860152600160a81b909104166060820152600282018054845181870281018701909552808552879695929460808601939092919083018282801561374e57602002820191906000526020600020905b81546001600160a01b03168152600190910190602001808311613730575b5050509190925250505060208101519091506001600160a01b03166137b55760405162461bcd60e51b815260206004820152601660248201527f436f6e73756c7420646f6573206e6f74206578697374000000000000000000006044820152606401610a08565b600083815260116020526040902060018101546002820154600160a81b90910460ff161161384b5760405162461bcd60e51b815260206004820152602660248201527f436f6e73756c7420697320616c7265616479206174206d6178696d756d20636160448201527f70616369747900000000000000000000000000000000000000000000000000006064820152608401610a08565b600181015460ff600160a01b9091041661387a336001600160a01b031660009081526001602052604090205490565b10156138c85760405162461bcd60e51b815260206004820181905260248201527f53747564656e742068617320696e73756666696369656e742062616c616e63656044820152606401610a08565b336000908152600f6020526040812090600086815260038301602052604090205460ff16600281111561390b57634e487b7160e01b600052602160045260246000fd5b146139585760405162461bcd60e51b815260206004820152601d60248201527f53747564656e742068617320616c7265616479207369676e65642075700000006044820152606401610a08565b60018201546139749033903090600160a01b900460ff16613b17565b600282018054600181810183556000928352602080842090920180546001600160a01b03191633179055878352600384019091526040909120805460ff19168280610cef565b6001600160a01b038316613a355760405162461bcd60e51b8152602060048201526024808201527f45524332303a20617070726f76652066726f6d20746865207a65726f2061646460448201527f72657373000000000000000000000000000000000000000000000000000000006064820152608401610a08565b6001600160a01b038216613ab15760405162461bcd60e51b815260206004820152602260248201527f45524332303a20617070726f766520746f20746865207a65726f20616464726560448201527f73730000000000000000000000000000000000000000000000000000000000006064820152608401610a08565b6001600160a01b0383811660008181526002602090815260408083209487168084529482529182902085905590518481527f8c5be1e5ebec7d5bd14f71427d1e84f3dd0314c0f7b2291e5b200ac8c7c3b925910160405180910390a3505050565b511590565b6001600160a01b038316613b935760405162461bcd60e51b815260206004820152602560248201527f45524332303a207472616e736665722066726f6d20746865207a65726f20616460448201527f64726573730000000000000000000000000000000000000000000000000000006064820152608401610a08565b6001600160a01b038216613c0f5760405162461bcd60e51b815260206004820152602360248201527f45524332303a207472616e7366657220746f20746865207a65726f206164647260448201527f65737300000000000000000000000000000000000000000000000000000000006064820152608401610a08565b6001600160a01b03831660009081526001602052604090205481811015613c9e5760405162461bcd60e51b815260206004820152602660248201527f45524332303a207472616e7366657220616d6f756e742065786365656473206260448201527f616c616e636500000000000000000000000000000000000000000000000000006064820152608401610a08565b6001600160a01b03808516600090815260016020526040808220858503905591851681529081208054849290613cd59084906148c1565b92505081905550826001600160a01b0316846001600160a01b03167fddf252ad1be2c89b69c2b068fc378daa952ba7f163c4a11628f55a4df523b3ef84604051613d2191815260200190565b60405180910390a36134a5565b6112788282613dce565b6001600160a01b0383811660009081526002602090815260408083209386168352929052205460001981146134a55781811015613db75760405162461bcd60e51b815260206004820152601d60248201527f45524332303a20696e73756666696369656e7420616c6c6f77616e63650000006044820152606401610a08565b6134a584848484036139ba565b61249d8133613fca565b6000828152602081815260408083206001600160a01b038516845290915290205460ff16611278576000828152602081815260408083206001600160a01b03851684529091529020805460ff19166001179055613e283390565b6001600160a01b0316816001600160a01b0316837f2f8788117e7eff1d82e926ec794901d17c78024a50270940304540a733656f0d60405160405180910390a45050565b6000828152602081815260408083206001600160a01b038516845290915290205460ff1615611278576000828152602081815260408083206001600160a01b0385168085529252808320805460ff1916905551339285917ff6391f5c32d9c69d2a47ea670b442974b53935d1edc7fd64eb21e047a839171b9190a45050565b6001600160a01b038216613f415760405162461bcd60e51b815260206004820152601f60248201527f45524332303a206d696e7420746f20746865207a65726f2061646472657373006044820152606401610a08565b8060036000828254613f5391906148c1565b90915550506001600160a01b03821660009081526001602052604081208054839290613f809084906148c1565b90915550506040518181526001600160a01b038316906000907fddf252ad1be2c89b69c2b068fc378daa952ba7f163c4a11628f55a4df523b3ef9060200160405180910390a35050565b6000828152602081815260408083206001600160a01b038516845290915290205460ff1661127857614006816001600160a01b03166014614048565b614011836020614048565b6040516020016140229291906146b5565b60408051601f198184030181529082905262461bcd60e51b8252610a0891600401614749565b606060006140578360026148d9565b6140629060026148c1565b67ffffffffffffffff81111561408857634e487b7160e01b600052604160045260246000fd5b6040519080825280601f01601f1916602001820160405280156140b2576020820181803683370190505b5090507f3000000000000000000000000000000000000000000000000000000000000000816000815181106140f757634e487b7160e01b600052603260045260246000fd5b60200101906001600160f81b031916908160001a9053507f78000000000000000000000000000000000000000000000000000000000000008160018151811061415057634e487b7160e01b600052603260045260246000fd5b60200101906001600160f81b031916908160001a90535060006141748460026148d9565b61417f9060016148c1565b90505b6001811115614220577f303132333435363738396162636465660000000000000000000000000000000085600f16601081106141ce57634e487b7160e01b600052603260045260246000fd5b1a60f81b8282815181106141f257634e487b7160e01b600052603260045260246000fd5b60200101906001600160f81b031916908160001a90535060049490941c9361421981614924565b9050614182565b50831561426f5760405162461bcd60e51b815260206004820181905260248201527f537472696e67733a20686578206c656e67746820696e73756666696369656e746044820152606401610a08565b9392505050565b8280546142829061493b565b90600052602060002090601f0160209004810192826142a457600085556142ea565b82601f106142bd5782800160ff198235161785556142ea565b828001600101855582156142ea579182015b828111156142ea5782358255916020019190600101906142cf565b506142f692915061436e565b5090565b8280546143069061493b565b90600052602060002090601f01602090048101928261432857600085556142ea565b82601f1061434157805160ff19168380011785556142ea565b828001600101855582156142ea579182015b828111156142ea578251825591602001919060010190614353565b5b808211156142f6576000815560010161436f565b80356001600160a01b038116811461439a57600080fd5b919050565b60008083601f8401126143b0578182fd5b50813567ffffffffffffffff8111156143c7578182fd5b6020830191508360208285010111156143df57600080fd5b9250929050565b803560ff8116811461439a57600080fd5b600060208284031215614408578081fd5b61426f82614383565b60008060408385031215614423578081fd5b61442c83614383565b915061443a60208401614383565b90509250929050565b600080600060608486031215614457578081fd5b61446084614383565b925061446e60208501614383565b9150604084013590509250925092565b60008060408385031215614490578182fd5b61449983614383565b946020939093013593505050565b6000602082840312156144b8578081fd5b5035919050565b600080604083850312156144d1578182fd5b8235915061443a60208401614383565b6000602082840312156144f2578081fd5b81357fffffffff000000000000000000000000000000000000000000000000000000008116811461426f578182fd5b600080600060408486031215614535578283fd5b833567ffffffffffffffff81111561454b578384fd5b6145578682870161439f565b909450925061456a905060208501614383565b90509250925092565b600080600060408486031215614587578283fd5b833567ffffffffffffffff81111561459d578384fd5b6145a98682870161439f565b909450925061456a9050602085016143e6565b6000806000604084860312156145d0578283fd5b6145d9846143e6565b9250602084013567ffffffffffffffff8111156145f4578283fd5b6146008682870161439f565b9497909650939450505050565b6000806040838503121561461f578182fd5b614628836143e6565b915061443a602084016143e6565b6000815180845260208085019450808401835b8381101561466e5781516001600160a01b031687529582019590820190600101614649565b509495945050505050565b600081518084526146918160208601602086016148f8565b601f01601f19169290920160200192915050565b8183823760009101908152919050565b7f416363657373436f6e74726f6c3a206163636f756e74200000000000000000008152600083516146ed8160178501602088016148f8565b7f206973206d697373696e6720726f6c6520000000000000000000000000000000601791840191820152835161472a8160288401602088016148f8565b01602801949350505050565b60208152600061426f6020830184614636565b60208152600061426f6020830184614679565b60408152600061476f6040830185614679565b90506001600160a01b03831660208301529392505050565b8581526001600160a01b038516602082015260ff8416604082015260ff8316606082015260a0608082015260006147c160a0830184614636565b979650505050505050565b86815260c0602082015260006147e560c0830188614679565b6001600160a01b03878116604085015260ff871660608501528516608084015290506003831061482557634e487b7160e01b600052602160045260246000fd5b8260a0830152979650505050505050565b84815260806020820152600061484f6080830186614679565b905060ff841660408301526001600160a01b038316606083015295945050505050565b85815260a06020820152600061488b60a0830187614679565b60ff861660408401526001600160a01b038516606084015282810360808401526148b58185614636565b98975050505050505050565b600082198211156148d4576148d4614991565b500190565b60008160001904831182151516156148f3576148f3614991565b500290565b60005b838110156149135781810151838201526020016148fb565b838111156134a55750506000910152565b60008161493357614933614991565b506000190190565b600181811c9082168061494f57607f821691505b6020821081141561497057634e487b7160e01b600052602260045260246000fd5b50919050565b600060001982141561498a5761498a614991565b5060010190565b634e487b7160e01b600052601160045260246000fdfea26469706673582212202a21ba346b72b17f020a274f0b52f916e6457faf55d2ffdee7a70a3b1ef5fc5664736f6c63430008040033",
  "linkReferences": {},
  "deployedLinkReferences": {}
}