{
  "_format": "hh-sol-artifact-1",
  "contractName": "ERC20Token",
  "sourceName": "contracts/ERC20.sol",
  "abi": [
    {
      "inputs": [
        {
          "internalType": "string",
          "name": "_tokenName",
          "type": "string"
        },
        {
          "internalType": "string",
          "name": "_tickerSymbol",
          "type": "string"
        },
        {
          "internalType": "uint256",
          "name": "_tokenTotalSupply",
          "type": "uint256"
        },
        {
          "internalType": "uint8",
          "name": "_decimals",
          "type": "uint8"
        }
      ],
      "stateMutability": "nonpayable",
      "type": "constructor"
    },
    {
      "anonymous": false,
      "inputs": [
        {
          "indexed": true,
          "internalType": "address",
          "name": "owner",
          "type": "address"
        },
        {
          "indexed": true,
          "internalType": "address",
          "name": "spender",
          "type": "address"
        },
        {
          "indexed": false,
          "internalType": "uint256",
          "name": "value",
          "type": "uint256"
        }
      ],
      "name": "Approval",
      "type": "event"
    },
    {
      "anonymous": false,
      "inputs": [
        {
          "indexed": true,
          "internalType": "address",
          "name": "teacher",
          "type": "address"
        },
        {
          "indexed": true,
          "internalType": "uint256",
          "name": "classId",
          "type": "uint256"
        },
        {
          "indexed": true,
          "internalType": "string",
          "name": "className",
          "type": "string"
        }
      ],
      "name": "ClassCreated",
      "type": "event"
    },
    {
      "anonymous": false,
      "inputs": [
        {
          "indexed": true,
          "internalType": "string",
          "name": "name",
          "type": "string"
        },
        {
          "indexed": true,
          "internalType": "address",
          "name": "wallet",
          "type": "address"
        }
      ],
      "name": "StudentAdded",
      "type": "event"
    },
    {
      "anonymous": false,
      "inputs": [
        {
          "indexed": true,
          "internalType": "string",
          "name": "name",
          "type": "string"
        },
        {
          "indexed": true,
          "internalType": "address",
          "name": "wallet",
          "type": "address"
        }
      ],
      "name": "TeacherAdded",
      "type": "event"
    },
    {
      "anonymous": false,
      "inputs": [
        {
          "indexed": true,
          "internalType": "address",
          "name": "from",
          "type": "address"
        },
        {
          "indexed": true,
          "internalType": "address",
          "name": "to",
          "type": "address"
        },
        {
          "indexed": false,
          "internalType": "uint256",
          "name": "value",
          "type": "uint256"
        }
      ],
      "name": "Transfer",
      "type": "event"
    },
    {
      "inputs": [],
      "name": "STARTINGAMOUNT",
      "outputs": [
        {
          "internalType": "uint256",
          "name": "",
          "type": "uint256"
        }
      ],
      "stateMutability": "view",
      "type": "function"
    },
    {
      "inputs": [
        {
          "internalType": "string",
          "name": "name",
          "type": "string"
        },
        {
          "internalType": "address",
          "name": "wallet",
          "type": "address"
        }
      ],
      "name": "addStudent",
      "outputs": [],
      "stateMutability": "nonpayable",
      "type": "function"
    },
    {
      "inputs": [
        {
          "internalType": "string",
          "name": "name",
          "type": "string"
        },
        {
          "internalType": "address",
          "name": "wallet",
          "type": "address"
        }
      ],
      "name": "addTeacher",
      "outputs": [],
      "stateMutability": "nonpayable",
      "type": "function"
    },
    {
      "inputs": [
        {
          "internalType": "address",
          "name": "owner",
          "type": "address"
        },
        {
          "internalType": "address",
          "name": "spender",
          "type": "address"
        }
      ],
      "name": "allowance",
      "outputs": [
        {
          "internalType": "uint256",
          "name": "",
          "type": "uint256"
        }
      ],
      "stateMutability": "view",
      "type": "function"
    },
    {
      "inputs": [
        {
          "internalType": "address",
          "name": "",
          "type": "address"
        },
        {
          "internalType": "address",
          "name": "",
          "type": "address"
        }
      ],
      "name": "allowed",
      "outputs": [
        {
          "internalType": "uint256",
          "name": "",
          "type": "uint256"
        }
      ],
      "stateMutability": "view",
      "type": "function"
    },
    {
      "inputs": [
        {
          "internalType": "address",
          "name": "spender",
          "type": "address"
        },
        {
          "internalType": "uint256",
          "name": "amount",
          "type": "uint256"
        }
      ],
      "name": "approve",
      "outputs": [
        {
          "internalType": "bool",
          "name": "",
          "type": "bool"
        }
      ],
      "stateMutability": "nonpayable",
      "type": "function"
    },
    {
      "inputs": [
        {
          "internalType": "address",
          "name": "account",
          "type": "address"
        }
      ],
      "name": "balanceOf",
      "outputs": [
        {
          "internalType": "uint256",
          "name": "",
          "type": "uint256"
        }
      ],
      "stateMutability": "view",
      "type": "function"
    },
    {
      "inputs": [
        {
          "internalType": "address",
          "name": "",
          "type": "address"
        }
      ],
      "name": "balances",
      "outputs": [
        {
          "internalType": "uint256",
          "name": "",
          "type": "uint256"
        }
      ],
      "stateMutability": "view",
      "type": "function"
    },
    {
      "inputs": [
        {
          "internalType": "uint256",
          "name": "",
          "type": "uint256"
        },
        {
          "internalType": "uint256",
          "name": "",
          "type": "uint256"
        }
      ],
      "name": "classAttendance",
      "outputs": [
        {
          "internalType": "address",
          "name": "",
          "type": "address"
        }
      ],
      "stateMutability": "view",
      "type": "function"
    },
    {
      "inputs": [
        {
          "internalType": "uint256",
          "name": "",
          "type": "uint256"
        }
      ],
      "name": "classes",
      "outputs": [
        {
          "internalType": "uint256",
          "name": "id",
          "type": "uint256"
        },
        {
          "internalType": "string",
          "name": "name",
          "type": "string"
        },
        {
          "internalType": "uint256",
          "name": "cost",
          "type": "uint256"
        },
        {
          "internalType": "address",
          "name": "teacher",
          "type": "address"
        }
      ],
      "stateMutability": "view",
      "type": "function"
    },
    {
      "inputs": [
        {
          "internalType": "string",
          "name": "name",
          "type": "string"
        },
        {
          "internalType": "uint256",
          "name": "cost",
          "type": "uint256"
        }
      ],
      "name": "createClass",
      "outputs": [
        {
          "internalType": "uint256",
          "name": "",
          "type": "uint256"
        }
      ],
      "stateMutability": "nonpayable",
      "type": "function"
    },
    {
      "inputs": [],
      "name": "decimals",
      "outputs": [
        {
          "internalType": "uint8",
          "name": "",
          "type": "uint8"
        }
      ],
      "stateMutability": "view",
      "type": "function"
    },
    {
      "inputs": [],
      "name": "nextClassId",
      "outputs": [
        {
          "internalType": "uint256",
          "name": "",
          "type": "uint256"
        }
      ],
      "stateMutability": "view",
      "type": "function"
    },
    {
      "inputs": [
        {
          "internalType": "uint256",
          "name": "classId",
          "type": "uint256"
        }
      ],
      "name": "signUpForClass",
      "outputs": [],
      "stateMutability": "nonpayable",
      "type": "function"
    },
    {
      "inputs": [
        {
          "internalType": "address",
          "name": "",
          "type": "address"
        }
      ],
      "name": "students",
      "outputs": [
        {
          "internalType": "string",
          "name": "name",
          "type": "string"
        },
        {
          "internalType": "address",
          "name": "wallet",
          "type": "address"
        }
      ],
      "stateMutability": "view",
      "type": "function"
    },
    {
      "inputs": [
        {
          "internalType": "address",
          "name": "",
          "type": "address"
        }
      ],
      "name": "teachers",
      "outputs": [
        {
          "internalType": "string",
          "name": "name",
          "type": "string"
        },
        {
          "internalType": "address",
          "name": "wallet",
          "type": "address"
        }
      ],
      "stateMutability": "view",
      "type": "function"
    },
    {
      "inputs": [],
      "name": "tickerSymbol",
      "outputs": [
        {
          "internalType": "string",
          "name": "",
          "type": "string"
        }
      ],
      "stateMutability": "view",
      "type": "function"
    },
    {
      "inputs": [],
      "name": "tokenName",
      "outputs": [
        {
          "internalType": "string",
          "name": "",
          "type": "string"
        }
      ],
      "stateMutability": "view",
      "type": "function"
    },
    {
      "inputs": [],
      "name": "tokenTotalSupply",
      "outputs": [
        {
          "internalType": "uint256",
          "name": "",
          "type": "uint256"
        }
      ],
      "stateMutability": "view",
      "type": "function"
    },
    {
      "inputs": [],
      "name": "totalSupply",
      "outputs": [
        {
          "internalType": "uint256",
          "name": "",
          "type": "uint256"
        }
      ],
      "stateMutability": "view",
      "type": "function"
    },
    {
      "inputs": [
        {
          "internalType": "address",
          "name": "recipient",
          "type": "address"
        },
        {
          "internalType": "uint256",
          "name": "amount",
          "type": "uint256"
        }
      ],
      "name": "transfer",
      "outputs": [
        {
          "internalType": "bool",
          "name": "",
          "type": "bool"
        }
      ],
      "stateMutability": "nonpayable",
      "type": "function"
    },
    {
      "inputs": [
        {
          "internalType": "address",
          "name": "spender",
          "type": "address"
        },
        {
          "internalType": "address",
          "name": "recipient",
          "type": "address"
        },
        {
          "internalType": "uint256",
          "name": "amount",
          "type": "uint256"
        }
      ],
      "name": "transferFrom",
      "outputs": [
        {
          "internalType": "bool",
          "name": "",
          "type": "bool"
        }
      ],
      "stateMutability": "nonpayable",
      "type": "function"
    },
    {
      "inputs": [],
      "name": "treasury",
      "outputs": [
        {
          "internalType": "address",
          "name": "",
          "type": "address"
        }
      ],
      "stateMutability": "view",
      "type": "function"
    }
  ],
  "bytecode": "0x608060405260016005553480156200001657600080fd5b50604051620031a6380380620031a683398181016040528101906200003c91906200026f565b33600460006101000a81548173ffffffffffffffffffffffffffffffffffffffff021916908373ffffffffffffffffffffffffffffffffffffffff1602179055508360069080519060200190620000959291906200011f565b508260079080519060200190620000ae9291906200011f565b508160088190555080600960006101000a81548160ff021916908360ff16021790555081600a60003373ffffffffffffffffffffffffffffffffffffffff1673ffffffffffffffffffffffffffffffffffffffff1681526020019081526020016000208190555050505050620004c8565b8280546200012d90620003b9565b90600052602060002090601f0160209004810192826200015157600085556200019d565b82601f106200016c57805160ff19168380011785556200019d565b828001600101855582156200019d579182015b828111156200019c5782518255916020019190600101906200017f565b5b509050620001ac9190620001b0565b5090565b5b80821115620001cb576000816000905550600101620001b1565b5090565b6000620001e6620001e08462000336565b6200030d565b905082815260208101848484011115620001ff57600080fd5b6200020c84828562000383565b509392505050565b600082601f8301126200022657600080fd5b815162000238848260208601620001cf565b91505092915050565b600081519050620002528162000494565b92915050565b6000815190506200026981620004ae565b92915050565b600080600080608085870312156200028657600080fd5b600085015167ffffffffffffffff811115620002a157600080fd5b620002af8782880162000214565b945050602085015167ffffffffffffffff811115620002cd57600080fd5b620002db8782880162000214565b9350506040620002ee8782880162000241565b9250506060620003018782880162000258565b91505092959194509250565b6000620003196200032c565b9050620003278282620003ef565b919050565b6000604051905090565b600067ffffffffffffffff82111562000354576200035362000454565b5b6200035f8262000483565b9050602081019050919050565b6000819050919050565b600060ff82169050919050565b60005b83811015620003a357808201518184015260208101905062000386565b83811115620003b3576000848401525b50505050565b60006002820490506001821680620003d257607f821691505b60208210811415620003e957620003e862000425565b5b50919050565b620003fa8262000483565b810181811067ffffffffffffffff821117156200041c576200041b62000454565b5b80604052505050565b7f4e487b7100000000000000000000000000000000000000000000000000000000600052602260045260246000fd5b7f4e487b7100000000000000000000000000000000000000000000000000000000600052604160045260246000fd5b6000601f19601f8301169050919050565b6200049f816200036c565b8114620004ab57600080fd5b50565b620004b98162000376565b8114620004c557600080fd5b50565b612cce80620004d86000396000f3fe608060405234801561001057600080fd5b506004361061014d5760003560e01c806361d027b3116100c3578063a6c807a91161007c578063a6c807a9146103dd578063a9059cbb1461040e578063dd62ed3e1461043e578063e7ccb0a31461046e578063f0a47f781461048c578063f7abab9e146104bd5761014d565b806361d027b3146103045780636c02a931146103225780636ca8cc8c1461034057806370a082311461035e578063817dbe9f1461038e578063a36042db146103c15761014d565b806323b872dd1161011557806323b872dd1461020a57806327e235e31461023a578063313ce5671461026a5780633cd2c1e4146102885780634852a212146102a45780635c658165146102d45761014d565b8063095ea7b31461015257806310468c2f14610182578063143c297c1461019e57806318160ddd146101ce5780632374f8a6146101ec575b600080fd5b61016c6004803603810190610167919061217c565b6104db565b604051610179919061251c565b60405180910390f35b61019c600480360381019061019791906121b8565b610653565b005b6101b860048036038101906101b39190612291565b6106bb565b6040516101c59190612501565b60405180910390f35b6101d6610709565b6040516101e391906126e9565b60405180910390f35b6101f4610713565b6040516102019190612537565b60405180910390f35b610224600480360381019061021f919061212d565b6107a1565b604051610231919061251c565b60405180910390f35b610254600480360381019061024f91906120c8565b610a97565b60405161026191906126e9565b60405180910390f35b610272610aaf565b60405161027f9190612750565b60405180910390f35b6102a2600480360381019061029d9190612268565b610ac2565b005b6102be60048036038101906102b99190612210565b610cec565b6040516102cb91906126e9565b60405180910390f35b6102ee60048036038101906102e991906120f1565b610d07565b6040516102fb91906126e9565b60405180910390f35b61030c610d2c565b6040516103199190612501565b60405180910390f35b61032a610d52565b6040516103379190612537565b60405180910390f35b610348610de0565b60405161035591906126e9565b60405180910390f35b610378600480360381019061037391906120c8565b610de6565b60405161038591906126e9565b60405180910390f35b6103a860048036038101906103a39190612268565b610e2f565b6040516103b89493929190612704565b60405180910390f35b6103db60048036038101906103d691906121b8565b610f07565b005b6103f760048036038101906103f291906120c8565b610f18565b604051610405929190612559565b60405180910390f35b6104286004803603810190610423919061217c565b610fe4565b604051610435919061251c565b60405180910390f35b610458600480360381019061045391906120f1565b611187565b60405161046591906126e9565b60405180910390f35b61047661120e565b60405161048391906126e9565b60405180910390f35b6104a660048036038101906104a191906120c8565b611213565b6040516104b4929190612559565b60405180910390f35b6104c56112df565b6040516104d291906126e9565b60405180910390f35b6000338280600a60008473ffffffffffffffffffffffffffffffffffffffff1673ffffffffffffffffffffffffffffffffffffffff168152602001908152602001600020541015610561576040517f08c379a0000000000000000000000000000000000000000000000000000000008152600401610558906125e9565b60405180910390fd5b83600b60003373ffffffffffffffffffffffffffffffffffffffff1673ffffffffffffffffffffffffffffffffffffffff16815260200190815260200160002060008773ffffffffffffffffffffffffffffffffffffffff1673ffffffffffffffffffffffffffffffffffffffff168152602001908152602001600020819055508473ffffffffffffffffffffffffffffffffffffffff163373ffffffffffffffffffffffffffffffffffffffff167f8c5be1e5ebec7d5bd14f71427d1e84f3dd0314c0f7b2291e5b200ac8c7c3b9258660405161063f91906126e9565b60405180910390a360019250505092915050565b61065e8383836112e5565b506005600a60008373ffffffffffffffffffffffffffffffffffffffff1673ffffffffffffffffffffffffffffffffffffffff16815260200190815260200160002060008282546106af9190612792565b92505081905550505050565b600360205281600052604060002081815481106106d757600080fd5b906000526020600020016000915091509054906101000a900473ffffffffffffffffffffffffffffffffffffffff1681565b6000600854905090565b60078054610720906128b3565b80601f016020809104026020016040519081016040528092919081815260200182805461074c906128b3565b80156107995780601f1061076e57610100808354040283529160200191610799565b820191906000526020600020905b81548152906001019060200180831161077c57829003601f168201915b505050505081565b6000838280600a60008473ffffffffffffffffffffffffffffffffffffffff1673ffffffffffffffffffffffffffffffffffffffff168152602001908152602001600020541015610827576040517f08c379a000000000000000000000000000000000000000000000000000000000815260040161081e906125e9565b60405180910390fd5b83600b60008873ffffffffffffffffffffffffffffffffffffffff1673ffffffffffffffffffffffffffffffffffffffff16815260200190815260200160002060003373ffffffffffffffffffffffffffffffffffffffff1673ffffffffffffffffffffffffffffffffffffffff1681526020019081526020016000205410156108e6576040517f08c379a00000000000000000000000000000000000000000000000000000000081526004016108dd90612589565b60405180910390fd5b83600b60008873ffffffffffffffffffffffffffffffffffffffff1673ffffffffffffffffffffffffffffffffffffffff16815260200190815260200160002060003373ffffffffffffffffffffffffffffffffffffffff1673ffffffffffffffffffffffffffffffffffffffff168152602001908152602001600020600082825461097291906127e8565b9250508190555083600a60008873ffffffffffffffffffffffffffffffffffffffff1673ffffffffffffffffffffffffffffffffffffffff16815260200190815260200160002060008282546109c891906127e8565b9250508190555083600a60008773ffffffffffffffffffffffffffffffffffffffff1673ffffffffffffffffffffffffffffffffffffffff1681526020019081526020016000206000828254610a1e9190612792565b925050819055508473ffffffffffffffffffffffffffffffffffffffff168673ffffffffffffffffffffffffffffffffffffffff167fddf252ad1be2c89b69c2b068fc378daa952ba7f163c4a11628f55a4df523b3ef86604051610a8291906126e9565b60405180910390a36001925050509392505050565b600a6020528060005260406000206000915090505481565b600960009054906101000a900460ff1681565b600073ffffffffffffffffffffffffffffffffffffffff166002600083815260200190815260200160002060030160009054906101000a900473ffffffffffffffffffffffffffffffffffffffff1673ffffffffffffffffffffffffffffffffffffffff161415610b68576040517f08c379a0000000000000000000000000000000000000000000000000000000008152600401610b5f906125a9565b60405180910390fd5b60006002600083815260200190815260200160002090508060020154600a60003373ffffffffffffffffffffffffffffffffffffffff1673ffffffffffffffffffffffffffffffffffffffff168152602001908152602001600020541015610c05576040517f08c379a0000000000000000000000000000000000000000000000000000000008152600401610bfc90612669565b60405180910390fd5b8060020154600a60003373ffffffffffffffffffffffffffffffffffffffff1673ffffffffffffffffffffffffffffffffffffffff1681526020019081526020016000206000828254610c5891906127e8565b925050819055508060020154600a60008360030160009054906101000a900473ffffffffffffffffffffffffffffffffffffffff1673ffffffffffffffffffffffffffffffffffffffff1673ffffffffffffffffffffffffffffffffffffffff1681526020019081526020016000206000828254610cd69190612792565b92505081905550610ce733836117bf565b505050565b600080610cfa858585611910565b9050809150509392505050565b600b602052816000526040600020602052806000526040600020600091509150505481565b600460009054906101000a900473ffffffffffffffffffffffffffffffffffffffff1681565b60068054610d5f906128b3565b80601f0160208091040260200160405190810160405280929190818152602001828054610d8b906128b3565b8015610dd85780601f10610dad57610100808354040283529160200191610dd8565b820191906000526020600020905b815481529060010190602001808311610dbb57829003601f168201915b505050505081565b60055481565b6000600a60008373ffffffffffffffffffffffffffffffffffffffff1673ffffffffffffffffffffffffffffffffffffffff168152602001908152602001600020549050919050565b6002602052806000526040600020600091509050806000015490806001018054610e58906128b3565b80601f0160208091040260200160405190810160405280929190818152602001828054610e84906128b3565b8015610ed15780601f10610ea657610100808354040283529160200191610ed1565b820191906000526020600020905b815481529060010190602001808311610eb457829003601f168201915b5050505050908060020154908060030160009054906101000a900473ffffffffffffffffffffffffffffffffffffffff16905084565b610f12838383611b71565b50505050565b6001602052806000526040600020600091509050806000018054610f3b906128b3565b80601f0160208091040260200160405190810160405280929190818152602001828054610f67906128b3565b8015610fb45780601f10610f8957610100808354040283529160200191610fb4565b820191906000526020600020905b815481529060010190602001808311610f9757829003601f168201915b5050505050908060010160009054906101000a900473ffffffffffffffffffffffffffffffffffffffff16905082565b6000338280600a60008473ffffffffffffffffffffffffffffffffffffffff1673ffffffffffffffffffffffffffffffffffffffff16815260200190815260200160002054101561106a576040517f08c379a0000000000000000000000000000000000000000000000000000000008152600401611061906125e9565b60405180910390fd5b83600a60003373ffffffffffffffffffffffffffffffffffffffff1673ffffffffffffffffffffffffffffffffffffffff16815260200190815260200160002060008282546110b991906127e8565b9250508190555083600a60008773ffffffffffffffffffffffffffffffffffffffff1673ffffffffffffffffffffffffffffffffffffffff168152602001908152602001600020600082825461110f9190612792565b925050819055508473ffffffffffffffffffffffffffffffffffffffff163373ffffffffffffffffffffffffffffffffffffffff167fddf252ad1be2c89b69c2b068fc378daa952ba7f163c4a11628f55a4df523b3ef8660405161117391906126e9565b60405180910390a360019250505092915050565b6000600b60008473ffffffffffffffffffffffffffffffffffffffff1673ffffffffffffffffffffffffffffffffffffffff16815260200190815260200160002060008373ffffffffffffffffffffffffffffffffffffffff1673ffffffffffffffffffffffffffffffffffffffff16815260200190815260200160002054905092915050565b600581565b6000602052806000526040600020600091509050806000018054611236906128b3565b80601f0160208091040260200160405190810160405280929190818152602001828054611262906128b3565b80156112af5780601f10611284576101008083540402835291602001916112af565b820191906000526020600020905b81548152906001019060200180831161129257829003601f168201915b5050505050908060010160009054906101000a900473ffffffffffffffffffffffffffffffffffffffff16905082565b60085481565b6000600460009054906101000a900473ffffffffffffffffffffffffffffffffffffffff1673ffffffffffffffffffffffffffffffffffffffff163373ffffffffffffffffffffffffffffffffffffffff1614806113d15750600073ffffffffffffffffffffffffffffffffffffffff166000803373ffffffffffffffffffffffffffffffffffffffff1673ffffffffffffffffffffffffffffffffffffffff16815260200190815260200160002060010160009054906101000a900473ffffffffffffffffffffffffffffffffffffffff1673ffffffffffffffffffffffffffffffffffffffff1614155b611410576040517f08c379a0000000000000000000000000000000000000000000000000000000008152600401611407906126c9565b60405180910390fd5b81600073ffffffffffffffffffffffffffffffffffffffff166000808373ffffffffffffffffffffffffffffffffffffffff1673ffffffffffffffffffffffffffffffffffffffff16815260200190815260200160002060010160009054906101000a900473ffffffffffffffffffffffffffffffffffffffff1673ffffffffffffffffffffffffffffffffffffffff16146114e1576040517f08c379a00000000000000000000000000000000000000000000000000000000081526004016114d8906125c9565b60405180910390fd5b600073ffffffffffffffffffffffffffffffffffffffff16600160008373ffffffffffffffffffffffffffffffffffffffff1673ffffffffffffffffffffffffffffffffffffffff16815260200190815260200160002060010160009054906101000a900473ffffffffffffffffffffffffffffffffffffffff1673ffffffffffffffffffffffffffffffffffffffff16146115b2576040517f08c379a00000000000000000000000000000000000000000000000000000000081526004016115a990612649565b60405180910390fd5b600460009054906101000a900473ffffffffffffffffffffffffffffffffffffffff1673ffffffffffffffffffffffffffffffffffffffff168173ffffffffffffffffffffffffffffffffffffffff161415611643576040517f08c379a000000000000000000000000000000000000000000000000000000000815260040161163a90612629565b60405180910390fd5b604051806040016040528086868080601f016020809104026020016040519081016040528093929190818152602001838380828437600081840152601f19601f8201169050808301925050505050505081526020018473ffffffffffffffffffffffffffffffffffffffff16815250600160008573ffffffffffffffffffffffffffffffffffffffff1673ffffffffffffffffffffffffffffffffffffffff168152602001908152602001600020600082015181600001908051906020019061170d929190611fb1565b5060208201518160010160006101000a81548173ffffffffffffffffffffffffffffffffffffffff021916908373ffffffffffffffffffffffffffffffffffffffff1602179055509050508273ffffffffffffffffffffffffffffffffffffffff16858560405161177f9291906124e8565b60405180910390207f3eb9ae1db4c1e4ee72b0a46d8d264f4d15ac0bd52eae6d8c9ea01975e2bca48160405160405180910390a360019150509392505050565b60008073ffffffffffffffffffffffffffffffffffffffff16600160003373ffffffffffffffffffffffffffffffffffffffff1673ffffffffffffffffffffffffffffffffffffffff16815260200190815260200160002060010160009054906101000a900473ffffffffffffffffffffffffffffffffffffffff1673ffffffffffffffffffffffffffffffffffffffff161415611892576040517f08c379a000000000000000000000000000000000000000000000000000000000815260040161188990612689565b60405180910390fd5b60036000838152602001908152602001600020839080600181540180825580915050600190039060005260206000200160009091909190916101000a81548173ffffffffffffffffffffffffffffffffffffffff021916908373ffffffffffffffffffffffffffffffffffffffff1602179055506001905092915050565b60008073ffffffffffffffffffffffffffffffffffffffff166000803373ffffffffffffffffffffffffffffffffffffffff1673ffffffffffffffffffffffffffffffffffffffff16815260200190815260200160002060010160009054906101000a900473ffffffffffffffffffffffffffffffffffffffff1673ffffffffffffffffffffffffffffffffffffffff1614156119e2576040517f08c379a00000000000000000000000000000000000000000000000000000000081526004016119d990612609565b60405180910390fd5b60006005549050604051806080016040528082815260200186868080601f016020809104026020016040519081016040528093929190818152602001838380828437600081840152601f19601f8201169050808301925050505050505081526020018481526020013373ffffffffffffffffffffffffffffffffffffffff1681525060026000838152602001908152602001600020600082015181600001556020820151816001019080519060200190611a9d929190611fb1565b506040820151816002015560608201518160030160006101000a81548173ffffffffffffffffffffffffffffffffffffffff021916908373ffffffffffffffffffffffffffffffffffffffff1602179055509050508484604051611b029291906124e8565b6040518091039020813373ffffffffffffffffffffffffffffffffffffffff167fc554af40412eb958ce7250b87bdcc1fa1f9a83b937bcefded5dfc67fc8c89a1f60405160405180910390a460056000815480929190611b61906128e5565b9190505550809150509392505050565b6000600460009054906101000a900473ffffffffffffffffffffffffffffffffffffffff1673ffffffffffffffffffffffffffffffffffffffff163373ffffffffffffffffffffffffffffffffffffffff1614611c03576040517f08c379a0000000000000000000000000000000000000000000000000000000008152600401611bfa906126a9565b60405180910390fd5b81600073ffffffffffffffffffffffffffffffffffffffff166000808373ffffffffffffffffffffffffffffffffffffffff1673ffffffffffffffffffffffffffffffffffffffff16815260200190815260200160002060010160009054906101000a900473ffffffffffffffffffffffffffffffffffffffff1673ffffffffffffffffffffffffffffffffffffffff1614611cd4576040517f08c379a0000000000000000000000000000000000000000000000000000000008152600401611ccb906125c9565b60405180910390fd5b600073ffffffffffffffffffffffffffffffffffffffff16600160008373ffffffffffffffffffffffffffffffffffffffff1673ffffffffffffffffffffffffffffffffffffffff16815260200190815260200160002060010160009054906101000a900473ffffffffffffffffffffffffffffffffffffffff1673ffffffffffffffffffffffffffffffffffffffff1614611da5576040517f08c379a0000000000000000000000000000000000000000000000000000000008152600401611d9c90612649565b60405180910390fd5b600460009054906101000a900473ffffffffffffffffffffffffffffffffffffffff1673ffffffffffffffffffffffffffffffffffffffff168173ffffffffffffffffffffffffffffffffffffffff161415611e36576040517f08c379a0000000000000000000000000000000000000000000000000000000008152600401611e2d90612629565b60405180910390fd5b604051806040016040528086868080601f016020809104026020016040519081016040528093929190818152602001838380828437600081840152601f19601f8201169050808301925050505050505081526020018473ffffffffffffffffffffffffffffffffffffffff168152506000808573ffffffffffffffffffffffffffffffffffffffff1673ffffffffffffffffffffffffffffffffffffffff1681526020019081526020016000206000820151816000019080519060200190611eff929190611fb1565b5060208201518160010160006101000a81548173ffffffffffffffffffffffffffffffffffffffff021916908373ffffffffffffffffffffffffffffffffffffffff1602179055509050508273ffffffffffffffffffffffffffffffffffffffff168585604051611f719291906124e8565b60405180910390207feef6791cc176c62cf1998656a1d10ffa809f554fe4f085891e24e962abb1ab7660405160405180910390a360019150509392505050565b828054611fbd906128b3565b90600052602060002090601f016020900481019282611fdf5760008555612026565b82601f10611ff857805160ff1916838001178555612026565b82800160010185558215612026579182015b8281111561202557825182559160200191906001019061200a565b5b5090506120339190612037565b5090565b5b80821115612050576000816000905550600101612038565b5090565b60008135905061206381612c6a565b92915050565b60008083601f84011261207b57600080fd5b8235905067ffffffffffffffff81111561209457600080fd5b6020830191508360018202830111156120ac57600080fd5b9250929050565b6000813590506120c281612c81565b92915050565b6000602082840312156120da57600080fd5b60006120e884828501612054565b91505092915050565b6000806040838503121561210457600080fd5b600061211285828601612054565b925050602061212385828601612054565b9150509250929050565b60008060006060848603121561214257600080fd5b600061215086828701612054565b935050602061216186828701612054565b9250506040612172868287016120b3565b9150509250925092565b6000806040838503121561218f57600080fd5b600061219d85828601612054565b92505060206121ae858286016120b3565b9150509250929050565b6000806000604084860312156121cd57600080fd5b600084013567ffffffffffffffff8111156121e757600080fd5b6121f386828701612069565b9350935050602061220686828701612054565b9150509250925092565b60008060006040848603121561222557600080fd5b600084013567ffffffffffffffff81111561223f57600080fd5b61224b86828701612069565b9350935050602061225e868287016120b3565b9150509250925092565b60006020828403121561227a57600080fd5b6000612288848285016120b3565b91505092915050565b600080604083850312156122a457600080fd5b60006122b2858286016120b3565b92505060206122c3858286016120b3565b9150509250929050565b6122d68161281c565b82525050565b6122e58161282e565b82525050565b60006122f78385612787565b9350612304838584612871565b82840190509392505050565b600061231b8261276b565b6123258185612776565b9350612335818560208601612880565b61233e8161298c565b840191505092915050565b6000612356601c83612776565b91506123618261299d565b602082019050919050565b6000612379601483612776565b9150612384826129c6565b602082019050919050565b600061239c602b83612776565b91506123a7826129ef565b604082019050919050565b60006123bf602083612776565b91506123ca82612a3e565b602082019050919050565b60006123e2602683612776565b91506123ed82612a67565b604082019050919050565b6000612405602e83612776565b915061241082612ab6565b604082019050919050565b6000612428602b83612776565b915061243382612b05565b604082019050919050565b600061244b602083612776565b915061245682612b54565b602082019050919050565b600061246e602683612776565b915061247982612b7d565b604082019050919050565b6000612491602a83612776565b915061249c82612bcc565b604082019050919050565b60006124b4603683612776565b91506124bf82612c1b565b604082019050919050565b6124d38161285a565b82525050565b6124e281612864565b82525050565b60006124f58284866122eb565b91508190509392505050565b600060208201905061251660008301846122cd565b92915050565b600060208201905061253160008301846122dc565b92915050565b600060208201905081810360008301526125518184612310565b905092915050565b600060408201905081810360008301526125738185612310565b905061258260208301846122cd565b9392505050565b600060208201905081810360008301526125a281612349565b9050919050565b600060208201905081810360008301526125c28161236c565b9050919050565b600060208201905081810360008301526125e28161238f565b9050919050565b60006020820190508181036000830152612602816123b2565b9050919050565b60006020820190508181036000830152612622816123d5565b9050919050565b60006020820190508181036000830152612642816123f8565b9050919050565b600060208201905081810360008301526126628161241b565b9050919050565b600060208201905081810360008301526126828161243e565b9050919050565b600060208201905081810360008301526126a281612461565b9050919050565b600060208201905081810360008301526126c281612484565b9050919050565b600060208201905081810360008301526126e2816124a7565b9050919050565b60006020820190506126fe60008301846124ca565b92915050565b600060808201905061271960008301876124ca565b818103602083015261272b8186612310565b905061273a60408301856124ca565b61274760608301846122cd565b95945050505050565b600060208201905061276560008301846124d9565b92915050565b600081519050919050565b600082825260208201905092915050565b600081905092915050565b600061279d8261285a565b91506127a88361285a565b9250827fffffffffffffffffffffffffffffffffffffffffffffffffffffffffffffffff038211156127dd576127dc61292e565b5b828201905092915050565b60006127f38261285a565b91506127fe8361285a565b9250828210156128115761281061292e565b5b828203905092915050565b60006128278261283a565b9050919050565b60008115159050919050565b600073ffffffffffffffffffffffffffffffffffffffff82169050919050565b6000819050919050565b600060ff82169050919050565b82818337600083830152505050565b60005b8381101561289e578082015181840152602081019050612883565b838111156128ad576000848401525b50505050565b600060028204905060018216806128cb57607f821691505b602082108114156128df576128de61295d565b5b50919050565b60006128f08261285a565b91507fffffffffffffffffffffffffffffffffffffffffffffffffffffffffffffffff8214156129235761292261292e565b5b600182019050919050565b7f4e487b7100000000000000000000000000000000000000000000000000000000600052601160045260246000fd5b7f4e487b7100000000000000000000000000000000000000000000000000000000600052602260045260246000fd5b6000601f19601f8301169050919050565b7f696e73756666696369656e7420616c6c6f7765642062616c616e636500000000600082015250565b7f636c61737320646f6573206e6f74206578697374000000000000000000000000600082015250565b7f77616c6c657420697320616c7265616479206173736f6369617465642077697460008201527f6820612074656163686572000000000000000000000000000000000000000000602082015250565b7f6163636f756e742068617320696e73756666696369656e742062616c616e6365600082015250565b7f6f6e6c792074656163686572732063616e20616363657373207468697320667560008201527f6e6374696f6e0000000000000000000000000000000000000000000000000000602082015250565b7f77616c6c657420697320616c7265616479206173736f6369617465642077697460008201527f6820746865207472656173757279000000000000000000000000000000000000602082015250565b7f77616c6c657420697320616c7265616479206173736f6369617465642077697460008201527f6820612073747564656e74000000000000000000000000000000000000000000602082015250565b7f73747564656e742068617320696e73756666696369656e742062616c616e6365600082015250565b7f6f6e6c792073747564656e74732063616e20616363657373207468697320667560008201527f6e6374696f6e0000000000000000000000000000000000000000000000000000602082015250565b7f6f6e6c79207468652074726561737572792063616e206163636573732074686960008201527f732066756e6374696f6e00000000000000000000000000000000000000000000602082015250565b7f6f6e6c79207465616368657273206f722074686520747265617375727920636160008201527f6e2061636365737320746869732066756e6374696f6e00000000000000000000602082015250565b612c738161281c565b8114612c7e57600080fd5b50565b612c8a8161285a565b8114612c9557600080fd5b5056fea2646970667358221220b554b9134e3089edb1d573b5d628b058aef6a7dc2a367c80e6a14d35d325174864736f6c63430008040033",
  "linkReferences": {},
  "deployedLinkReferences": {}
}