{
  "_format": "hh-sol-artifact-1",
  "contractName": "ERC20Token",
  "sourceName": "contracts/ERC20.sol",
  "abi": [
    {
      "inputs": [
        {
          "internalType": "string",
          "name": "_tokenName",
          "type": "string"
        },
        {
          "internalType": "string",
          "name": "_tickerSymbol",
          "type": "string"
        },
        {
          "internalType": "uint256",
          "name": "_tokenTotalSupply",
          "type": "uint256"
        },
        {
          "internalType": "uint8",
          "name": "_decimals",
          "type": "uint8"
        }
      ],
      "stateMutability": "nonpayable",
      "type": "constructor"
    },
    {
      "anonymous": false,
      "inputs": [
        {
          "indexed": true,
          "internalType": "address",
          "name": "owner",
          "type": "address"
        },
        {
          "indexed": true,
          "internalType": "address",
          "name": "spender",
          "type": "address"
        },
        {
          "indexed": false,
          "internalType": "uint256",
          "name": "value",
          "type": "uint256"
        }
      ],
      "name": "Approval",
      "type": "event"
    },
    {
      "anonymous": false,
      "inputs": [
        {
          "indexed": true,
          "internalType": "address",
          "name": "teacher",
          "type": "address"
        },
        {
          "indexed": true,
          "internalType": "uint256",
          "name": "classId",
          "type": "uint256"
        },
        {
          "indexed": true,
          "internalType": "string",
          "name": "className",
          "type": "string"
        }
      ],
      "name": "ClassCreated",
      "type": "event"
    },
    {
      "anonymous": false,
      "inputs": [
        {
          "indexed": true,
          "internalType": "string",
          "name": "name",
          "type": "string"
        },
        {
          "indexed": true,
          "internalType": "address",
          "name": "wallet",
          "type": "address"
        }
      ],
      "name": "StudentAdded",
      "type": "event"
    },
    {
      "anonymous": false,
      "inputs": [
        {
          "indexed": true,
          "internalType": "string",
          "name": "name",
          "type": "string"
        },
        {
          "indexed": true,
          "internalType": "address",
          "name": "wallet",
          "type": "address"
        }
      ],
      "name": "TeacherAdded",
      "type": "event"
    },
    {
      "anonymous": false,
      "inputs": [
        {
          "indexed": true,
          "internalType": "address",
          "name": "from",
          "type": "address"
        },
        {
          "indexed": true,
          "internalType": "address",
          "name": "to",
          "type": "address"
        },
        {
          "indexed": false,
          "internalType": "uint256",
          "name": "value",
          "type": "uint256"
        }
      ],
      "name": "Transfer",
      "type": "event"
    },
    {
      "inputs": [
        {
          "internalType": "string",
          "name": "name",
          "type": "string"
        },
        {
          "internalType": "address",
          "name": "wallet",
          "type": "address"
        }
      ],
      "name": "addStudent",
      "outputs": [],
      "stateMutability": "nonpayable",
      "type": "function"
    },
    {
      "inputs": [
        {
          "internalType": "string",
          "name": "name",
          "type": "string"
        },
        {
          "internalType": "address",
          "name": "wallet",
          "type": "address"
        }
      ],
      "name": "addTeacher",
      "outputs": [],
      "stateMutability": "nonpayable",
      "type": "function"
    },
    {
      "inputs": [
        {
          "internalType": "address",
          "name": "owner",
          "type": "address"
        },
        {
          "internalType": "address",
          "name": "spender",
          "type": "address"
        }
      ],
      "name": "allowance",
      "outputs": [
        {
          "internalType": "uint256",
          "name": "",
          "type": "uint256"
        }
      ],
      "stateMutability": "view",
      "type": "function"
    },
    {
      "inputs": [
        {
          "internalType": "address",
          "name": "",
          "type": "address"
        },
        {
          "internalType": "address",
          "name": "",
          "type": "address"
        }
      ],
      "name": "allowed",
      "outputs": [
        {
          "internalType": "uint256",
          "name": "",
          "type": "uint256"
        }
      ],
      "stateMutability": "view",
      "type": "function"
    },
    {
      "inputs": [
        {
          "internalType": "address",
          "name": "spender",
          "type": "address"
        },
        {
          "internalType": "uint256",
          "name": "amount",
          "type": "uint256"
        }
      ],
      "name": "approve",
      "outputs": [
        {
          "internalType": "bool",
          "name": "",
          "type": "bool"
        }
      ],
      "stateMutability": "nonpayable",
      "type": "function"
    },
    {
      "inputs": [
        {
          "internalType": "address",
          "name": "account",
          "type": "address"
        }
      ],
      "name": "balanceOf",
      "outputs": [
        {
          "internalType": "uint256",
          "name": "",
          "type": "uint256"
        }
      ],
      "stateMutability": "view",
      "type": "function"
    },
    {
      "inputs": [
        {
          "internalType": "address",
          "name": "",
          "type": "address"
        }
      ],
      "name": "balances",
      "outputs": [
        {
          "internalType": "uint256",
          "name": "",
          "type": "uint256"
        }
      ],
      "stateMutability": "view",
      "type": "function"
    },
    {
      "inputs": [
        {
          "internalType": "uint256",
          "name": "",
          "type": "uint256"
        }
      ],
      "name": "classes",
      "outputs": [
        {
          "internalType": "uint256",
          "name": "id",
          "type": "uint256"
        },
        {
          "internalType": "string",
          "name": "name",
          "type": "string"
        },
        {
          "internalType": "address",
          "name": "teacher",
          "type": "address"
        }
      ],
      "stateMutability": "view",
      "type": "function"
    },
    {
      "inputs": [
        {
          "internalType": "string",
          "name": "name",
          "type": "string"
        },
        {
          "internalType": "string[]",
          "name": "topics",
          "type": "string[]"
        }
      ],
      "name": "createClass",
      "outputs": [],
      "stateMutability": "nonpayable",
      "type": "function"
    },
    {
      "inputs": [],
      "name": "decimals",
      "outputs": [
        {
          "internalType": "uint8",
          "name": "",
          "type": "uint8"
        }
      ],
      "stateMutability": "view",
      "type": "function"
    },
    {
      "inputs": [],
      "name": "nextClassId",
      "outputs": [
        {
          "internalType": "uint256",
          "name": "",
          "type": "uint256"
        }
      ],
      "stateMutability": "view",
      "type": "function"
    },
    {
      "inputs": [],
      "name": "principal",
      "outputs": [
        {
          "internalType": "address",
          "name": "",
          "type": "address"
        }
      ],
      "stateMutability": "view",
      "type": "function"
    },
    {
      "inputs": [
        {
          "internalType": "address",
          "name": "",
          "type": "address"
        }
      ],
      "name": "students",
      "outputs": [
        {
          "internalType": "string",
          "name": "name",
          "type": "string"
        },
        {
          "internalType": "address",
          "name": "wallet",
          "type": "address"
        }
      ],
      "stateMutability": "view",
      "type": "function"
    },
    {
      "inputs": [
        {
          "internalType": "address",
          "name": "",
          "type": "address"
        }
      ],
      "name": "teachers",
      "outputs": [
        {
          "internalType": "string",
          "name": "name",
          "type": "string"
        },
        {
          "internalType": "address",
          "name": "wallet",
          "type": "address"
        }
      ],
      "stateMutability": "view",
      "type": "function"
    },
    {
      "inputs": [],
      "name": "tickerSymbol",
      "outputs": [
        {
          "internalType": "string",
          "name": "",
          "type": "string"
        }
      ],
      "stateMutability": "view",
      "type": "function"
    },
    {
      "inputs": [],
      "name": "tokenName",
      "outputs": [
        {
          "internalType": "string",
          "name": "",
          "type": "string"
        }
      ],
      "stateMutability": "view",
      "type": "function"
    },
    {
      "inputs": [],
      "name": "tokenTotalSupply",
      "outputs": [
        {
          "internalType": "uint256",
          "name": "",
          "type": "uint256"
        }
      ],
      "stateMutability": "view",
      "type": "function"
    },
    {
      "inputs": [],
      "name": "totalSupply",
      "outputs": [
        {
          "internalType": "uint256",
          "name": "",
          "type": "uint256"
        }
      ],
      "stateMutability": "view",
      "type": "function"
    },
    {
      "inputs": [
        {
          "internalType": "address",
          "name": "recipient",
          "type": "address"
        },
        {
          "internalType": "uint256",
          "name": "amount",
          "type": "uint256"
        }
      ],
      "name": "transfer",
      "outputs": [
        {
          "internalType": "bool",
          "name": "",
          "type": "bool"
        }
      ],
      "stateMutability": "nonpayable",
      "type": "function"
    },
    {
      "inputs": [
        {
          "internalType": "address",
          "name": "spender",
          "type": "address"
        },
        {
          "internalType": "address",
          "name": "recipient",
          "type": "address"
        },
        {
          "internalType": "uint256",
          "name": "amount",
          "type": "uint256"
        }
      ],
      "name": "transferFrom",
      "outputs": [
        {
          "internalType": "bool",
          "name": "",
          "type": "bool"
        }
      ],
      "stateMutability": "nonpayable",
      "type": "function"
    }
  ],
  "bytecode": "0x60806040523480156200001157600080fd5b5060405162002dda38038062002dda83398181016040528101906200003791906200026a565b33600360006101000a81548173ffffffffffffffffffffffffffffffffffffffff021916908373ffffffffffffffffffffffffffffffffffffffff1602179055508360059080519060200190620000909291906200011a565b508260069080519060200190620000a99291906200011a565b508160078190555080600860006101000a81548160ff021916908360ff16021790555081600960003373ffffffffffffffffffffffffffffffffffffffff1673ffffffffffffffffffffffffffffffffffffffff1681526020019081526020016000208190555050505050620004c3565b8280546200012890620003b4565b90600052602060002090601f0160209004810192826200014c576000855562000198565b82601f106200016757805160ff191683800117855562000198565b8280016001018555821562000198579182015b82811115620001975782518255916020019190600101906200017a565b5b509050620001a79190620001ab565b5090565b5b80821115620001c6576000816000905550600101620001ac565b5090565b6000620001e1620001db8462000331565b62000308565b905082815260208101848484011115620001fa57600080fd5b620002078482856200037e565b509392505050565b600082601f8301126200022157600080fd5b815162000233848260208601620001ca565b91505092915050565b6000815190506200024d816200048f565b92915050565b6000815190506200026481620004a9565b92915050565b600080600080608085870312156200028157600080fd5b600085015167ffffffffffffffff8111156200029c57600080fd5b620002aa878288016200020f565b945050602085015167ffffffffffffffff811115620002c857600080fd5b620002d6878288016200020f565b9350506040620002e9878288016200023c565b9250506060620002fc8782880162000253565b91505092959194509250565b60006200031462000327565b9050620003228282620003ea565b919050565b6000604051905090565b600067ffffffffffffffff8211156200034f576200034e6200044f565b5b6200035a826200047e565b9050602081019050919050565b6000819050919050565b600060ff82169050919050565b60005b838110156200039e57808201518184015260208101905062000381565b83811115620003ae576000848401525b50505050565b60006002820490506001821680620003cd57607f821691505b60208210811415620003e457620003e362000420565b5b50919050565b620003f5826200047e565b810181811067ffffffffffffffff821117156200041757620004166200044f565b5b80604052505050565b7f4e487b7100000000000000000000000000000000000000000000000000000000600052602260045260246000fd5b7f4e487b7100000000000000000000000000000000000000000000000000000000600052604160045260246000fd5b6000601f19601f8301169050919050565b6200049a8162000367565b8114620004a657600080fd5b50565b620004b48162000371565b8114620004c057600080fd5b50565b61290780620004d36000396000f3fe608060405234801561001057600080fd5b506004361061012c5760003560e01c806370a08231116100ad578063ba5d307811610071578063ba5d307814610382578063dd62ed3e146103a0578063f0a47f78146103d0578063f52db27914610401578063f7abab9e1461041d5761012c565b806370a08231146102a3578063817dbe9f146102d3578063a36042db14610305578063a6c807a914610321578063a9059cbb146103525761012c565b806327e235e3116100f457806327e235e3146101e9578063313ce567146102195780635c658165146102375780636c02a931146102675780636ca8cc8c146102855761012c565b8063095ea7b31461013157806310468c2f1461016157806318160ddd1461017d5780632374f8a61461019b57806323b872dd146101b9575b600080fd5b61014b60048036038101906101469190611e95565b61043b565b60405161015891906121a8565b60405180910390f35b61017b60048036038101906101769190611ed1565b6105b3565b005b6101856105c4565b6040516101929190612315565b60405180910390f35b6101a36105ce565b6040516101b091906121c3565b60405180910390f35b6101d360048036038101906101ce9190611e46565b61065c565b6040516101e091906121a8565b60405180910390f35b61020360048036038101906101fe9190611de1565b610952565b6040516102109190612315565b60405180910390f35b61022161096a565b60405161022e919061236e565b60405180910390f35b610251600480360381019061024c9190611e0a565b61097d565b60405161025e9190612315565b60405180910390f35b61026f6109a2565b60405161027c91906121c3565b60405180910390f35b61028d610a30565b60405161029a9190612315565b60405180910390f35b6102bd60048036038101906102b89190611de1565b610a36565b6040516102ca9190612315565b60405180910390f35b6102ed60048036038101906102e89190611f99565b610a7f565b6040516102fc93929190612330565b60405180910390f35b61031f600480360381019061031a9190611ed1565b610b51565b005b61033b60048036038101906103369190611de1565b610b62565b6040516103499291906121e5565b60405180910390f35b61036c60048036038101906103679190611e95565b610c2e565b60405161037991906121a8565b60405180910390f35b61038a610dd1565b604051610397919061218d565b60405180910390f35b6103ba60048036038101906103b59190611e0a565b610df7565b6040516103c79190612315565b60405180910390f35b6103ea60048036038101906103e59190611de1565b610e7e565b6040516103f89291906121e5565b60405180910390f35b61041b60048036038101906104169190611f29565b610f4a565b005b610425610f5b565b6040516104329190612315565b60405180910390f35b6000338280600960008473ffffffffffffffffffffffffffffffffffffffff1673ffffffffffffffffffffffffffffffffffffffff1681526020019081526020016000205410156104c1576040517f08c379a00000000000000000000000000000000000000000000000000000000081526004016104b890612275565b60405180910390fd5b83600a60003373ffffffffffffffffffffffffffffffffffffffff1673ffffffffffffffffffffffffffffffffffffffff16815260200190815260200160002060008773ffffffffffffffffffffffffffffffffffffffff1673ffffffffffffffffffffffffffffffffffffffff168152602001908152602001600020819055508473ffffffffffffffffffffffffffffffffffffffff163373ffffffffffffffffffffffffffffffffffffffff167f8c5be1e5ebec7d5bd14f71427d1e84f3dd0314c0f7b2291e5b200ac8c7c3b9258660405161059f9190612315565b60405180910390a360019250505092915050565b6105be838383610f61565b50505050565b6000600754905090565b600680546105db90612553565b80601f016020809104026020016040519081016040528092919081815260200182805461060790612553565b80156106545780601f1061062957610100808354040283529160200191610654565b820191906000526020600020905b81548152906001019060200180831161063757829003601f168201915b505050505081565b6000838280600960008473ffffffffffffffffffffffffffffffffffffffff1673ffffffffffffffffffffffffffffffffffffffff1681526020019081526020016000205410156106e2576040517f08c379a00000000000000000000000000000000000000000000000000000000081526004016106d990612275565b60405180910390fd5b83600a60008873ffffffffffffffffffffffffffffffffffffffff1673ffffffffffffffffffffffffffffffffffffffff16815260200190815260200160002060003373ffffffffffffffffffffffffffffffffffffffff1673ffffffffffffffffffffffffffffffffffffffff1681526020019081526020016000205410156107a1576040517f08c379a000000000000000000000000000000000000000000000000000000000815260040161079890612215565b60405180910390fd5b83600a60008873ffffffffffffffffffffffffffffffffffffffff1673ffffffffffffffffffffffffffffffffffffffff16815260200190815260200160002060003373ffffffffffffffffffffffffffffffffffffffff1673ffffffffffffffffffffffffffffffffffffffff168152602001908152602001600020600082825461082d9190612488565b9250508190555083600960008873ffffffffffffffffffffffffffffffffffffffff1673ffffffffffffffffffffffffffffffffffffffff16815260200190815260200160002060008282546108839190612488565b9250508190555083600960008773ffffffffffffffffffffffffffffffffffffffff1673ffffffffffffffffffffffffffffffffffffffff16815260200190815260200160002060008282546108d99190612432565b925050819055508473ffffffffffffffffffffffffffffffffffffffff168673ffffffffffffffffffffffffffffffffffffffff167fddf252ad1be2c89b69c2b068fc378daa952ba7f163c4a11628f55a4df523b3ef8660405161093d9190612315565b60405180910390a36001925050509392505050565b60096020528060005260406000206000915090505481565b600860009054906101000a900460ff1681565b600a602052816000526040600020602052806000526040600020600091509150505481565b600580546109af90612553565b80601f01602080910402602001604051908101604052809291908181526020018280546109db90612553565b8015610a285780601f106109fd57610100808354040283529160200191610a28565b820191906000526020600020905b815481529060010190602001808311610a0b57829003601f168201915b505050505081565b60045481565b6000600960008373ffffffffffffffffffffffffffffffffffffffff1673ffffffffffffffffffffffffffffffffffffffff168152602001908152602001600020549050919050565b6002602052806000526040600020600091509050806000015490806001018054610aa890612553565b80601f0160208091040260200160405190810160405280929190818152602001828054610ad490612553565b8015610b215780601f10610af657610100808354040283529160200191610b21565b820191906000526020600020905b815481529060010190602001808311610b0457829003601f168201915b5050505050908060030160009054906101000a900473ffffffffffffffffffffffffffffffffffffffff16905083565b610b5c83838361143b565b50505050565b6001602052806000526040600020600091509050806000018054610b8590612553565b80601f0160208091040260200160405190810160405280929190818152602001828054610bb190612553565b8015610bfe5780601f10610bd357610100808354040283529160200191610bfe565b820191906000526020600020905b815481529060010190602001808311610be157829003601f168201915b5050505050908060010160009054906101000a900473ffffffffffffffffffffffffffffffffffffffff16905082565b6000338280600960008473ffffffffffffffffffffffffffffffffffffffff1673ffffffffffffffffffffffffffffffffffffffff168152602001908152602001600020541015610cb4576040517f08c379a0000000000000000000000000000000000000000000000000000000008152600401610cab90612275565b60405180910390fd5b83600960003373ffffffffffffffffffffffffffffffffffffffff1673ffffffffffffffffffffffffffffffffffffffff1681526020019081526020016000206000828254610d039190612488565b9250508190555083600960008773ffffffffffffffffffffffffffffffffffffffff1673ffffffffffffffffffffffffffffffffffffffff1681526020019081526020016000206000828254610d599190612432565b925050819055508473ffffffffffffffffffffffffffffffffffffffff163373ffffffffffffffffffffffffffffffffffffffff167fddf252ad1be2c89b69c2b068fc378daa952ba7f163c4a11628f55a4df523b3ef86604051610dbd9190612315565b60405180910390a360019250505092915050565b600360009054906101000a900473ffffffffffffffffffffffffffffffffffffffff1681565b6000600a60008473ffffffffffffffffffffffffffffffffffffffff1673ffffffffffffffffffffffffffffffffffffffff16815260200190815260200160002060008373ffffffffffffffffffffffffffffffffffffffff1673ffffffffffffffffffffffffffffffffffffffff16815260200190815260200160002054905092915050565b6000602052806000526040600020600091509050806000018054610ea190612553565b80601f0160208091040260200160405190810160405280929190818152602001828054610ecd90612553565b8015610f1a5780601f10610eef57610100808354040283529160200191610f1a565b820191906000526020600020905b815481529060010190602001808311610efd57829003601f168201915b5050505050908060010160009054906101000a900473ffffffffffffffffffffffffffffffffffffffff16905082565b610f5583838361187b565b50505050565b60075481565b6000600360009054906101000a900473ffffffffffffffffffffffffffffffffffffffff1673ffffffffffffffffffffffffffffffffffffffff163373ffffffffffffffffffffffffffffffffffffffff16148061104d5750600073ffffffffffffffffffffffffffffffffffffffff166000803373ffffffffffffffffffffffffffffffffffffffff1673ffffffffffffffffffffffffffffffffffffffff16815260200190815260200160002060010160009054906101000a900473ffffffffffffffffffffffffffffffffffffffff1673ffffffffffffffffffffffffffffffffffffffff1614155b61108c576040517f08c379a000000000000000000000000000000000000000000000000000000000815260040161108390612255565b60405180910390fd5b81600073ffffffffffffffffffffffffffffffffffffffff166000808373ffffffffffffffffffffffffffffffffffffffff1673ffffffffffffffffffffffffffffffffffffffff16815260200190815260200160002060010160009054906101000a900473ffffffffffffffffffffffffffffffffffffffff1673ffffffffffffffffffffffffffffffffffffffff161461115d576040517f08c379a000000000000000000000000000000000000000000000000000000000815260040161115490612235565b60405180910390fd5b600073ffffffffffffffffffffffffffffffffffffffff16600160008373ffffffffffffffffffffffffffffffffffffffff1673ffffffffffffffffffffffffffffffffffffffff16815260200190815260200160002060010160009054906101000a900473ffffffffffffffffffffffffffffffffffffffff1673ffffffffffffffffffffffffffffffffffffffff161461122e576040517f08c379a000000000000000000000000000000000000000000000000000000000815260040161122590612295565b60405180910390fd5b600360009054906101000a900473ffffffffffffffffffffffffffffffffffffffff1673ffffffffffffffffffffffffffffffffffffffff168173ffffffffffffffffffffffffffffffffffffffff1614156112bf576040517f08c379a00000000000000000000000000000000000000000000000000000000081526004016112b6906122f5565b60405180910390fd5b604051806040016040528086868080601f016020809104026020016040519081016040528093929190818152602001838380828437600081840152601f19601f8201169050808301925050505050505081526020018473ffffffffffffffffffffffffffffffffffffffff16815250600160008573ffffffffffffffffffffffffffffffffffffffff1673ffffffffffffffffffffffffffffffffffffffff1681526020019081526020016000206000820151816000019080519060200190611389929190611aee565b5060208201518160010160006101000a81548173ffffffffffffffffffffffffffffffffffffffff021916908373ffffffffffffffffffffffffffffffffffffffff1602179055509050508273ffffffffffffffffffffffffffffffffffffffff1685856040516113fb929190612174565b60405180910390207f3eb9ae1db4c1e4ee72b0a46d8d264f4d15ac0bd52eae6d8c9ea01975e2bca48160405160405180910390a360019150509392505050565b6000600360009054906101000a900473ffffffffffffffffffffffffffffffffffffffff1673ffffffffffffffffffffffffffffffffffffffff163373ffffffffffffffffffffffffffffffffffffffff16146114cd576040517f08c379a00000000000000000000000000000000000000000000000000000000081526004016114c4906122d5565b60405180910390fd5b81600073ffffffffffffffffffffffffffffffffffffffff166000808373ffffffffffffffffffffffffffffffffffffffff1673ffffffffffffffffffffffffffffffffffffffff16815260200190815260200160002060010160009054906101000a900473ffffffffffffffffffffffffffffffffffffffff1673ffffffffffffffffffffffffffffffffffffffff161461159e576040517f08c379a000000000000000000000000000000000000000000000000000000000815260040161159590612235565b60405180910390fd5b600073ffffffffffffffffffffffffffffffffffffffff16600160008373ffffffffffffffffffffffffffffffffffffffff1673ffffffffffffffffffffffffffffffffffffffff16815260200190815260200160002060010160009054906101000a900473ffffffffffffffffffffffffffffffffffffffff1673ffffffffffffffffffffffffffffffffffffffff161461166f576040517f08c379a000000000000000000000000000000000000000000000000000000000815260040161166690612295565b60405180910390fd5b600360009054906101000a900473ffffffffffffffffffffffffffffffffffffffff1673ffffffffffffffffffffffffffffffffffffffff168173ffffffffffffffffffffffffffffffffffffffff161415611700576040517f08c379a00000000000000000000000000000000000000000000000000000000081526004016116f7906122f5565b60405180910390fd5b604051806040016040528086868080601f016020809104026020016040519081016040528093929190818152602001838380828437600081840152601f19601f8201169050808301925050505050505081526020018473ffffffffffffffffffffffffffffffffffffffff168152506000808573ffffffffffffffffffffffffffffffffffffffff1673ffffffffffffffffffffffffffffffffffffffff16815260200190815260200160002060008201518160000190805190602001906117c9929190611aee565b5060208201518160010160006101000a81548173ffffffffffffffffffffffffffffffffffffffff021916908373ffffffffffffffffffffffffffffffffffffffff1602179055509050508273ffffffffffffffffffffffffffffffffffffffff16858560405161183b929190612174565b60405180910390207feef6791cc176c62cf1998656a1d10ffa809f554fe4f085891e24e962abb1ab7660405160405180910390a360019150509392505050565b60008073ffffffffffffffffffffffffffffffffffffffff166000803373ffffffffffffffffffffffffffffffffffffffff1673ffffffffffffffffffffffffffffffffffffffff16815260200190815260200160002060010160009054906101000a900473ffffffffffffffffffffffffffffffffffffffff1673ffffffffffffffffffffffffffffffffffffffff16141561194d576040517f08c379a0000000000000000000000000000000000000000000000000000000008152600401611944906122b5565b60405180910390fd5b6040518060800160405280600454815260200185858080601f016020809104026020016040519081016040528093929190818152602001838380828437600081840152601f19601f8201169050808301925050505050505081526020018381526020013373ffffffffffffffffffffffffffffffffffffffff16815250600260006004548152602001908152602001600020600082015181600001556020820151816001019080519060200190611a05929190611aee565b506040820151816002019080519060200190611a22929190611b74565b5060608201518160030160006101000a81548173ffffffffffffffffffffffffffffffffffffffff021916908373ffffffffffffffffffffffffffffffffffffffff1602179055509050508383604051611a7d929190612174565b60405180910390206004543373ffffffffffffffffffffffffffffffffffffffff167fc554af40412eb958ce7250b87bdcc1fa1f9a83b937bcefded5dfc67fc8c89a1f60405160405180910390a460046000815480929190611ade906125b6565b9190505550600190509392505050565b828054611afa90612553565b90600052602060002090601f016020900481019282611b1c5760008555611b63565b82601f10611b3557805160ff1916838001178555611b63565b82800160010185558215611b63579182015b82811115611b62578251825591602001919060010190611b47565b5b509050611b709190611bd4565b5090565b828054828255906000526020600020908101928215611bc3579160200282015b82811115611bc2578251829080519060200190611bb2929190611aee565b5091602001919060010190611b94565b5b509050611bd09190611bf1565b5090565b5b80821115611bed576000816000905550600101611bd5565b5090565b5b80821115611c115760008181611c089190611c15565b50600101611bf2565b5090565b508054611c2190612553565b6000825580601f10611c335750611c52565b601f016020900490600052602060002090810190611c519190611bd4565b5b50565b6000611c68611c63846123ae565b612389565b90508083825260208201905082856020860282011115611c8757600080fd5b60005b85811015611cd157813567ffffffffffffffff811115611ca957600080fd5b808601611cb68982611da2565b85526020850194506020840193505050600181019050611c8a565b5050509392505050565b6000611cee611ce9846123da565b612389565b905082815260208101848484011115611d0657600080fd5b611d11848285612511565b509392505050565b600081359050611d28816128a3565b92915050565b600082601f830112611d3f57600080fd5b8135611d4f848260208601611c55565b91505092915050565b60008083601f840112611d6a57600080fd5b8235905067ffffffffffffffff811115611d8357600080fd5b602083019150836001820283011115611d9b57600080fd5b9250929050565b600082601f830112611db357600080fd5b8135611dc3848260208601611cdb565b91505092915050565b600081359050611ddb816128ba565b92915050565b600060208284031215611df357600080fd5b6000611e0184828501611d19565b91505092915050565b60008060408385031215611e1d57600080fd5b6000611e2b85828601611d19565b9250506020611e3c85828601611d19565b9150509250929050565b600080600060608486031215611e5b57600080fd5b6000611e6986828701611d19565b9350506020611e7a86828701611d19565b9250506040611e8b86828701611dcc565b9150509250925092565b60008060408385031215611ea857600080fd5b6000611eb685828601611d19565b9250506020611ec785828601611dcc565b9150509250929050565b600080600060408486031215611ee657600080fd5b600084013567ffffffffffffffff811115611f0057600080fd5b611f0c86828701611d58565b93509350506020611f1f86828701611d19565b9150509250925092565b600080600060408486031215611f3e57600080fd5b600084013567ffffffffffffffff811115611f5857600080fd5b611f6486828701611d58565b9350935050602084013567ffffffffffffffff811115611f8357600080fd5b611f8f86828701611d2e565b9150509250925092565b600060208284031215611fab57600080fd5b6000611fb984828501611dcc565b91505092915050565b611fcb816124bc565b82525050565b611fda816124ce565b82525050565b6000611fec8385612427565b9350611ff9838584612511565b82840190509392505050565b60006120108261240b565b61201a8185612416565b935061202a818560208601612520565b6120338161268c565b840191505092915050565b600061204b601c83612416565b91506120568261269d565b602082019050919050565b600061206e602b83612416565b9150612079826126c6565b604082019050919050565b6000612091603783612416565b915061209c82612715565b604082019050919050565b60006120b4602083612416565b91506120bf82612764565b602082019050919050565b60006120d7602b83612416565b91506120e28261278d565b604082019050919050565b60006120fa602083612416565b9150612105826127dc565b602082019050919050565b600061211d602b83612416565b915061212882612805565b604082019050919050565b6000612140602f83612416565b915061214b82612854565b604082019050919050565b61215f816124fa565b82525050565b61216e81612504565b82525050565b6000612181828486611fe0565b91508190509392505050565b60006020820190506121a26000830184611fc2565b92915050565b60006020820190506121bd6000830184611fd1565b92915050565b600060208201905081810360008301526121dd8184612005565b905092915050565b600060408201905081810360008301526121ff8185612005565b905061220e6020830184611fc2565b9392505050565b6000602082019050818103600083015261222e8161203e565b9050919050565b6000602082019050818103600083015261224e81612061565b9050919050565b6000602082019050818103600083015261226e81612084565b9050919050565b6000602082019050818103600083015261228e816120a7565b9050919050565b600060208201905081810360008301526122ae816120ca565b9050919050565b600060208201905081810360008301526122ce816120ed565b9050919050565b600060208201905081810360008301526122ee81612110565b9050919050565b6000602082019050818103600083015261230e81612133565b9050919050565b600060208201905061232a6000830184612156565b92915050565b60006060820190506123456000830186612156565b81810360208301526123578185612005565b90506123666040830184611fc2565b949350505050565b60006020820190506123836000830184612165565b92915050565b60006123936123a4565b905061239f8282612585565b919050565b6000604051905090565b600067ffffffffffffffff8211156123c9576123c861265d565b5b602082029050602081019050919050565b600067ffffffffffffffff8211156123f5576123f461265d565b5b6123fe8261268c565b9050602081019050919050565b600081519050919050565b600082825260208201905092915050565b600081905092915050565b600061243d826124fa565b9150612448836124fa565b9250827fffffffffffffffffffffffffffffffffffffffffffffffffffffffffffffffff0382111561247d5761247c6125ff565b5b828201905092915050565b6000612493826124fa565b915061249e836124fa565b9250828210156124b1576124b06125ff565b5b828203905092915050565b60006124c7826124da565b9050919050565b60008115159050919050565b600073ffffffffffffffffffffffffffffffffffffffff82169050919050565b6000819050919050565b600060ff82169050919050565b82818337600083830152505050565b60005b8381101561253e578082015181840152602081019050612523565b8381111561254d576000848401525b50505050565b6000600282049050600182168061256b57607f821691505b6020821081141561257f5761257e61262e565b5b50919050565b61258e8261268c565b810181811067ffffffffffffffff821117156125ad576125ac61265d565b5b80604052505050565b60006125c1826124fa565b91507fffffffffffffffffffffffffffffffffffffffffffffffffffffffffffffffff8214156125f4576125f36125ff565b5b600182019050919050565b7f4e487b7100000000000000000000000000000000000000000000000000000000600052601160045260246000fd5b7f4e487b7100000000000000000000000000000000000000000000000000000000600052602260045260246000fd5b7f4e487b7100000000000000000000000000000000000000000000000000000000600052604160045260246000fd5b6000601f19601f8301169050919050565b7f696e73756666696369656e7420616c6c6f7765642062616c616e636500000000600082015250565b7f77616c6c657420697320616c7265616479206173736f6369617465642077697460008201527f6820612074656163686572000000000000000000000000000000000000000000602082015250565b7f6f6e6c79207465616368657273206f7220746865207072696e636970616c206360008201527f616e2061636365737320746869732066756e6374696f6e000000000000000000602082015250565b7f6163636f756e742068617320696e73756666696369656e742062616c616e6365600082015250565b7f77616c6c657420697320616c7265616479206173736f6369617465642077697460008201527f6820612073747564656e74000000000000000000000000000000000000000000602082015250565b7f6f6e6c792074656163686572732063616e20637265617465206120636c617373600082015250565b7f6f6e6c7920746865207072696e636970616c2063616e2061636365737320746860008201527f69732066756e6374696f6e000000000000000000000000000000000000000000602082015250565b7f77616c6c657420697320616c7265616479206173736f6369617465642077697460008201527f6820746865207072696e636970616c0000000000000000000000000000000000602082015250565b6128ac816124bc565b81146128b757600080fd5b50565b6128c3816124fa565b81146128ce57600080fd5b5056fea26469706673582212203938df2e660ab96577ecf39451552d74526bdf6cb2bbcd5a909ead4efa422b7b64736f6c63430008040033",
  "linkReferences": {},
  "deployedLinkReferences": {}
}