{
  "_format": "hh-sol-artifact-1",
  "contractName": "ERC20Token",
  "sourceName": "contracts/ERC20.sol",
  "abi": [
    {
      "inputs": [
        {
          "internalType": "string",
          "name": "_tokenName",
          "type": "string"
        },
        {
          "internalType": "string",
          "name": "_tickerSymbol",
          "type": "string"
        },
        {
          "internalType": "uint256",
          "name": "_tokenTotalSupply",
          "type": "uint256"
        },
        {
          "internalType": "uint8",
          "name": "_decimals",
          "type": "uint8"
        }
      ],
      "stateMutability": "nonpayable",
      "type": "constructor"
    },
    {
      "anonymous": false,
      "inputs": [
        {
          "indexed": true,
          "internalType": "address",
          "name": "owner",
          "type": "address"
        },
        {
          "indexed": true,
          "internalType": "address",
          "name": "spender",
          "type": "address"
        },
        {
          "indexed": false,
          "internalType": "uint256",
          "name": "value",
          "type": "uint256"
        }
      ],
      "name": "Approval",
      "type": "event"
    },
    {
      "anonymous": false,
      "inputs": [
        {
          "indexed": true,
          "internalType": "address",
          "name": "teacher",
          "type": "address"
        },
        {
          "indexed": true,
          "internalType": "uint256",
          "name": "classId",
          "type": "uint256"
        },
        {
          "indexed": true,
          "internalType": "string",
          "name": "className",
          "type": "string"
        }
      ],
      "name": "ClassCreated",
      "type": "event"
    },
    {
      "anonymous": false,
      "inputs": [
        {
          "indexed": true,
          "internalType": "address",
          "name": "teacher",
          "type": "address"
        },
        {
          "indexed": true,
          "internalType": "uint256",
          "name": "consultId",
          "type": "uint256"
        }
      ],
      "name": "ConsultCreated",
      "type": "event"
    },
    {
      "anonymous": false,
      "inputs": [
        {
          "indexed": true,
          "internalType": "string",
          "name": "name",
          "type": "string"
        },
        {
          "indexed": true,
          "internalType": "address",
          "name": "wallet",
          "type": "address"
        }
      ],
      "name": "StudentAdded",
      "type": "event"
    },
    {
      "anonymous": false,
      "inputs": [
        {
          "indexed": true,
          "internalType": "string",
          "name": "name",
          "type": "string"
        },
        {
          "indexed": true,
          "internalType": "address",
          "name": "wallet",
          "type": "address"
        }
      ],
      "name": "TeacherAdded",
      "type": "event"
    },
    {
      "anonymous": false,
      "inputs": [
        {
          "indexed": true,
          "internalType": "address",
          "name": "from",
          "type": "address"
        },
        {
          "indexed": true,
          "internalType": "address",
          "name": "to",
          "type": "address"
        },
        {
          "indexed": false,
          "internalType": "uint256",
          "name": "value",
          "type": "uint256"
        }
      ],
      "name": "Transfer",
      "type": "event"
    },
    {
      "inputs": [],
      "name": "STARTINGAMOUNT",
      "outputs": [
        {
          "internalType": "uint256",
          "name": "",
          "type": "uint256"
        }
      ],
      "stateMutability": "view",
      "type": "function"
    },
    {
      "inputs": [
        {
          "internalType": "string",
          "name": "name",
          "type": "string"
        },
        {
          "internalType": "address",
          "name": "wallet",
          "type": "address"
        }
      ],
      "name": "addStudent",
      "outputs": [],
      "stateMutability": "nonpayable",
      "type": "function"
    },
    {
      "inputs": [
        {
          "internalType": "string",
          "name": "name",
          "type": "string"
        },
        {
          "internalType": "address",
          "name": "wallet",
          "type": "address"
        }
      ],
      "name": "addTeacher",
      "outputs": [],
      "stateMutability": "nonpayable",
      "type": "function"
    },
    {
      "inputs": [
        {
          "internalType": "address",
          "name": "owner",
          "type": "address"
        },
        {
          "internalType": "address",
          "name": "spender",
          "type": "address"
        }
      ],
      "name": "allowance",
      "outputs": [
        {
          "internalType": "uint256",
          "name": "",
          "type": "uint256"
        }
      ],
      "stateMutability": "view",
      "type": "function"
    },
    {
      "inputs": [
        {
          "internalType": "address",
          "name": "",
          "type": "address"
        },
        {
          "internalType": "address",
          "name": "",
          "type": "address"
        }
      ],
      "name": "allowed",
      "outputs": [
        {
          "internalType": "uint256",
          "name": "",
          "type": "uint256"
        }
      ],
      "stateMutability": "view",
      "type": "function"
    },
    {
      "inputs": [
        {
          "internalType": "address",
          "name": "spender",
          "type": "address"
        },
        {
          "internalType": "uint256",
          "name": "amount",
          "type": "uint256"
        }
      ],
      "name": "approve",
      "outputs": [
        {
          "internalType": "bool",
          "name": "",
          "type": "bool"
        }
      ],
      "stateMutability": "nonpayable",
      "type": "function"
    },
    {
      "inputs": [
        {
          "internalType": "address",
          "name": "account",
          "type": "address"
        }
      ],
      "name": "balanceOf",
      "outputs": [
        {
          "internalType": "uint256",
          "name": "",
          "type": "uint256"
        }
      ],
      "stateMutability": "view",
      "type": "function"
    },
    {
      "inputs": [
        {
          "internalType": "address",
          "name": "",
          "type": "address"
        }
      ],
      "name": "balances",
      "outputs": [
        {
          "internalType": "uint256",
          "name": "",
          "type": "uint256"
        }
      ],
      "stateMutability": "view",
      "type": "function"
    },
    {
      "inputs": [
        {
          "internalType": "uint256",
          "name": "",
          "type": "uint256"
        },
        {
          "internalType": "uint256",
          "name": "",
          "type": "uint256"
        }
      ],
      "name": "classAttendance",
      "outputs": [
        {
          "internalType": "address",
          "name": "",
          "type": "address"
        }
      ],
      "stateMutability": "view",
      "type": "function"
    },
    {
      "inputs": [
        {
          "internalType": "uint256",
          "name": "",
          "type": "uint256"
        }
      ],
      "name": "classes",
      "outputs": [
        {
          "internalType": "uint256",
          "name": "id",
          "type": "uint256"
        },
        {
          "internalType": "string",
          "name": "name",
          "type": "string"
        },
        {
          "internalType": "uint256",
          "name": "cost",
          "type": "uint256"
        },
        {
          "internalType": "address",
          "name": "teacher",
          "type": "address"
        }
      ],
      "stateMutability": "view",
      "type": "function"
    },
    {
      "inputs": [
        {
          "internalType": "uint256",
          "name": "",
          "type": "uint256"
        },
        {
          "internalType": "address",
          "name": "",
          "type": "address"
        }
      ],
      "name": "consultAttendanceList",
      "outputs": [
        {
          "internalType": "bool",
          "name": "signedUp",
          "type": "bool"
        },
        {
          "internalType": "bool",
          "name": "attended",
          "type": "bool"
        }
      ],
      "stateMutability": "view",
      "type": "function"
    },
    {
      "inputs": [
        {
          "internalType": "uint256",
          "name": "",
          "type": "uint256"
        }
      ],
      "name": "consults",
      "outputs": [
        {
          "internalType": "uint256",
          "name": "id",
          "type": "uint256"
        },
        {
          "internalType": "address",
          "name": "teacher",
          "type": "address"
        },
        {
          "internalType": "uint256",
          "name": "stake",
          "type": "uint256"
        },
        {
          "internalType": "uint256",
          "name": "capacity",
          "type": "uint256"
        },
        {
          "internalType": "uint256",
          "name": "currentPax",
          "type": "uint256"
        }
      ],
      "stateMutability": "view",
      "type": "function"
    },
    {
      "inputs": [
        {
          "internalType": "string",
          "name": "name",
          "type": "string"
        },
        {
          "internalType": "uint256",
          "name": "cost",
          "type": "uint256"
        }
      ],
      "name": "createClass",
      "outputs": [
        {
          "internalType": "uint256",
          "name": "",
          "type": "uint256"
        }
      ],
      "stateMutability": "nonpayable",
      "type": "function"
    },
    {
      "inputs": [
        {
          "internalType": "uint256",
          "name": "stake",
          "type": "uint256"
        },
        {
          "internalType": "uint256",
          "name": "capacity",
          "type": "uint256"
        }
      ],
      "name": "createConsult",
      "outputs": [
        {
          "internalType": "uint256",
          "name": "",
          "type": "uint256"
        }
      ],
      "stateMutability": "nonpayable",
      "type": "function"
    },
    {
      "inputs": [],
      "name": "decimals",
      "outputs": [
        {
          "internalType": "uint8",
          "name": "",
          "type": "uint8"
        }
      ],
      "stateMutability": "view",
      "type": "function"
    },
    {
      "inputs": [
        {
          "internalType": "address",
          "name": "wallet",
          "type": "address"
        },
        {
          "internalType": "uint256",
          "name": "consultId",
          "type": "uint256"
        }
      ],
      "name": "markConsultAttendance",
      "outputs": [],
      "stateMutability": "nonpayable",
      "type": "function"
    },
    {
      "inputs": [],
      "name": "nextClassId",
      "outputs": [
        {
          "internalType": "uint256",
          "name": "",
          "type": "uint256"
        }
      ],
      "stateMutability": "view",
      "type": "function"
    },
    {
      "inputs": [],
      "name": "nextConsultId",
      "outputs": [
        {
          "internalType": "uint256",
          "name": "",
          "type": "uint256"
        }
      ],
      "stateMutability": "view",
      "type": "function"
    },
    {
      "inputs": [
        {
          "internalType": "uint256",
          "name": "classId",
          "type": "uint256"
        }
      ],
      "name": "signUpForClass",
      "outputs": [],
      "stateMutability": "nonpayable",
      "type": "function"
    },
    {
      "inputs": [
        {
          "internalType": "uint256",
          "name": "consultId",
          "type": "uint256"
        }
      ],
      "name": "signUpForConsult",
      "outputs": [],
      "stateMutability": "nonpayable",
      "type": "function"
    },
    {
      "inputs": [
        {
          "internalType": "address",
          "name": "",
          "type": "address"
        }
      ],
      "name": "students",
      "outputs": [
        {
          "internalType": "string",
          "name": "name",
          "type": "string"
        },
        {
          "internalType": "address",
          "name": "wallet",
          "type": "address"
        }
      ],
      "stateMutability": "view",
      "type": "function"
    },
    {
      "inputs": [
        {
          "internalType": "address",
          "name": "",
          "type": "address"
        }
      ],
      "name": "teachers",
      "outputs": [
        {
          "internalType": "string",
          "name": "name",
          "type": "string"
        },
        {
          "internalType": "address",
          "name": "wallet",
          "type": "address"
        }
      ],
      "stateMutability": "view",
      "type": "function"
    },
    {
      "inputs": [],
      "name": "tickerSymbol",
      "outputs": [
        {
          "internalType": "string",
          "name": "",
          "type": "string"
        }
      ],
      "stateMutability": "view",
      "type": "function"
    },
    {
      "inputs": [],
      "name": "tokenName",
      "outputs": [
        {
          "internalType": "string",
          "name": "",
          "type": "string"
        }
      ],
      "stateMutability": "view",
      "type": "function"
    },
    {
      "inputs": [],
      "name": "tokenTotalSupply",
      "outputs": [
        {
          "internalType": "uint256",
          "name": "",
          "type": "uint256"
        }
      ],
      "stateMutability": "view",
      "type": "function"
    },
    {
      "inputs": [],
      "name": "totalSupply",
      "outputs": [
        {
          "internalType": "uint256",
          "name": "",
          "type": "uint256"
        }
      ],
      "stateMutability": "view",
      "type": "function"
    },
    {
      "inputs": [
        {
          "internalType": "address",
          "name": "recipient",
          "type": "address"
        },
        {
          "internalType": "uint256",
          "name": "amount",
          "type": "uint256"
        }
      ],
      "name": "transfer",
      "outputs": [
        {
          "internalType": "bool",
          "name": "",
          "type": "bool"
        }
      ],
      "stateMutability": "nonpayable",
      "type": "function"
    },
    {
      "inputs": [
        {
          "internalType": "address",
          "name": "spender",
          "type": "address"
        },
        {
          "internalType": "address",
          "name": "recipient",
          "type": "address"
        },
        {
          "internalType": "uint256",
          "name": "amount",
          "type": "uint256"
        }
      ],
      "name": "transferFrom",
      "outputs": [
        {
          "internalType": "bool",
          "name": "",
          "type": "bool"
        }
      ],
      "stateMutability": "nonpayable",
      "type": "function"
    },
    {
      "inputs": [],
      "name": "treasury",
      "outputs": [
        {
          "internalType": "address",
          "name": "",
          "type": "address"
        }
      ],
      "stateMutability": "view",
      "type": "function"
    }
  ],
  "bytecode": "0x6080604052600160075560016008553480156200001b57600080fd5b50604051620045d0380380620045d0833981810160405281019062000041919062000274565b33600660006101000a81548173ffffffffffffffffffffffffffffffffffffffff021916908373ffffffffffffffffffffffffffffffffffffffff16021790555083600990805190602001906200009a92919062000124565b5082600a9080519060200190620000b392919062000124565b5081600b8190555080600c60006101000a81548160ff021916908360ff16021790555081600d60003373ffffffffffffffffffffffffffffffffffffffff1673ffffffffffffffffffffffffffffffffffffffff1681526020019081526020016000208190555050505050620004cd565b8280546200013290620003be565b90600052602060002090601f016020900481019282620001565760008555620001a2565b82601f106200017157805160ff1916838001178555620001a2565b82800160010185558215620001a2579182015b82811115620001a157825182559160200191906001019062000184565b5b509050620001b19190620001b5565b5090565b5b80821115620001d0576000816000905550600101620001b6565b5090565b6000620001eb620001e5846200033b565b62000312565b9050828152602081018484840111156200020457600080fd5b6200021184828562000388565b509392505050565b600082601f8301126200022b57600080fd5b81516200023d848260208601620001d4565b91505092915050565b600081519050620002578162000499565b92915050565b6000815190506200026e81620004b3565b92915050565b600080600080608085870312156200028b57600080fd5b600085015167ffffffffffffffff811115620002a657600080fd5b620002b48782880162000219565b945050602085015167ffffffffffffffff811115620002d257600080fd5b620002e08782880162000219565b9350506040620002f38782880162000246565b925050606062000306878288016200025d565b91505092959194509250565b60006200031e62000331565b90506200032c8282620003f4565b919050565b6000604051905090565b600067ffffffffffffffff82111562000359576200035862000459565b5b620003648262000488565b9050602081019050919050565b6000819050919050565b600060ff82169050919050565b60005b83811015620003a85780820151818401526020810190506200038b565b83811115620003b8576000848401525b50505050565b60006002820490506001821680620003d757607f821691505b60208210811415620003ee57620003ed6200042a565b5b50919050565b620003ff8262000488565b810181811067ffffffffffffffff8211171562000421576200042062000459565b5b80604052505050565b7f4e487b7100000000000000000000000000000000000000000000000000000000600052602260045260246000fd5b7f4e487b7100000000000000000000000000000000000000000000000000000000600052604160045260246000fd5b6000601f19601f8301169050919050565b620004a48162000371565b8114620004b057600080fd5b50565b620004be816200037b565b8114620004ca57600080fd5b50565b6140f380620004dd6000396000f3fe608060405234801561001057600080fd5b50600436106101cf5760003560e01c80636c815d2111610104578063a6c807a9116100a2578063e7ccb0a311610071578063e7ccb0a3146105bf578063f0a47f78146105dd578063f7abab9e1461060e578063ffc92a621461062c576101cf565b8063a6c807a9146104fa578063a9059cbb1461052b578063b9adc0191461055b578063dd62ed3e1461058f576101cf565b806373287259116100de578063732872591461044a578063815636151461047b578063817dbe9f146104ab578063a36042db146104de576101cf565b80636c815d21146103de5780636ca8cc8c146103fc57806370a082311461041a576101cf565b8063313ce567116101715780634852a2121161014b5780634852a212146103425780635c6581651461037257806361d027b3146103a25780636c02a931146103c0576101cf565b8063313ce567146102ec5780633cd2c1e41461030a57806345b86a3014610326576101cf565b806318160ddd116101ad57806318160ddd146102505780632374f8a61461026e57806323b872dd1461028c57806327e235e3146102bc576101cf565b8063095ea7b3146101d457806310468c2f14610204578063143c297c14610220575b600080fd5b6101ee60048036038101906101e99190613111565b610648565b6040516101fb91906135e2565b60405180910390f35b61021e6004803603810190610219919061314d565b6107c0565b005b61023a60048036038101906102359190613262565b610946565b60405161024791906135c7565b60405180910390f35b610258610994565b60405161026591906138b8565b60405180910390f35b61027661099e565b6040516102839190613626565b60405180910390f35b6102a660048036038101906102a191906130c2565b610a2c565b6040516102b391906135e2565b60405180910390f35b6102d660048036038101906102d1919061305d565b610d22565b6040516102e391906138b8565b60405180910390f35b6102f4610d3a565b6040516103019190613972565b60405180910390f35b610324600480360381019061031f91906131fd565b610d4d565b005b610340600480360381019061033b9190613111565b611049565b005b61035c600480360381019061035791906131a5565b6113dd565b60405161036991906138b8565b60405180910390f35b61038c60048036038101906103879190613086565b6113f8565b60405161039991906138b8565b60405180910390f35b6103aa61141d565b6040516103b791906135c7565b60405180910390f35b6103c8611443565b6040516103d59190613626565b60405180910390f35b6103e66114d1565b6040516103f391906138b8565b60405180910390f35b6104046114d7565b60405161041191906138b8565b60405180910390f35b610434600480360381019061042f919061305d565b6114dd565b60405161044191906138b8565b60405180910390f35b610464600480360381019061045f9190613226565b611526565b6040516104729291906135fd565b60405180910390f35b61049560048036038101906104909190613262565b611571565b6040516104a291906138b8565b60405180910390f35b6104c560048036038101906104c091906131fd565b61158a565b6040516104d59493929190613926565b60405180910390f35b6104f860048036038101906104f3919061314d565b611662565b005b610514600480360381019061050f919061305d565b611673565b604051610522929190613648565b60405180910390f35b61054560048036038101906105409190613111565b61173f565b60405161055291906135e2565b60405180910390f35b610575600480360381019061057091906131fd565b6118e2565b6040516105869594939291906138d3565b60405180910390f35b6105a960048036038101906105a49190613086565b611938565b6040516105b691906138b8565b60405180910390f35b6105c76119bf565b6040516105d491906138b8565b60405180910390f35b6105f760048036038101906105f2919061305d565b6119c4565b604051610605929190613648565b60405180910390f35b610616611a90565b60405161062391906138b8565b60405180910390f35b610646600480360381019061064191906131fd565b611a96565b005b6000338280600d60008473ffffffffffffffffffffffffffffffffffffffff1673ffffffffffffffffffffffffffffffffffffffff1681526020019081526020016000205410156106ce576040517f08c379a00000000000000000000000000000000000000000000000000000000081526004016106c590613738565b60405180910390fd5b83600e60003373ffffffffffffffffffffffffffffffffffffffff1673ffffffffffffffffffffffffffffffffffffffff16815260200190815260200160002060008773ffffffffffffffffffffffffffffffffffffffff1673ffffffffffffffffffffffffffffffffffffffff168152602001908152602001600020819055508473ffffffffffffffffffffffffffffffffffffffff163373ffffffffffffffffffffffffffffffffffffffff167f8c5be1e5ebec7d5bd14f71427d1e84f3dd0314c0f7b2291e5b200ac8c7c3b925866040516107ac91906138b8565b60405180910390a360019250505092915050565b6107cb838383611ea4565b506005600d6000600660009054906101000a900473ffffffffffffffffffffffffffffffffffffffff1673ffffffffffffffffffffffffffffffffffffffff1673ffffffffffffffffffffffffffffffffffffffff168152602001908152602001600020541015610871576040517f08c379a0000000000000000000000000000000000000000000000000000000008152600401610868906136f8565b60405180910390fd5b6005600d60008373ffffffffffffffffffffffffffffffffffffffff1673ffffffffffffffffffffffffffffffffffffffff16815260200190815260200160002060008282546108c191906139b4565b925050819055506005600d6000600660009054906101000a900473ffffffffffffffffffffffffffffffffffffffff1673ffffffffffffffffffffffffffffffffffffffff1673ffffffffffffffffffffffffffffffffffffffff168152602001908152602001600020600082825461093a9190613a0a565b92505081905550505050565b6003602052816000526040600020818154811061096257600080fd5b906000526020600020016000915091509054906101000a900473ffffffffffffffffffffffffffffffffffffffff1681565b6000600b54905090565b600a80546109ab90613ad5565b80601f01602080910402602001604051908101604052809291908181526020018280546109d790613ad5565b8015610a245780601f106109f957610100808354040283529160200191610a24565b820191906000526020600020905b815481529060010190602001808311610a0757829003601f168201915b505050505081565b6000838280600d60008473ffffffffffffffffffffffffffffffffffffffff1673ffffffffffffffffffffffffffffffffffffffff168152602001908152602001600020541015610ab2576040517f08c379a0000000000000000000000000000000000000000000000000000000008152600401610aa990613738565b60405180910390fd5b83600e60008873ffffffffffffffffffffffffffffffffffffffff1673ffffffffffffffffffffffffffffffffffffffff16815260200190815260200160002060003373ffffffffffffffffffffffffffffffffffffffff1673ffffffffffffffffffffffffffffffffffffffff168152602001908152602001600020541015610b71576040517f08c379a0000000000000000000000000000000000000000000000000000000008152600401610b6890613678565b60405180910390fd5b83600e60008873ffffffffffffffffffffffffffffffffffffffff1673ffffffffffffffffffffffffffffffffffffffff16815260200190815260200160002060003373ffffffffffffffffffffffffffffffffffffffff1673ffffffffffffffffffffffffffffffffffffffff1681526020019081526020016000206000828254610bfd9190613a0a565b9250508190555083600d60008873ffffffffffffffffffffffffffffffffffffffff1673ffffffffffffffffffffffffffffffffffffffff1681526020019081526020016000206000828254610c539190613a0a565b9250508190555083600d60008773ffffffffffffffffffffffffffffffffffffffff1673ffffffffffffffffffffffffffffffffffffffff1681526020019081526020016000206000828254610ca991906139b4565b925050819055508473ffffffffffffffffffffffffffffffffffffffff168673ffffffffffffffffffffffffffffffffffffffff167fddf252ad1be2c89b69c2b068fc378daa952ba7f163c4a11628f55a4df523b3ef86604051610d0d91906138b8565b60405180910390a36001925050509392505050565b600d6020528060005260406000206000915090505481565b600c60009054906101000a900460ff1681565b600073ffffffffffffffffffffffffffffffffffffffff16600160003373ffffffffffffffffffffffffffffffffffffffff1673ffffffffffffffffffffffffffffffffffffffff16815260200190815260200160002060010160009054906101000a900473ffffffffffffffffffffffffffffffffffffffff1673ffffffffffffffffffffffffffffffffffffffff161415610e1f576040517f08c379a0000000000000000000000000000000000000000000000000000000008152600401610e1690613858565b60405180910390fd5b600073ffffffffffffffffffffffffffffffffffffffff166002600083815260200190815260200160002060030160009054906101000a900473ffffffffffffffffffffffffffffffffffffffff1673ffffffffffffffffffffffffffffffffffffffff161415610ec5576040517f08c379a0000000000000000000000000000000000000000000000000000000008152600401610ebc90613698565b60405180910390fd5b60006002600083815260200190815260200160002090508060020154600d60003373ffffffffffffffffffffffffffffffffffffffff1673ffffffffffffffffffffffffffffffffffffffff168152602001908152602001600020541015610f62576040517f08c379a0000000000000000000000000000000000000000000000000000000008152600401610f5990613838565b60405180910390fd5b8060020154600d60003373ffffffffffffffffffffffffffffffffffffffff1673ffffffffffffffffffffffffffffffffffffffff1681526020019081526020016000206000828254610fb59190613a0a565b925050819055508060020154600d60008360030160009054906101000a900473ffffffffffffffffffffffffffffffffffffffff1673ffffffffffffffffffffffffffffffffffffffff1673ffffffffffffffffffffffffffffffffffffffff168152602001908152602001600020600082825461103391906139b4565b92505081905550611044338361237e565b505050565b600073ffffffffffffffffffffffffffffffffffffffff166004600083815260200190815260200160002060010160009054906101000a900473ffffffffffffffffffffffffffffffffffffffff1673ffffffffffffffffffffffffffffffffffffffff1614156110ef576040517f08c379a00000000000000000000000000000000000000000000000000000000081526004016110e6906137d8565b60405180910390fd5b3373ffffffffffffffffffffffffffffffffffffffff166004600083815260200190815260200160002060010160009054906101000a900473ffffffffffffffffffffffffffffffffffffffff1673ffffffffffffffffffffffffffffffffffffffff1614611193576040517f08c379a000000000000000000000000000000000000000000000000000000000815260040161118a90613818565b60405180910390fd5b600115156005600083815260200190815260200160002060008473ffffffffffffffffffffffffffffffffffffffff1673ffffffffffffffffffffffffffffffffffffffff16815260200190815260200160002060000160009054906101000a900460ff1615151461123a576040517f08c379a0000000000000000000000000000000000000000000000000000000008152600401611231906136d8565b60405180910390fd5b600015156005600083815260200190815260200160002060008473ffffffffffffffffffffffffffffffffffffffff1673ffffffffffffffffffffffffffffffffffffffff16815260200190815260200160002060000160019054906101000a900460ff161515146112e1576040517f08c379a00000000000000000000000000000000000000000000000000000000081526004016112d890613758565b60405180910390fd5b60006004600083815260200190815260200160002090508060020154600d60008573ffffffffffffffffffffffffffffffffffffffff1673ffffffffffffffffffffffffffffffffffffffff168152602001908152602001600020600082825461134b91906139b4565b925050819055508060020154600d6000600660009054906101000a900473ffffffffffffffffffffffffffffffffffffffff1673ffffffffffffffffffffffffffffffffffffffff1673ffffffffffffffffffffffffffffffffffffffff16815260200190815260200160002060008282546113c79190613a0a565b925050819055506113d883836123fe565b505050565b6000806113eb85858561253f565b9050809150509392505050565b600e602052816000526040600020602052806000526040600020600091509150505481565b600660009054906101000a900473ffffffffffffffffffffffffffffffffffffffff1681565b6009805461145090613ad5565b80601f016020809104026020016040519081016040528092919081815260200182805461147c90613ad5565b80156114c95780601f1061149e576101008083540402835291602001916114c9565b820191906000526020600020905b8154815290600101906020018083116114ac57829003601f168201915b505050505081565b60085481565b60075481565b6000600d60008373ffffffffffffffffffffffffffffffffffffffff1673ffffffffffffffffffffffffffffffffffffffff168152602001908152602001600020549050919050565b6005602052816000526040600020602052806000526040600020600091509150508060000160009054906101000a900460ff16908060000160019054906101000a900460ff16905082565b60008061157e84846127a0565b90508091505092915050565b60026020528060005260406000206000915090508060000154908060010180546115b390613ad5565b80601f01602080910402602001604051908101604052809291908181526020018280546115df90613ad5565b801561162c5780601f106116015761010080835404028352916020019161162c565b820191906000526020600020905b81548152906001019060200180831161160f57829003601f168201915b5050505050908060020154908060030160009054906101000a900473ffffffffffffffffffffffffffffffffffffffff16905084565b61166d838383612998565b50505050565b600160205280600052604060002060009150905080600001805461169690613ad5565b80601f01602080910402602001604051908101604052809291908181526020018280546116c290613ad5565b801561170f5780601f106116e45761010080835404028352916020019161170f565b820191906000526020600020905b8154815290600101906020018083116116f257829003601f168201915b5050505050908060010160009054906101000a900473ffffffffffffffffffffffffffffffffffffffff16905082565b6000338280600d60008473ffffffffffffffffffffffffffffffffffffffff1673ffffffffffffffffffffffffffffffffffffffff1681526020019081526020016000205410156117c5576040517f08c379a00000000000000000000000000000000000000000000000000000000081526004016117bc90613738565b60405180910390fd5b83600d60003373ffffffffffffffffffffffffffffffffffffffff1673ffffffffffffffffffffffffffffffffffffffff16815260200190815260200160002060008282546118149190613a0a565b9250508190555083600d60008773ffffffffffffffffffffffffffffffffffffffff1673ffffffffffffffffffffffffffffffffffffffff168152602001908152602001600020600082825461186a91906139b4565b925050819055508473ffffffffffffffffffffffffffffffffffffffff163373ffffffffffffffffffffffffffffffffffffffff167fddf252ad1be2c89b69c2b068fc378daa952ba7f163c4a11628f55a4df523b3ef866040516118ce91906138b8565b60405180910390a360019250505092915050565b60046020528060005260406000206000915090508060000154908060010160009054906101000a900473ffffffffffffffffffffffffffffffffffffffff16908060020154908060030154908060040154905085565b6000600e60008473ffffffffffffffffffffffffffffffffffffffff1673ffffffffffffffffffffffffffffffffffffffff16815260200190815260200160002060008373ffffffffffffffffffffffffffffffffffffffff1673ffffffffffffffffffffffffffffffffffffffff16815260200190815260200160002054905092915050565b600581565b60006020528060005260406000206000915090508060000180546119e790613ad5565b80601f0160208091040260200160405190810160405280929190818152602001828054611a1390613ad5565b8015611a605780601f10611a3557610100808354040283529160200191611a60565b820191906000526020600020905b815481529060010190602001808311611a4357829003601f168201915b5050505050908060010160009054906101000a900473ffffffffffffffffffffffffffffffffffffffff16905082565b600b5481565b600073ffffffffffffffffffffffffffffffffffffffff16600160003373ffffffffffffffffffffffffffffffffffffffff1673ffffffffffffffffffffffffffffffffffffffff16815260200190815260200160002060010160009054906101000a900473ffffffffffffffffffffffffffffffffffffffff1673ffffffffffffffffffffffffffffffffffffffff161415611b68576040517f08c379a0000000000000000000000000000000000000000000000000000000008152600401611b5f90613858565b60405180910390fd5b600073ffffffffffffffffffffffffffffffffffffffff166004600083815260200190815260200160002060010160009054906101000a900473ffffffffffffffffffffffffffffffffffffffff1673ffffffffffffffffffffffffffffffffffffffff161415611c0e576040517f08c379a0000000000000000000000000000000000000000000000000000000008152600401611c05906137d8565b60405180910390fd5b60006004600083815260200190815260200160002090508060020154600d60003373ffffffffffffffffffffffffffffffffffffffff1673ffffffffffffffffffffffffffffffffffffffff168152602001908152602001600020541015611cab576040517f08c379a0000000000000000000000000000000000000000000000000000000008152600401611ca290613838565b60405180910390fd5b600015156005600084815260200190815260200160002060003373ffffffffffffffffffffffffffffffffffffffff1673ffffffffffffffffffffffffffffffffffffffff16815260200190815260200160002060000160009054906101000a900460ff16151514611d52576040517f08c379a0000000000000000000000000000000000000000000000000000000008152600401611d49906137b8565b60405180910390fd5b6004600083815260200190815260200160002060030154600460008481526020019081526020016000206004015410611dc0576040517f08c379a0000000000000000000000000000000000000000000000000000000008152600401611db790613718565b60405180910390fd5b8060020154600d60003373ffffffffffffffffffffffffffffffffffffffff1673ffffffffffffffffffffffffffffffffffffffff1681526020019081526020016000206000828254611e139190613a0a565b925050819055508060020154600d6000600660009054906101000a900473ffffffffffffffffffffffffffffffffffffffff1673ffffffffffffffffffffffffffffffffffffffff1673ffffffffffffffffffffffffffffffffffffffff1681526020019081526020016000206000828254611e8f91906139b4565b92505081905550611ea03383612dd8565b5050565b6000600660009054906101000a900473ffffffffffffffffffffffffffffffffffffffff1673ffffffffffffffffffffffffffffffffffffffff163373ffffffffffffffffffffffffffffffffffffffff161480611f905750600073ffffffffffffffffffffffffffffffffffffffff166000803373ffffffffffffffffffffffffffffffffffffffff1673ffffffffffffffffffffffffffffffffffffffff16815260200190815260200160002060010160009054906101000a900473ffffffffffffffffffffffffffffffffffffffff1673ffffffffffffffffffffffffffffffffffffffff1614155b611fcf576040517f08c379a0000000000000000000000000000000000000000000000000000000008152600401611fc690613898565b60405180910390fd5b81600073ffffffffffffffffffffffffffffffffffffffff166000808373ffffffffffffffffffffffffffffffffffffffff1673ffffffffffffffffffffffffffffffffffffffff16815260200190815260200160002060010160009054906101000a900473ffffffffffffffffffffffffffffffffffffffff1673ffffffffffffffffffffffffffffffffffffffff16146120a0576040517f08c379a0000000000000000000000000000000000000000000000000000000008152600401612097906136b8565b60405180910390fd5b600073ffffffffffffffffffffffffffffffffffffffff16600160008373ffffffffffffffffffffffffffffffffffffffff1673ffffffffffffffffffffffffffffffffffffffff16815260200190815260200160002060010160009054906101000a900473ffffffffffffffffffffffffffffffffffffffff1673ffffffffffffffffffffffffffffffffffffffff1614612171576040517f08c379a0000000000000000000000000000000000000000000000000000000008152600401612168906137f8565b60405180910390fd5b600660009054906101000a900473ffffffffffffffffffffffffffffffffffffffff1673ffffffffffffffffffffffffffffffffffffffff168173ffffffffffffffffffffffffffffffffffffffff161415612202576040517f08c379a00000000000000000000000000000000000000000000000000000000081526004016121f990613798565b60405180910390fd5b604051806040016040528086868080601f016020809104026020016040519081016040528093929190818152602001838380828437600081840152601f19601f8201169050808301925050505050505081526020018473ffffffffffffffffffffffffffffffffffffffff16815250600160008573ffffffffffffffffffffffffffffffffffffffff1673ffffffffffffffffffffffffffffffffffffffff16815260200190815260200160002060008201518160000190805190602001906122cc929190612f46565b5060208201518160010160006101000a81548173ffffffffffffffffffffffffffffffffffffffff021916908373ffffffffffffffffffffffffffffffffffffffff1602179055509050508273ffffffffffffffffffffffffffffffffffffffff16858560405161233e9291906135ae565b60405180910390207f3eb9ae1db4c1e4ee72b0a46d8d264f4d15ac0bd52eae6d8c9ea01975e2bca48160405160405180910390a360019150509392505050565b600060036000838152602001908152602001600020839080600181540180825580915050600190039060005260206000200160009091909190916101000a81548173ffffffffffffffffffffffffffffffffffffffff021916908373ffffffffffffffffffffffffffffffffffffffff1602179055506001905092915050565b600073ffffffffffffffffffffffffffffffffffffffff166000803373ffffffffffffffffffffffffffffffffffffffff1673ffffffffffffffffffffffffffffffffffffffff16815260200190815260200160002060010160009054906101000a900473ffffffffffffffffffffffffffffffffffffffff1673ffffffffffffffffffffffffffffffffffffffff1614156124cf576040517f08c379a00000000000000000000000000000000000000000000000000000000081526004016124c690613778565b60405180910390fd5b60016005600083815260200190815260200160002060008473ffffffffffffffffffffffffffffffffffffffff1673ffffffffffffffffffffffffffffffffffffffff16815260200190815260200160002060000160016101000a81548160ff0219169083151502179055505050565b60008073ffffffffffffffffffffffffffffffffffffffff166000803373ffffffffffffffffffffffffffffffffffffffff1673ffffffffffffffffffffffffffffffffffffffff16815260200190815260200160002060010160009054906101000a900473ffffffffffffffffffffffffffffffffffffffff1673ffffffffffffffffffffffffffffffffffffffff161415612611576040517f08c379a000000000000000000000000000000000000000000000000000000000815260040161260890613778565b60405180910390fd5b60006007549050604051806080016040528082815260200186868080601f016020809104026020016040519081016040528093929190818152602001838380828437600081840152601f19601f8201169050808301925050505050505081526020018481526020013373ffffffffffffffffffffffffffffffffffffffff16815250600260008381526020019081526020016000206000820151816000015560208201518160010190805190602001906126cc929190612f46565b506040820151816002015560608201518160030160006101000a81548173ffffffffffffffffffffffffffffffffffffffff021916908373ffffffffffffffffffffffffffffffffffffffff16021790555090505084846040516127319291906135ae565b6040518091039020813373ffffffffffffffffffffffffffffffffffffffff167fc554af40412eb958ce7250b87bdcc1fa1f9a83b937bcefded5dfc67fc8c89a1f60405160405180910390a46007600081548092919061279090613b07565b9190505550809150509392505050565b60008073ffffffffffffffffffffffffffffffffffffffff166000803373ffffffffffffffffffffffffffffffffffffffff1673ffffffffffffffffffffffffffffffffffffffff16815260200190815260200160002060010160009054906101000a900473ffffffffffffffffffffffffffffffffffffffff1673ffffffffffffffffffffffffffffffffffffffff161415612872576040517f08c379a000000000000000000000000000000000000000000000000000000000815260040161286990613778565b60405180910390fd5b600060085490506040518060a001604052808281526020013373ffffffffffffffffffffffffffffffffffffffff1681526020018581526020018481526020016000815250600460008381526020019081526020016000206000820151816000015560208201518160010160006101000a81548173ffffffffffffffffffffffffffffffffffffffff021916908373ffffffffffffffffffffffffffffffffffffffff160217905550604082015181600201556060820151816003015560808201518160040155905050803373ffffffffffffffffffffffffffffffffffffffff167f253dd3f4af0486d2007557007bbe654e8b03e933659fe2f233a584178f7079f960405160405180910390a3808061298b90613b07565b9150508091505092915050565b6000600660009054906101000a900473ffffffffffffffffffffffffffffffffffffffff1673ffffffffffffffffffffffffffffffffffffffff163373ffffffffffffffffffffffffffffffffffffffff1614612a2a576040517f08c379a0000000000000000000000000000000000000000000000000000000008152600401612a2190613878565b60405180910390fd5b81600073ffffffffffffffffffffffffffffffffffffffff166000808373ffffffffffffffffffffffffffffffffffffffff1673ffffffffffffffffffffffffffffffffffffffff16815260200190815260200160002060010160009054906101000a900473ffffffffffffffffffffffffffffffffffffffff1673ffffffffffffffffffffffffffffffffffffffff1614612afb576040517f08c379a0000000000000000000000000000000000000000000000000000000008152600401612af2906136b8565b60405180910390fd5b600073ffffffffffffffffffffffffffffffffffffffff16600160008373ffffffffffffffffffffffffffffffffffffffff1673ffffffffffffffffffffffffffffffffffffffff16815260200190815260200160002060010160009054906101000a900473ffffffffffffffffffffffffffffffffffffffff1673ffffffffffffffffffffffffffffffffffffffff1614612bcc576040517f08c379a0000000000000000000000000000000000000000000000000000000008152600401612bc3906137f8565b60405180910390fd5b600660009054906101000a900473ffffffffffffffffffffffffffffffffffffffff1673ffffffffffffffffffffffffffffffffffffffff168173ffffffffffffffffffffffffffffffffffffffff161415612c5d576040517f08c379a0000000000000000000000000000000000000000000000000000000008152600401612c5490613798565b60405180910390fd5b604051806040016040528086868080601f016020809104026020016040519081016040528093929190818152602001838380828437600081840152601f19601f8201169050808301925050505050505081526020018473ffffffffffffffffffffffffffffffffffffffff168152506000808573ffffffffffffffffffffffffffffffffffffffff1673ffffffffffffffffffffffffffffffffffffffff1681526020019081526020016000206000820151816000019080519060200190612d26929190612f46565b5060208201518160010160006101000a81548173ffffffffffffffffffffffffffffffffffffffff021916908373ffffffffffffffffffffffffffffffffffffffff1602179055509050508273ffffffffffffffffffffffffffffffffffffffff168585604051612d989291906135ae565b60405180910390207feef6791cc176c62cf1998656a1d10ffa809f554fe4f085891e24e962abb1ab7660405160405180910390a360019150509392505050565b600073ffffffffffffffffffffffffffffffffffffffff16600160003373ffffffffffffffffffffffffffffffffffffffff1673ffffffffffffffffffffffffffffffffffffffff16815260200190815260200160002060010160009054906101000a900473ffffffffffffffffffffffffffffffffffffffff1673ffffffffffffffffffffffffffffffffffffffff161415612eaa576040517f08c379a0000000000000000000000000000000000000000000000000000000008152600401612ea190613858565b60405180910390fd5b600460008281526020019081526020016000206004016000815480929190612ed190613b07565b919050555060016005600083815260200190815260200160002060008473ffffffffffffffffffffffffffffffffffffffff1673ffffffffffffffffffffffffffffffffffffffff16815260200190815260200160002060000160006101000a81548160ff0219169083151502179055505050565b828054612f5290613ad5565b90600052602060002090601f016020900481019282612f745760008555612fbb565b82601f10612f8d57805160ff1916838001178555612fbb565b82800160010185558215612fbb579182015b82811115612fba578251825591602001919060010190612f9f565b5b509050612fc89190612fcc565b5090565b5b80821115612fe5576000816000905550600101612fcd565b5090565b600081359050612ff88161408f565b92915050565b60008083601f84011261301057600080fd5b8235905067ffffffffffffffff81111561302957600080fd5b60208301915083600182028301111561304157600080fd5b9250929050565b600081359050613057816140a6565b92915050565b60006020828403121561306f57600080fd5b600061307d84828501612fe9565b91505092915050565b6000806040838503121561309957600080fd5b60006130a785828601612fe9565b92505060206130b885828601612fe9565b9150509250929050565b6000806000606084860312156130d757600080fd5b60006130e586828701612fe9565b93505060206130f686828701612fe9565b925050604061310786828701613048565b9150509250925092565b6000806040838503121561312457600080fd5b600061313285828601612fe9565b925050602061314385828601613048565b9150509250929050565b60008060006040848603121561316257600080fd5b600084013567ffffffffffffffff81111561317c57600080fd5b61318886828701612ffe565b9350935050602061319b86828701612fe9565b9150509250925092565b6000806000604084860312156131ba57600080fd5b600084013567ffffffffffffffff8111156131d457600080fd5b6131e086828701612ffe565b935093505060206131f386828701613048565b9150509250925092565b60006020828403121561320f57600080fd5b600061321d84828501613048565b91505092915050565b6000806040838503121561323957600080fd5b600061324785828601613048565b925050602061325885828601612fe9565b9150509250929050565b6000806040838503121561327557600080fd5b600061328385828601613048565b925050602061329485828601613048565b9150509250929050565b6132a781613a3e565b82525050565b6132b681613a50565b82525050565b60006132c883856139a9565b93506132d5838584613a93565b82840190509392505050565b60006132ec8261398d565b6132f68185613998565b9350613306818560208601613aa2565b61330f81613bae565b840191505092915050565b6000613327601c83613998565b915061333282613bbf565b602082019050919050565b600061334a601483613998565b915061335582613be8565b602082019050919050565b600061336d602b83613998565b915061337882613c11565b604082019050919050565b6000613390602c83613998565b915061339b82613c60565b604082019050919050565b60006133b3601f83613998565b91506133be82613caf565b602082019050919050565b60006133d6602b83613998565b91506133e182613cd8565b604082019050919050565b60006133f9602083613998565b915061340482613d27565b602082019050919050565b600061341c603183613998565b915061342782613d50565b604082019050919050565b600061343f602683613998565b915061344a82613d9f565b604082019050919050565b6000613462602e83613998565b915061346d82613dee565b604082019050919050565b6000613485602d83613998565b915061349082613e3d565b604082019050919050565b60006134a8601683613998565b91506134b382613e8c565b602082019050919050565b60006134cb602b83613998565b91506134d682613eb5565b604082019050919050565b60006134ee604983613998565b91506134f982613f04565b606082019050919050565b6000613511602083613998565b915061351c82613f79565b602082019050919050565b6000613534602683613998565b915061353f82613fa2565b604082019050919050565b6000613557602a83613998565b915061356282613ff1565b604082019050919050565b600061357a603683613998565b915061358582614040565b604082019050919050565b61359981613a7c565b82525050565b6135a881613a86565b82525050565b60006135bb8284866132bc565b91508190509392505050565b60006020820190506135dc600083018461329e565b92915050565b60006020820190506135f760008301846132ad565b92915050565b600060408201905061361260008301856132ad565b61361f60208301846132ad565b9392505050565b6000602082019050818103600083015261364081846132e1565b905092915050565b6000604082019050818103600083015261366281856132e1565b9050613671602083018461329e565b9392505050565b600060208201905081810360008301526136918161331a565b9050919050565b600060208201905081810360008301526136b18161333d565b9050919050565b600060208201905081810360008301526136d181613360565b9050919050565b600060208201905081810360008301526136f181613383565b9050919050565b60006020820190508181036000830152613711816133a6565b9050919050565b60006020820190508181036000830152613731816133c9565b9050919050565b60006020820190508181036000830152613751816133ec565b9050919050565b600060208201905081810360008301526137718161340f565b9050919050565b6000602082019050818103600083015261379181613432565b9050919050565b600060208201905081810360008301526137b181613455565b9050919050565b600060208201905081810360008301526137d181613478565b9050919050565b600060208201905081810360008301526137f18161349b565b9050919050565b60006020820190508181036000830152613811816134be565b9050919050565b60006020820190508181036000830152613831816134e1565b9050919050565b6000602082019050818103600083015261385181613504565b9050919050565b6000602082019050818103600083015261387181613527565b9050919050565b600060208201905081810360008301526138918161354a565b9050919050565b600060208201905081810360008301526138b18161356d565b9050919050565b60006020820190506138cd6000830184613590565b92915050565b600060a0820190506138e86000830188613590565b6138f5602083018761329e565b6139026040830186613590565b61390f6060830185613590565b61391c6080830184613590565b9695505050505050565b600060808201905061393b6000830187613590565b818103602083015261394d81866132e1565b905061395c6040830185613590565b613969606083018461329e565b95945050505050565b6000602082019050613987600083018461359f565b92915050565b600081519050919050565b600082825260208201905092915050565b600081905092915050565b60006139bf82613a7c565b91506139ca83613a7c565b9250827fffffffffffffffffffffffffffffffffffffffffffffffffffffffffffffffff038211156139ff576139fe613b50565b5b828201905092915050565b6000613a1582613a7c565b9150613a2083613a7c565b925082821015613a3357613a32613b50565b5b828203905092915050565b6000613a4982613a5c565b9050919050565b60008115159050919050565b600073ffffffffffffffffffffffffffffffffffffffff82169050919050565b6000819050919050565b600060ff82169050919050565b82818337600083830152505050565b60005b83811015613ac0578082015181840152602081019050613aa5565b83811115613acf576000848401525b50505050565b60006002820490506001821680613aed57607f821691505b60208210811415613b0157613b00613b7f565b5b50919050565b6000613b1282613a7c565b91507fffffffffffffffffffffffffffffffffffffffffffffffffffffffffffffffff821415613b4557613b44613b50565b5b600182019050919050565b7f4e487b7100000000000000000000000000000000000000000000000000000000600052601160045260246000fd5b7f4e487b7100000000000000000000000000000000000000000000000000000000600052602260045260246000fd5b6000601f19601f8301169050919050565b7f696e73756666696369656e7420616c6c6f7765642062616c616e636500000000600082015250565b7f636c61737320646f6573206e6f74206578697374000000000000000000000000600082015250565b7f77616c6c657420697320616c7265616479206173736f6369617465642077697460008201527f6820612074656163686572000000000000000000000000000000000000000000602082015250565b7f746869732073747564656e7420646964206e6f74207369676e20757020666f7260008201527f2074686520636f6e73756c740000000000000000000000000000000000000000602082015250565b7f74726561737572792068617320696e73756666696369656e742066756e647300600082015250565b7f7468697320636f6e73756c7420697320616c7265616479206174206d6178696d60008201527f756d206361706163697479000000000000000000000000000000000000000000602082015250565b7f6163636f756e742068617320696e73756666696369656e742062616c616e6365600082015250565b7f746869732073747564656e74277320617474656e64616e63652068617320616c60008201527f7265616479206265656e206d61726b6564000000000000000000000000000000602082015250565b7f6f6e6c792074656163686572732063616e20616363657373207468697320667560008201527f6e6374696f6e0000000000000000000000000000000000000000000000000000602082015250565b7f77616c6c657420697320616c7265616479206173736f6369617465642077697460008201527f6820746865207472656173757279000000000000000000000000000000000000602082015250565b7f73747564656e742068617320616c7265616479207369676e656420757020666f60008201527f722074686520636f6e73756c7400000000000000000000000000000000000000602082015250565b7f636f6e73756c7420646f6573206e6f7420657869737400000000000000000000600082015250565b7f77616c6c657420697320616c7265616479206173736f6369617465642077697460008201527f6820612073747564656e74000000000000000000000000000000000000000000602082015250565b7f6f6e6c792074686520746561636865722077686f20637265617465642074686560008201527f20636f6e73756c742073657373696f6e2063616e20616363657373207468697360208201527f2066756e6374696f6e0000000000000000000000000000000000000000000000604082015250565b7f73747564656e742068617320696e73756666696369656e742062616c616e6365600082015250565b7f6f6e6c792073747564656e74732063616e20616363657373207468697320667560008201527f6e6374696f6e0000000000000000000000000000000000000000000000000000602082015250565b7f6f6e6c79207468652074726561737572792063616e206163636573732074686960008201527f732066756e6374696f6e00000000000000000000000000000000000000000000602082015250565b7f6f6e6c79207465616368657273206f722074686520747265617375727920636160008201527f6e2061636365737320746869732066756e6374696f6e00000000000000000000602082015250565b61409881613a3e565b81146140a357600080fd5b50565b6140af81613a7c565b81146140ba57600080fd5b5056fea264697066735822122028dd82ed2bd7d2f12145e84df5c0be533ac962ca95646e2254c4a5be0e8a6d5b64736f6c63430008040033",
  "linkReferences": {},
  "deployedLinkReferences": {}
}