{
  "_format": "hh-sol-artifact-1",
  "contractName": "ERC20Token",
  "sourceName": "contracts/ERC20.sol",
  "abi": [
    {
      "inputs": [
        {
          "internalType": "string",
          "name": "_name",
          "type": "string"
        },
        {
          "internalType": "string",
          "name": "_tickerSymbol",
          "type": "string"
        },
        {
          "internalType": "uint256",
          "name": "_tokenTotalSupply",
          "type": "uint256"
        },
        {
          "internalType": "uint8",
          "name": "_decimals",
          "type": "uint8"
        }
      ],
      "stateMutability": "nonpayable",
      "type": "constructor"
    },
    {
      "anonymous": false,
      "inputs": [
        {
          "indexed": true,
          "internalType": "address",
          "name": "owner",
          "type": "address"
        },
        {
          "indexed": true,
          "internalType": "address",
          "name": "spender",
          "type": "address"
        },
        {
          "indexed": false,
          "internalType": "uint256",
          "name": "value",
          "type": "uint256"
        }
      ],
      "name": "Approval",
      "type": "event"
    },
    {
      "anonymous": false,
      "inputs": [
        {
          "indexed": true,
          "internalType": "address",
          "name": "from",
          "type": "address"
        },
        {
          "indexed": true,
          "internalType": "address",
          "name": "to",
          "type": "address"
        },
        {
          "indexed": false,
          "internalType": "uint256",
          "name": "value",
          "type": "uint256"
        }
      ],
      "name": "Transfer",
      "type": "event"
    },
    {
      "inputs": [
        {
          "internalType": "address",
          "name": "owner",
          "type": "address"
        },
        {
          "internalType": "address",
          "name": "spender",
          "type": "address"
        }
      ],
      "name": "allowance",
      "outputs": [
        {
          "internalType": "uint256",
          "name": "",
          "type": "uint256"
        }
      ],
      "stateMutability": "view",
      "type": "function"
    },
    {
      "inputs": [
        {
          "internalType": "address",
          "name": "",
          "type": "address"
        },
        {
          "internalType": "address",
          "name": "",
          "type": "address"
        }
      ],
      "name": "allowed",
      "outputs": [
        {
          "internalType": "uint256",
          "name": "",
          "type": "uint256"
        }
      ],
      "stateMutability": "view",
      "type": "function"
    },
    {
      "inputs": [
        {
          "internalType": "address",
          "name": "spender",
          "type": "address"
        },
        {
          "internalType": "uint256",
          "name": "amount",
          "type": "uint256"
        }
      ],
      "name": "approve",
      "outputs": [
        {
          "internalType": "bool",
          "name": "",
          "type": "bool"
        }
      ],
      "stateMutability": "nonpayable",
      "type": "function"
    },
    {
      "inputs": [
        {
          "internalType": "address",
          "name": "account",
          "type": "address"
        }
      ],
      "name": "balanceOf",
      "outputs": [
        {
          "internalType": "uint256",
          "name": "",
          "type": "uint256"
        }
      ],
      "stateMutability": "view",
      "type": "function"
    },
    {
      "inputs": [
        {
          "internalType": "address",
          "name": "",
          "type": "address"
        }
      ],
      "name": "balances",
      "outputs": [
        {
          "internalType": "uint256",
          "name": "",
          "type": "uint256"
        }
      ],
      "stateMutability": "view",
      "type": "function"
    },
    {
      "inputs": [],
      "name": "decimals",
      "outputs": [
        {
          "internalType": "uint8",
          "name": "",
          "type": "uint8"
        }
      ],
      "stateMutability": "view",
      "type": "function"
    },
    {
      "inputs": [],
      "name": "name",
      "outputs": [
        {
          "internalType": "string",
          "name": "",
          "type": "string"
        }
      ],
      "stateMutability": "view",
      "type": "function"
    },
    {
      "inputs": [],
      "name": "tickerSymbol",
      "outputs": [
        {
          "internalType": "string",
          "name": "",
          "type": "string"
        }
      ],
      "stateMutability": "view",
      "type": "function"
    },
    {
      "inputs": [],
      "name": "tokenTotalSupply",
      "outputs": [
        {
          "internalType": "uint256",
          "name": "",
          "type": "uint256"
        }
      ],
      "stateMutability": "view",
      "type": "function"
    },
    {
      "inputs": [],
      "name": "totalSupply",
      "outputs": [
        {
          "internalType": "uint256",
          "name": "",
          "type": "uint256"
        }
      ],
      "stateMutability": "view",
      "type": "function"
    },
    {
      "inputs": [
        {
          "internalType": "address",
          "name": "recipient",
          "type": "address"
        },
        {
          "internalType": "uint256",
          "name": "amount",
          "type": "uint256"
        }
      ],
      "name": "transfer",
      "outputs": [
        {
          "internalType": "bool",
          "name": "",
          "type": "bool"
        }
      ],
      "stateMutability": "nonpayable",
      "type": "function"
    },
    {
      "inputs": [
        {
          "internalType": "address",
          "name": "spender",
          "type": "address"
        },
        {
          "internalType": "address",
          "name": "recipient",
          "type": "address"
        },
        {
          "internalType": "uint256",
          "name": "amount",
          "type": "uint256"
        }
      ],
      "name": "transferFrom",
      "outputs": [
        {
          "internalType": "bool",
          "name": "",
          "type": "bool"
        }
      ],
      "stateMutability": "nonpayable",
      "type": "function"
    }
  ],
  "bytecode": "0x60806040523480156200001157600080fd5b506040516200148c3803806200148c833981810160405281019062000037919062000229565b83600090805190602001906200004f929190620000d9565b50826001908051906020019062000068929190620000d9565b508160028190555080600360006101000a81548160ff021916908360ff16021790555081600460003373ffffffffffffffffffffffffffffffffffffffff1673ffffffffffffffffffffffffffffffffffffffff168152602001908152602001600020819055505050505062000482565b828054620000e79062000373565b90600052602060002090601f0160209004810192826200010b576000855562000157565b82601f106200012657805160ff191683800117855562000157565b8280016001018555821562000157579182015b828111156200015657825182559160200191906001019062000139565b5b5090506200016691906200016a565b5090565b5b80821115620001855760008160009055506001016200016b565b5090565b6000620001a06200019a84620002f0565b620002c7565b905082815260208101848484011115620001b957600080fd5b620001c68482856200033d565b509392505050565b600082601f830112620001e057600080fd5b8151620001f284826020860162000189565b91505092915050565b6000815190506200020c816200044e565b92915050565b600081519050620002238162000468565b92915050565b600080600080608085870312156200024057600080fd5b600085015167ffffffffffffffff8111156200025b57600080fd5b6200026987828801620001ce565b945050602085015167ffffffffffffffff8111156200028757600080fd5b6200029587828801620001ce565b9350506040620002a887828801620001fb565b9250506060620002bb8782880162000212565b91505092959194509250565b6000620002d3620002e6565b9050620002e18282620003a9565b919050565b6000604051905090565b600067ffffffffffffffff8211156200030e576200030d6200040e565b5b62000319826200043d565b9050602081019050919050565b6000819050919050565b600060ff82169050919050565b60005b838110156200035d57808201518184015260208101905062000340565b838111156200036d576000848401525b50505050565b600060028204905060018216806200038c57607f821691505b60208210811415620003a357620003a2620003df565b5b50919050565b620003b4826200043d565b810181811067ffffffffffffffff82111715620003d657620003d56200040e565b5b80604052505050565b7f4e487b7100000000000000000000000000000000000000000000000000000000600052602260045260246000fd5b7f4e487b7100000000000000000000000000000000000000000000000000000000600052604160045260246000fd5b6000601f19601f8301169050919050565b620004598162000326565b81146200046557600080fd5b50565b620004738162000330565b81146200047f57600080fd5b50565b610ffa80620004926000396000f3fe608060405234801561001057600080fd5b50600436106100b45760003560e01c8063313ce56711610071578063313ce567146101a35780635c658165146101c157806370a08231146101f1578063a9059cbb14610221578063dd62ed3e14610251578063f7abab9e14610281576100b4565b806306fdde03146100b9578063095ea7b3146100d757806318160ddd146101075780632374f8a61461012557806323b872dd1461014357806327e235e314610173575b600080fd5b6100c161029f565b6040516100ce9190610cdd565b60405180910390f35b6100f160048036038101906100ec9190610bda565b61032d565b6040516100fe9190610cc2565b60405180910390f35b61010f6104a5565b60405161011c9190610d3f565b60405180910390f35b61012d6104af565b60405161013a9190610cdd565b60405180910390f35b61015d60048036038101906101589190610b8b565b61053d565b60405161016a9190610cc2565b60405180910390f35b61018d60048036038101906101889190610b26565b610833565b60405161019a9190610d3f565b60405180910390f35b6101ab61084b565b6040516101b89190610d5a565b60405180910390f35b6101db60048036038101906101d69190610b4f565b61085e565b6040516101e89190610d3f565b60405180910390f35b61020b60048036038101906102069190610b26565b610883565b6040516102189190610d3f565b60405180910390f35b61023b60048036038101906102369190610bda565b6108cc565b6040516102489190610cc2565b60405180910390f35b61026b60048036038101906102669190610b4f565b610a6f565b6040516102789190610d3f565b60405180910390f35b610289610af6565b6040516102969190610d3f565b60405180910390f35b600080546102ac90610ea3565b80601f01602080910402602001604051908101604052809291908181526020018280546102d890610ea3565b80156103255780601f106102fa57610100808354040283529160200191610325565b820191906000526020600020905b81548152906001019060200180831161030857829003601f168201915b505050505081565b6000338280600460008473ffffffffffffffffffffffffffffffffffffffff1673ffffffffffffffffffffffffffffffffffffffff1681526020019081526020016000205410156103b3576040517f08c379a00000000000000000000000000000000000000000000000000000000081526004016103aa90610d1f565b60405180910390fd5b83600560003373ffffffffffffffffffffffffffffffffffffffff1673ffffffffffffffffffffffffffffffffffffffff16815260200190815260200160002060008773ffffffffffffffffffffffffffffffffffffffff1673ffffffffffffffffffffffffffffffffffffffff168152602001908152602001600020819055508473ffffffffffffffffffffffffffffffffffffffff163373ffffffffffffffffffffffffffffffffffffffff167f8c5be1e5ebec7d5bd14f71427d1e84f3dd0314c0f7b2291e5b200ac8c7c3b925866040516104919190610d3f565b60405180910390a360019250505092915050565b6000600254905090565b600180546104bc90610ea3565b80601f01602080910402602001604051908101604052809291908181526020018280546104e890610ea3565b80156105355780601f1061050a57610100808354040283529160200191610535565b820191906000526020600020905b81548152906001019060200180831161051857829003601f168201915b505050505081565b6000838280600460008473ffffffffffffffffffffffffffffffffffffffff1673ffffffffffffffffffffffffffffffffffffffff1681526020019081526020016000205410156105c3576040517f08c379a00000000000000000000000000000000000000000000000000000000081526004016105ba90610d1f565b60405180910390fd5b83600560008873ffffffffffffffffffffffffffffffffffffffff1673ffffffffffffffffffffffffffffffffffffffff16815260200190815260200160002060003373ffffffffffffffffffffffffffffffffffffffff1673ffffffffffffffffffffffffffffffffffffffff168152602001908152602001600020541015610682576040517f08c379a000000000000000000000000000000000000000000000000000000000815260040161067990610cff565b60405180910390fd5b83600560008873ffffffffffffffffffffffffffffffffffffffff1673ffffffffffffffffffffffffffffffffffffffff16815260200190815260200160002060003373ffffffffffffffffffffffffffffffffffffffff1673ffffffffffffffffffffffffffffffffffffffff168152602001908152602001600020600082825461070e9190610de7565b9250508190555083600460008873ffffffffffffffffffffffffffffffffffffffff1673ffffffffffffffffffffffffffffffffffffffff16815260200190815260200160002060008282546107649190610de7565b9250508190555083600460008773ffffffffffffffffffffffffffffffffffffffff1673ffffffffffffffffffffffffffffffffffffffff16815260200190815260200160002060008282546107ba9190610d91565b925050819055508473ffffffffffffffffffffffffffffffffffffffff168673ffffffffffffffffffffffffffffffffffffffff167fddf252ad1be2c89b69c2b068fc378daa952ba7f163c4a11628f55a4df523b3ef8660405161081e9190610d3f565b60405180910390a36001925050509392505050565b60046020528060005260406000206000915090505481565b600360009054906101000a900460ff1681565b6005602052816000526040600020602052806000526040600020600091509150505481565b6000600460008373ffffffffffffffffffffffffffffffffffffffff1673ffffffffffffffffffffffffffffffffffffffff168152602001908152602001600020549050919050565b6000338280600460008473ffffffffffffffffffffffffffffffffffffffff1673ffffffffffffffffffffffffffffffffffffffff168152602001908152602001600020541015610952576040517f08c379a000000000000000000000000000000000000000000000000000000000815260040161094990610d1f565b60405180910390fd5b83600460003373ffffffffffffffffffffffffffffffffffffffff1673ffffffffffffffffffffffffffffffffffffffff16815260200190815260200160002060008282546109a19190610de7565b9250508190555083600460008773ffffffffffffffffffffffffffffffffffffffff1673ffffffffffffffffffffffffffffffffffffffff16815260200190815260200160002060008282546109f79190610d91565b925050819055508473ffffffffffffffffffffffffffffffffffffffff163373ffffffffffffffffffffffffffffffffffffffff167fddf252ad1be2c89b69c2b068fc378daa952ba7f163c4a11628f55a4df523b3ef86604051610a5b9190610d3f565b60405180910390a360019250505092915050565b6000600560008473ffffffffffffffffffffffffffffffffffffffff1673ffffffffffffffffffffffffffffffffffffffff16815260200190815260200160002060008373ffffffffffffffffffffffffffffffffffffffff1673ffffffffffffffffffffffffffffffffffffffff16815260200190815260200160002054905092915050565b60025481565b600081359050610b0b81610f96565b92915050565b600081359050610b2081610fad565b92915050565b600060208284031215610b3857600080fd5b6000610b4684828501610afc565b91505092915050565b60008060408385031215610b6257600080fd5b6000610b7085828601610afc565b9250506020610b8185828601610afc565b9150509250929050565b600080600060608486031215610ba057600080fd5b6000610bae86828701610afc565b9350506020610bbf86828701610afc565b9250506040610bd086828701610b11565b9150509250925092565b60008060408385031215610bed57600080fd5b6000610bfb85828601610afc565b9250506020610c0c85828601610b11565b9150509250929050565b610c1f81610e2d565b82525050565b6000610c3082610d75565b610c3a8185610d80565b9350610c4a818560208601610e70565b610c5381610f33565b840191505092915050565b6000610c6b601c83610d80565b9150610c7682610f44565b602082019050919050565b6000610c8e602083610d80565b9150610c9982610f6d565b602082019050919050565b610cad81610e59565b82525050565b610cbc81610e63565b82525050565b6000602082019050610cd76000830184610c16565b92915050565b60006020820190508181036000830152610cf78184610c25565b905092915050565b60006020820190508181036000830152610d1881610c5e565b9050919050565b60006020820190508181036000830152610d3881610c81565b9050919050565b6000602082019050610d546000830184610ca4565b92915050565b6000602082019050610d6f6000830184610cb3565b92915050565b600081519050919050565b600082825260208201905092915050565b6000610d9c82610e59565b9150610da783610e59565b9250827fffffffffffffffffffffffffffffffffffffffffffffffffffffffffffffffff03821115610ddc57610ddb610ed5565b5b828201905092915050565b6000610df282610e59565b9150610dfd83610e59565b925082821015610e1057610e0f610ed5565b5b828203905092915050565b6000610e2682610e39565b9050919050565b60008115159050919050565b600073ffffffffffffffffffffffffffffffffffffffff82169050919050565b6000819050919050565b600060ff82169050919050565b60005b83811015610e8e578082015181840152602081019050610e73565b83811115610e9d576000848401525b50505050565b60006002820490506001821680610ebb57607f821691505b60208210811415610ecf57610ece610f04565b5b50919050565b7f4e487b7100000000000000000000000000000000000000000000000000000000600052601160045260246000fd5b7f4e487b7100000000000000000000000000000000000000000000000000000000600052602260045260246000fd5b6000601f19601f8301169050919050565b7f696e73756666696369656e7420616c6c6f7765642062616c616e636500000000600082015250565b7f6163636f756e742068617320696e73756666696369656e742062616c616e6365600082015250565b610f9f81610e1b565b8114610faa57600080fd5b50565b610fb681610e59565b8114610fc157600080fd5b5056fea2646970667358221220b5de1d9de16e6a61b2962f96278588ca28326e84c25123bbf3fb0f56a755899164736f6c63430008040033",
  "linkReferences": {},
  "deployedLinkReferences": {}
}