{
  "_format": "hh-sol-artifact-1",
  "contractName": "Academy",
  "sourceName": "contracts/Academy.sol",
  "abi": [
    {
      "inputs": [],
      "stateMutability": "nonpayable",
      "type": "constructor"
    },
    {
      "anonymous": false,
      "inputs": [
        {
          "indexed": true,
          "internalType": "address",
          "name": "teacher",
          "type": "address"
        },
        {
          "indexed": true,
          "internalType": "uint256",
          "name": "classId",
          "type": "uint256"
        },
        {
          "indexed": true,
          "internalType": "string",
          "name": "className",
          "type": "string"
        }
      ],
      "name": "ClassCreated",
      "type": "event"
    },
    {
      "anonymous": false,
      "inputs": [
        {
          "indexed": true,
          "internalType": "address",
          "name": "teacher",
          "type": "address"
        },
        {
          "indexed": true,
          "internalType": "uint256",
          "name": "consultId",
          "type": "uint256"
        }
      ],
      "name": "ConsultCreated",
      "type": "event"
    },
    {
      "anonymous": false,
      "inputs": [
        {
          "indexed": true,
          "internalType": "string",
          "name": "name",
          "type": "string"
        },
        {
          "indexed": true,
          "internalType": "address",
          "name": "wallet",
          "type": "address"
        }
      ],
      "name": "StudentAdded",
      "type": "event"
    },
    {
      "anonymous": false,
      "inputs": [
        {
          "indexed": true,
          "internalType": "string",
          "name": "name",
          "type": "string"
        },
        {
          "indexed": true,
          "internalType": "address",
          "name": "wallet",
          "type": "address"
        }
      ],
      "name": "TeacherAdded",
      "type": "event"
    },
    {
      "inputs": [
        {
          "internalType": "uint256",
          "name": "",
          "type": "uint256"
        },
        {
          "internalType": "uint256",
          "name": "",
          "type": "uint256"
        }
      ],
      "name": "classAttendance",
      "outputs": [
        {
          "internalType": "address",
          "name": "",
          "type": "address"
        }
      ],
      "stateMutability": "view",
      "type": "function"
    },
    {
      "inputs": [
        {
          "internalType": "uint256",
          "name": "",
          "type": "uint256"
        }
      ],
      "name": "classes",
      "outputs": [
        {
          "internalType": "uint256",
          "name": "id",
          "type": "uint256"
        },
        {
          "internalType": "string",
          "name": "name",
          "type": "string"
        },
        {
          "internalType": "uint256",
          "name": "cost",
          "type": "uint256"
        },
        {
          "internalType": "address",
          "name": "teacher",
          "type": "address"
        }
      ],
      "stateMutability": "view",
      "type": "function"
    },
    {
      "inputs": [
        {
          "internalType": "uint256",
          "name": "",
          "type": "uint256"
        },
        {
          "internalType": "address",
          "name": "",
          "type": "address"
        }
      ],
      "name": "consultAttendanceList",
      "outputs": [
        {
          "internalType": "bool",
          "name": "signedUp",
          "type": "bool"
        },
        {
          "internalType": "bool",
          "name": "attended",
          "type": "bool"
        }
      ],
      "stateMutability": "view",
      "type": "function"
    },
    {
      "inputs": [
        {
          "internalType": "uint256",
          "name": "",
          "type": "uint256"
        }
      ],
      "name": "consults",
      "outputs": [
        {
          "internalType": "uint256",
          "name": "id",
          "type": "uint256"
        },
        {
          "internalType": "address",
          "name": "teacher",
          "type": "address"
        },
        {
          "internalType": "uint256",
          "name": "stake",
          "type": "uint256"
        },
        {
          "internalType": "uint256",
          "name": "capacity",
          "type": "uint256"
        },
        {
          "internalType": "uint256",
          "name": "currentPax",
          "type": "uint256"
        }
      ],
      "stateMutability": "view",
      "type": "function"
    },
    {
      "inputs": [],
      "name": "nextClassId",
      "outputs": [
        {
          "internalType": "uint256",
          "name": "",
          "type": "uint256"
        }
      ],
      "stateMutability": "view",
      "type": "function"
    },
    {
      "inputs": [],
      "name": "nextConsultId",
      "outputs": [
        {
          "internalType": "uint256",
          "name": "",
          "type": "uint256"
        }
      ],
      "stateMutability": "view",
      "type": "function"
    },
    {
      "inputs": [
        {
          "internalType": "address",
          "name": "",
          "type": "address"
        }
      ],
      "name": "students",
      "outputs": [
        {
          "internalType": "string",
          "name": "name",
          "type": "string"
        },
        {
          "internalType": "address",
          "name": "wallet",
          "type": "address"
        }
      ],
      "stateMutability": "view",
      "type": "function"
    },
    {
      "inputs": [
        {
          "internalType": "address",
          "name": "",
          "type": "address"
        }
      ],
      "name": "teachers",
      "outputs": [
        {
          "internalType": "string",
          "name": "name",
          "type": "string"
        },
        {
          "internalType": "address",
          "name": "wallet",
          "type": "address"
        }
      ],
      "stateMutability": "view",
      "type": "function"
    },
    {
      "inputs": [],
      "name": "treasury",
      "outputs": [
        {
          "internalType": "address",
          "name": "",
          "type": "address"
        }
      ],
      "stateMutability": "view",
      "type": "function"
    }
  ],
  "bytecode": "0x60806040526001600755600160085534801561001a57600080fd5b5033600660006101000a81548173ffffffffffffffffffffffffffffffffffffffff021916908373ffffffffffffffffffffffffffffffffffffffff1602179055506109a28061006b6000396000f3fe608060405234801561001057600080fd5b50600436106100935760003560e01c806373287259116100665780637328725914610122578063817dbe9f14610153578063a6c807a914610186578063b9adc019146101b7578063f0a47f78146101eb57610093565b8063143c297c1461009857806361d027b3146100c85780636c815d21146100e65780636ca8cc8c14610104575b600080fd5b6100b260048036038101906100ad9190610665565b61021c565b6040516100bf9190610707565b60405180910390f35b6100d061026a565b6040516100dd9190610707565b60405180910390f35b6100ee610290565b6040516100fb919061077b565b60405180910390f35b61010c610296565b604051610119919061077b565b60405180910390f35b61013c60048036038101906101379190610629565b61029c565b60405161014a929190610722565b60405180910390f35b61016d60048036038101906101689190610600565b6102e7565b60405161017d94939291906107e9565b60405180910390f35b6101a0600480360381019061019b91906105d7565b6103bf565b6040516101ae92919061074b565b60405180910390f35b6101d160048036038101906101cc9190610600565b61048b565b6040516101e2959493929190610796565b60405180910390f35b610205600480360381019061020091906105d7565b6104e1565b60405161021392919061074b565b60405180910390f35b6003602052816000526040600020818154811061023857600080fd5b906000526020600020016000915091509054906101000a900473ffffffffffffffffffffffffffffffffffffffff1681565b600660009054906101000a900473ffffffffffffffffffffffffffffffffffffffff1681565b60085481565b60075481565b6005602052816000526040600020602052806000526040600020600091509150508060000160009054906101000a900460ff16908060000160019054906101000a900460ff16905082565b6002602052806000526040600020600091509050806000015490806001018054610310906108cc565b80601f016020809104026020016040519081016040528092919081815260200182805461033c906108cc565b80156103895780601f1061035e57610100808354040283529160200191610389565b820191906000526020600020905b81548152906001019060200180831161036c57829003601f168201915b5050505050908060020154908060030160009054906101000a900473ffffffffffffffffffffffffffffffffffffffff16905084565b60016020528060005260406000206000915090508060000180546103e2906108cc565b80601f016020809104026020016040519081016040528092919081815260200182805461040e906108cc565b801561045b5780601f106104305761010080835404028352916020019161045b565b820191906000526020600020905b81548152906001019060200180831161043e57829003601f168201915b5050505050908060010160009054906101000a900473ffffffffffffffffffffffffffffffffffffffff16905082565b60046020528060005260406000206000915090508060000154908060010160009054906101000a900473ffffffffffffffffffffffffffffffffffffffff16908060020154908060030154908060040154905085565b6000602052806000526040600020600091509050806000018054610504906108cc565b80601f0160208091040260200160405190810160405280929190818152602001828054610530906108cc565b801561057d5780601f106105525761010080835404028352916020019161057d565b820191906000526020600020905b81548152906001019060200180831161056057829003601f168201915b5050505050908060010160009054906101000a900473ffffffffffffffffffffffffffffffffffffffff16905082565b6000813590506105bc8161093e565b92915050565b6000813590506105d181610955565b92915050565b6000602082840312156105e957600080fd5b60006105f7848285016105ad565b91505092915050565b60006020828403121561061257600080fd5b6000610620848285016105c2565b91505092915050565b6000806040838503121561063c57600080fd5b600061064a858286016105c2565b925050602061065b858286016105ad565b9150509250929050565b6000806040838503121561067857600080fd5b6000610686858286016105c2565b9250506020610697858286016105c2565b9150509250929050565b6106aa81610851565b82525050565b6106b981610863565b82525050565b60006106ca82610835565b6106d48185610840565b93506106e4818560208601610899565b6106ed8161092d565b840191505092915050565b6107018161088f565b82525050565b600060208201905061071c60008301846106a1565b92915050565b600060408201905061073760008301856106b0565b61074460208301846106b0565b9392505050565b6000604082019050818103600083015261076581856106bf565b905061077460208301846106a1565b9392505050565b600060208201905061079060008301846106f8565b92915050565b600060a0820190506107ab60008301886106f8565b6107b860208301876106a1565b6107c560408301866106f8565b6107d260608301856106f8565b6107df60808301846106f8565b9695505050505050565b60006080820190506107fe60008301876106f8565b818103602083015261081081866106bf565b905061081f60408301856106f8565b61082c60608301846106a1565b95945050505050565b600081519050919050565b600082825260208201905092915050565b600061085c8261086f565b9050919050565b60008115159050919050565b600073ffffffffffffffffffffffffffffffffffffffff82169050919050565b6000819050919050565b60005b838110156108b757808201518184015260208101905061089c565b838111156108c6576000848401525b50505050565b600060028204905060018216806108e457607f821691505b602082108114156108f8576108f76108fe565b5b50919050565b7f4e487b7100000000000000000000000000000000000000000000000000000000600052602260045260246000fd5b6000601f19601f8301169050919050565b61094781610851565b811461095257600080fd5b50565b61095e8161088f565b811461096957600080fd5b5056fea26469706673582212206df04077da92b5a407fe8b8809a12b75f5b9174d3a363c4eacb0baf2c7f537fc64736f6c63430008040033",
  "linkReferences": {},
  "deployedLinkReferences": {}
}