{
  "_format": "hh-sol-artifact-1",
  "contractName": "Academy",
  "sourceName": "contracts/Academy.sol",
  "abi": [
    {
      "inputs": [],
      "stateMutability": "nonpayable",
      "type": "constructor"
    },
    {
      "anonymous": false,
      "inputs": [
        {
          "indexed": true,
          "internalType": "address",
          "name": "teacher",
          "type": "address"
        },
        {
          "indexed": true,
          "internalType": "uint256",
          "name": "classId",
          "type": "uint256"
        },
        {
          "indexed": true,
          "internalType": "string",
          "name": "className",
          "type": "string"
        }
      ],
      "name": "ClassCreated",
      "type": "event"
    },
    {
      "anonymous": false,
      "inputs": [
        {
          "indexed": true,
          "internalType": "string",
          "name": "name",
          "type": "string"
        },
        {
          "indexed": true,
          "internalType": "address",
          "name": "wallet",
          "type": "address"
        }
      ],
      "name": "StudentAdded",
      "type": "event"
    },
    {
      "anonymous": false,
      "inputs": [
        {
          "indexed": true,
          "internalType": "string",
          "name": "name",
          "type": "string"
        },
        {
          "indexed": true,
          "internalType": "address",
          "name": "wallet",
          "type": "address"
        }
      ],
      "name": "TeacherAdded",
      "type": "event"
    },
    {
      "inputs": [
        {
          "internalType": "string",
          "name": "name",
          "type": "string"
        },
        {
          "internalType": "address",
          "name": "wallet",
          "type": "address"
        }
      ],
      "name": "addStudent",
      "outputs": [
        {
          "internalType": "bool",
          "name": "",
          "type": "bool"
        }
      ],
      "stateMutability": "nonpayable",
      "type": "function"
    },
    {
      "inputs": [
        {
          "internalType": "string",
          "name": "name",
          "type": "string"
        },
        {
          "internalType": "address",
          "name": "wallet",
          "type": "address"
        }
      ],
      "name": "addTeacher",
      "outputs": [
        {
          "internalType": "bool",
          "name": "",
          "type": "bool"
        }
      ],
      "stateMutability": "nonpayable",
      "type": "function"
    },
    {
      "inputs": [
        {
          "internalType": "uint256",
          "name": "",
          "type": "uint256"
        }
      ],
      "name": "classes",
      "outputs": [
        {
          "internalType": "uint256",
          "name": "id",
          "type": "uint256"
        },
        {
          "internalType": "string",
          "name": "name",
          "type": "string"
        },
        {
          "internalType": "address",
          "name": "teacher",
          "type": "address"
        }
      ],
      "stateMutability": "view",
      "type": "function"
    },
    {
      "inputs": [
        {
          "internalType": "string",
          "name": "name",
          "type": "string"
        },
        {
          "internalType": "string[]",
          "name": "topics",
          "type": "string[]"
        }
      ],
      "name": "createClass",
      "outputs": [
        {
          "internalType": "bool",
          "name": "",
          "type": "bool"
        }
      ],
      "stateMutability": "nonpayable",
      "type": "function"
    },
    {
      "inputs": [],
      "name": "nextClassId",
      "outputs": [
        {
          "internalType": "uint256",
          "name": "",
          "type": "uint256"
        }
      ],
      "stateMutability": "view",
      "type": "function"
    },
    {
      "inputs": [],
      "name": "principal",
      "outputs": [
        {
          "internalType": "address",
          "name": "",
          "type": "address"
        }
      ],
      "stateMutability": "view",
      "type": "function"
    },
    {
      "inputs": [
        {
          "internalType": "address",
          "name": "",
          "type": "address"
        }
      ],
      "name": "students",
      "outputs": [
        {
          "internalType": "string",
          "name": "name",
          "type": "string"
        },
        {
          "internalType": "address",
          "name": "wallet",
          "type": "address"
        }
      ],
      "stateMutability": "view",
      "type": "function"
    },
    {
      "inputs": [
        {
          "internalType": "address",
          "name": "",
          "type": "address"
        }
      ],
      "name": "teachers",
      "outputs": [
        {
          "internalType": "string",
          "name": "name",
          "type": "string"
        },
        {
          "internalType": "address",
          "name": "wallet",
          "type": "address"
        }
      ],
      "stateMutability": "view",
      "type": "function"
    }
  ],
  "bytecode": "0x608060405234801561001057600080fd5b5033600360006101000a81548173ffffffffffffffffffffffffffffffffffffffff021916908373ffffffffffffffffffffffffffffffffffffffff1602179055506117ca806100616000396000f3fe608060405234801561001057600080fd5b50600436106100885760003560e01c8063a6c807a91161005b578063a6c807a91461013d578063ba5d30781461016e578063f0a47f781461018c578063f52db279146101bd57610088565b806310468c2f1461008d5780636ca8cc8c146100bd578063817dbe9f146100db578063a36042db1461010d575b600080fd5b6100a760048036038101906100a29190611099565b6101ed565b6040516100b491906112d5565b60405180910390f35b6100c56104dc565b6040516100d291906113a0565b60405180910390f35b6100f560048036038101906100f09190611161565b6104e2565b604051610104939291906113bb565b60405180910390f35b61012760048036038101906101229190611099565b6105b4565b60405161013491906112d5565b60405180910390f35b61015760048036038101906101529190611070565b610809565b6040516101659291906112f0565b60405180910390f35b6101766108d5565b60405161018391906112ba565b60405180910390f35b6101a660048036038101906101a19190611070565b6108fb565b6040516101b49291906112f0565b60405180910390f35b6101d760048036038101906101d291906110f1565b6109c7565b6040516101e491906112d5565b60405180910390f35b6000600360009054906101000a900473ffffffffffffffffffffffffffffffffffffffff1673ffffffffffffffffffffffffffffffffffffffff163373ffffffffffffffffffffffffffffffffffffffff1614806102d95750600073ffffffffffffffffffffffffffffffffffffffff166000803373ffffffffffffffffffffffffffffffffffffffff1673ffffffffffffffffffffffffffffffffffffffff16815260200190815260200160002060010160009054906101000a900473ffffffffffffffffffffffffffffffffffffffff1673ffffffffffffffffffffffffffffffffffffffff1614155b610318576040517f08c379a000000000000000000000000000000000000000000000000000000000815260040161030f90611320565b60405180910390fd5b61032182610c3a565b15610361576040517f08c379a000000000000000000000000000000000000000000000000000000000815260040161035890611340565b60405180910390fd5b604051806040016040528085858080601f016020809104026020016040519081016040528093929190818152602001838380828437600081840152601f19601f8201169050808301925050505050505081526020018373ffffffffffffffffffffffffffffffffffffffff16815250600160008473ffffffffffffffffffffffffffffffffffffffff1673ffffffffffffffffffffffffffffffffffffffff168152602001908152602001600020600082015181600001908051906020019061042b929190610d7d565b5060208201518160010160006101000a81548173ffffffffffffffffffffffffffffffffffffffff021916908373ffffffffffffffffffffffffffffffffffffffff1602179055509050508173ffffffffffffffffffffffffffffffffffffffff16848460405161049d9291906112a1565b60405180910390207f3eb9ae1db4c1e4ee72b0a46d8d264f4d15ac0bd52eae6d8c9ea01975e2bca48160405160405180910390a3600190509392505050565b60045481565b600260205280600052604060002060009150905080600001549080600101805461050b9061152c565b80601f01602080910402602001604051908101604052809291908181526020018280546105379061152c565b80156105845780601f1061055957610100808354040283529160200191610584565b820191906000526020600020905b81548152906001019060200180831161056757829003601f168201915b5050505050908060030160009054906101000a900473ffffffffffffffffffffffffffffffffffffffff16905083565b6000600360009054906101000a900473ffffffffffffffffffffffffffffffffffffffff1673ffffffffffffffffffffffffffffffffffffffff163373ffffffffffffffffffffffffffffffffffffffff1614610646576040517f08c379a000000000000000000000000000000000000000000000000000000000815260040161063d90611380565b60405180910390fd5b61064f82610c3a565b1561068f576040517f08c379a000000000000000000000000000000000000000000000000000000000815260040161068690611340565b60405180910390fd5b604051806040016040528085858080601f016020809104026020016040519081016040528093929190818152602001838380828437600081840152601f19601f8201169050808301925050505050505081526020018373ffffffffffffffffffffffffffffffffffffffff168152506000808473ffffffffffffffffffffffffffffffffffffffff1673ffffffffffffffffffffffffffffffffffffffff1681526020019081526020016000206000820151816000019080519060200190610758929190610d7d565b5060208201518160010160006101000a81548173ffffffffffffffffffffffffffffffffffffffff021916908373ffffffffffffffffffffffffffffffffffffffff1602179055509050508173ffffffffffffffffffffffffffffffffffffffff1684846040516107ca9291906112a1565b60405180910390207feef6791cc176c62cf1998656a1d10ffa809f554fe4f085891e24e962abb1ab7660405160405180910390a3600190509392505050565b600160205280600052604060002060009150905080600001805461082c9061152c565b80601f01602080910402602001604051908101604052809291908181526020018280546108589061152c565b80156108a55780601f1061087a576101008083540402835291602001916108a5565b820191906000526020600020905b81548152906001019060200180831161088857829003601f168201915b5050505050908060010160009054906101000a900473ffffffffffffffffffffffffffffffffffffffff16905082565b600360009054906101000a900473ffffffffffffffffffffffffffffffffffffffff1681565b600060205280600052604060002060009150905080600001805461091e9061152c565b80601f016020809104026020016040519081016040528092919081815260200182805461094a9061152c565b80156109975780601f1061096c57610100808354040283529160200191610997565b820191906000526020600020905b81548152906001019060200180831161097a57829003601f168201915b5050505050908060010160009054906101000a900473ffffffffffffffffffffffffffffffffffffffff16905082565b60008073ffffffffffffffffffffffffffffffffffffffff166000803373ffffffffffffffffffffffffffffffffffffffff1673ffffffffffffffffffffffffffffffffffffffff16815260200190815260200160002060010160009054906101000a900473ffffffffffffffffffffffffffffffffffffffff1673ffffffffffffffffffffffffffffffffffffffff161415610a99576040517f08c379a0000000000000000000000000000000000000000000000000000000008152600401610a9090611360565b60405180910390fd5b6040518060800160405280600454815260200185858080601f016020809104026020016040519081016040528093929190818152602001838380828437600081840152601f19601f8201169050808301925050505050505081526020018381526020013373ffffffffffffffffffffffffffffffffffffffff16815250600260006004548152602001908152602001600020600082015181600001556020820151816001019080519060200190610b51929190610d7d565b506040820151816002019080519060200190610b6e929190610e03565b5060608201518160030160006101000a81548173ffffffffffffffffffffffffffffffffffffffff021916908373ffffffffffffffffffffffffffffffffffffffff1602179055509050508383604051610bc99291906112a1565b60405180910390206004543373ffffffffffffffffffffffffffffffffffffffff167fc554af40412eb958ce7250b87bdcc1fa1f9a83b937bcefded5dfc67fc8c89a1f60405160405180910390a460046000815480929190610c2a9061158f565b9190505550600190509392505050565b60008073ffffffffffffffffffffffffffffffffffffffff166000808473ffffffffffffffffffffffffffffffffffffffff1673ffffffffffffffffffffffffffffffffffffffff16815260200190815260200160002060010160009054906101000a900473ffffffffffffffffffffffffffffffffffffffff1673ffffffffffffffffffffffffffffffffffffffff161480610d655750600073ffffffffffffffffffffffffffffffffffffffff16600160008473ffffffffffffffffffffffffffffffffffffffff1673ffffffffffffffffffffffffffffffffffffffff16815260200190815260200160002060010160009054906101000a900473ffffffffffffffffffffffffffffffffffffffff1673ffffffffffffffffffffffffffffffffffffffff16145b15610d735760019050610d78565b600090505b919050565b828054610d899061152c565b90600052602060002090601f016020900481019282610dab5760008555610df2565b82601f10610dc457805160ff1916838001178555610df2565b82800160010185558215610df2579182015b82811115610df1578251825591602001919060010190610dd6565b5b509050610dff9190610e63565b5090565b828054828255906000526020600020908101928215610e52579160200282015b82811115610e51578251829080519060200190610e41929190610d7d565b5091602001919060010190610e23565b5b509050610e5f9190610e80565b5090565b5b80821115610e7c576000816000905550600101610e64565b5090565b5b80821115610ea05760008181610e979190610ea4565b50600101610e81565b5090565b508054610eb09061152c565b6000825580601f10610ec25750610ee1565b601f016020900490600052602060002090810190610ee09190610e63565b5b50565b6000610ef7610ef28461141e565b6113f9565b90508083825260208201905082856020860282011115610f1657600080fd5b60005b85811015610f6057813567ffffffffffffffff811115610f3857600080fd5b808601610f458982611031565b85526020850194506020840193505050600181019050610f19565b5050509392505050565b6000610f7d610f788461144a565b6113f9565b905082815260208101848484011115610f9557600080fd5b610fa08482856114ea565b509392505050565b600081359050610fb781611766565b92915050565b600082601f830112610fce57600080fd5b8135610fde848260208601610ee4565b91505092915050565b60008083601f840112610ff957600080fd5b8235905067ffffffffffffffff81111561101257600080fd5b60208301915083600182028301111561102a57600080fd5b9250929050565b600082601f83011261104257600080fd5b8135611052848260208601610f6a565b91505092915050565b60008135905061106a8161177d565b92915050565b60006020828403121561108257600080fd5b600061109084828501610fa8565b91505092915050565b6000806000604084860312156110ae57600080fd5b600084013567ffffffffffffffff8111156110c857600080fd5b6110d486828701610fe7565b935093505060206110e786828701610fa8565b9150509250925092565b60008060006040848603121561110657600080fd5b600084013567ffffffffffffffff81111561112057600080fd5b61112c86828701610fe7565b9350935050602084013567ffffffffffffffff81111561114b57600080fd5b61115786828701610fbd565b9150509250925092565b60006020828403121561117357600080fd5b60006111818482850161105b565b91505092915050565b611193816114a2565b82525050565b6111a2816114b4565b82525050565b60006111b48385611497565b93506111c18385846114ea565b82840190509392505050565b60006111d88261147b565b6111e28185611486565b93506111f28185602086016114f9565b6111fb81611665565b840191505092915050565b6000611213603783611486565b915061121e82611676565b604082019050919050565b6000611236601d83611486565b9150611241826116c5565b602082019050919050565b6000611259602083611486565b9150611264826116ee565b602082019050919050565b600061127c602b83611486565b915061128782611717565b604082019050919050565b61129b816114e0565b82525050565b60006112ae8284866111a8565b91508190509392505050565b60006020820190506112cf600083018461118a565b92915050565b60006020820190506112ea6000830184611199565b92915050565b6000604082019050818103600083015261130a81856111cd565b9050611319602083018461118a565b9392505050565b6000602082019050818103600083015261133981611206565b9050919050565b6000602082019050818103600083015261135981611229565b9050919050565b600060208201905081810360008301526113798161124c565b9050919050565b600060208201905081810360008301526113998161126f565b9050919050565b60006020820190506113b56000830184611292565b92915050565b60006060820190506113d06000830186611292565b81810360208301526113e281856111cd565b90506113f1604083018461118a565b949350505050565b6000611403611414565b905061140f828261155e565b919050565b6000604051905090565b600067ffffffffffffffff82111561143957611438611636565b5b602082029050602081019050919050565b600067ffffffffffffffff82111561146557611464611636565b5b61146e82611665565b9050602081019050919050565b600081519050919050565b600082825260208201905092915050565b600081905092915050565b60006114ad826114c0565b9050919050565b60008115159050919050565b600073ffffffffffffffffffffffffffffffffffffffff82169050919050565b6000819050919050565b82818337600083830152505050565b60005b838110156115175780820151818401526020810190506114fc565b83811115611526576000848401525b50505050565b6000600282049050600182168061154457607f821691505b6020821081141561155857611557611607565b5b50919050565b61156782611665565b810181811067ffffffffffffffff8211171561158657611585611636565b5b80604052505050565b600061159a826114e0565b91507fffffffffffffffffffffffffffffffffffffffffffffffffffffffffffffffff8214156115cd576115cc6115d8565b5b600182019050919050565b7f4e487b7100000000000000000000000000000000000000000000000000000000600052601160045260246000fd5b7f4e487b7100000000000000000000000000000000000000000000000000000000600052602260045260246000fd5b7f4e487b7100000000000000000000000000000000000000000000000000000000600052604160045260246000fd5b6000601f19601f8301169050919050565b7f6f6e6c79207465616368657273206f7220746865207072696e636970616c206360008201527f616e2061636365737320746869732066756e6374696f6e000000000000000000602082015250565b7f746869732077616c6c657420697320616c726561647920696e20757365000000600082015250565b7f6f6e6c792074656163686572732063616e20637265617465206120636c617373600082015250565b7f6f6e6c7920746865207072696e636970616c2063616e2061636365737320746860008201527f69732066756e6374696f6e000000000000000000000000000000000000000000602082015250565b61176f816114a2565b811461177a57600080fd5b50565b611786816114e0565b811461179157600080fd5b5056fea2646970667358221220f82aefd5b4f2c82ed1831aef13882f4ec3456e345b4a2062dee8ef05a4f8709764736f6c63430008040033",
  "linkReferences": {},
  "deployedLinkReferences": {}
}