{
  "_format": "hh-sol-artifact-1",
  "contractName": "Academy",
  "sourceName": "contracts/Academy.sol",
  "abi": [
    {
      "inputs": [],
      "stateMutability": "nonpayable",
      "type": "constructor"
    },
    {
      "anonymous": false,
      "inputs": [
        {
          "indexed": true,
          "internalType": "address",
          "name": "teacher",
          "type": "address"
        },
        {
          "indexed": true,
          "internalType": "uint256",
          "name": "classId",
          "type": "uint256"
        },
        {
          "indexed": true,
          "internalType": "string",
          "name": "className",
          "type": "string"
        }
      ],
      "name": "ClassCreated",
      "type": "event"
    },
    {
      "anonymous": false,
      "inputs": [
        {
          "indexed": true,
          "internalType": "string",
          "name": "name",
          "type": "string"
        },
        {
          "indexed": true,
          "internalType": "address",
          "name": "wallet",
          "type": "address"
        }
      ],
      "name": "StudentAdded",
      "type": "event"
    },
    {
      "anonymous": false,
      "inputs": [
        {
          "indexed": true,
          "internalType": "string",
          "name": "name",
          "type": "string"
        },
        {
          "indexed": true,
          "internalType": "address",
          "name": "wallet",
          "type": "address"
        }
      ],
      "name": "TeacherAdded",
      "type": "event"
    },
    {
      "inputs": [
        {
          "internalType": "uint256",
          "name": "",
          "type": "uint256"
        }
      ],
      "name": "classes",
      "outputs": [
        {
          "internalType": "uint256",
          "name": "id",
          "type": "uint256"
        },
        {
          "internalType": "string",
          "name": "name",
          "type": "string"
        },
        {
          "internalType": "address",
          "name": "teacher",
          "type": "address"
        }
      ],
      "stateMutability": "view",
      "type": "function"
    },
    {
      "inputs": [],
      "name": "nextClassId",
      "outputs": [
        {
          "internalType": "uint256",
          "name": "",
          "type": "uint256"
        }
      ],
      "stateMutability": "view",
      "type": "function"
    },
    {
      "inputs": [],
      "name": "principal",
      "outputs": [
        {
          "internalType": "address",
          "name": "",
          "type": "address"
        }
      ],
      "stateMutability": "view",
      "type": "function"
    },
    {
      "inputs": [
        {
          "internalType": "address",
          "name": "",
          "type": "address"
        }
      ],
      "name": "students",
      "outputs": [
        {
          "internalType": "string",
          "name": "name",
          "type": "string"
        },
        {
          "internalType": "address",
          "name": "wallet",
          "type": "address"
        }
      ],
      "stateMutability": "view",
      "type": "function"
    },
    {
      "inputs": [
        {
          "internalType": "address",
          "name": "",
          "type": "address"
        }
      ],
      "name": "teachers",
      "outputs": [
        {
          "internalType": "string",
          "name": "name",
          "type": "string"
        },
        {
          "internalType": "address",
          "name": "wallet",
          "type": "address"
        }
      ],
      "stateMutability": "view",
      "type": "function"
    }
  ],
  "bytecode": "0x608060405234801561001057600080fd5b5033600360006101000a81548173ffffffffffffffffffffffffffffffffffffffff021916908373ffffffffffffffffffffffffffffffffffffffff16021790555061069a806100616000396000f3fe608060405234801561001057600080fd5b50600436106100575760003560e01c80636ca8cc8c1461005c578063817dbe9f1461007a578063a6c807a9146100ac578063ba5d3078146100dd578063f0a47f78146100fb575b600080fd5b61006461012c565b60405161007191906104e0565b60405180910390f35b610094600480360381019061008f9190610415565b610132565b6040516100a3939291906104fb565b60405180910390f35b6100c660048036038101906100c191906103ec565b610204565b6040516100d49291906104b0565b60405180910390f35b6100e56102d0565b6040516100f29190610495565b60405180910390f35b610115600480360381019061011091906103ec565b6102f6565b6040516101239291906104b0565b60405180910390f35b60045481565b600260205280600052604060002060009150905080600001549080600101805461015b906105c4565b80601f0160208091040260200160405190810160405280929190818152602001828054610187906105c4565b80156101d45780601f106101a9576101008083540402835291602001916101d4565b820191906000526020600020905b8154815290600101906020018083116101b757829003601f168201915b5050505050908060030160009054906101000a900473ffffffffffffffffffffffffffffffffffffffff16905083565b6001602052806000526040600020600091509050806000018054610227906105c4565b80601f0160208091040260200160405190810160405280929190818152602001828054610253906105c4565b80156102a05780601f10610275576101008083540402835291602001916102a0565b820191906000526020600020905b81548152906001019060200180831161028357829003601f168201915b5050505050908060010160009054906101000a900473ffffffffffffffffffffffffffffffffffffffff16905082565b600360009054906101000a900473ffffffffffffffffffffffffffffffffffffffff1681565b6000602052806000526040600020600091509050806000018054610319906105c4565b80601f0160208091040260200160405190810160405280929190818152602001828054610345906105c4565b80156103925780601f1061036757610100808354040283529160200191610392565b820191906000526020600020905b81548152906001019060200180831161037557829003601f168201915b5050505050908060010160009054906101000a900473ffffffffffffffffffffffffffffffffffffffff16905082565b6000813590506103d181610636565b92915050565b6000813590506103e68161064d565b92915050565b6000602082840312156103fe57600080fd5b600061040c848285016103c2565b91505092915050565b60006020828403121561042757600080fd5b6000610435848285016103d7565b91505092915050565b61044781610555565b82525050565b600061045882610539565b6104628185610544565b9350610472818560208601610591565b61047b81610625565b840191505092915050565b61048f81610587565b82525050565b60006020820190506104aa600083018461043e565b92915050565b600060408201905081810360008301526104ca818561044d565b90506104d9602083018461043e565b9392505050565b60006020820190506104f56000830184610486565b92915050565b60006060820190506105106000830186610486565b8181036020830152610522818561044d565b9050610531604083018461043e565b949350505050565b600081519050919050565b600082825260208201905092915050565b600061056082610567565b9050919050565b600073ffffffffffffffffffffffffffffffffffffffff82169050919050565b6000819050919050565b60005b838110156105af578082015181840152602081019050610594565b838111156105be576000848401525b50505050565b600060028204905060018216806105dc57607f821691505b602082108114156105f0576105ef6105f6565b5b50919050565b7f4e487b7100000000000000000000000000000000000000000000000000000000600052602260045260246000fd5b6000601f19601f8301169050919050565b61063f81610555565b811461064a57600080fd5b50565b61065681610587565b811461066157600080fd5b5056fea2646970667358221220312ee1691ecef29c7371dec2aaec1c56c7d12e32e3e879a8ccb51c4451fa450d64736f6c63430008040033",
  "linkReferences": {},
  "deployedLinkReferences": {}
}