{
  "_format": "hh-sol-artifact-1",
  "contractName": "Academy",
  "sourceName": "contracts/Academy.sol",
  "abi": [
    {
      "inputs": [],
      "stateMutability": "nonpayable",
      "type": "constructor"
    },
    {
      "anonymous": false,
      "inputs": [
        {
          "indexed": true,
          "internalType": "address",
          "name": "teacher",
          "type": "address"
        },
        {
          "indexed": true,
          "internalType": "uint256",
          "name": "classId",
          "type": "uint256"
        },
        {
          "indexed": true,
          "internalType": "string",
          "name": "className",
          "type": "string"
        }
      ],
      "name": "ClassCreated",
      "type": "event"
    },
    {
      "anonymous": false,
      "inputs": [
        {
          "indexed": true,
          "internalType": "string",
          "name": "name",
          "type": "string"
        },
        {
          "indexed": true,
          "internalType": "address",
          "name": "wallet",
          "type": "address"
        }
      ],
      "name": "StudentAdded",
      "type": "event"
    },
    {
      "anonymous": false,
      "inputs": [
        {
          "indexed": true,
          "internalType": "string",
          "name": "name",
          "type": "string"
        },
        {
          "indexed": true,
          "internalType": "address",
          "name": "wallet",
          "type": "address"
        }
      ],
      "name": "TeacherAdded",
      "type": "event"
    },
    {
      "inputs": [
        {
          "internalType": "uint256",
          "name": "",
          "type": "uint256"
        },
        {
          "internalType": "uint256",
          "name": "",
          "type": "uint256"
        }
      ],
      "name": "classAttendance",
      "outputs": [
        {
          "internalType": "address",
          "name": "",
          "type": "address"
        }
      ],
      "stateMutability": "view",
      "type": "function"
    },
    {
      "inputs": [
        {
          "internalType": "uint256",
          "name": "",
          "type": "uint256"
        }
      ],
      "name": "classes",
      "outputs": [
        {
          "internalType": "uint256",
          "name": "id",
          "type": "uint256"
        },
        {
          "internalType": "string",
          "name": "name",
          "type": "string"
        },
        {
          "internalType": "uint256",
          "name": "cost",
          "type": "uint256"
        },
        {
          "internalType": "address",
          "name": "teacher",
          "type": "address"
        }
      ],
      "stateMutability": "view",
      "type": "function"
    },
    {
      "inputs": [],
      "name": "nextClassId",
      "outputs": [
        {
          "internalType": "uint256",
          "name": "",
          "type": "uint256"
        }
      ],
      "stateMutability": "view",
      "type": "function"
    },
    {
      "inputs": [
        {
          "internalType": "address",
          "name": "",
          "type": "address"
        }
      ],
      "name": "students",
      "outputs": [
        {
          "internalType": "string",
          "name": "name",
          "type": "string"
        },
        {
          "internalType": "address",
          "name": "wallet",
          "type": "address"
        }
      ],
      "stateMutability": "view",
      "type": "function"
    },
    {
      "inputs": [
        {
          "internalType": "address",
          "name": "",
          "type": "address"
        }
      ],
      "name": "teachers",
      "outputs": [
        {
          "internalType": "string",
          "name": "name",
          "type": "string"
        },
        {
          "internalType": "address",
          "name": "wallet",
          "type": "address"
        }
      ],
      "stateMutability": "view",
      "type": "function"
    },
    {
      "inputs": [],
      "name": "treasury",
      "outputs": [
        {
          "internalType": "address",
          "name": "",
          "type": "address"
        }
      ],
      "stateMutability": "view",
      "type": "function"
    }
  ],
  "bytecode": "0x6080604052600160055534801561001557600080fd5b5033600460006101000a81548173ffffffffffffffffffffffffffffffffffffffff021916908373ffffffffffffffffffffffffffffffffffffffff160217905550610774806100666000396000f3fe608060405234801561001057600080fd5b50600436106100625760003560e01c8063143c297c1461006757806361d027b3146100975780636ca8cc8c146100b5578063817dbe9f146100d3578063a6c807a914610106578063f0a47f7814610137575b600080fd5b610081600480360381019061007c91906104ce565b610168565b60405161008e9190610561565b60405180910390f35b61009f6101b6565b6040516100ac9190610561565b60405180910390f35b6100bd6101dc565b6040516100ca91906105ac565b60405180910390f35b6100ed60048036038101906100e891906104a5565b6101e2565b6040516100fd94939291906105c7565b60405180910390f35b610120600480360381019061011b919061047c565b6102ba565b60405161012e92919061057c565b60405180910390f35b610151600480360381019061014c919061047c565b610386565b60405161015f92919061057c565b60405180910390f35b6003602052816000526040600020818154811061018457600080fd5b906000526020600020016000915091509054906101000a900473ffffffffffffffffffffffffffffffffffffffff1681565b600460009054906101000a900473ffffffffffffffffffffffffffffffffffffffff1681565b60055481565b600260205280600052604060002060009150905080600001549080600101805461020b9061069e565b80601f01602080910402602001604051908101604052809291908181526020018280546102379061069e565b80156102845780601f1061025957610100808354040283529160200191610284565b820191906000526020600020905b81548152906001019060200180831161026757829003601f168201915b5050505050908060020154908060030160009054906101000a900473ffffffffffffffffffffffffffffffffffffffff16905084565b60016020528060005260406000206000915090508060000180546102dd9061069e565b80601f01602080910402602001604051908101604052809291908181526020018280546103099061069e565b80156103565780601f1061032b57610100808354040283529160200191610356565b820191906000526020600020905b81548152906001019060200180831161033957829003601f168201915b5050505050908060010160009054906101000a900473ffffffffffffffffffffffffffffffffffffffff16905082565b60006020528060005260406000206000915090508060000180546103a99061069e565b80601f01602080910402602001604051908101604052809291908181526020018280546103d59061069e565b80156104225780601f106103f757610100808354040283529160200191610422565b820191906000526020600020905b81548152906001019060200180831161040557829003601f168201915b5050505050908060010160009054906101000a900473ffffffffffffffffffffffffffffffffffffffff16905082565b60008135905061046181610710565b92915050565b60008135905061047681610727565b92915050565b60006020828403121561048e57600080fd5b600061049c84828501610452565b91505092915050565b6000602082840312156104b757600080fd5b60006104c584828501610467565b91505092915050565b600080604083850312156104e157600080fd5b60006104ef85828601610467565b925050602061050085828601610467565b9150509250929050565b6105138161062f565b82525050565b600061052482610613565b61052e818561061e565b935061053e81856020860161066b565b610547816106ff565b840191505092915050565b61055b81610661565b82525050565b6000602082019050610576600083018461050a565b92915050565b600060408201905081810360008301526105968185610519565b90506105a5602083018461050a565b9392505050565b60006020820190506105c16000830184610552565b92915050565b60006080820190506105dc6000830187610552565b81810360208301526105ee8186610519565b90506105fd6040830185610552565b61060a606083018461050a565b95945050505050565b600081519050919050565b600082825260208201905092915050565b600061063a82610641565b9050919050565b600073ffffffffffffffffffffffffffffffffffffffff82169050919050565b6000819050919050565b60005b8381101561068957808201518184015260208101905061066e565b83811115610698576000848401525b50505050565b600060028204905060018216806106b657607f821691505b602082108114156106ca576106c96106d0565b5b50919050565b7f4e487b7100000000000000000000000000000000000000000000000000000000600052602260045260246000fd5b6000601f19601f8301169050919050565b6107198161062f565b811461072457600080fd5b50565b61073081610661565b811461073b57600080fd5b5056fea2646970667358221220e2c8b04ca6030c5a18c6189ed85143ac616a99de1afead1951f527700afea94764736f6c63430008040033",
  "linkReferences": {},
  "deployedLinkReferences": {}
}