{
  "_format": "hh-sol-artifact-1",
  "contractName": "ERC20Token",
  "sourceName": "contracts/ERC20.sol",
  "abi": [
    {
      "inputs": [
        {
          "internalType": "string",
          "name": "_tokenName",
          "type": "string"
        },
        {
          "internalType": "string",
          "name": "_tickerSymbol",
          "type": "string"
        },
        {
          "internalType": "uint256",
          "name": "_tokenTotalSupply",
          "type": "uint256"
        },
        {
          "internalType": "uint8",
          "name": "_decimals",
          "type": "uint8"
        }
      ],
      "stateMutability": "nonpayable",
      "type": "constructor"
    },
    {
      "inputs": [],
      "name": "assignmentDontExist",
      "type": "error"
    },
    {
      "inputs": [],
      "name": "classDontExist",
      "type": "error"
    },
    {
      "inputs": [],
      "name": "consultDontExist",
      "type": "error"
    },
    {
      "inputs": [],
      "name": "insufficientBalance",
      "type": "error"
    },
    {
      "inputs": [],
      "name": "noAccessRights",
      "type": "error"
    },
    {
      "anonymous": false,
      "inputs": [
        {
          "indexed": true,
          "internalType": "address",
          "name": "owner",
          "type": "address"
        },
        {
          "indexed": true,
          "internalType": "address",
          "name": "spender",
          "type": "address"
        },
        {
          "indexed": false,
          "internalType": "uint256",
          "name": "value",
          "type": "uint256"
        }
      ],
      "name": "Approval",
      "type": "event"
    },
    {
      "anonymous": false,
      "inputs": [
        {
          "indexed": true,
          "internalType": "address",
          "name": "teacher",
          "type": "address"
        },
        {
          "indexed": true,
          "internalType": "uint256",
          "name": "assignmentId",
          "type": "uint256"
        }
      ],
      "name": "AssignmentCreated",
      "type": "event"
    },
    {
      "anonymous": false,
      "inputs": [
        {
          "indexed": true,
          "internalType": "address",
          "name": "teacher",
          "type": "address"
        },
        {
          "indexed": true,
          "internalType": "uint256",
          "name": "classId",
          "type": "uint256"
        },
        {
          "indexed": true,
          "internalType": "string",
          "name": "className",
          "type": "string"
        }
      ],
      "name": "ClassCreated",
      "type": "event"
    },
    {
      "anonymous": false,
      "inputs": [
        {
          "indexed": true,
          "internalType": "address",
          "name": "teacher",
          "type": "address"
        },
        {
          "indexed": true,
          "internalType": "uint256",
          "name": "consultId",
          "type": "uint256"
        }
      ],
      "name": "ConsultCreated",
      "type": "event"
    },
    {
      "anonymous": false,
      "inputs": [
        {
          "indexed": true,
          "internalType": "string",
          "name": "name",
          "type": "string"
        },
        {
          "indexed": true,
          "internalType": "address",
          "name": "wallet",
          "type": "address"
        }
      ],
      "name": "StudentAdded",
      "type": "event"
    },
    {
      "anonymous": false,
      "inputs": [
        {
          "indexed": true,
          "internalType": "string",
          "name": "name",
          "type": "string"
        },
        {
          "indexed": true,
          "internalType": "address",
          "name": "wallet",
          "type": "address"
        }
      ],
      "name": "TeacherAdded",
      "type": "event"
    },
    {
      "anonymous": false,
      "inputs": [
        {
          "indexed": true,
          "internalType": "address",
          "name": "from",
          "type": "address"
        },
        {
          "indexed": true,
          "internalType": "address",
          "name": "to",
          "type": "address"
        },
        {
          "indexed": false,
          "internalType": "uint256",
          "name": "value",
          "type": "uint256"
        }
      ],
      "name": "Transfer",
      "type": "event"
    },
    {
      "inputs": [],
      "name": "STARTINGAMOUNT",
      "outputs": [
        {
          "internalType": "uint256",
          "name": "",
          "type": "uint256"
        }
      ],
      "stateMutability": "view",
      "type": "function"
    },
    {
      "inputs": [
        {
          "internalType": "string",
          "name": "name",
          "type": "string"
        },
        {
          "internalType": "address",
          "name": "wallet",
          "type": "address"
        }
      ],
      "name": "addStudent",
      "outputs": [],
      "stateMutability": "nonpayable",
      "type": "function"
    },
    {
      "inputs": [
        {
          "internalType": "string",
          "name": "name",
          "type": "string"
        },
        {
          "internalType": "address",
          "name": "wallet",
          "type": "address"
        }
      ],
      "name": "addTeacher",
      "outputs": [],
      "stateMutability": "nonpayable",
      "type": "function"
    },
    {
      "inputs": [
        {
          "internalType": "address",
          "name": "owner",
          "type": "address"
        },
        {
          "internalType": "address",
          "name": "spender",
          "type": "address"
        }
      ],
      "name": "allowance",
      "outputs": [
        {
          "internalType": "uint256",
          "name": "",
          "type": "uint256"
        }
      ],
      "stateMutability": "view",
      "type": "function"
    },
    {
      "inputs": [
        {
          "internalType": "address",
          "name": "",
          "type": "address"
        },
        {
          "internalType": "address",
          "name": "",
          "type": "address"
        }
      ],
      "name": "allowed",
      "outputs": [
        {
          "internalType": "uint256",
          "name": "",
          "type": "uint256"
        }
      ],
      "stateMutability": "view",
      "type": "function"
    },
    {
      "inputs": [
        {
          "internalType": "address",
          "name": "spender",
          "type": "address"
        },
        {
          "internalType": "uint256",
          "name": "amount",
          "type": "uint256"
        }
      ],
      "name": "approve",
      "outputs": [
        {
          "internalType": "bool",
          "name": "",
          "type": "bool"
        }
      ],
      "stateMutability": "nonpayable",
      "type": "function"
    },
    {
      "inputs": [
        {
          "internalType": "uint256",
          "name": "assignmentId",
          "type": "uint256"
        }
      ],
      "name": "approveAssignment",
      "outputs": [],
      "stateMutability": "nonpayable",
      "type": "function"
    },
    {
      "inputs": [
        {
          "internalType": "uint256",
          "name": "",
          "type": "uint256"
        }
      ],
      "name": "assignments",
      "outputs": [
        {
          "internalType": "uint256",
          "name": "id",
          "type": "uint256"
        },
        {
          "internalType": "address",
          "name": "teacher",
          "type": "address"
        },
        {
          "internalType": "uint256",
          "name": "bounty",
          "type": "uint256"
        },
        {
          "internalType": "address",
          "name": "participant",
          "type": "address"
        },
        {
          "internalType": "enum Academy.AssignmentState",
          "name": "state",
          "type": "uint8"
        }
      ],
      "stateMutability": "view",
      "type": "function"
    },
    {
      "inputs": [
        {
          "internalType": "address",
          "name": "account",
          "type": "address"
        }
      ],
      "name": "balanceOf",
      "outputs": [
        {
          "internalType": "uint256",
          "name": "",
          "type": "uint256"
        }
      ],
      "stateMutability": "view",
      "type": "function"
    },
    {
      "inputs": [
        {
          "internalType": "address",
          "name": "",
          "type": "address"
        }
      ],
      "name": "balances",
      "outputs": [
        {
          "internalType": "uint256",
          "name": "",
          "type": "uint256"
        }
      ],
      "stateMutability": "view",
      "type": "function"
    },
    {
      "inputs": [
        {
          "internalType": "uint256",
          "name": "",
          "type": "uint256"
        },
        {
          "internalType": "uint256",
          "name": "",
          "type": "uint256"
        }
      ],
      "name": "classAttendance",
      "outputs": [
        {
          "internalType": "address",
          "name": "",
          "type": "address"
        }
      ],
      "stateMutability": "view",
      "type": "function"
    },
    {
      "inputs": [
        {
          "internalType": "uint256",
          "name": "",
          "type": "uint256"
        }
      ],
      "name": "classes",
      "outputs": [
        {
          "internalType": "uint256",
          "name": "id",
          "type": "uint256"
        },
        {
          "internalType": "string",
          "name": "name",
          "type": "string"
        },
        {
          "internalType": "uint256",
          "name": "cost",
          "type": "uint256"
        },
        {
          "internalType": "address",
          "name": "teacher",
          "type": "address"
        }
      ],
      "stateMutability": "view",
      "type": "function"
    },
    {
      "inputs": [
        {
          "internalType": "uint256",
          "name": "",
          "type": "uint256"
        },
        {
          "internalType": "address",
          "name": "",
          "type": "address"
        }
      ],
      "name": "consultAttendanceList",
      "outputs": [
        {
          "internalType": "bool",
          "name": "signedUp",
          "type": "bool"
        },
        {
          "internalType": "bool",
          "name": "attended",
          "type": "bool"
        }
      ],
      "stateMutability": "view",
      "type": "function"
    },
    {
      "inputs": [
        {
          "internalType": "uint256",
          "name": "",
          "type": "uint256"
        }
      ],
      "name": "consults",
      "outputs": [
        {
          "internalType": "uint256",
          "name": "id",
          "type": "uint256"
        },
        {
          "internalType": "address",
          "name": "teacher",
          "type": "address"
        },
        {
          "internalType": "uint256",
          "name": "stake",
          "type": "uint256"
        },
        {
          "internalType": "uint256",
          "name": "capacity",
          "type": "uint256"
        },
        {
          "internalType": "uint256",
          "name": "currentPax",
          "type": "uint256"
        }
      ],
      "stateMutability": "view",
      "type": "function"
    },
    {
      "inputs": [
        {
          "internalType": "uint256",
          "name": "bounty",
          "type": "uint256"
        }
      ],
      "name": "createAssignment",
      "outputs": [
        {
          "internalType": "uint256",
          "name": "",
          "type": "uint256"
        }
      ],
      "stateMutability": "nonpayable",
      "type": "function"
    },
    {
      "inputs": [
        {
          "internalType": "string",
          "name": "name",
          "type": "string"
        },
        {
          "internalType": "uint256",
          "name": "cost",
          "type": "uint256"
        }
      ],
      "name": "createClass",
      "outputs": [
        {
          "internalType": "uint256",
          "name": "",
          "type": "uint256"
        }
      ],
      "stateMutability": "nonpayable",
      "type": "function"
    },
    {
      "inputs": [
        {
          "internalType": "uint256",
          "name": "stake",
          "type": "uint256"
        },
        {
          "internalType": "uint256",
          "name": "capacity",
          "type": "uint256"
        }
      ],
      "name": "createConsult",
      "outputs": [
        {
          "internalType": "uint256",
          "name": "",
          "type": "uint256"
        }
      ],
      "stateMutability": "nonpayable",
      "type": "function"
    },
    {
      "inputs": [],
      "name": "decimals",
      "outputs": [
        {
          "internalType": "uint8",
          "name": "",
          "type": "uint8"
        }
      ],
      "stateMutability": "view",
      "type": "function"
    },
    {
      "inputs": [
        {
          "internalType": "address",
          "name": "wallet",
          "type": "address"
        },
        {
          "internalType": "uint256",
          "name": "consultId",
          "type": "uint256"
        }
      ],
      "name": "markConsultAttendance",
      "outputs": [],
      "stateMutability": "nonpayable",
      "type": "function"
    },
    {
      "inputs": [],
      "name": "nextAssignmentId",
      "outputs": [
        {
          "internalType": "uint256",
          "name": "",
          "type": "uint256"
        }
      ],
      "stateMutability": "view",
      "type": "function"
    },
    {
      "inputs": [],
      "name": "nextClassId",
      "outputs": [
        {
          "internalType": "uint256",
          "name": "",
          "type": "uint256"
        }
      ],
      "stateMutability": "view",
      "type": "function"
    },
    {
      "inputs": [],
      "name": "nextConsultId",
      "outputs": [
        {
          "internalType": "uint256",
          "name": "",
          "type": "uint256"
        }
      ],
      "stateMutability": "view",
      "type": "function"
    },
    {
      "inputs": [
        {
          "internalType": "uint256",
          "name": "assignmentId",
          "type": "uint256"
        }
      ],
      "name": "payOutAssignment",
      "outputs": [],
      "stateMutability": "nonpayable",
      "type": "function"
    },
    {
      "inputs": [
        {
          "internalType": "uint256",
          "name": "assignmentId",
          "type": "uint256"
        }
      ],
      "name": "signUpForAssignment",
      "outputs": [],
      "stateMutability": "nonpayable",
      "type": "function"
    },
    {
      "inputs": [
        {
          "internalType": "uint256",
          "name": "classId",
          "type": "uint256"
        }
      ],
      "name": "signUpForClass",
      "outputs": [],
      "stateMutability": "nonpayable",
      "type": "function"
    },
    {
      "inputs": [
        {
          "internalType": "uint256",
          "name": "consultId",
          "type": "uint256"
        }
      ],
      "name": "signUpForConsult",
      "outputs": [],
      "stateMutability": "nonpayable",
      "type": "function"
    },
    {
      "inputs": [
        {
          "internalType": "address",
          "name": "",
          "type": "address"
        }
      ],
      "name": "students",
      "outputs": [
        {
          "internalType": "string",
          "name": "name",
          "type": "string"
        },
        {
          "internalType": "address",
          "name": "wallet",
          "type": "address"
        }
      ],
      "stateMutability": "view",
      "type": "function"
    },
    {
      "inputs": [
        {
          "internalType": "address",
          "name": "",
          "type": "address"
        }
      ],
      "name": "teachers",
      "outputs": [
        {
          "internalType": "string",
          "name": "name",
          "type": "string"
        },
        {
          "internalType": "address",
          "name": "wallet",
          "type": "address"
        }
      ],
      "stateMutability": "view",
      "type": "function"
    },
    {
      "inputs": [],
      "name": "tickerSymbol",
      "outputs": [
        {
          "internalType": "string",
          "name": "",
          "type": "string"
        }
      ],
      "stateMutability": "view",
      "type": "function"
    },
    {
      "inputs": [],
      "name": "tokenName",
      "outputs": [
        {
          "internalType": "string",
          "name": "",
          "type": "string"
        }
      ],
      "stateMutability": "view",
      "type": "function"
    },
    {
      "inputs": [],
      "name": "tokenTotalSupply",
      "outputs": [
        {
          "internalType": "uint256",
          "name": "",
          "type": "uint256"
        }
      ],
      "stateMutability": "view",
      "type": "function"
    },
    {
      "inputs": [],
      "name": "totalSupply",
      "outputs": [
        {
          "internalType": "uint256",
          "name": "",
          "type": "uint256"
        }
      ],
      "stateMutability": "view",
      "type": "function"
    },
    {
      "inputs": [
        {
          "internalType": "address",
          "name": "recipient",
          "type": "address"
        },
        {
          "internalType": "uint256",
          "name": "amount",
          "type": "uint256"
        }
      ],
      "name": "transfer",
      "outputs": [
        {
          "internalType": "bool",
          "name": "",
          "type": "bool"
        }
      ],
      "stateMutability": "nonpayable",
      "type": "function"
    },
    {
      "inputs": [
        {
          "internalType": "address",
          "name": "spender",
          "type": "address"
        },
        {
          "internalType": "address",
          "name": "recipient",
          "type": "address"
        },
        {
          "internalType": "uint256",
          "name": "amount",
          "type": "uint256"
        }
      ],
      "name": "transferFrom",
      "outputs": [
        {
          "internalType": "bool",
          "name": "",
          "type": "bool"
        }
      ],
      "stateMutability": "nonpayable",
      "type": "function"
    },
    {
      "inputs": [],
      "name": "treasury",
      "outputs": [
        {
          "internalType": "address",
          "name": "",
          "type": "address"
        }
      ],
      "stateMutability": "view",
      "type": "function"
    }
  ],
  "bytecode": "0x6080604052600160085560016009556001600a553480156200002057600080fd5b5060405162004f2a38038062004f2a833981810160405281019062000046919062000279565b33600760006101000a81548173ffffffffffffffffffffffffffffffffffffffff021916908373ffffffffffffffffffffffffffffffffffffffff16021790555083600b90805190602001906200009f92919062000129565b5082600c9080519060200190620000b892919062000129565b5081600d8190555080600e60006101000a81548160ff021916908360ff16021790555081600f60003373ffffffffffffffffffffffffffffffffffffffff1673ffffffffffffffffffffffffffffffffffffffff1681526020019081526020016000208190555050505050620004d2565b8280546200013790620003c3565b90600052602060002090601f0160209004810192826200015b5760008555620001a7565b82601f106200017657805160ff1916838001178555620001a7565b82800160010185558215620001a7579182015b82811115620001a657825182559160200191906001019062000189565b5b509050620001b69190620001ba565b5090565b5b80821115620001d5576000816000905550600101620001bb565b5090565b6000620001f0620001ea8462000340565b62000317565b9050828152602081018484840111156200020957600080fd5b620002168482856200038d565b509392505050565b600082601f8301126200023057600080fd5b815162000242848260208601620001d9565b91505092915050565b6000815190506200025c816200049e565b92915050565b6000815190506200027381620004b8565b92915050565b600080600080608085870312156200029057600080fd5b600085015167ffffffffffffffff811115620002ab57600080fd5b620002b9878288016200021e565b945050602085015167ffffffffffffffff811115620002d757600080fd5b620002e5878288016200021e565b9350506040620002f8878288016200024b565b92505060606200030b8782880162000262565b91505092959194509250565b60006200032362000336565b9050620003318282620003f9565b919050565b6000604051905090565b600067ffffffffffffffff8211156200035e576200035d6200045e565b5b62000369826200048d565b9050602081019050919050565b6000819050919050565b600060ff82169050919050565b60005b83811015620003ad57808201518184015260208101905062000390565b83811115620003bd576000848401525b50505050565b60006002820490506001821680620003dc57607f821691505b60208210811415620003f357620003f26200042f565b5b50919050565b62000404826200048d565b810181811067ffffffffffffffff821117156200042657620004256200045e565b5b80604052505050565b7f4e487b7100000000000000000000000000000000000000000000000000000000600052602260045260246000fd5b7f4e487b7100000000000000000000000000000000000000000000000000000000600052604160045260246000fd5b6000601f19601f8301169050919050565b620004a98162000376565b8114620004b557600080fd5b50565b620004c38162000380565b8114620004cf57600080fd5b50565b614a4880620004e26000396000f3fe608060405234801561001057600080fd5b50600436106102115760003560e01c80636ca8cc8c11610125578063b9adc019116100ad578063f0a47f781161007c578063f0a47f78146106a9578063f51cff7a146106da578063f7abab9e1461070a578063f8240aed14610728578063ffc92a621461074457610211565b8063b9adc0191461060b578063dd62ed3e1461063f578063e7ccb0a31461066f578063ea9e86681461068d57610211565b806381563615116100f4578063815636151461052b578063817dbe9f1461055b578063a36042db1461058e578063a6c807a9146105aa578063a9059cbb146105db57610211565b80636ca8cc8c1461048e5780636e818598146104ac57806370a08231146104ca57806373287259146104fa57610211565b8063313ce567116101a85780634e50c75c116101775780634e50c75c146103d05780635c6581651461040457806361d027b3146104345780636c02a931146104525780636c815d211461047057610211565b8063313ce5671461034a5780633cd2c1e41461036857806345b86a30146103845780634852a212146103a057610211565b806318160ddd116101e457806318160ddd146102ae5780632374f8a6146102cc57806323b872dd146102ea57806327e235e31461031a57610211565b8063095ea7b3146102165780630e31dd651461024657806310468c2f14610262578063143c297c1461027e575b600080fd5b610230600480360381019061022b9190613dc6565b610760565b60405161023d91906141d4565b60405180910390f35b610260600480360381019061025b9190613eb2565b6108cf565b005b61027c60048036038101906102779190613e02565b6108db565b005b61029860048036038101906102939190613f17565b610a58565b6040516102a591906141b9565b60405180910390f35b6102b6610aa6565b6040516102c391906143ea565b60405180910390f35b6102d4610ab0565b6040516102e19190614218565b60405180910390f35b61030460048036038101906102ff9190613d77565b610b3e565b60405161031191906141d4565b60405180910390f35b610334600480360381019061032f9190613d12565b610e22565b60405161034191906143ea565b60405180910390f35b610352610e3a565b60405161035f91906144f7565b60405180910390f35b610382600480360381019061037d9190613eb2565b610e4d565b005b61039e60048036038101906103999190613dc6565b61112e565b005b6103ba60048036038101906103b59190613e5a565b6114b0565b6040516103c791906143ea565b60405180910390f35b6103ea60048036038101906103e59190613eb2565b6114cb565b6040516103fb959493929190614405565b60405180910390f35b61041e60048036038101906104199190613d3b565b61154e565b60405161042b91906143ea565b60405180910390f35b61043c611573565b60405161044991906141b9565b60405180910390f35b61045a611599565b6040516104679190614218565b60405180910390f35b610478611627565b60405161048591906143ea565b60405180910390f35b61049661162d565b6040516104a391906143ea565b60405180910390f35b6104b4611633565b6040516104c191906143ea565b60405180910390f35b6104e460048036038101906104df9190613d12565b611639565b6040516104f191906143ea565b60405180910390f35b610514600480360381019061050f9190613edb565b611682565b6040516105229291906141ef565b60405180910390f35b61054560048036038101906105409190613f17565b6116cd565b60405161055291906143ea565b60405180910390f35b61057560048036038101906105709190613eb2565b6116e6565b60405161058594939291906144ab565b60405180910390f35b6105a860048036038101906105a39190613e02565b6117be565b005b6105c460048036038101906105bf9190613d12565b6117cf565b6040516105d292919061423a565b60405180910390f35b6105f560048036038101906105f09190613dc6565b61189b565b60405161060291906141d4565b60405180910390f35b61062560048036038101906106209190613eb2565b611a35565b604051610636959493929190614458565b60405180910390f35b61065960048036038101906106549190613d3b565b611a8b565b60405161066691906143ea565b60405180910390f35b610677611b12565b60405161068491906143ea565b60405180910390f35b6106a760048036038101906106a29190613eb2565b611b17565b005b6106c360048036038101906106be9190613d12565b611d4d565b6040516106d192919061423a565b60405180910390f35b6106f460048036038101906106ef9190613eb2565b611e19565b60405161070191906143ea565b60405180910390f35b610712611e30565b60405161071f91906143ea565b60405180910390f35b610742600480360381019061073d9190613eb2565b611e36565b005b61075e60048036038101906107599190613eb2565b612063565b005b6000338280600f60008473ffffffffffffffffffffffffffffffffffffffff1673ffffffffffffffffffffffffffffffffffffffff1681526020019081526020016000205410156107dd576040517f47108e3e00000000000000000000000000000000000000000000000000000000815260040160405180910390fd5b83601060003373ffffffffffffffffffffffffffffffffffffffff1673ffffffffffffffffffffffffffffffffffffffff16815260200190815260200160002060008773ffffffffffffffffffffffffffffffffffffffff1673ffffffffffffffffffffffffffffffffffffffff168152602001908152602001600020819055508473ffffffffffffffffffffffffffffffffffffffff163373ffffffffffffffffffffffffffffffffffffffff167f8c5be1e5ebec7d5bd14f71427d1e84f3dd0314c0f7b2291e5b200ac8c7c3b925866040516108bb91906143ea565b60405180910390a360019250505092915050565b6108d881612456565b50565b6108e683838361275f565b506005600f6000600760009054906101000a900473ffffffffffffffffffffffffffffffffffffffff1673ffffffffffffffffffffffffffffffffffffffff1673ffffffffffffffffffffffffffffffffffffffff168152602001908152602001600020541015610983576040517f47108e3e00000000000000000000000000000000000000000000000000000000815260040160405180910390fd5b6005600f60008373ffffffffffffffffffffffffffffffffffffffff1673ffffffffffffffffffffffffffffffffffffffff16815260200190815260200160002060008282546109d39190614539565b925050819055506005600f6000600760009054906101000a900473ffffffffffffffffffffffffffffffffffffffff1673ffffffffffffffffffffffffffffffffffffffff1673ffffffffffffffffffffffffffffffffffffffff1681526020019081526020016000206000828254610a4c919061458f565b92505081905550505050565b60036020528160005260406000208181548110610a7457600080fd5b906000526020600020016000915091509054906101000a900473ffffffffffffffffffffffffffffffffffffffff1681565b6000600d54905090565b600c8054610abd9061467f565b80601f0160208091040260200160405190810160405280929190818152602001828054610ae99061467f565b8015610b365780601f10610b0b57610100808354040283529160200191610b36565b820191906000526020600020905b815481529060010190602001808311610b1957829003601f168201915b505050505081565b6000838280600f60008473ffffffffffffffffffffffffffffffffffffffff1673ffffffffffffffffffffffffffffffffffffffff168152602001908152602001600020541015610bbb576040517f47108e3e00000000000000000000000000000000000000000000000000000000815260040160405180910390fd5b83601060008873ffffffffffffffffffffffffffffffffffffffff1673ffffffffffffffffffffffffffffffffffffffff16815260200190815260200160002060003373ffffffffffffffffffffffffffffffffffffffff1673ffffffffffffffffffffffffffffffffffffffff168152602001908152602001600020541015610c71576040517f47108e3e00000000000000000000000000000000000000000000000000000000815260040160405180910390fd5b83601060008873ffffffffffffffffffffffffffffffffffffffff1673ffffffffffffffffffffffffffffffffffffffff16815260200190815260200160002060003373ffffffffffffffffffffffffffffffffffffffff1673ffffffffffffffffffffffffffffffffffffffff1681526020019081526020016000206000828254610cfd919061458f565b9250508190555083600f60008873ffffffffffffffffffffffffffffffffffffffff1673ffffffffffffffffffffffffffffffffffffffff1681526020019081526020016000206000828254610d53919061458f565b9250508190555083600f60008773ffffffffffffffffffffffffffffffffffffffff1673ffffffffffffffffffffffffffffffffffffffff1681526020019081526020016000206000828254610da99190614539565b925050819055508473ffffffffffffffffffffffffffffffffffffffff168673ffffffffffffffffffffffffffffffffffffffff167fddf252ad1be2c89b69c2b068fc378daa952ba7f163c4a11628f55a4df523b3ef86604051610e0d91906143ea565b60405180910390a36001925050509392505050565b600f6020528060005260406000206000915090505481565b600e60009054906101000a900460ff1681565b600073ffffffffffffffffffffffffffffffffffffffff16600160003373ffffffffffffffffffffffffffffffffffffffff1673ffffffffffffffffffffffffffffffffffffffff16815260200190815260200160002060010160009054906101000a900473ffffffffffffffffffffffffffffffffffffffff1673ffffffffffffffffffffffffffffffffffffffff161415610f16576040517faca864be00000000000000000000000000000000000000000000000000000000815260040160405180910390fd5b600073ffffffffffffffffffffffffffffffffffffffff166002600083815260200190815260200160002060030160009054906101000a900473ffffffffffffffffffffffffffffffffffffffff1673ffffffffffffffffffffffffffffffffffffffff161415610fb3576040517fb34eb68500000000000000000000000000000000000000000000000000000000815260040160405180910390fd5b60006002600083815260200190815260200160002090508060020154600f60003373ffffffffffffffffffffffffffffffffffffffff1673ffffffffffffffffffffffffffffffffffffffff168152602001908152602001600020541015611047576040517f47108e3e00000000000000000000000000000000000000000000000000000000815260040160405180910390fd5b8060020154600f60003373ffffffffffffffffffffffffffffffffffffffff1673ffffffffffffffffffffffffffffffffffffffff168152602001908152602001600020600082825461109a919061458f565b925050819055508060020154600f60008360030160009054906101000a900473ffffffffffffffffffffffffffffffffffffffff1673ffffffffffffffffffffffffffffffffffffffff1673ffffffffffffffffffffffffffffffffffffffff16815260200190815260200160002060008282546111189190614539565b925050819055506111293383612c39565b505050565b600073ffffffffffffffffffffffffffffffffffffffff166004600083815260200190815260200160002060010160009054906101000a900473ffffffffffffffffffffffffffffffffffffffff1673ffffffffffffffffffffffffffffffffffffffff1614156111cb576040517f7b0d9c4100000000000000000000000000000000000000000000000000000000815260040160405180910390fd5b3373ffffffffffffffffffffffffffffffffffffffff166004600083815260200190815260200160002060010160009054906101000a900473ffffffffffffffffffffffffffffffffffffffff1673ffffffffffffffffffffffffffffffffffffffff1614611266576040517faca864be00000000000000000000000000000000000000000000000000000000815260040160405180910390fd5b600115156005600083815260200190815260200160002060008473ffffffffffffffffffffffffffffffffffffffff1673ffffffffffffffffffffffffffffffffffffffff16815260200190815260200160002060000160009054906101000a900460ff1615151461130d576040517f08c379a00000000000000000000000000000000000000000000000000000000081526004016113049061438a565b60405180910390fd5b600015156005600083815260200190815260200160002060008473ffffffffffffffffffffffffffffffffffffffff1673ffffffffffffffffffffffffffffffffffffffff16815260200190815260200160002060000160019054906101000a900460ff161515146113b4576040517f08c379a00000000000000000000000000000000000000000000000000000000081526004016113ab906143ca565b60405180910390fd5b60006004600083815260200190815260200160002090508060020154600f60008573ffffffffffffffffffffffffffffffffffffffff1673ffffffffffffffffffffffffffffffffffffffff168152602001908152602001600020600082825461141e9190614539565b925050819055508060020154600f6000600760009054906101000a900473ffffffffffffffffffffffffffffffffffffffff1673ffffffffffffffffffffffffffffffffffffffff1673ffffffffffffffffffffffffffffffffffffffff168152602001908152602001600020600082825461149a919061458f565b925050819055506114ab8383612cb9565b505050565b6000806114be858585612df1565b9050809150509392505050565b60066020528060005260406000206000915090508060000154908060010160009054906101000a900473ffffffffffffffffffffffffffffffffffffffff16908060020154908060030160009054906101000a900473ffffffffffffffffffffffffffffffffffffffff16908060030160149054906101000a900460ff16905085565b6010602052816000526040600020602052806000526040600020600091509150505481565b600760009054906101000a900473ffffffffffffffffffffffffffffffffffffffff1681565b600b80546115a69061467f565b80601f01602080910402602001604051908101604052809291908181526020018280546115d29061467f565b801561161f5780601f106115f45761010080835404028352916020019161161f565b820191906000526020600020905b81548152906001019060200180831161160257829003601f168201915b505050505081565b60095481565b60085481565b600a5481565b6000600f60008373ffffffffffffffffffffffffffffffffffffffff1673ffffffffffffffffffffffffffffffffffffffff168152602001908152602001600020549050919050565b6005602052816000526040600020602052806000526040600020600091509150508060000160009054906101000a900460ff16908060000160019054906101000a900460ff16905082565b6000806116da8484613049565b90508091505092915050565b600260205280600052604060002060009150905080600001549080600101805461170f9061467f565b80601f016020809104026020016040519081016040528092919081815260200182805461173b9061467f565b80156117885780601f1061175d57610100808354040283529160200191611788565b820191906000526020600020905b81548152906001019060200180831161176b57829003601f168201915b5050505050908060020154908060030160009054906101000a900473ffffffffffffffffffffffffffffffffffffffff16905084565b6117c9838383613238565b50505050565b60016020528060005260406000206000915090508060000180546117f29061467f565b80601f016020809104026020016040519081016040528092919081815260200182805461181e9061467f565b801561186b5780601f106118405761010080835404028352916020019161186b565b820191906000526020600020905b81548152906001019060200180831161184e57829003601f168201915b5050505050908060010160009054906101000a900473ffffffffffffffffffffffffffffffffffffffff16905082565b6000338280600f60008473ffffffffffffffffffffffffffffffffffffffff1673ffffffffffffffffffffffffffffffffffffffff168152602001908152602001600020541015611918576040517f47108e3e00000000000000000000000000000000000000000000000000000000815260040160405180910390fd5b83600f60003373ffffffffffffffffffffffffffffffffffffffff1673ffffffffffffffffffffffffffffffffffffffff1681526020019081526020016000206000828254611967919061458f565b9250508190555083600f60008773ffffffffffffffffffffffffffffffffffffffff1673ffffffffffffffffffffffffffffffffffffffff16815260200190815260200160002060008282546119bd9190614539565b925050819055508473ffffffffffffffffffffffffffffffffffffffff163373ffffffffffffffffffffffffffffffffffffffff167fddf252ad1be2c89b69c2b068fc378daa952ba7f163c4a11628f55a4df523b3ef86604051611a2191906143ea565b60405180910390a360019250505092915050565b60046020528060005260406000206000915090508060000154908060010160009054906101000a900473ffffffffffffffffffffffffffffffffffffffff16908060020154908060030154908060040154905085565b6000601060008473ffffffffffffffffffffffffffffffffffffffff1673ffffffffffffffffffffffffffffffffffffffff16815260200190815260200160002060008373ffffffffffffffffffffffffffffffffffffffff1673ffffffffffffffffffffffffffffffffffffffff16815260200190815260200160002054905092915050565b600581565b60006006600083815260200190815260200160002090503373ffffffffffffffffffffffffffffffffffffffff168160010160009054906101000a900473ffffffffffffffffffffffffffffffffffffffff1673ffffffffffffffffffffffffffffffffffffffff1614611bb7576040517faca864be00000000000000000000000000000000000000000000000000000000815260040160405180910390fd5b600073ffffffffffffffffffffffffffffffffffffffff168160030160009054906101000a900473ffffffffffffffffffffffffffffffffffffffff1673ffffffffffffffffffffffffffffffffffffffff161415611c4b576040517f08c379a0000000000000000000000000000000000000000000000000000000008152600401611c429061430a565b60405180910390fd5b8060020154600f6000600760009054906101000a900473ffffffffffffffffffffffffffffffffffffffff1673ffffffffffffffffffffffffffffffffffffffff1673ffffffffffffffffffffffffffffffffffffffff168152602001908152602001600020541015611cea576040517f47108e3e00000000000000000000000000000000000000000000000000000000815260040160405180910390fd5b611d3f600760009054906101000a900473ffffffffffffffffffffffffffffffffffffffff168260030160009054906101000a900473ffffffffffffffffffffffffffffffffffffffff168360020154610b3e565b50611d498261366f565b5050565b6000602052806000526040600020600091509050806000018054611d709061467f565b80601f0160208091040260200160405190810160405280929190818152602001828054611d9c9061467f565b8015611de95780601f10611dbe57610100808354040283529160200191611de9565b820191906000526020600020905b815481529060010190602001808311611dcc57829003601f168201915b5050505050908060010160009054906101000a900473ffffffffffffffffffffffffffffffffffffffff16905082565b600080611e25836136d7565b905080915050919050565b600d5481565b600760009054906101000a900473ffffffffffffffffffffffffffffffffffffffff1673ffffffffffffffffffffffffffffffffffffffff163373ffffffffffffffffffffffffffffffffffffffff1614611ebd576040517faca864be00000000000000000000000000000000000000000000000000000000815260040160405180910390fd5b6000600660008381526020019081526020016000209050600073ffffffffffffffffffffffffffffffffffffffff168160010160009054906101000a900473ffffffffffffffffffffffffffffffffffffffff1673ffffffffffffffffffffffffffffffffffffffff161415611f5f576040517fec203c4800000000000000000000000000000000000000000000000000000000815260040160405180910390fd5b60006002811115611f99577f4e487b7100000000000000000000000000000000000000000000000000000000600052602160045260246000fd5b8160030160149054906101000a900460ff166002811115611fe3577f4e487b7100000000000000000000000000000000000000000000000000000000600052602160045260246000fd5b14612023576040517f08c379a000000000000000000000000000000000000000000000000000000000815260040161201a9061428a565b60405180910390fd5b6120558160010160009054906101000a900473ffffffffffffffffffffffffffffffffffffffff168260020154610760565b5061205f826139a7565b5050565b600073ffffffffffffffffffffffffffffffffffffffff16600160003373ffffffffffffffffffffffffffffffffffffffff1673ffffffffffffffffffffffffffffffffffffffff16815260200190815260200160002060010160009054906101000a900473ffffffffffffffffffffffffffffffffffffffff1673ffffffffffffffffffffffffffffffffffffffff16141561212c576040517faca864be00000000000000000000000000000000000000000000000000000000815260040160405180910390fd5b600073ffffffffffffffffffffffffffffffffffffffff166004600083815260200190815260200160002060010160009054906101000a900473ffffffffffffffffffffffffffffffffffffffff1673ffffffffffffffffffffffffffffffffffffffff1614156121c9576040517f7b0d9c4100000000000000000000000000000000000000000000000000000000815260040160405180910390fd5b60006004600083815260200190815260200160002090508060020154600f60003373ffffffffffffffffffffffffffffffffffffffff1673ffffffffffffffffffffffffffffffffffffffff16815260200190815260200160002054101561225d576040517f47108e3e00000000000000000000000000000000000000000000000000000000815260040160405180910390fd5b600015156005600084815260200190815260200160002060003373ffffffffffffffffffffffffffffffffffffffff1673ffffffffffffffffffffffffffffffffffffffff16815260200190815260200160002060000160009054906101000a900460ff16151514612304576040517f08c379a00000000000000000000000000000000000000000000000000000000081526004016122fb9061436a565b60405180910390fd5b6004600083815260200190815260200160002060030154600460008481526020019081526020016000206004015410612372576040517f08c379a0000000000000000000000000000000000000000000000000000000008152600401612369906142ea565b60405180910390fd5b8060020154600f60003373ffffffffffffffffffffffffffffffffffffffff1673ffffffffffffffffffffffffffffffffffffffff16815260200190815260200160002060008282546123c5919061458f565b925050819055508060020154600f6000600760009054906101000a900473ffffffffffffffffffffffffffffffffffffffff1673ffffffffffffffffffffffffffffffffffffffff1673ffffffffffffffffffffffffffffffffffffffff16815260200190815260200160002060008282546124419190614539565b925050819055506124523383613a96565b5050565b600073ffffffffffffffffffffffffffffffffffffffff16600160003373ffffffffffffffffffffffffffffffffffffffff1673ffffffffffffffffffffffffffffffffffffffff16815260200190815260200160002060010160009054906101000a900473ffffffffffffffffffffffffffffffffffffffff1673ffffffffffffffffffffffffffffffffffffffff16141561251f576040517faca864be00000000000000000000000000000000000000000000000000000000815260040160405180910390fd5b6000600660008381526020019081526020016000209050600073ffffffffffffffffffffffffffffffffffffffff168160010160009054906101000a900473ffffffffffffffffffffffffffffffffffffffff1673ffffffffffffffffffffffffffffffffffffffff1614156125c1576040517fec203c4800000000000000000000000000000000000000000000000000000000815260040160405180910390fd5b600160028111156125fb577f4e487b7100000000000000000000000000000000000000000000000000000000600052602160045260246000fd5b8160030160149054906101000a900460ff166002811115612645577f4e487b7100000000000000000000000000000000000000000000000000000000600052602160045260246000fd5b14612685576040517f08c379a000000000000000000000000000000000000000000000000000000000815260040161267c9061432a565b60405180910390fd5b600073ffffffffffffffffffffffffffffffffffffffff168160030160009054906101000a900473ffffffffffffffffffffffffffffffffffffffff1673ffffffffffffffffffffffffffffffffffffffff1614612718576040517f08c379a000000000000000000000000000000000000000000000000000000000815260040161270f906142ca565b60405180910390fd5b338160030160006101000a81548173ffffffffffffffffffffffffffffffffffffffff021916908373ffffffffffffffffffffffffffffffffffffffff1602179055505050565b6000600760009054906101000a900473ffffffffffffffffffffffffffffffffffffffff1673ffffffffffffffffffffffffffffffffffffffff163373ffffffffffffffffffffffffffffffffffffffff16148061284b5750600073ffffffffffffffffffffffffffffffffffffffff166000803373ffffffffffffffffffffffffffffffffffffffff1673ffffffffffffffffffffffffffffffffffffffff16815260200190815260200160002060010160009054906101000a900473ffffffffffffffffffffffffffffffffffffffff1673ffffffffffffffffffffffffffffffffffffffff1614155b61288a576040517f08c379a00000000000000000000000000000000000000000000000000000000081526004016128819061434a565b60405180910390fd5b81600073ffffffffffffffffffffffffffffffffffffffff166000808373ffffffffffffffffffffffffffffffffffffffff1673ffffffffffffffffffffffffffffffffffffffff16815260200190815260200160002060010160009054906101000a900473ffffffffffffffffffffffffffffffffffffffff1673ffffffffffffffffffffffffffffffffffffffff161461295b576040517f08c379a0000000000000000000000000000000000000000000000000000000008152600401612952906142aa565b60405180910390fd5b600073ffffffffffffffffffffffffffffffffffffffff16600160008373ffffffffffffffffffffffffffffffffffffffff1673ffffffffffffffffffffffffffffffffffffffff16815260200190815260200160002060010160009054906101000a900473ffffffffffffffffffffffffffffffffffffffff1673ffffffffffffffffffffffffffffffffffffffff1614612a2c576040517f08c379a0000000000000000000000000000000000000000000000000000000008152600401612a23906143aa565b60405180910390fd5b600760009054906101000a900473ffffffffffffffffffffffffffffffffffffffff1673ffffffffffffffffffffffffffffffffffffffff168173ffffffffffffffffffffffffffffffffffffffff161415612abd576040517f08c379a0000000000000000000000000000000000000000000000000000000008152600401612ab49061426a565b60405180910390fd5b604051806040016040528086868080601f016020809104026020016040519081016040528093929190818152602001838380828437600081840152601f19601f8201169050808301925050505050505081526020018473ffffffffffffffffffffffffffffffffffffffff16815250600160008573ffffffffffffffffffffffffffffffffffffffff1673ffffffffffffffffffffffffffffffffffffffff1681526020019081526020016000206000820151816000019080519060200190612b87929190613bfb565b5060208201518160010160006101000a81548173ffffffffffffffffffffffffffffffffffffffff021916908373ffffffffffffffffffffffffffffffffffffffff1602179055509050508273ffffffffffffffffffffffffffffffffffffffff168585604051612bf99291906141a0565b60405180910390207f3eb9ae1db4c1e4ee72b0a46d8d264f4d15ac0bd52eae6d8c9ea01975e2bca48160405160405180910390a360019150509392505050565b600060036000838152602001908152602001600020839080600181540180825580915050600190039060005260206000200160009091909190916101000a81548173ffffffffffffffffffffffffffffffffffffffff021916908373ffffffffffffffffffffffffffffffffffffffff1602179055506001905092915050565b600073ffffffffffffffffffffffffffffffffffffffff166000803373ffffffffffffffffffffffffffffffffffffffff1673ffffffffffffffffffffffffffffffffffffffff16815260200190815260200160002060010160009054906101000a900473ffffffffffffffffffffffffffffffffffffffff1673ffffffffffffffffffffffffffffffffffffffff161415612d81576040517faca864be00000000000000000000000000000000000000000000000000000000815260040160405180910390fd5b60016005600083815260200190815260200160002060008473ffffffffffffffffffffffffffffffffffffffff1673ffffffffffffffffffffffffffffffffffffffff16815260200190815260200160002060000160016101000a81548160ff0219169083151502179055505050565b60008073ffffffffffffffffffffffffffffffffffffffff166000803373ffffffffffffffffffffffffffffffffffffffff1673ffffffffffffffffffffffffffffffffffffffff16815260200190815260200160002060010160009054906101000a900473ffffffffffffffffffffffffffffffffffffffff1673ffffffffffffffffffffffffffffffffffffffff161415612eba576040517faca864be00000000000000000000000000000000000000000000000000000000815260040160405180910390fd5b60006008549050604051806080016040528082815260200186868080601f016020809104026020016040519081016040528093929190818152602001838380828437600081840152601f19601f8201169050808301925050505050505081526020018481526020013373ffffffffffffffffffffffffffffffffffffffff1681525060026000838152602001908152602001600020600082015181600001556020820151816001019080519060200190612f75929190613bfb565b506040820151816002015560608201518160030160006101000a81548173ffffffffffffffffffffffffffffffffffffffff021916908373ffffffffffffffffffffffffffffffffffffffff1602179055509050508484604051612fda9291906141a0565b6040518091039020813373ffffffffffffffffffffffffffffffffffffffff167fc554af40412eb958ce7250b87bdcc1fa1f9a83b937bcefded5dfc67fc8c89a1f60405160405180910390a460086000815480929190613039906146b1565b9190505550809150509392505050565b60008073ffffffffffffffffffffffffffffffffffffffff166000803373ffffffffffffffffffffffffffffffffffffffff1673ffffffffffffffffffffffffffffffffffffffff16815260200190815260200160002060010160009054906101000a900473ffffffffffffffffffffffffffffffffffffffff1673ffffffffffffffffffffffffffffffffffffffff161415613112576040517faca864be00000000000000000000000000000000000000000000000000000000815260040160405180910390fd5b600060095490506040518060a001604052808281526020013373ffffffffffffffffffffffffffffffffffffffff1681526020018581526020018481526020016000815250600460008381526020019081526020016000206000820151816000015560208201518160010160006101000a81548173ffffffffffffffffffffffffffffffffffffffff021916908373ffffffffffffffffffffffffffffffffffffffff160217905550604082015181600201556060820151816003015560808201518160040155905050803373ffffffffffffffffffffffffffffffffffffffff167f253dd3f4af0486d2007557007bbe654e8b03e933659fe2f233a584178f7079f960405160405180910390a3808061322b906146b1565b9150508091505092915050565b6000600760009054906101000a900473ffffffffffffffffffffffffffffffffffffffff1673ffffffffffffffffffffffffffffffffffffffff163373ffffffffffffffffffffffffffffffffffffffff16146132c1576040517faca864be00000000000000000000000000000000000000000000000000000000815260040160405180910390fd5b81600073ffffffffffffffffffffffffffffffffffffffff166000808373ffffffffffffffffffffffffffffffffffffffff1673ffffffffffffffffffffffffffffffffffffffff16815260200190815260200160002060010160009054906101000a900473ffffffffffffffffffffffffffffffffffffffff1673ffffffffffffffffffffffffffffffffffffffff1614613392576040517f08c379a0000000000000000000000000000000000000000000000000000000008152600401613389906142aa565b60405180910390fd5b600073ffffffffffffffffffffffffffffffffffffffff16600160008373ffffffffffffffffffffffffffffffffffffffff1673ffffffffffffffffffffffffffffffffffffffff16815260200190815260200160002060010160009054906101000a900473ffffffffffffffffffffffffffffffffffffffff1673ffffffffffffffffffffffffffffffffffffffff1614613463576040517f08c379a000000000000000000000000000000000000000000000000000000000815260040161345a906143aa565b60405180910390fd5b600760009054906101000a900473ffffffffffffffffffffffffffffffffffffffff1673ffffffffffffffffffffffffffffffffffffffff168173ffffffffffffffffffffffffffffffffffffffff1614156134f4576040517f08c379a00000000000000000000000000000000000000000000000000000000081526004016134eb9061426a565b60405180910390fd5b604051806040016040528086868080601f016020809104026020016040519081016040528093929190818152602001838380828437600081840152601f19601f8201169050808301925050505050505081526020018473ffffffffffffffffffffffffffffffffffffffff168152506000808573ffffffffffffffffffffffffffffffffffffffff1673ffffffffffffffffffffffffffffffffffffffff16815260200190815260200160002060008201518160000190805190602001906135bd929190613bfb565b5060208201518160010160006101000a81548173ffffffffffffffffffffffffffffffffffffffff021916908373ffffffffffffffffffffffffffffffffffffffff1602179055509050508273ffffffffffffffffffffffffffffffffffffffff16858560405161362f9291906141a0565b60405180910390207feef6791cc176c62cf1998656a1d10ffa809f554fe4f085891e24e962abb1ab7660405160405180910390a360019150509392505050565b60026006600083815260200190815260200160002060030160146101000a81548160ff021916908360028111156136cf577f4e487b7100000000000000000000000000000000000000000000000000000000600052602160045260246000fd5b021790555050565b60008073ffffffffffffffffffffffffffffffffffffffff166000803373ffffffffffffffffffffffffffffffffffffffff1673ffffffffffffffffffffffffffffffffffffffff16815260200190815260200160002060010160009054906101000a900473ffffffffffffffffffffffffffffffffffffffff1673ffffffffffffffffffffffffffffffffffffffff1614156137a0576040517faca864be00000000000000000000000000000000000000000000000000000000815260040160405180910390fd5b6000600a5490506040518060a001604052808281526020013373ffffffffffffffffffffffffffffffffffffffff168152602001848152602001600073ffffffffffffffffffffffffffffffffffffffff16815260200160006002811115613831577f4e487b7100000000000000000000000000000000000000000000000000000000600052602160045260246000fd5b815250600660008381526020019081526020016000206000820151816000015560208201518160010160006101000a81548173ffffffffffffffffffffffffffffffffffffffff021916908373ffffffffffffffffffffffffffffffffffffffff1602179055506040820151816002015560608201518160030160006101000a81548173ffffffffffffffffffffffffffffffffffffffff021916908373ffffffffffffffffffffffffffffffffffffffff16021790555060808201518160030160146101000a81548160ff0219169083600281111561393a577f4e487b7100000000000000000000000000000000000000000000000000000000600052602160045260246000fd5b0217905550905050803373ffffffffffffffffffffffffffffffffffffffff167f511012b645823f32603c9e08b605492e787c9ea3913c21c20f2bf44624af428160405160405180910390a3600a6000815480929190613999906146b1565b919050555080915050919050565b600760009054906101000a900473ffffffffffffffffffffffffffffffffffffffff1673ffffffffffffffffffffffffffffffffffffffff163373ffffffffffffffffffffffffffffffffffffffff1614613a2e576040517faca864be00000000000000000000000000000000000000000000000000000000815260040160405180910390fd5b60016006600083815260200190815260200160002060030160146101000a81548160ff02191690836002811115613a8e577f4e487b7100000000000000000000000000000000000000000000000000000000600052602160045260246000fd5b021790555050565b600073ffffffffffffffffffffffffffffffffffffffff16600160003373ffffffffffffffffffffffffffffffffffffffff1673ffffffffffffffffffffffffffffffffffffffff16815260200190815260200160002060010160009054906101000a900473ffffffffffffffffffffffffffffffffffffffff1673ffffffffffffffffffffffffffffffffffffffff161415613b5f576040517faca864be00000000000000000000000000000000000000000000000000000000815260040160405180910390fd5b600460008281526020019081526020016000206004016000815480929190613b86906146b1565b919050555060016005600083815260200190815260200160002060008473ffffffffffffffffffffffffffffffffffffffff1673ffffffffffffffffffffffffffffffffffffffff16815260200190815260200160002060000160006101000a81548160ff0219169083151502179055505050565b828054613c079061467f565b90600052602060002090601f016020900481019282613c295760008555613c70565b82601f10613c4257805160ff1916838001178555613c70565b82800160010185558215613c70579182015b82811115613c6f578251825591602001919060010190613c54565b5b509050613c7d9190613c81565b5090565b5b80821115613c9a576000816000905550600101613c82565b5090565b600081359050613cad816149e4565b92915050565b60008083601f840112613cc557600080fd5b8235905067ffffffffffffffff811115613cde57600080fd5b602083019150836001820283011115613cf657600080fd5b9250929050565b600081359050613d0c816149fb565b92915050565b600060208284031215613d2457600080fd5b6000613d3284828501613c9e565b91505092915050565b60008060408385031215613d4e57600080fd5b6000613d5c85828601613c9e565b9250506020613d6d85828601613c9e565b9150509250929050565b600080600060608486031215613d8c57600080fd5b6000613d9a86828701613c9e565b9350506020613dab86828701613c9e565b9250506040613dbc86828701613cfd565b9150509250925092565b60008060408385031215613dd957600080fd5b6000613de785828601613c9e565b9250506020613df885828601613cfd565b9150509250929050565b600080600060408486031215613e1757600080fd5b600084013567ffffffffffffffff811115613e3157600080fd5b613e3d86828701613cb3565b93509350506020613e5086828701613c9e565b9150509250925092565b600080600060408486031215613e6f57600080fd5b600084013567ffffffffffffffff811115613e8957600080fd5b613e9586828701613cb3565b93509350506020613ea886828701613cfd565b9150509250925092565b600060208284031215613ec457600080fd5b6000613ed284828501613cfd565b91505092915050565b60008060408385031215613eee57600080fd5b6000613efc85828601613cfd565b9250506020613f0d85828601613c9e565b9150509250929050565b60008060408385031215613f2a57600080fd5b6000613f3885828601613cfd565b9250506020613f4985828601613cfd565b9150509250929050565b613f5c816145c3565b82525050565b613f6b816145d5565b82525050565b613f7a8161462b565b82525050565b6000613f8c838561452e565b9350613f9983858461463d565b82840190509392505050565b6000613fb082614512565b613fba818561451d565b9350613fca81856020860161464c565b613fd381614787565b840191505092915050565b6000613feb60238361451d565b9150613ff682614798565b604082019050919050565b600061400e601b8361451d565b9150614019826147e7565b602082019050919050565b600061403160208361451d565b915061403c82614810565b602082019050919050565b600061405460108361451d565b915061405f82614839565b602082019050919050565b600061407760108361451d565b915061408282614862565b602082019050919050565b600061409a60188361451d565b91506140a58261488b565b602082019050919050565b60006140bd60108361451d565b91506140c8826148b4565b602082019050919050565b60006140e060288361451d565b91506140eb826148dd565b604082019050919050565b600061410360118361451d565b915061410e8261492c565b602082019050919050565b6000614126600f8361451d565b915061413182614955565b602082019050919050565b600061414960208361451d565b91506141548261497e565b602082019050919050565b600061416c60198361451d565b9150614177826149a7565b602082019050919050565b61418b81614614565b82525050565b61419a8161461e565b82525050565b60006141ad828486613f80565b91508190509392505050565b60006020820190506141ce6000830184613f53565b92915050565b60006020820190506141e96000830184613f62565b92915050565b60006040820190506142046000830185613f62565b6142116020830184613f62565b9392505050565b600060208201905081810360008301526142328184613fa5565b905092915050565b600060408201905081810360008301526142548185613fa5565b90506142636020830184613f53565b9392505050565b6000602082019050818103600083015261428381613fde565b9050919050565b600060208201905081810360008301526142a381614001565b9050919050565b600060208201905081810360008301526142c381614024565b9050919050565b600060208201905081810360008301526142e381614047565b9050919050565b600060208201905081810360008301526143038161406a565b9050919050565b600060208201905081810360008301526143238161408d565b9050919050565b60006020820190508181036000830152614343816140b0565b9050919050565b60006020820190508181036000830152614363816140d3565b9050919050565b60006020820190508181036000830152614383816140f6565b9050919050565b600060208201905081810360008301526143a381614119565b9050919050565b600060208201905081810360008301526143c38161413c565b9050919050565b600060208201905081810360008301526143e38161415f565b9050919050565b60006020820190506143ff6000830184614182565b92915050565b600060a08201905061441a6000830188614182565b6144276020830187613f53565b6144346040830186614182565b6144416060830185613f53565b61444e6080830184613f71565b9695505050505050565b600060a08201905061446d6000830188614182565b61447a6020830187613f53565b6144876040830186614182565b6144946060830185614182565b6144a16080830184614182565b9695505050505050565b60006080820190506144c06000830187614182565b81810360208301526144d28186613fa5565b90506144e16040830185614182565b6144ee6060830184613f53565b95945050505050565b600060208201905061450c6000830184614191565b92915050565b600081519050919050565b600082825260208201905092915050565b600081905092915050565b600061454482614614565b915061454f83614614565b9250827fffffffffffffffffffffffffffffffffffffffffffffffffffffffffffffffff03821115614584576145836146fa565b5b828201905092915050565b600061459a82614614565b91506145a583614614565b9250828210156145b8576145b76146fa565b5b828203905092915050565b60006145ce826145f4565b9050919050565b60008115159050919050565b60008190506145ef826149d0565b919050565b600073ffffffffffffffffffffffffffffffffffffffff82169050919050565b6000819050919050565b600060ff82169050919050565b6000614636826145e1565b9050919050565b82818337600083830152505050565b60005b8381101561466a57808201518184015260208101905061464f565b83811115614679576000848401525b50505050565b6000600282049050600182168061469757607f821691505b602082108114156146ab576146aa614758565b5b50919050565b60006146bc82614614565b91507fffffffffffffffffffffffffffffffffffffffffffffffffffffffffffffffff8214156146ef576146ee6146fa565b5b600182019050919050565b7f4e487b7100000000000000000000000000000000000000000000000000000000600052601160045260246000fd5b7f4e487b7100000000000000000000000000000000000000000000000000000000600052602160045260246000fd5b7f4e487b7100000000000000000000000000000000000000000000000000000000600052602260045260246000fd5b6000601f19601f8301169050919050565b7f77616c6c6574206173736f63696174656420776974682074686520747265617360008201527f7572790000000000000000000000000000000000000000000000000000000000602082015250565b7f61737369676e6d656e7420616c726561647920617070726f7665640000000000600082015250565b7f77616c6c6574206173736f636961746564207769746820612074656163686572600082015250565b7f616c72656164792074616b656e20757000000000000000000000000000000000600082015250565b7f6d6178696d756d20636170616369747900000000000000000000000000000000600082015250565b7f6e6f207061727469636970616e74207369676e65642075700000000000000000600082015250565b7f6e6f7420617070726f7665642079657400000000000000000000000000000000600082015250565b7f6f6e6c79207465616368657273206f722074686520747265617375727920636160008201527f6e20616363657373000000000000000000000000000000000000000000000000602082015250565b7f616c7265616479207369676e6564207570000000000000000000000000000000600082015250565b7f646964206e6f74207369676e2075700000000000000000000000000000000000600082015250565b7f77616c6c6574206173736f636961746564207769746820612073747564656e74600082015250565b7f617474656e64616e636520616c7265616479206d61726b656400000000000000600082015250565b600381106149e1576149e0614729565b5b50565b6149ed816145c3565b81146149f857600080fd5b50565b614a0481614614565b8114614a0f57600080fd5b5056fea26469706673582212206b6d0f581de45458ee2eba212ae41b164abcb0aa4f9855ae73c879f1fa2eb17464736f6c63430008040033",
  "linkReferences": {},
  "deployedLinkReferences": {}
}