{
  "_format": "hh-sol-artifact-1",
  "contractName": "ERC20Token",
  "sourceName": "contracts/ERC20.sol",
  "abi": [
    {
      "inputs": [
        {
          "internalType": "string",
          "name": "_tokenName",
          "type": "string"
        },
        {
          "internalType": "string",
          "name": "_tickerSymbol",
          "type": "string"
        },
        {
          "internalType": "uint256",
          "name": "_tokenTotalSupply",
          "type": "uint256"
        },
        {
          "internalType": "uint8",
          "name": "_decimals",
          "type": "uint8"
        }
      ],
      "stateMutability": "nonpayable",
      "type": "constructor"
    },
    {
      "anonymous": false,
      "inputs": [
        {
          "indexed": true,
          "internalType": "address",
          "name": "owner",
          "type": "address"
        },
        {
          "indexed": true,
          "internalType": "address",
          "name": "spender",
          "type": "address"
        },
        {
          "indexed": false,
          "internalType": "uint256",
          "name": "value",
          "type": "uint256"
        }
      ],
      "name": "Approval",
      "type": "event"
    },
    {
      "anonymous": false,
      "inputs": [
        {
          "indexed": true,
          "internalType": "address",
          "name": "teacher",
          "type": "address"
        },
        {
          "indexed": true,
          "internalType": "uint256",
          "name": "assignmentId",
          "type": "uint256"
        }
      ],
      "name": "AssignmentCreated",
      "type": "event"
    },
    {
      "anonymous": false,
      "inputs": [
        {
          "indexed": true,
          "internalType": "address",
          "name": "teacher",
          "type": "address"
        },
        {
          "indexed": true,
          "internalType": "uint256",
          "name": "classId",
          "type": "uint256"
        },
        {
          "indexed": true,
          "internalType": "string",
          "name": "className",
          "type": "string"
        }
      ],
      "name": "ClassCreated",
      "type": "event"
    },
    {
      "anonymous": false,
      "inputs": [
        {
          "indexed": true,
          "internalType": "address",
          "name": "teacher",
          "type": "address"
        },
        {
          "indexed": true,
          "internalType": "uint256",
          "name": "consultId",
          "type": "uint256"
        }
      ],
      "name": "ConsultCreated",
      "type": "event"
    },
    {
      "anonymous": false,
      "inputs": [
        {
          "indexed": true,
          "internalType": "string",
          "name": "name",
          "type": "string"
        },
        {
          "indexed": true,
          "internalType": "address",
          "name": "wallet",
          "type": "address"
        }
      ],
      "name": "StudentAdded",
      "type": "event"
    },
    {
      "anonymous": false,
      "inputs": [
        {
          "indexed": true,
          "internalType": "string",
          "name": "name",
          "type": "string"
        },
        {
          "indexed": true,
          "internalType": "address",
          "name": "wallet",
          "type": "address"
        }
      ],
      "name": "TeacherAdded",
      "type": "event"
    },
    {
      "anonymous": false,
      "inputs": [
        {
          "indexed": true,
          "internalType": "address",
          "name": "from",
          "type": "address"
        },
        {
          "indexed": true,
          "internalType": "address",
          "name": "to",
          "type": "address"
        },
        {
          "indexed": false,
          "internalType": "uint256",
          "name": "value",
          "type": "uint256"
        }
      ],
      "name": "Transfer",
      "type": "event"
    },
    {
      "inputs": [],
      "name": "STARTINGAMOUNT",
      "outputs": [
        {
          "internalType": "uint256",
          "name": "",
          "type": "uint256"
        }
      ],
      "stateMutability": "view",
      "type": "function"
    },
    {
      "inputs": [
        {
          "internalType": "string",
          "name": "name",
          "type": "string"
        },
        {
          "internalType": "address",
          "name": "wallet",
          "type": "address"
        }
      ],
      "name": "addStudent",
      "outputs": [],
      "stateMutability": "nonpayable",
      "type": "function"
    },
    {
      "inputs": [
        {
          "internalType": "string",
          "name": "name",
          "type": "string"
        },
        {
          "internalType": "address",
          "name": "wallet",
          "type": "address"
        }
      ],
      "name": "addTeacher",
      "outputs": [],
      "stateMutability": "nonpayable",
      "type": "function"
    },
    {
      "inputs": [
        {
          "internalType": "address",
          "name": "owner",
          "type": "address"
        },
        {
          "internalType": "address",
          "name": "spender",
          "type": "address"
        }
      ],
      "name": "allowance",
      "outputs": [
        {
          "internalType": "uint256",
          "name": "",
          "type": "uint256"
        }
      ],
      "stateMutability": "view",
      "type": "function"
    },
    {
      "inputs": [
        {
          "internalType": "address",
          "name": "",
          "type": "address"
        },
        {
          "internalType": "address",
          "name": "",
          "type": "address"
        }
      ],
      "name": "allowed",
      "outputs": [
        {
          "internalType": "uint256",
          "name": "",
          "type": "uint256"
        }
      ],
      "stateMutability": "view",
      "type": "function"
    },
    {
      "inputs": [
        {
          "internalType": "address",
          "name": "spender",
          "type": "address"
        },
        {
          "internalType": "uint256",
          "name": "amount",
          "type": "uint256"
        }
      ],
      "name": "approve",
      "outputs": [
        {
          "internalType": "bool",
          "name": "",
          "type": "bool"
        }
      ],
      "stateMutability": "nonpayable",
      "type": "function"
    },
    {
      "inputs": [
        {
          "internalType": "uint256",
          "name": "assignmentId",
          "type": "uint256"
        }
      ],
      "name": "approveAssignment",
      "outputs": [],
      "stateMutability": "nonpayable",
      "type": "function"
    },
    {
      "inputs": [
        {
          "internalType": "uint256",
          "name": "",
          "type": "uint256"
        }
      ],
      "name": "assignments",
      "outputs": [
        {
          "internalType": "uint256",
          "name": "id",
          "type": "uint256"
        },
        {
          "internalType": "address",
          "name": "teacher",
          "type": "address"
        },
        {
          "internalType": "uint256",
          "name": "bounty",
          "type": "uint256"
        },
        {
          "internalType": "address",
          "name": "participant",
          "type": "address"
        },
        {
          "internalType": "enum Academy.AssignmentState",
          "name": "state",
          "type": "uint8"
        }
      ],
      "stateMutability": "view",
      "type": "function"
    },
    {
      "inputs": [
        {
          "internalType": "address",
          "name": "account",
          "type": "address"
        }
      ],
      "name": "balanceOf",
      "outputs": [
        {
          "internalType": "uint256",
          "name": "",
          "type": "uint256"
        }
      ],
      "stateMutability": "view",
      "type": "function"
    },
    {
      "inputs": [
        {
          "internalType": "address",
          "name": "",
          "type": "address"
        }
      ],
      "name": "balances",
      "outputs": [
        {
          "internalType": "uint256",
          "name": "",
          "type": "uint256"
        }
      ],
      "stateMutability": "view",
      "type": "function"
    },
    {
      "inputs": [
        {
          "internalType": "uint256",
          "name": "",
          "type": "uint256"
        },
        {
          "internalType": "uint256",
          "name": "",
          "type": "uint256"
        }
      ],
      "name": "classAttendance",
      "outputs": [
        {
          "internalType": "address",
          "name": "",
          "type": "address"
        }
      ],
      "stateMutability": "view",
      "type": "function"
    },
    {
      "inputs": [
        {
          "internalType": "uint256",
          "name": "",
          "type": "uint256"
        }
      ],
      "name": "classes",
      "outputs": [
        {
          "internalType": "uint256",
          "name": "id",
          "type": "uint256"
        },
        {
          "internalType": "string",
          "name": "name",
          "type": "string"
        },
        {
          "internalType": "uint256",
          "name": "cost",
          "type": "uint256"
        },
        {
          "internalType": "address",
          "name": "teacher",
          "type": "address"
        }
      ],
      "stateMutability": "view",
      "type": "function"
    },
    {
      "inputs": [
        {
          "internalType": "uint256",
          "name": "",
          "type": "uint256"
        },
        {
          "internalType": "address",
          "name": "",
          "type": "address"
        }
      ],
      "name": "consultAttendanceList",
      "outputs": [
        {
          "internalType": "bool",
          "name": "signedUp",
          "type": "bool"
        },
        {
          "internalType": "bool",
          "name": "attended",
          "type": "bool"
        }
      ],
      "stateMutability": "view",
      "type": "function"
    },
    {
      "inputs": [
        {
          "internalType": "uint256",
          "name": "",
          "type": "uint256"
        }
      ],
      "name": "consults",
      "outputs": [
        {
          "internalType": "uint256",
          "name": "id",
          "type": "uint256"
        },
        {
          "internalType": "address",
          "name": "teacher",
          "type": "address"
        },
        {
          "internalType": "uint256",
          "name": "stake",
          "type": "uint256"
        },
        {
          "internalType": "uint256",
          "name": "capacity",
          "type": "uint256"
        },
        {
          "internalType": "uint256",
          "name": "currentPax",
          "type": "uint256"
        }
      ],
      "stateMutability": "view",
      "type": "function"
    },
    {
      "inputs": [
        {
          "internalType": "uint256",
          "name": "bounty",
          "type": "uint256"
        }
      ],
      "name": "createAssignment",
      "outputs": [
        {
          "internalType": "uint256",
          "name": "",
          "type": "uint256"
        }
      ],
      "stateMutability": "nonpayable",
      "type": "function"
    },
    {
      "inputs": [
        {
          "internalType": "string",
          "name": "name",
          "type": "string"
        },
        {
          "internalType": "uint256",
          "name": "cost",
          "type": "uint256"
        }
      ],
      "name": "createClass",
      "outputs": [
        {
          "internalType": "uint256",
          "name": "",
          "type": "uint256"
        }
      ],
      "stateMutability": "nonpayable",
      "type": "function"
    },
    {
      "inputs": [
        {
          "internalType": "uint256",
          "name": "stake",
          "type": "uint256"
        },
        {
          "internalType": "uint256",
          "name": "capacity",
          "type": "uint256"
        }
      ],
      "name": "createConsult",
      "outputs": [
        {
          "internalType": "uint256",
          "name": "",
          "type": "uint256"
        }
      ],
      "stateMutability": "nonpayable",
      "type": "function"
    },
    {
      "inputs": [],
      "name": "decimals",
      "outputs": [
        {
          "internalType": "uint8",
          "name": "",
          "type": "uint8"
        }
      ],
      "stateMutability": "view",
      "type": "function"
    },
    {
      "inputs": [
        {
          "internalType": "address",
          "name": "wallet",
          "type": "address"
        },
        {
          "internalType": "uint256",
          "name": "consultId",
          "type": "uint256"
        }
      ],
      "name": "markConsultAttendance",
      "outputs": [],
      "stateMutability": "nonpayable",
      "type": "function"
    },
    {
      "inputs": [],
      "name": "nextAssignmentId",
      "outputs": [
        {
          "internalType": "uint256",
          "name": "",
          "type": "uint256"
        }
      ],
      "stateMutability": "view",
      "type": "function"
    },
    {
      "inputs": [],
      "name": "nextClassId",
      "outputs": [
        {
          "internalType": "uint256",
          "name": "",
          "type": "uint256"
        }
      ],
      "stateMutability": "view",
      "type": "function"
    },
    {
      "inputs": [],
      "name": "nextConsultId",
      "outputs": [
        {
          "internalType": "uint256",
          "name": "",
          "type": "uint256"
        }
      ],
      "stateMutability": "view",
      "type": "function"
    },
    {
      "inputs": [
        {
          "internalType": "uint256",
          "name": "assignmentId",
          "type": "uint256"
        }
      ],
      "name": "payOutAssignment",
      "outputs": [],
      "stateMutability": "nonpayable",
      "type": "function"
    },
    {
      "inputs": [
        {
          "internalType": "uint256",
          "name": "assignmentId",
          "type": "uint256"
        }
      ],
      "name": "signUpForAssignment",
      "outputs": [],
      "stateMutability": "nonpayable",
      "type": "function"
    },
    {
      "inputs": [
        {
          "internalType": "uint256",
          "name": "classId",
          "type": "uint256"
        }
      ],
      "name": "signUpForClass",
      "outputs": [],
      "stateMutability": "nonpayable",
      "type": "function"
    },
    {
      "inputs": [
        {
          "internalType": "uint256",
          "name": "consultId",
          "type": "uint256"
        }
      ],
      "name": "signUpForConsult",
      "outputs": [],
      "stateMutability": "nonpayable",
      "type": "function"
    },
    {
      "inputs": [
        {
          "internalType": "address",
          "name": "",
          "type": "address"
        }
      ],
      "name": "students",
      "outputs": [
        {
          "internalType": "string",
          "name": "name",
          "type": "string"
        },
        {
          "internalType": "address",
          "name": "wallet",
          "type": "address"
        }
      ],
      "stateMutability": "view",
      "type": "function"
    },
    {
      "inputs": [
        {
          "internalType": "address",
          "name": "",
          "type": "address"
        }
      ],
      "name": "teachers",
      "outputs": [
        {
          "internalType": "string",
          "name": "name",
          "type": "string"
        },
        {
          "internalType": "address",
          "name": "wallet",
          "type": "address"
        }
      ],
      "stateMutability": "view",
      "type": "function"
    },
    {
      "inputs": [],
      "name": "tickerSymbol",
      "outputs": [
        {
          "internalType": "string",
          "name": "",
          "type": "string"
        }
      ],
      "stateMutability": "view",
      "type": "function"
    },
    {
      "inputs": [],
      "name": "tokenName",
      "outputs": [
        {
          "internalType": "string",
          "name": "",
          "type": "string"
        }
      ],
      "stateMutability": "view",
      "type": "function"
    },
    {
      "inputs": [],
      "name": "tokenTotalSupply",
      "outputs": [
        {
          "internalType": "uint256",
          "name": "",
          "type": "uint256"
        }
      ],
      "stateMutability": "view",
      "type": "function"
    },
    {
      "inputs": [],
      "name": "totalSupply",
      "outputs": [
        {
          "internalType": "uint256",
          "name": "",
          "type": "uint256"
        }
      ],
      "stateMutability": "view",
      "type": "function"
    },
    {
      "inputs": [
        {
          "internalType": "address",
          "name": "recipient",
          "type": "address"
        },
        {
          "internalType": "uint256",
          "name": "amount",
          "type": "uint256"
        }
      ],
      "name": "transfer",
      "outputs": [
        {
          "internalType": "bool",
          "name": "",
          "type": "bool"
        }
      ],
      "stateMutability": "nonpayable",
      "type": "function"
    },
    {
      "inputs": [
        {
          "internalType": "address",
          "name": "spender",
          "type": "address"
        },
        {
          "internalType": "address",
          "name": "recipient",
          "type": "address"
        },
        {
          "internalType": "uint256",
          "name": "amount",
          "type": "uint256"
        }
      ],
      "name": "transferFrom",
      "outputs": [
        {
          "internalType": "bool",
          "name": "",
          "type": "bool"
        }
      ],
      "stateMutability": "nonpayable",
      "type": "function"
    },
    {
      "inputs": [],
      "name": "treasury",
      "outputs": [
        {
          "internalType": "address",
          "name": "",
          "type": "address"
        }
      ],
      "stateMutability": "view",
      "type": "function"
    }
  ],
  "bytecode": "0x6080604052600160085560016009556001600a553480156200002057600080fd5b50604051620057aa380380620057aa833981810160405281019062000046919062000279565b33600760006101000a81548173ffffffffffffffffffffffffffffffffffffffff021916908373ffffffffffffffffffffffffffffffffffffffff16021790555083600b90805190602001906200009f92919062000129565b5082600c9080519060200190620000b892919062000129565b5081600d8190555080600e60006101000a81548160ff021916908360ff16021790555081600f60003373ffffffffffffffffffffffffffffffffffffffff1673ffffffffffffffffffffffffffffffffffffffff1681526020019081526020016000208190555050505050620004d2565b8280546200013790620003c3565b90600052602060002090601f0160209004810192826200015b5760008555620001a7565b82601f106200017657805160ff1916838001178555620001a7565b82800160010185558215620001a7579182015b82811115620001a657825182559160200191906001019062000189565b5b509050620001b69190620001ba565b5090565b5b80821115620001d5576000816000905550600101620001bb565b5090565b6000620001f0620001ea8462000340565b62000317565b9050828152602081018484840111156200020957600080fd5b620002168482856200038d565b509392505050565b600082601f8301126200023057600080fd5b815162000242848260208601620001d9565b91505092915050565b6000815190506200025c816200049e565b92915050565b6000815190506200027381620004b8565b92915050565b600080600080608085870312156200029057600080fd5b600085015167ffffffffffffffff811115620002ab57600080fd5b620002b9878288016200021e565b945050602085015167ffffffffffffffff811115620002d757600080fd5b620002e5878288016200021e565b9350506040620002f8878288016200024b565b92505060606200030b8782880162000262565b91505092959194509250565b60006200032362000336565b9050620003318282620003f9565b919050565b6000604051905090565b600067ffffffffffffffff8211156200035e576200035d6200045e565b5b62000369826200048d565b9050602081019050919050565b6000819050919050565b600060ff82169050919050565b60005b83811015620003ad57808201518184015260208101905062000390565b83811115620003bd576000848401525b50505050565b60006002820490506001821680620003dc57607f821691505b60208210811415620003f357620003f26200042f565b5b50919050565b62000404826200048d565b810181811067ffffffffffffffff821117156200042657620004256200045e565b5b80604052505050565b7f4e487b7100000000000000000000000000000000000000000000000000000000600052602260045260246000fd5b7f4e487b7100000000000000000000000000000000000000000000000000000000600052604160045260246000fd5b6000601f19601f8301169050919050565b620004a98162000376565b8114620004b557600080fd5b50565b620004c38162000380565b8114620004cf57600080fd5b50565b6152c880620004e26000396000f3fe608060405234801561001057600080fd5b50600436106102115760003560e01c80636ca8cc8c11610125578063b9adc019116100ad578063f0a47f781161007c578063f0a47f78146106a9578063f51cff7a146106da578063f7abab9e1461070a578063f8240aed14610728578063ffc92a621461074457610211565b8063b9adc0191461060b578063dd62ed3e1461063f578063e7ccb0a31461066f578063ea9e86681461068d57610211565b806381563615116100f4578063815636151461052b578063817dbe9f1461055b578063a36042db1461058e578063a6c807a9146105aa578063a9059cbb146105db57610211565b80636ca8cc8c1461048e5780636e818598146104ac57806370a08231146104ca57806373287259146104fa57610211565b8063313ce567116101a85780634e50c75c116101775780634e50c75c146103d05780635c6581651461040457806361d027b3146104345780636c02a931146104525780636c815d211461047057610211565b8063313ce5671461034a5780633cd2c1e41461036857806345b86a30146103845780634852a212146103a057610211565b806318160ddd116101e457806318160ddd146102ae5780632374f8a6146102cc57806323b872dd146102ea57806327e235e31461031a57610211565b8063095ea7b3146102165780630e31dd651461024657806310468c2f14610262578063143c297c1461027e575b600080fd5b610230600480360381019061022b9190613eb0565b610760565b60405161023d9190614462565b60405180910390f35b610260600480360381019061025b9190613f9c565b6108d8565b005b61027c60048036038101906102779190613eec565b6108e4565b005b61029860048036038101906102939190614001565b610a6a565b6040516102a59190614447565b60405180910390f35b6102b6610ab8565b6040516102c391906147f8565b60405180910390f35b6102d4610ac2565b6040516102e191906144a6565b60405180910390f35b61030460048036038101906102ff9190613e61565b610b50565b6040516103119190614462565b60405180910390f35b610334600480360381019061032f9190613dfc565b610e46565b60405161034191906147f8565b60405180910390f35b610352610e5e565b60405161035f9190614905565b60405180910390f35b610382600480360381019061037d9190613f9c565b610e71565b005b61039e60048036038101906103999190613eb0565b61116d565b005b6103ba60048036038101906103b59190613f44565b611501565b6040516103c791906147f8565b60405180910390f35b6103ea60048036038101906103e59190613f9c565b61151c565b6040516103fb959493929190614813565b60405180910390f35b61041e60048036038101906104199190613e25565b61159f565b60405161042b91906147f8565b60405180910390f35b61043c6115c4565b6040516104499190614447565b60405180910390f35b61045a6115ea565b60405161046791906144a6565b60405180910390f35b610478611678565b60405161048591906147f8565b60405180910390f35b61049661167e565b6040516104a391906147f8565b60405180910390f35b6104b4611684565b6040516104c191906147f8565b60405180910390f35b6104e460048036038101906104df9190613dfc565b61168a565b6040516104f191906147f8565b60405180910390f35b610514600480360381019061050f9190613fc5565b6116d3565b60405161052292919061447d565b60405180910390f35b61054560048036038101906105409190614001565b61171e565b60405161055291906147f8565b60405180910390f35b61057560048036038101906105709190613f9c565b611737565b60405161058594939291906148b9565b60405180910390f35b6105a860048036038101906105a39190613eec565b61180f565b005b6105c460048036038101906105bf9190613dfc565b611820565b6040516105d29291906144c8565b60405180910390f35b6105f560048036038101906105f09190613eb0565b6118ec565b6040516106029190614462565b60405180910390f35b61062560048036038101906106209190613f9c565b611a8f565b604051610636959493929190614866565b60405180910390f35b61065960048036038101906106549190613e25565b611ae5565b60405161066691906147f8565b60405180910390f35b610677611b6c565b60405161068491906147f8565b60405180910390f35b6106a760048036038101906106a29190613f9c565b611b71565b005b6106c360048036038101906106be9190613dfc565b611db9565b6040516106d19291906144c8565b60405180910390f35b6106f460048036038101906106ef9190613f9c565b611e85565b60405161070191906147f8565b60405180910390f35b610712611e9c565b60405161071f91906147f8565b60405180910390f35b610742600480360381019061073d9190613f9c565b611ea2565b005b61075e60048036038101906107599190613f9c565b6120e1565b005b6000338280600f60008473ffffffffffffffffffffffffffffffffffffffff1673ffffffffffffffffffffffffffffffffffffffff1681526020019081526020016000205410156107e6576040517f08c379a00000000000000000000000000000000000000000000000000000000081526004016107dd906145b8565b60405180910390fd5b83601060003373ffffffffffffffffffffffffffffffffffffffff1673ffffffffffffffffffffffffffffffffffffffff16815260200190815260200160002060008773ffffffffffffffffffffffffffffffffffffffff1673ffffffffffffffffffffffffffffffffffffffff168152602001908152602001600020819055508473ffffffffffffffffffffffffffffffffffffffff163373ffffffffffffffffffffffffffffffffffffffff167f8c5be1e5ebec7d5bd14f71427d1e84f3dd0314c0f7b2291e5b200ac8c7c3b925866040516108c491906147f8565b60405180910390a360019250505092915050565b6108e1816124ef565b50565b6108ef83838361280a565b506005600f6000600760009054906101000a900473ffffffffffffffffffffffffffffffffffffffff1673ffffffffffffffffffffffffffffffffffffffff1673ffffffffffffffffffffffffffffffffffffffff168152602001908152602001600020541015610995576040517f08c379a000000000000000000000000000000000000000000000000000000000815260040161098c90614578565b60405180910390fd5b6005600f60008373ffffffffffffffffffffffffffffffffffffffff1673ffffffffffffffffffffffffffffffffffffffff16815260200190815260200160002060008282546109e59190614947565b925050819055506005600f6000600760009054906101000a900473ffffffffffffffffffffffffffffffffffffffff1673ffffffffffffffffffffffffffffffffffffffff1673ffffffffffffffffffffffffffffffffffffffff1681526020019081526020016000206000828254610a5e919061499d565b92505081905550505050565b60036020528160005260406000208181548110610a8657600080fd5b906000526020600020016000915091509054906101000a900473ffffffffffffffffffffffffffffffffffffffff1681565b6000600d54905090565b600c8054610acf90614a8d565b80601f0160208091040260200160405190810160405280929190818152602001828054610afb90614a8d565b8015610b485780601f10610b1d57610100808354040283529160200191610b48565b820191906000526020600020905b815481529060010190602001808311610b2b57829003601f168201915b505050505081565b6000838280600f60008473ffffffffffffffffffffffffffffffffffffffff1673ffffffffffffffffffffffffffffffffffffffff168152602001908152602001600020541015610bd6576040517f08c379a0000000000000000000000000000000000000000000000000000000008152600401610bcd906145b8565b60405180910390fd5b83601060008873ffffffffffffffffffffffffffffffffffffffff1673ffffffffffffffffffffffffffffffffffffffff16815260200190815260200160002060003373ffffffffffffffffffffffffffffffffffffffff1673ffffffffffffffffffffffffffffffffffffffff168152602001908152602001600020541015610c95576040517f08c379a0000000000000000000000000000000000000000000000000000000008152600401610c8c906144f8565b60405180910390fd5b83601060008873ffffffffffffffffffffffffffffffffffffffff1673ffffffffffffffffffffffffffffffffffffffff16815260200190815260200160002060003373ffffffffffffffffffffffffffffffffffffffff1673ffffffffffffffffffffffffffffffffffffffff1681526020019081526020016000206000828254610d21919061499d565b9250508190555083600f60008873ffffffffffffffffffffffffffffffffffffffff1673ffffffffffffffffffffffffffffffffffffffff1681526020019081526020016000206000828254610d77919061499d565b9250508190555083600f60008773ffffffffffffffffffffffffffffffffffffffff1673ffffffffffffffffffffffffffffffffffffffff1681526020019081526020016000206000828254610dcd9190614947565b925050819055508473ffffffffffffffffffffffffffffffffffffffff168673ffffffffffffffffffffffffffffffffffffffff167fddf252ad1be2c89b69c2b068fc378daa952ba7f163c4a11628f55a4df523b3ef86604051610e3191906147f8565b60405180910390a36001925050509392505050565b600f6020528060005260406000206000915090505481565b600e60009054906101000a900460ff1681565b600073ffffffffffffffffffffffffffffffffffffffff16600160003373ffffffffffffffffffffffffffffffffffffffff1673ffffffffffffffffffffffffffffffffffffffff16815260200190815260200160002060010160009054906101000a900473ffffffffffffffffffffffffffffffffffffffff1673ffffffffffffffffffffffffffffffffffffffff161415610f43576040517f08c379a0000000000000000000000000000000000000000000000000000000008152600401610f3a90614738565b60405180910390fd5b600073ffffffffffffffffffffffffffffffffffffffff166002600083815260200190815260200160002060030160009054906101000a900473ffffffffffffffffffffffffffffffffffffffff1673ffffffffffffffffffffffffffffffffffffffff161415610fe9576040517f08c379a0000000000000000000000000000000000000000000000000000000008152600401610fe090614518565b60405180910390fd5b60006002600083815260200190815260200160002090508060020154600f60003373ffffffffffffffffffffffffffffffffffffffff1673ffffffffffffffffffffffffffffffffffffffff168152602001908152602001600020541015611086576040517f08c379a000000000000000000000000000000000000000000000000000000000815260040161107d906146d8565b60405180910390fd5b8060020154600f60003373ffffffffffffffffffffffffffffffffffffffff1673ffffffffffffffffffffffffffffffffffffffff16815260200190815260200160002060008282546110d9919061499d565b925050819055508060020154600f60008360030160009054906101000a900473ffffffffffffffffffffffffffffffffffffffff1673ffffffffffffffffffffffffffffffffffffffff1673ffffffffffffffffffffffffffffffffffffffff16815260200190815260200160002060008282546111579190614947565b925050819055506111683383612ce4565b505050565b600073ffffffffffffffffffffffffffffffffffffffff166004600083815260200190815260200160002060010160009054906101000a900473ffffffffffffffffffffffffffffffffffffffff1673ffffffffffffffffffffffffffffffffffffffff161415611213576040517f08c379a000000000000000000000000000000000000000000000000000000000815260040161120a90614678565b60405180910390fd5b3373ffffffffffffffffffffffffffffffffffffffff166004600083815260200190815260200160002060010160009054906101000a900473ffffffffffffffffffffffffffffffffffffffff1673ffffffffffffffffffffffffffffffffffffffff16146112b7576040517f08c379a00000000000000000000000000000000000000000000000000000000081526004016112ae906146b8565b60405180910390fd5b600115156005600083815260200190815260200160002060008473ffffffffffffffffffffffffffffffffffffffff1673ffffffffffffffffffffffffffffffffffffffff16815260200190815260200160002060000160009054906101000a900460ff1615151461135e576040517f08c379a000000000000000000000000000000000000000000000000000000000815260040161135590614558565b60405180910390fd5b600015156005600083815260200190815260200160002060008473ffffffffffffffffffffffffffffffffffffffff1673ffffffffffffffffffffffffffffffffffffffff16815260200190815260200160002060000160019054906101000a900460ff16151514611405576040517f08c379a00000000000000000000000000000000000000000000000000000000081526004016113fc906145d8565b60405180910390fd5b60006004600083815260200190815260200160002090508060020154600f60008573ffffffffffffffffffffffffffffffffffffffff1673ffffffffffffffffffffffffffffffffffffffff168152602001908152602001600020600082825461146f9190614947565b925050819055508060020154600f6000600760009054906101000a900473ffffffffffffffffffffffffffffffffffffffff1673ffffffffffffffffffffffffffffffffffffffff1673ffffffffffffffffffffffffffffffffffffffff16815260200190815260200160002060008282546114eb919061499d565b925050819055506114fc8383612d64565b505050565b60008061150f858585612ea5565b9050809150509392505050565b60066020528060005260406000206000915090508060000154908060010160009054906101000a900473ffffffffffffffffffffffffffffffffffffffff16908060020154908060030160009054906101000a900473ffffffffffffffffffffffffffffffffffffffff16908060030160149054906101000a900460ff16905085565b6010602052816000526040600020602052806000526040600020600091509150505481565b600760009054906101000a900473ffffffffffffffffffffffffffffffffffffffff1681565b600b80546115f790614a8d565b80601f016020809104026020016040519081016040528092919081815260200182805461162390614a8d565b80156116705780601f1061164557610100808354040283529160200191611670565b820191906000526020600020905b81548152906001019060200180831161165357829003601f168201915b505050505081565b60095481565b60085481565b600a5481565b6000600f60008373ffffffffffffffffffffffffffffffffffffffff1673ffffffffffffffffffffffffffffffffffffffff168152602001908152602001600020549050919050565b6005602052816000526040600020602052806000526040600020600091509150508060000160009054906101000a900460ff16908060000160019054906101000a900460ff16905082565b60008061172b8484613106565b90508091505092915050565b600260205280600052604060002060009150905080600001549080600101805461176090614a8d565b80601f016020809104026020016040519081016040528092919081815260200182805461178c90614a8d565b80156117d95780601f106117ae576101008083540402835291602001916117d9565b820191906000526020600020905b8154815290600101906020018083116117bc57829003601f168201915b5050505050908060020154908060030160009054906101000a900473ffffffffffffffffffffffffffffffffffffffff16905084565b61181a8383836132fe565b50505050565b600160205280600052604060002060009150905080600001805461184390614a8d565b80601f016020809104026020016040519081016040528092919081815260200182805461186f90614a8d565b80156118bc5780601f10611891576101008083540402835291602001916118bc565b820191906000526020600020905b81548152906001019060200180831161189f57829003601f168201915b5050505050908060010160009054906101000a900473ffffffffffffffffffffffffffffffffffffffff16905082565b6000338280600f60008473ffffffffffffffffffffffffffffffffffffffff1673ffffffffffffffffffffffffffffffffffffffff168152602001908152602001600020541015611972576040517f08c379a0000000000000000000000000000000000000000000000000000000008152600401611969906145b8565b60405180910390fd5b83600f60003373ffffffffffffffffffffffffffffffffffffffff1673ffffffffffffffffffffffffffffffffffffffff16815260200190815260200160002060008282546119c1919061499d565b9250508190555083600f60008773ffffffffffffffffffffffffffffffffffffffff1673ffffffffffffffffffffffffffffffffffffffff1681526020019081526020016000206000828254611a179190614947565b925050819055508473ffffffffffffffffffffffffffffffffffffffff163373ffffffffffffffffffffffffffffffffffffffff167fddf252ad1be2c89b69c2b068fc378daa952ba7f163c4a11628f55a4df523b3ef86604051611a7b91906147f8565b60405180910390a360019250505092915050565b60046020528060005260406000206000915090508060000154908060010160009054906101000a900473ffffffffffffffffffffffffffffffffffffffff16908060020154908060030154908060040154905085565b6000601060008473ffffffffffffffffffffffffffffffffffffffff1673ffffffffffffffffffffffffffffffffffffffff16815260200190815260200160002060008373ffffffffffffffffffffffffffffffffffffffff1673ffffffffffffffffffffffffffffffffffffffff16815260200190815260200160002054905092915050565b600581565b60006006600083815260200190815260200160002090503373ffffffffffffffffffffffffffffffffffffffff168160010160009054906101000a900473ffffffffffffffffffffffffffffffffffffffff1673ffffffffffffffffffffffffffffffffffffffff1614611c1a576040517f08c379a0000000000000000000000000000000000000000000000000000000008152600401611c11906146f8565b60405180910390fd5b600073ffffffffffffffffffffffffffffffffffffffff168160030160009054906101000a900473ffffffffffffffffffffffffffffffffffffffff1673ffffffffffffffffffffffffffffffffffffffff161415611cae576040517f08c379a0000000000000000000000000000000000000000000000000000000008152600401611ca590614638565b60405180910390fd5b8060020154600f6000600760009054906101000a900473ffffffffffffffffffffffffffffffffffffffff1673ffffffffffffffffffffffffffffffffffffffff1673ffffffffffffffffffffffffffffffffffffffff168152602001908152602001600020541015611d56576040517f08c379a0000000000000000000000000000000000000000000000000000000008152600401611d4d90614578565b60405180910390fd5b611dab600760009054906101000a900473ffffffffffffffffffffffffffffffffffffffff168260030160009054906101000a900473ffffffffffffffffffffffffffffffffffffffff168360020154610b50565b50611db58261373e565b5050565b6000602052806000526040600020600091509050806000018054611ddc90614a8d565b80601f0160208091040260200160405190810160405280929190818152602001828054611e0890614a8d565b8015611e555780601f10611e2a57610100808354040283529160200191611e55565b820191906000526020600020905b815481529060010190602001808311611e3857829003601f168201915b5050505050908060010160009054906101000a900473ffffffffffffffffffffffffffffffffffffffff16905082565b600080611e91836137a6565b905080915050919050565b600d5481565b600760009054906101000a900473ffffffffffffffffffffffffffffffffffffffff1673ffffffffffffffffffffffffffffffffffffffff163373ffffffffffffffffffffffffffffffffffffffff1614611f32576040517f08c379a0000000000000000000000000000000000000000000000000000000008152600401611f2990614758565b60405180910390fd5b6000600660008381526020019081526020016000209050600073ffffffffffffffffffffffffffffffffffffffff168160010160009054906101000a900473ffffffffffffffffffffffffffffffffffffffff1673ffffffffffffffffffffffffffffffffffffffff161415611fdd576040517f08c379a0000000000000000000000000000000000000000000000000000000008152600401611fd490614778565b60405180910390fd5b60006002811115612017577f4e487b7100000000000000000000000000000000000000000000000000000000600052602160045260246000fd5b8160030160149054906101000a900460ff166002811115612061577f4e487b7100000000000000000000000000000000000000000000000000000000600052602160045260246000fd5b146120a1576040517f08c379a000000000000000000000000000000000000000000000000000000000815260040161209890614718565b60405180910390fd5b6120d38160010160009054906101000a900473ffffffffffffffffffffffffffffffffffffffff168260020154610760565b506120dd82613a7f565b5050565b600073ffffffffffffffffffffffffffffffffffffffff16600160003373ffffffffffffffffffffffffffffffffffffffff1673ffffffffffffffffffffffffffffffffffffffff16815260200190815260200160002060010160009054906101000a900473ffffffffffffffffffffffffffffffffffffffff1673ffffffffffffffffffffffffffffffffffffffff1614156121b3576040517f08c379a00000000000000000000000000000000000000000000000000000000081526004016121aa90614738565b60405180910390fd5b600073ffffffffffffffffffffffffffffffffffffffff166004600083815260200190815260200160002060010160009054906101000a900473ffffffffffffffffffffffffffffffffffffffff1673ffffffffffffffffffffffffffffffffffffffff161415612259576040517f08c379a000000000000000000000000000000000000000000000000000000000815260040161225090614678565b60405180910390fd5b60006004600083815260200190815260200160002090508060020154600f60003373ffffffffffffffffffffffffffffffffffffffff1673ffffffffffffffffffffffffffffffffffffffff1681526020019081526020016000205410156122f6576040517f08c379a00000000000000000000000000000000000000000000000000000000081526004016122ed906146d8565b60405180910390fd5b600015156005600084815260200190815260200160002060003373ffffffffffffffffffffffffffffffffffffffff1673ffffffffffffffffffffffffffffffffffffffff16815260200190815260200160002060000160009054906101000a900460ff1615151461239d576040517f08c379a000000000000000000000000000000000000000000000000000000000815260040161239490614658565b60405180910390fd5b600460008381526020019081526020016000206003015460046000848152602001908152602001600020600401541061240b576040517f08c379a000000000000000000000000000000000000000000000000000000000815260040161240290614598565b60405180910390fd5b8060020154600f60003373ffffffffffffffffffffffffffffffffffffffff1673ffffffffffffffffffffffffffffffffffffffff168152602001908152602001600020600082825461245e919061499d565b925050819055508060020154600f6000600760009054906101000a900473ffffffffffffffffffffffffffffffffffffffff1673ffffffffffffffffffffffffffffffffffffffff1673ffffffffffffffffffffffffffffffffffffffff16815260200190815260200160002060008282546124da9190614947565b925050819055506124eb3383613b77565b5050565b600073ffffffffffffffffffffffffffffffffffffffff16600160003373ffffffffffffffffffffffffffffffffffffffff1673ffffffffffffffffffffffffffffffffffffffff16815260200190815260200160002060010160009054906101000a900473ffffffffffffffffffffffffffffffffffffffff1673ffffffffffffffffffffffffffffffffffffffff1614156125c1576040517f08c379a00000000000000000000000000000000000000000000000000000000081526004016125b890614738565b60405180910390fd5b6000600660008381526020019081526020016000209050600073ffffffffffffffffffffffffffffffffffffffff168160010160009054906101000a900473ffffffffffffffffffffffffffffffffffffffff1673ffffffffffffffffffffffffffffffffffffffff16141561266c576040517f08c379a000000000000000000000000000000000000000000000000000000000815260040161266390614778565b60405180910390fd5b600160028111156126a6577f4e487b7100000000000000000000000000000000000000000000000000000000600052602160045260246000fd5b8160030160149054906101000a900460ff1660028111156126f0577f4e487b7100000000000000000000000000000000000000000000000000000000600052602160045260246000fd5b14612730576040517f08c379a0000000000000000000000000000000000000000000000000000000008152600401612727906147b8565b60405180910390fd5b600073ffffffffffffffffffffffffffffffffffffffff168160030160009054906101000a900473ffffffffffffffffffffffffffffffffffffffff1673ffffffffffffffffffffffffffffffffffffffff16146127c3576040517f08c379a00000000000000000000000000000000000000000000000000000000081526004016127ba906147d8565b60405180910390fd5b338160030160006101000a81548173ffffffffffffffffffffffffffffffffffffffff021916908373ffffffffffffffffffffffffffffffffffffffff1602179055505050565b6000600760009054906101000a900473ffffffffffffffffffffffffffffffffffffffff1673ffffffffffffffffffffffffffffffffffffffff163373ffffffffffffffffffffffffffffffffffffffff1614806128f65750600073ffffffffffffffffffffffffffffffffffffffff166000803373ffffffffffffffffffffffffffffffffffffffff1673ffffffffffffffffffffffffffffffffffffffff16815260200190815260200160002060010160009054906101000a900473ffffffffffffffffffffffffffffffffffffffff1673ffffffffffffffffffffffffffffffffffffffff1614155b612935576040517f08c379a000000000000000000000000000000000000000000000000000000000815260040161292c90614798565b60405180910390fd5b81600073ffffffffffffffffffffffffffffffffffffffff166000808373ffffffffffffffffffffffffffffffffffffffff1673ffffffffffffffffffffffffffffffffffffffff16815260200190815260200160002060010160009054906101000a900473ffffffffffffffffffffffffffffffffffffffff1673ffffffffffffffffffffffffffffffffffffffff1614612a06576040517f08c379a00000000000000000000000000000000000000000000000000000000081526004016129fd90614538565b60405180910390fd5b600073ffffffffffffffffffffffffffffffffffffffff16600160008373ffffffffffffffffffffffffffffffffffffffff1673ffffffffffffffffffffffffffffffffffffffff16815260200190815260200160002060010160009054906101000a900473ffffffffffffffffffffffffffffffffffffffff1673ffffffffffffffffffffffffffffffffffffffff1614612ad7576040517f08c379a0000000000000000000000000000000000000000000000000000000008152600401612ace90614698565b60405180910390fd5b600760009054906101000a900473ffffffffffffffffffffffffffffffffffffffff1673ffffffffffffffffffffffffffffffffffffffff168173ffffffffffffffffffffffffffffffffffffffff161415612b68576040517f08c379a0000000000000000000000000000000000000000000000000000000008152600401612b5f90614618565b60405180910390fd5b604051806040016040528086868080601f016020809104026020016040519081016040528093929190818152602001838380828437600081840152601f19601f8201169050808301925050505050505081526020018473ffffffffffffffffffffffffffffffffffffffff16815250600160008573ffffffffffffffffffffffffffffffffffffffff1673ffffffffffffffffffffffffffffffffffffffff1681526020019081526020016000206000820151816000019080519060200190612c32929190613ce5565b5060208201518160010160006101000a81548173ffffffffffffffffffffffffffffffffffffffff021916908373ffffffffffffffffffffffffffffffffffffffff1602179055509050508273ffffffffffffffffffffffffffffffffffffffff168585604051612ca492919061442e565b60405180910390207f3eb9ae1db4c1e4ee72b0a46d8d264f4d15ac0bd52eae6d8c9ea01975e2bca48160405160405180910390a360019150509392505050565b600060036000838152602001908152602001600020839080600181540180825580915050600190039060005260206000200160009091909190916101000a81548173ffffffffffffffffffffffffffffffffffffffff021916908373ffffffffffffffffffffffffffffffffffffffff1602179055506001905092915050565b600073ffffffffffffffffffffffffffffffffffffffff166000803373ffffffffffffffffffffffffffffffffffffffff1673ffffffffffffffffffffffffffffffffffffffff16815260200190815260200160002060010160009054906101000a900473ffffffffffffffffffffffffffffffffffffffff1673ffffffffffffffffffffffffffffffffffffffff161415612e35576040517f08c379a0000000000000000000000000000000000000000000000000000000008152600401612e2c906145f8565b60405180910390fd5b60016005600083815260200190815260200160002060008473ffffffffffffffffffffffffffffffffffffffff1673ffffffffffffffffffffffffffffffffffffffff16815260200190815260200160002060000160016101000a81548160ff0219169083151502179055505050565b60008073ffffffffffffffffffffffffffffffffffffffff166000803373ffffffffffffffffffffffffffffffffffffffff1673ffffffffffffffffffffffffffffffffffffffff16815260200190815260200160002060010160009054906101000a900473ffffffffffffffffffffffffffffffffffffffff1673ffffffffffffffffffffffffffffffffffffffff161415612f77576040517f08c379a0000000000000000000000000000000000000000000000000000000008152600401612f6e906145f8565b60405180910390fd5b60006008549050604051806080016040528082815260200186868080601f016020809104026020016040519081016040528093929190818152602001838380828437600081840152601f19601f8201169050808301925050505050505081526020018481526020013373ffffffffffffffffffffffffffffffffffffffff1681525060026000838152602001908152602001600020600082015181600001556020820151816001019080519060200190613032929190613ce5565b506040820151816002015560608201518160030160006101000a81548173ffffffffffffffffffffffffffffffffffffffff021916908373ffffffffffffffffffffffffffffffffffffffff160217905550905050848460405161309792919061442e565b6040518091039020813373ffffffffffffffffffffffffffffffffffffffff167fc554af40412eb958ce7250b87bdcc1fa1f9a83b937bcefded5dfc67fc8c89a1f60405160405180910390a4600860008154809291906130f690614abf565b9190505550809150509392505050565b60008073ffffffffffffffffffffffffffffffffffffffff166000803373ffffffffffffffffffffffffffffffffffffffff1673ffffffffffffffffffffffffffffffffffffffff16815260200190815260200160002060010160009054906101000a900473ffffffffffffffffffffffffffffffffffffffff1673ffffffffffffffffffffffffffffffffffffffff1614156131d8576040517f08c379a00000000000000000000000000000000000000000000000000000000081526004016131cf906145f8565b60405180910390fd5b600060095490506040518060a001604052808281526020013373ffffffffffffffffffffffffffffffffffffffff1681526020018581526020018481526020016000815250600460008381526020019081526020016000206000820151816000015560208201518160010160006101000a81548173ffffffffffffffffffffffffffffffffffffffff021916908373ffffffffffffffffffffffffffffffffffffffff160217905550604082015181600201556060820151816003015560808201518160040155905050803373ffffffffffffffffffffffffffffffffffffffff167f253dd3f4af0486d2007557007bbe654e8b03e933659fe2f233a584178f7079f960405160405180910390a380806132f190614abf565b9150508091505092915050565b6000600760009054906101000a900473ffffffffffffffffffffffffffffffffffffffff1673ffffffffffffffffffffffffffffffffffffffff163373ffffffffffffffffffffffffffffffffffffffff1614613390576040517f08c379a000000000000000000000000000000000000000000000000000000000815260040161338790614758565b60405180910390fd5b81600073ffffffffffffffffffffffffffffffffffffffff166000808373ffffffffffffffffffffffffffffffffffffffff1673ffffffffffffffffffffffffffffffffffffffff16815260200190815260200160002060010160009054906101000a900473ffffffffffffffffffffffffffffffffffffffff1673ffffffffffffffffffffffffffffffffffffffff1614613461576040517f08c379a000000000000000000000000000000000000000000000000000000000815260040161345890614538565b60405180910390fd5b600073ffffffffffffffffffffffffffffffffffffffff16600160008373ffffffffffffffffffffffffffffffffffffffff1673ffffffffffffffffffffffffffffffffffffffff16815260200190815260200160002060010160009054906101000a900473ffffffffffffffffffffffffffffffffffffffff1673ffffffffffffffffffffffffffffffffffffffff1614613532576040517f08c379a000000000000000000000000000000000000000000000000000000000815260040161352990614698565b60405180910390fd5b600760009054906101000a900473ffffffffffffffffffffffffffffffffffffffff1673ffffffffffffffffffffffffffffffffffffffff168173ffffffffffffffffffffffffffffffffffffffff1614156135c3576040517f08c379a00000000000000000000000000000000000000000000000000000000081526004016135ba90614618565b60405180910390fd5b604051806040016040528086868080601f016020809104026020016040519081016040528093929190818152602001838380828437600081840152601f19601f8201169050808301925050505050505081526020018473ffffffffffffffffffffffffffffffffffffffff168152506000808573ffffffffffffffffffffffffffffffffffffffff1673ffffffffffffffffffffffffffffffffffffffff168152602001908152602001600020600082015181600001908051906020019061368c929190613ce5565b5060208201518160010160006101000a81548173ffffffffffffffffffffffffffffffffffffffff021916908373ffffffffffffffffffffffffffffffffffffffff1602179055509050508273ffffffffffffffffffffffffffffffffffffffff1685856040516136fe92919061442e565b60405180910390207feef6791cc176c62cf1998656a1d10ffa809f554fe4f085891e24e962abb1ab7660405160405180910390a360019150509392505050565b60026006600083815260200190815260200160002060030160146101000a81548160ff0219169083600281111561379e577f4e487b7100000000000000000000000000000000000000000000000000000000600052602160045260246000fd5b021790555050565b60008073ffffffffffffffffffffffffffffffffffffffff166000803373ffffffffffffffffffffffffffffffffffffffff1673ffffffffffffffffffffffffffffffffffffffff16815260200190815260200160002060010160009054906101000a900473ffffffffffffffffffffffffffffffffffffffff1673ffffffffffffffffffffffffffffffffffffffff161415613878576040517f08c379a000000000000000000000000000000000000000000000000000000000815260040161386f906145f8565b60405180910390fd5b6000600a5490506040518060a001604052808281526020013373ffffffffffffffffffffffffffffffffffffffff168152602001848152602001600073ffffffffffffffffffffffffffffffffffffffff16815260200160006002811115613909577f4e487b7100000000000000000000000000000000000000000000000000000000600052602160045260246000fd5b815250600660008381526020019081526020016000206000820151816000015560208201518160010160006101000a81548173ffffffffffffffffffffffffffffffffffffffff021916908373ffffffffffffffffffffffffffffffffffffffff1602179055506040820151816002015560608201518160030160006101000a81548173ffffffffffffffffffffffffffffffffffffffff021916908373ffffffffffffffffffffffffffffffffffffffff16021790555060808201518160030160146101000a81548160ff02191690836002811115613a12577f4e487b7100000000000000000000000000000000000000000000000000000000600052602160045260246000fd5b0217905550905050803373ffffffffffffffffffffffffffffffffffffffff167f511012b645823f32603c9e08b605492e787c9ea3913c21c20f2bf44624af428160405160405180910390a3600a6000815480929190613a7190614abf565b919050555080915050919050565b600760009054906101000a900473ffffffffffffffffffffffffffffffffffffffff1673ffffffffffffffffffffffffffffffffffffffff163373ffffffffffffffffffffffffffffffffffffffff1614613b0f576040517f08c379a0000000000000000000000000000000000000000000000000000000008152600401613b0690614758565b60405180910390fd5b60016006600083815260200190815260200160002060030160146101000a81548160ff02191690836002811115613b6f577f4e487b7100000000000000000000000000000000000000000000000000000000600052602160045260246000fd5b021790555050565b600073ffffffffffffffffffffffffffffffffffffffff16600160003373ffffffffffffffffffffffffffffffffffffffff1673ffffffffffffffffffffffffffffffffffffffff16815260200190815260200160002060010160009054906101000a900473ffffffffffffffffffffffffffffffffffffffff1673ffffffffffffffffffffffffffffffffffffffff161415613c49576040517f08c379a0000000000000000000000000000000000000000000000000000000008152600401613c4090614738565b60405180910390fd5b600460008281526020019081526020016000206004016000815480929190613c7090614abf565b919050555060016005600083815260200190815260200160002060008473ffffffffffffffffffffffffffffffffffffffff1673ffffffffffffffffffffffffffffffffffffffff16815260200190815260200160002060000160006101000a81548160ff0219169083151502179055505050565b828054613cf190614a8d565b90600052602060002090601f016020900481019282613d135760008555613d5a565b82601f10613d2c57805160ff1916838001178555613d5a565b82800160010185558215613d5a579182015b82811115613d59578251825591602001919060010190613d3e565b5b509050613d679190613d6b565b5090565b5b80821115613d84576000816000905550600101613d6c565b5090565b600081359050613d9781615264565b92915050565b60008083601f840112613daf57600080fd5b8235905067ffffffffffffffff811115613dc857600080fd5b602083019150836001820283011115613de057600080fd5b9250929050565b600081359050613df68161527b565b92915050565b600060208284031215613e0e57600080fd5b6000613e1c84828501613d88565b91505092915050565b60008060408385031215613e3857600080fd5b6000613e4685828601613d88565b9250506020613e5785828601613d88565b9150509250929050565b600080600060608486031215613e7657600080fd5b6000613e8486828701613d88565b9350506020613e9586828701613d88565b9250506040613ea686828701613de7565b9150509250925092565b60008060408385031215613ec357600080fd5b6000613ed185828601613d88565b9250506020613ee285828601613de7565b9150509250929050565b600080600060408486031215613f0157600080fd5b600084013567ffffffffffffffff811115613f1b57600080fd5b613f2786828701613d9d565b93509350506020613f3a86828701613d88565b9150509250925092565b600080600060408486031215613f5957600080fd5b600084013567ffffffffffffffff811115613f7357600080fd5b613f7f86828701613d9d565b93509350506020613f9286828701613de7565b9150509250925092565b600060208284031215613fae57600080fd5b6000613fbc84828501613de7565b91505092915050565b60008060408385031215613fd857600080fd5b6000613fe685828601613de7565b9250506020613ff785828601613d88565b9150509250929050565b6000806040838503121561401457600080fd5b600061402285828601613de7565b925050602061403385828601613de7565b9150509250929050565b614046816149d1565b82525050565b614055816149e3565b82525050565b61406481614a39565b82525050565b6000614076838561493c565b9350614083838584614a4b565b82840190509392505050565b600061409a82614920565b6140a4818561492b565b93506140b4818560208601614a5a565b6140bd81614b95565b840191505092915050565b60006140d5601c8361492b565b91506140e082614ba6565b602082019050919050565b60006140f860148361492b565b915061410382614bcf565b602082019050919050565b600061411b602b8361492b565b915061412682614bf8565b604082019050919050565b600061413e602c8361492b565b915061414982614c47565b604082019050919050565b6000614161601f8361492b565b915061416c82614c96565b602082019050919050565b6000614184602b8361492b565b915061418f82614cbf565b604082019050919050565b60006141a760208361492b565b91506141b282614d0e565b602082019050919050565b60006141ca60318361492b565b91506141d582614d37565b604082019050919050565b60006141ed60268361492b565b91506141f882614d86565b604082019050919050565b6000614210602e8361492b565b915061421b82614dd5565b604082019050919050565b600061423360348361492b565b915061423e82614e24565b604082019050919050565b6000614256602d8361492b565b915061426182614e73565b604082019050919050565b600061427960168361492b565b915061428482614ec2565b602082019050919050565b600061429c602b8361492b565b91506142a782614eeb565b604082019050919050565b60006142bf60498361492b565b91506142ca82614f3a565b606082019050919050565b60006142e260208361492b565b91506142ed82614faf565b602082019050919050565b600061430560458361492b565b915061431082614fd8565b606082019050919050565b600061432860298361492b565b91506143338261504d565b604082019050919050565b600061434b60268361492b565b91506143568261509c565b604082019050919050565b600061436e602a8361492b565b9150614379826150eb565b604082019050919050565b600061439160198361492b565b915061439c8261513a565b602082019050919050565b60006143b460368361492b565b91506143bf82615163565b604082019050919050565b60006143d760278361492b565b91506143e2826151b2565b604082019050919050565b60006143fa60298361492b565b915061440582615201565b604082019050919050565b61441981614a22565b82525050565b61442881614a2c565b82525050565b600061443b82848661406a565b91508190509392505050565b600060208201905061445c600083018461403d565b92915050565b6000602082019050614477600083018461404c565b92915050565b6000604082019050614492600083018561404c565b61449f602083018461404c565b9392505050565b600060208201905081810360008301526144c0818461408f565b905092915050565b600060408201905081810360008301526144e2818561408f565b90506144f1602083018461403d565b9392505050565b60006020820190508181036000830152614511816140c8565b9050919050565b60006020820190508181036000830152614531816140eb565b9050919050565b600060208201905081810360008301526145518161410e565b9050919050565b6000602082019050818103600083015261457181614131565b9050919050565b6000602082019050818103600083015261459181614154565b9050919050565b600060208201905081810360008301526145b181614177565b9050919050565b600060208201905081810360008301526145d18161419a565b9050919050565b600060208201905081810360008301526145f1816141bd565b9050919050565b60006020820190508181036000830152614611816141e0565b9050919050565b6000602082019050818103600083015261463181614203565b9050919050565b6000602082019050818103600083015261465181614226565b9050919050565b6000602082019050818103600083015261467181614249565b9050919050565b600060208201905081810360008301526146918161426c565b9050919050565b600060208201905081810360008301526146b18161428f565b9050919050565b600060208201905081810360008301526146d1816142b2565b9050919050565b600060208201905081810360008301526146f1816142d5565b9050919050565b60006020820190508181036000830152614711816142f8565b9050919050565b600060208201905081810360008301526147318161431b565b9050919050565b600060208201905081810360008301526147518161433e565b9050919050565b6000602082019050818103600083015261477181614361565b9050919050565b6000602082019050818103600083015261479181614384565b9050919050565b600060208201905081810360008301526147b1816143a7565b9050919050565b600060208201905081810360008301526147d1816143ca565b9050919050565b600060208201905081810360008301526147f1816143ed565b9050919050565b600060208201905061480d6000830184614410565b92915050565b600060a0820190506148286000830188614410565b614835602083018761403d565b6148426040830186614410565b61484f606083018561403d565b61485c608083018461405b565b9695505050505050565b600060a08201905061487b6000830188614410565b614888602083018761403d565b6148956040830186614410565b6148a26060830185614410565b6148af6080830184614410565b9695505050505050565b60006080820190506148ce6000830187614410565b81810360208301526148e0818661408f565b90506148ef6040830185614410565b6148fc606083018461403d565b95945050505050565b600060208201905061491a600083018461441f565b92915050565b600081519050919050565b600082825260208201905092915050565b600081905092915050565b600061495282614a22565b915061495d83614a22565b9250827fffffffffffffffffffffffffffffffffffffffffffffffffffffffffffffffff0382111561499257614991614b08565b5b828201905092915050565b60006149a882614a22565b91506149b383614a22565b9250828210156149c6576149c5614b08565b5b828203905092915050565b60006149dc82614a02565b9050919050565b60008115159050919050565b60008190506149fd82615250565b919050565b600073ffffffffffffffffffffffffffffffffffffffff82169050919050565b6000819050919050565b600060ff82169050919050565b6000614a44826149ef565b9050919050565b82818337600083830152505050565b60005b83811015614a78578082015181840152602081019050614a5d565b83811115614a87576000848401525b50505050565b60006002820490506001821680614aa557607f821691505b60208210811415614ab957614ab8614b66565b5b50919050565b6000614aca82614a22565b91507fffffffffffffffffffffffffffffffffffffffffffffffffffffffffffffffff821415614afd57614afc614b08565b5b600182019050919050565b7f4e487b7100000000000000000000000000000000000000000000000000000000600052601160045260246000fd5b7f4e487b7100000000000000000000000000000000000000000000000000000000600052602160045260246000fd5b7f4e487b7100000000000000000000000000000000000000000000000000000000600052602260045260246000fd5b6000601f19601f8301169050919050565b7f696e73756666696369656e7420616c6c6f7765642062616c616e636500000000600082015250565b7f636c61737320646f6573206e6f74206578697374000000000000000000000000600082015250565b7f77616c6c657420697320616c7265616479206173736f6369617465642077697460008201527f6820612074656163686572000000000000000000000000000000000000000000602082015250565b7f746869732073747564656e7420646964206e6f74207369676e20757020666f7260008201527f2074686520636f6e73756c740000000000000000000000000000000000000000602082015250565b7f74726561737572792068617320696e73756666696369656e742066756e647300600082015250565b7f7468697320636f6e73756c7420697320616c7265616479206174206d6178696d60008201527f756d206361706163697479000000000000000000000000000000000000000000602082015250565b7f6163636f756e742068617320696e73756666696369656e742062616c616e6365600082015250565b7f746869732073747564656e74277320617474656e64616e63652068617320616c60008201527f7265616479206265656e206d61726b6564000000000000000000000000000000602082015250565b7f6f6e6c792074656163686572732063616e20616363657373207468697320667560008201527f6e6374696f6e0000000000000000000000000000000000000000000000000000602082015250565b7f77616c6c657420697320616c7265616479206173736f6369617465642077697460008201527f6820746865207472656173757279000000000000000000000000000000000000602082015250565b7f6e6f207061727469636970616e7420686173207369676e656420757020666f7260008201527f20746869732061737369676e6d656e7420796574000000000000000000000000602082015250565b7f73747564656e742068617320616c7265616479207369676e656420757020666f60008201527f722074686520636f6e73756c7400000000000000000000000000000000000000602082015250565b7f636f6e73756c7420646f6573206e6f7420657869737400000000000000000000600082015250565b7f77616c6c657420697320616c7265616479206173736f6369617465642077697460008201527f6820612073747564656e74000000000000000000000000000000000000000000602082015250565b7f6f6e6c792074686520746561636865722077686f20637265617465642074686560008201527f20636f6e73756c742073657373696f6e2063616e20616363657373207468697360208201527f2066756e6374696f6e0000000000000000000000000000000000000000000000604082015250565b7f73747564656e742068617320696e73756666696369656e742062616c616e6365600082015250565b7f6f6e6c792074686520746561636865722077686f20637265617465642074686960008201527f732061737369676e6d656e742063616e2061636365737320746869732066756e60208201527f6374696f6e000000000000000000000000000000000000000000000000000000604082015250565b7f746869732061737369676e6d656e742068617320616c7265616479206265656e60008201527f20617070726f7665640000000000000000000000000000000000000000000000602082015250565b7f6f6e6c792073747564656e74732063616e20616363657373207468697320667560008201527f6e6374696f6e0000000000000000000000000000000000000000000000000000602082015250565b7f6f6e6c79207468652074726561737572792063616e206163636573732074686960008201527f732066756e6374696f6e00000000000000000000000000000000000000000000602082015250565b7f61737369676e6d656e7420646f6573206e6f7420657869737400000000000000600082015250565b7f6f6e6c79207465616368657273206f722074686520747265617375727920636160008201527f6e2061636365737320746869732066756e6374696f6e00000000000000000000602082015250565b7f7468652061737369676e6d656e74206861736e2774206265656e20617070726f60008201527f7665642079657400000000000000000000000000000000000000000000000000602082015250565b7f746869732061737369676e6d656e7420616c726561647920686173206120706160008201527f727469636970616e740000000000000000000000000000000000000000000000602082015250565b6003811061526157615260614b37565b5b50565b61526d816149d1565b811461527857600080fd5b50565b61528481614a22565b811461528f57600080fd5b5056fea264697066735822122009e5c4cfdd07f6fa54d462a1a161f002127c67257b450b6b378330c5c69b177f64736f6c63430008040033",
  "linkReferences": {},
  "deployedLinkReferences": {}
}