{
  "_format": "hh-sol-artifact-1",
  "contractName": "Academy",
  "sourceName": "contracts/Academy.sol",
  "abi": [
    {
      "inputs": [],
      "stateMutability": "nonpayable",
      "type": "constructor"
    },
    {
      "anonymous": false,
      "inputs": [
        {
          "indexed": true,
          "internalType": "address",
          "name": "teacher",
          "type": "address"
        },
        {
          "indexed": true,
          "internalType": "uint256",
          "name": "assignmentId",
          "type": "uint256"
        }
      ],
      "name": "AssignmentCreated",
      "type": "event"
    },
    {
      "anonymous": false,
      "inputs": [
        {
          "indexed": true,
          "internalType": "address",
          "name": "teacher",
          "type": "address"
        },
        {
          "indexed": true,
          "internalType": "uint256",
          "name": "classId",
          "type": "uint256"
        },
        {
          "indexed": true,
          "internalType": "string",
          "name": "className",
          "type": "string"
        }
      ],
      "name": "ClassCreated",
      "type": "event"
    },
    {
      "anonymous": false,
      "inputs": [
        {
          "indexed": true,
          "internalType": "address",
          "name": "teacher",
          "type": "address"
        },
        {
          "indexed": true,
          "internalType": "uint256",
          "name": "consultId",
          "type": "uint256"
        }
      ],
      "name": "ConsultCreated",
      "type": "event"
    },
    {
      "anonymous": false,
      "inputs": [
        {
          "indexed": true,
          "internalType": "string",
          "name": "name",
          "type": "string"
        },
        {
          "indexed": true,
          "internalType": "address",
          "name": "wallet",
          "type": "address"
        }
      ],
      "name": "StudentAdded",
      "type": "event"
    },
    {
      "anonymous": false,
      "inputs": [
        {
          "indexed": true,
          "internalType": "string",
          "name": "name",
          "type": "string"
        },
        {
          "indexed": true,
          "internalType": "address",
          "name": "wallet",
          "type": "address"
        }
      ],
      "name": "TeacherAdded",
      "type": "event"
    },
    {
      "inputs": [
        {
          "internalType": "uint256",
          "name": "",
          "type": "uint256"
        }
      ],
      "name": "assignments",
      "outputs": [
        {
          "internalType": "uint256",
          "name": "id",
          "type": "uint256"
        },
        {
          "internalType": "address",
          "name": "teacher",
          "type": "address"
        },
        {
          "internalType": "uint256",
          "name": "bounty",
          "type": "uint256"
        },
        {
          "internalType": "address",
          "name": "participant",
          "type": "address"
        },
        {
          "internalType": "enum Academy.AssignmentState",
          "name": "state",
          "type": "uint8"
        }
      ],
      "stateMutability": "view",
      "type": "function"
    },
    {
      "inputs": [
        {
          "internalType": "uint256",
          "name": "",
          "type": "uint256"
        },
        {
          "internalType": "uint256",
          "name": "",
          "type": "uint256"
        }
      ],
      "name": "classAttendance",
      "outputs": [
        {
          "internalType": "address",
          "name": "",
          "type": "address"
        }
      ],
      "stateMutability": "view",
      "type": "function"
    },
    {
      "inputs": [
        {
          "internalType": "uint256",
          "name": "",
          "type": "uint256"
        }
      ],
      "name": "classes",
      "outputs": [
        {
          "internalType": "uint256",
          "name": "id",
          "type": "uint256"
        },
        {
          "internalType": "string",
          "name": "name",
          "type": "string"
        },
        {
          "internalType": "uint256",
          "name": "cost",
          "type": "uint256"
        },
        {
          "internalType": "address",
          "name": "teacher",
          "type": "address"
        }
      ],
      "stateMutability": "view",
      "type": "function"
    },
    {
      "inputs": [
        {
          "internalType": "uint256",
          "name": "",
          "type": "uint256"
        },
        {
          "internalType": "address",
          "name": "",
          "type": "address"
        }
      ],
      "name": "consultAttendanceList",
      "outputs": [
        {
          "internalType": "bool",
          "name": "signedUp",
          "type": "bool"
        },
        {
          "internalType": "bool",
          "name": "attended",
          "type": "bool"
        }
      ],
      "stateMutability": "view",
      "type": "function"
    },
    {
      "inputs": [
        {
          "internalType": "uint256",
          "name": "",
          "type": "uint256"
        }
      ],
      "name": "consults",
      "outputs": [
        {
          "internalType": "uint256",
          "name": "id",
          "type": "uint256"
        },
        {
          "internalType": "address",
          "name": "teacher",
          "type": "address"
        },
        {
          "internalType": "uint256",
          "name": "stake",
          "type": "uint256"
        },
        {
          "internalType": "uint256",
          "name": "capacity",
          "type": "uint256"
        },
        {
          "internalType": "uint256",
          "name": "currentPax",
          "type": "uint256"
        }
      ],
      "stateMutability": "view",
      "type": "function"
    },
    {
      "inputs": [],
      "name": "nextAssignmentId",
      "outputs": [
        {
          "internalType": "uint256",
          "name": "",
          "type": "uint256"
        }
      ],
      "stateMutability": "view",
      "type": "function"
    },
    {
      "inputs": [],
      "name": "nextClassId",
      "outputs": [
        {
          "internalType": "uint256",
          "name": "",
          "type": "uint256"
        }
      ],
      "stateMutability": "view",
      "type": "function"
    },
    {
      "inputs": [],
      "name": "nextConsultId",
      "outputs": [
        {
          "internalType": "uint256",
          "name": "",
          "type": "uint256"
        }
      ],
      "stateMutability": "view",
      "type": "function"
    },
    {
      "inputs": [
        {
          "internalType": "address",
          "name": "",
          "type": "address"
        }
      ],
      "name": "students",
      "outputs": [
        {
          "internalType": "string",
          "name": "name",
          "type": "string"
        },
        {
          "internalType": "address",
          "name": "wallet",
          "type": "address"
        }
      ],
      "stateMutability": "view",
      "type": "function"
    },
    {
      "inputs": [
        {
          "internalType": "address",
          "name": "",
          "type": "address"
        }
      ],
      "name": "teachers",
      "outputs": [
        {
          "internalType": "string",
          "name": "name",
          "type": "string"
        },
        {
          "internalType": "address",
          "name": "wallet",
          "type": "address"
        }
      ],
      "stateMutability": "view",
      "type": "function"
    },
    {
      "inputs": [],
      "name": "treasury",
      "outputs": [
        {
          "internalType": "address",
          "name": "",
          "type": "address"
        }
      ],
      "stateMutability": "view",
      "type": "function"
    }
  ],
  "bytecode": "0x6080604052600160085560016009556001600a5534801561001f57600080fd5b5033600760006101000a81548173ffffffffffffffffffffffffffffffffffffffff021916908373ffffffffffffffffffffffffffffffffffffffff160217905550610b5d806100706000396000f3fe608060405234801561001057600080fd5b50600436106100a95760003560e01c80636e818598116100715780636e8185981461016c578063732872591461018a578063817dbe9f146101bb578063a6c807a9146101ee578063b9adc0191461021f578063f0a47f7814610253576100a9565b8063143c297c146100ae5780634e50c75c146100de57806361d027b3146101125780636c815d21146101305780636ca8cc8c1461014e575b600080fd5b6100c860048036038101906100c39190610756565b610284565b6040516100d59190610807565b60405180910390f35b6100f860048036038101906100f391906106f1565b6102d2565b604051610109959493929190610896565b60405180910390f35b61011a610355565b6040516101279190610807565b60405180910390f35b61013861037b565b604051610145919061087b565b60405180910390f35b610156610381565b604051610163919061087b565b60405180910390f35b610174610387565b604051610181919061087b565b60405180910390f35b6101a4600480360381019061019f919061071a565b61038d565b6040516101b2929190610822565b60405180910390f35b6101d560048036038101906101d091906106f1565b6103d8565b6040516101e5949392919061093c565b60405180910390f35b610208600480360381019061020391906106c8565b6104b0565b60405161021692919061084b565b60405180910390f35b610239600480360381019061023491906106f1565b61057c565b60405161024a9594939291906108e9565b60405180910390f35b61026d600480360381019061026891906106c8565b6105d2565b60405161027b92919061084b565b60405180910390f35b600360205281600052604060002081815481106102a057600080fd5b906000526020600020016000915091509054906101000a900473ffffffffffffffffffffffffffffffffffffffff1681565b60066020528060005260406000206000915090508060000154908060010160009054906101000a900473ffffffffffffffffffffffffffffffffffffffff16908060020154908060030160009054906101000a900473ffffffffffffffffffffffffffffffffffffffff16908060030160149054906101000a900460ff16905085565b600760009054906101000a900473ffffffffffffffffffffffffffffffffffffffff1681565b60095481565b60085481565b600a5481565b6005602052816000526040600020602052806000526040600020600091509150508060000160009054906101000a900460ff16908060000160019054906101000a900460ff16905082565b600260205280600052604060002060009150905080600001549080600101805461040190610a44565b80601f016020809104026020016040519081016040528092919081815260200182805461042d90610a44565b801561047a5780601f1061044f5761010080835404028352916020019161047a565b820191906000526020600020905b81548152906001019060200180831161045d57829003601f168201915b5050505050908060020154908060030160009054906101000a900473ffffffffffffffffffffffffffffffffffffffff16905084565b60016020528060005260406000206000915090508060000180546104d390610a44565b80601f01602080910402602001604051908101604052809291908181526020018280546104ff90610a44565b801561054c5780601f106105215761010080835404028352916020019161054c565b820191906000526020600020905b81548152906001019060200180831161052f57829003601f168201915b5050505050908060010160009054906101000a900473ffffffffffffffffffffffffffffffffffffffff16905082565b60046020528060005260406000206000915090508060000154908060010160009054906101000a900473ffffffffffffffffffffffffffffffffffffffff16908060020154908060030154908060040154905085565b60006020528060005260406000206000915090508060000180546105f590610a44565b80601f016020809104026020016040519081016040528092919081815260200182805461062190610a44565b801561066e5780601f106106435761010080835404028352916020019161066e565b820191906000526020600020905b81548152906001019060200180831161065157829003601f168201915b5050505050908060010160009054906101000a900473ffffffffffffffffffffffffffffffffffffffff16905082565b6000813590506106ad81610af9565b92915050565b6000813590506106c281610b10565b92915050565b6000602082840312156106da57600080fd5b60006106e88482850161069e565b91505092915050565b60006020828403121561070357600080fd5b6000610711848285016106b3565b91505092915050565b6000806040838503121561072d57600080fd5b600061073b858286016106b3565b925050602061074c8582860161069e565b9150509250929050565b6000806040838503121561076957600080fd5b6000610777858286016106b3565b9250506020610788858286016106b3565b9150509250929050565b61079b816109a4565b82525050565b6107aa816109b6565b82525050565b6107b9816109ff565b82525050565b60006107ca82610988565b6107d48185610993565b93506107e4818560208601610a11565b6107ed81610ad4565b840191505092915050565b610801816109f5565b82525050565b600060208201905061081c6000830184610792565b92915050565b600060408201905061083760008301856107a1565b61084460208301846107a1565b9392505050565b6000604082019050818103600083015261086581856107bf565b90506108746020830184610792565b9392505050565b600060208201905061089060008301846107f8565b92915050565b600060a0820190506108ab60008301886107f8565b6108b86020830187610792565b6108c560408301866107f8565b6108d26060830185610792565b6108df60808301846107b0565b9695505050505050565b600060a0820190506108fe60008301886107f8565b61090b6020830187610792565b61091860408301866107f8565b61092560608301856107f8565b61093260808301846107f8565b9695505050505050565b600060808201905061095160008301876107f8565b818103602083015261096381866107bf565b905061097260408301856107f8565b61097f6060830184610792565b95945050505050565b600081519050919050565b600082825260208201905092915050565b60006109af826109d5565b9050919050565b60008115159050919050565b60008190506109d082610ae5565b919050565b600073ffffffffffffffffffffffffffffffffffffffff82169050919050565b6000819050919050565b6000610a0a826109c2565b9050919050565b60005b83811015610a2f578082015181840152602081019050610a14565b83811115610a3e576000848401525b50505050565b60006002820490506001821680610a5c57607f821691505b60208210811415610a7057610a6f610aa5565b5b50919050565b7f4e487b7100000000000000000000000000000000000000000000000000000000600052602160045260246000fd5b7f4e487b7100000000000000000000000000000000000000000000000000000000600052602260045260246000fd5b6000601f19601f8301169050919050565b60038110610af657610af5610a76565b5b50565b610b02816109a4565b8114610b0d57600080fd5b50565b610b19816109f5565b8114610b2457600080fd5b5056fea264697066735822122054f0cab5c00da36b23afe0b207406871211e54c1faa501f0eac5e5252b8bc7e564736f6c63430008040033",
  "linkReferences": {},
  "deployedLinkReferences": {}
}